:100000000C94FC020C9419030C9419030C9419031E
:100010000C9419030C9419030C9419030C941903F0
:100020000C9419030C9419030C94C21A0C947E1AA4
:100030000C94CD1B0C9419030C9419030C94190304
:100040000C9419030C9419030C9419030C941903C0
:100050000C9419030C94A91B0C9419030C94190308
:100060000C9419030C9419030C9419030C941903A0
:100070000C9419030C9419030C9419030C94190390
:100080000C9419030C9419030C9419030C94190380
:100090000C9419030C9419030C9419030C94190370
:1000A0000C9419030C9419030C941903050109020B
:1000B000A10185020901A1000509190129081500FE
:1000C0002501950875018102050109300931158165
:1000D000257F95027508810609381581257F9501D0
:1000E00075088106050C0A38021581257F95017572
:1000F000088106C0C005010980A101850319012AF4
:10010000B700150126B700950175108100C0050CD8
:100110000901A101850419012AA002150126A002E6
:10012000950175108100C00660FF0961A101096297
:10013000150026FF00952075088102096315002629
:10014000FF00952075089102C005010906A101056F
:100150000719E029E7150025019508750181029529
:1001600001750881010507190029FF150026FF0008
:100170009506750881000508190129051500250156
:10018000950575019102950175039101C0FD377ABE
:10019000585A000004E6D6B44602002101160000B9
:1001A00000742FE5A3E0035F013E5D003D8889C632
:1001B0005436C3174FE4DCC3E6127E2D9A0347D0B2
:1001C0009FFE7CF1301D4E026EBF680140BAEBE726
:1001D0002D192CBA37C3E20A1621FA99D3B0C3E914
:1001E000345B4CF9969A7BADDE840B1E25765F7DE1
:1001F000AB7D012942CC1A4D39E22274A18D8E4E7D
:1002000005598377EDBEBF4B0CF6738C3BB4571189
:10021000DF3409670DCF1BD772FA9AF8D4F0BCD03F
:100220009ED9297D55BFAF7FF9539EA44595AC411A
:10023000F9355AAAD9119AD5C655BDFA0D39831583
:1002400076A8E953EC693C61EDFD63142FC0A23739
:10025000166E32D836B0C10F5532E3C1AC7A8A89F6
:10026000C6A85D8F30DBD67D3F6069CE5909945BAF
:1002700056B46E3ABDE3CAA605BA91B655F67631C4
:100280008DDBA42E670D89E7EA75A2D2D6A7D4D755
:1002900075EFC2E38227AD5875202C325469A3E96B
:1002A000E26F5C9CF3EB455DFE18FDB2A8D34313EF
:1002B0004E47F496B9A345194BD18221106838995D
:1002C0003C6B71BC7BF51109CD833023FB7D2C3752
:1002D000F60DBEDFCD0D30C179760A1D3DD6325FF9
:1002E000EED4EAD57E852E9834000000008CA7E776
:1002F000059E323F240001DA02E00600007E85C23E
:10030000D8B1C467FB020000000004595A29001E3E
:10031000001F00200021002200230024002B0014D5
:10032000001A000800150017001C0018003900040E
:10033000001600070009000A000B000D00E1001D77
:10034000001B000600190005001100100025002602
:100350000027002A000C00120013004C000E000FB2
:1003600000330034003600370038002800A800E0D1
:1003700000E200E30021522C002C00225200000079
:1003800000000000005000510052004F0035021ED6
:10039000021F022002210222022302240235021E31
:1003A000021F02200221022202230224024C003AF0
:1003B000003B003C003D003E003F002D020100409C
:1003C000004100420043004400450032022502265D
:1003D0000227024C002502260227024C002E022F83
:1003E000023002310264024A004D000100010001A6
:1003F00000010001000100010001000100000000F7
:100400000000000000AB00AA00A900AE0035001EED
:10041000001F002000210022002300240035001EC0
:10042000001F00200021002200230024004C003A7D
:10043000003B003C003D003E003F002D000100401D
:1004400000410042004300440045003200250026E0
:100450000027004C002500260027004C002E002F0E
:10046000003000310064004B004E0001000100012B
:100470000001000100010001000100010000000076
:100480000000000000AB00AA00A900AE0009025B5A
:1004900000030100A0FA09040000010301010009A2
:1004A0002111010001224400070581030800010910
:1004B00004010002030000000921110100012222B1
:1004C000000705820320000107050303200001093E
:1004D0000402000103000000092111010001227B38
:1004E000000705840320000112010002000000083B
:1004F000868058560001010203011C037600690042
:1005000061006C003A00660036003400630032007F
:1005100062003300630000001603430059004F00DF
:10052000410020004F007200740068006F0000005E
:1005300012035300540048004C004D0020006B0093
:100540006200000004030904000000000000000035
:10055000000000000000000000000000000000009B
:100560000000000000000000000000007E0F00D42A
:10057000FFFFFFC70000007800000000000000003F
:100580002A2B2800000000000000000000000000EE
:1005900000000029000000002C1E342021222434F9
:1005A0002627252E362D3738271E1F2021222324CB
:1005B00025263333362E37381F0405060708090A67
:1005C0000B0C0D0E0F101112131415161718191A03
:1005D0001B1C1D2F3130232D350405060708090A81
:1005E0000B0C0D0E0F101112131415161718191AE3
:1005F0001B1C1D2F3130354C11241FBECFEFDAE00C
:10060000DEBFCDBF11E0A0E0B1E0E4E1F7E402C05D
:1006100005900D92AE37B107D9F722E0AEE7B1E011
:1006200001C01D92AC35B207E1F70E94F41B0C9497
:100630003B230C940000482F2091580290911F02F8
:1006400057E0291302C080E0089530E0529FF00186
:10065000539FF00D1124E05EFD4F8181681306C0A9
:100660008081481303C085818111EECF2F5F3F4FFA
:100670002770E7CFE8EDF0E080818E7F80831092D5
:10068000E2001092DA001092E100A0EEB0E08C914E
:1006900081608C9380818F77808319BCA7EDB0E057
:1006A0008C918E7F8C9380818F7E808310920A0242
:1006B00008952091E4003091E50095E6A90120918C
:1006C000EC00822F817020FF06C08091E80080FF3F
:1006D00006C080E008952091E80022FD1AC08091B4
:1006E0001502882389F0853089F08091EB0085FD23
:1006F0000FC02091E4003091E50042175307F9F252
:100700009150E1F684E0089582E0089583E0089531
:1007100081E008958091170287FF13C08091E8005F
:1007200082FF06C08091E8008B778093E80004C0C8
:10073000809115028111F2CF0895809115028823CE
:10074000D9F38091E80080FFF8CF8091E8008E77A0
:10075000ECCF982F9093E900242F762F50E0891743
:1007600031F07091EC002091ED005091F00021FDEE
:1007700007C09F5F973071F78093E90081E008958B
:100780003091EB003E7F3093EB003091ED003D7FE8
:100790003093ED003091EB0031603093EB007093BB
:1007A000EC002093ED005093F0002091EE0027FD27
:1007B000E0CF80E00895B0E0A0E0E1EEF3E00C943B
:1007C0008B22C8EDD0E088818F7E8883E7EDF0E052
:1007D00080818160808384E082BF81E080930A020F
:1007E00088818E7F888302EE10E0F80110821092DB
:1007F000DA0081EEC82ED12CF601108288818F7725
:10080000888388818068888388818F7D888319BCEC
:1008100010921502109216021092140210921302F6
:1008200090EEE92EF12CF70180818B7F8083888107
:100830008160888342E060E080E00E94A903F601C5
:1008400080818E7F8083F8018081816080838081B8
:1008500088608083F70180818E7F808388818061BA
:100860008883CDB7DEB7E8E00C94A722FC01809125
:100870001D0290911E0286179707A0F06115710561
:1008800029F49091E8009E779093E80090E061153C
:10089000710551F4911108C08091E80082FF34C0C5
:1008A00080E00895BC01F2CF809115028823C1F148
:1008B0008530C1F18091E80083FD30C08091E8006F
:1008C00082FDEACF8091E80080FFE1CF8091F300C4
:1008D0002091F200382F6115710519F0283031058B
:1008E00058F091E02830310509F090E02091E800BF
:1008F0002E772093E800CBCF81918093F100615057
:1009000071092F5F3F4FE7CF80911502882341F097
:10091000853041F08091E80083FFBECF81E00895EB
:1009200082E0089583E00895089587E797E790931C
:1009300001088093000888E19AE00FB6F894A89522
:10094000809360000FBE90936000FFCF2FB7F894A4
:10095000609106027091070280910802909109024D
:100960002FBF08952FB7F894809106029091070247
:10097000A0910802B09109022FBF089580910B0148
:1009800008959C01FC0132969FEF80E0419146174B
:1009900051F09F3F19F4411101C0982F8F5F8630AD
:1009A000A9F79F3F09F40895290F311D97FD3A9546
:1009B000F90162830895A3E0B0E0E1EEF4E00C9465
:1009C0009122209103023091040228173907A1F0E7
:1009D0009093040280930302E0910102F0910202DD
:1009E000309751F024E029839B838A830084F1852A
:1009F000E02DCE01019609952396E2E00C94AD22FC
:100A0000A3E0B0E0E6E0F5E00C9491222091FF0134
:100A10003091000228173907A1F0909300028093CB
:100A2000FF01E0910102F0910202309751F023E0C2
:100A300029839B838A830084F185E02DCE01019672
:100A400009952396E2E00C94AD22E0910102F09129
:100A50000202309729F00190F081E02D0995089568
:100A600080E008950E94B2049C019091FB01809166
:100A7000FC01982B21F03093F8012093F70190911D
:100A8000FD018091FE01982B21F03093F601209317
:100A9000F501E0910102F0910202309749F082E005
:100AA0008093F9010680F781E02D89EF91E00995A7
:100AB00008958091F40180FD16C081FD16C082FD6D
:100AC00016C08091F3018823A1F0883280F428E0D9
:100AD000829FC001112468E270E00E946022862F8C
:100AE000672B39F0089582E0089584E0089588E046
:100AF000089581E008958091F40180FD14C081FD86
:100B000014C082FD16C08091F201882381F08E31DD
:100B100080F420E5829FC00111246EE170E00E9404
:100B20006022862F089584E1089588E2089588E080
:100B3000089580E50895282F35EB2303C001112483
:100B400097FF04C080589109892F089580589F4FBE
:100B5000FBCF23E9611122E989B190E02F7002C037
:100B6000959587952A95E2F78170089523E961119B
:100B700022E93AB12F7081E090E001C0880F2A95F8
:100B8000EAF7982F909593239AB99BB1892B8BB94B
:100B900008959091EA01E92FF0E04091EB019F0167
:100BA0002F5F3F4F2370332742171306A9F0E451FC
:100BB000FE4F282F2F7780818078822B60FB87F96A
:100BC00080839F5F93709093EA018091E8018F5F2B
:100BD0008093E80181E0089580E0089580E0089521
:100BE000F894E82FE295EF70F0E031A1282F2F70F4
:100BF00081E090E001C0880F2A95EAF7982F909540
:100C0000932391A392A1892B82A378940895909124
:100C1000C80192FF10C041E0282F2471243009F050
:100C200040E031E0282F2871283009F030E04317E8
:100C300011F02CE0822793FF10C041E0282F24718F
:100C4000243109F040E031E0282F2871283109F0E3
:100C500030E0431711F02CE082273091C90130FFBA
:100C600010C051E0282F2171213009F050E041E0FF
:100C7000282F2871283009F040E0541711F029E09E
:100C8000822731FF10C041E0282F2171213109F066
:100C900040E031E0282F2871283109F030E0431777
:100CA00011F029E0822794FD877E0895823891050E
:100CB000B9F1B0F48133910509F47DC048F489326B
:100CC000910509F46DC08A32910509F47BC008953D
:100CD0008533910509F45FC08933910509F10895C1
:100CE000833E9105D9F138F4803E910529F1823E89
:100CF000910579F10895863E9105D9F1873E9105D8
:100D000009F43EC0843E910541F52091C90121FFBF
:100D100024C08091C80184FD19C087EE90E0089539
:100D20002091C801237009F05AC02091C90123FF06
:100D300014C089E290E008952091C80120FD38C0D8
:100D40003091C90130FF09C024FF43C090E080E02A
:100D500008952091C80122FDF7CF08952091C80180
:100D600022FD3AC03091C90130FD39C024FFF5CFD2
:100D7000EDCF2091C80123FFF0CF24FDE7CFCDCFE9
:100D80002091C80123FD2EC03091C90131FFEECF63
:100D900084EE90E008952091C80125FFDECFC9CFF1
:100DA0002091C80125FD21C02091C90123FFD5CF85
:100DB00089E390E0D2CF2091C80126FFCECF8AE20E
:100DC00090E008952091C80126FFC7CF81E390E00D
:100DD000089583EE90E0089582EE90E0089580EE0D
:100DE00090E0089586EE90E0089585E390E0089500
:100DF0001F93CF93DF930E945606EC01C11580E547
:100E0000D807F0F5C11580E4D80708F09CC0C03EB3
:100E1000D10520F5CD3CD10508F082C0C83AD105F6
:100E200078F4C53AD10508F073C0C130D10519F185
:100E3000209709F1C430D105F0F4D0E0C0E01BC028
:100E4000C33CD105D0F7C85AD0E0CC0FDD1FC75E38
:100E5000DE4F0990D881C02DD4640DC0C11580E249
:100E6000D80708F0D1C0C11581E0D80708F05AC0F2
:100E7000C83ED10510F7CE01DF91CF911F910895A3
:100E8000C03682E5D80718F5C03482E5D80708F0E7
:100E90006BC0C03282E5D80708F05FC0C11582E59B
:100EA000D80708F497C02C2F2695269580E2289F16
:100EB000900111248C2F8370C1E0D0E002C0CC0FD0
:100EC000DD1F8A95E2F7C22BD32BDD68D4CFC03A61
:100ED00082E5D80760F4C03882E5D80708F459C025
:100EE000CF71D0E0DC2FCC27C46FD06AC4CFC03C18
:100EF00082E5D80708F462C0C03E82E5D80708F052
:100F00009CCFDC2FCC27CC27DF71C06FD06AB3CF4A
:100F1000C55AD0E0CA5EDE4FC881D0E0D064ABCF06
:100F2000D065A9CF8D2F0E940706182FCE019927D3
:100F30000E945606C12FD0E0DC2FCC27CC27DF71D2
:100F4000C82BD92B98CFCE0199270E945606CC27C3
:100F5000DF70C82BD92BD06A8ECFCF71D0E0DC2FB9
:100F6000CC27C16FD06A87CF2C2F26952695277066
:100F700080E2289F900111248C2F8370C1E0D0E083
:100F800002C0CC0FDD1F8A95E2F7C22BD32BDC68A1
:100F900072CF2C2F26952695277080E2289F9001EE
:100FA00011248C2F8370C1E0D0E002C0CC0FDD1F74
:100FB0008A95E2F7C22BD32BDA685DCF8C2F8F7125
:100FC0000E940706C82FD0E0DC2FCC27CC27DF718A
:100FD000D06251CF8C2F8F710E94070655E0D695B5
:100FE000C7955A95E1F7CF70D0E0DC2FCC27282F9A
:100FF00030E084FF05C044E0220F331F4A95E1F73B
:10100000C22BD32BD06937CF8D2F8F710E9407064B
:10101000182FCE0199270E945606C12FD0E0DC2F51
:10102000CC27CC27DF71C82BD92BD2CF8091B80128
:10103000882331F01092B8011092B7011092B601D6
:1010400008959091B801292F282361F08095892374
:101050008093B801882339F00E94B2049093B701BD
:101060008093B601089590E080E0F8CF809590914C
:10107000B50198239093B50108951092AB01109299
:10108000AA011092A90108959091A801292F28235F
:1010900021F0809589238093A801089580915802BA
:1010A00090911F02981301C008958F5F8770FACF47
:1010B000983080F5883070F548E0949F90011124B5
:1010C000820F932F911D682F677023E09695879567
:1010D0002A95E1F7FC01EE0FFF1FE80FF91FE75714
:1010E000FE4F50E040E080E0219130E0062E02C04B
:1010F000369527950A94E2F721703327042E01C014
:10110000220F0A94EAF7822B4F5F5F4F433051055D
:1011100059F7089580E00895983098F5883088F55B
:1011200048E0949F90011124820F932F911D282F46
:10113000277041E001C0440F2A95EAF723E0969515
:1011400087952A95E1F7FC01EE0FFF1FE80FF91FC5
:10115000E757FE4F90E080E070E05191DF0111977A
:101160009B01082E02C0369527950A94E2F721705C
:1011700021952527242325272C930196833091053B
:1011800061F708958093C70108959091C70121E008
:1011900030E0F90101C0EE0F8A95EAF7D90102C0EB
:1011A000AA0FBB1F6A95E2F7EA2B01C0220F4A95EE
:1011B000EAF7892F8E23E81305C0292B822F0E947E
:1011C000C208089520952923F9CF21E030E001C01D
:1011D000220F8A95EAF720958091C70182230E9409
:1011E000C20808959091AB01809589238093AB014B
:1011F000282F277069F4891759F09091C90192FF3F
:1012000007C08695869586950E94E5080E943D0850
:10121000089521E030E001C0220F8A95EAF780911D
:10122000C701822B0E94C20808959091C90192FFC4
:1012300010C098E0899F90011124622B6093AB014C
:101240000E9409090E94B2049093AA018093A90107
:1012500008950E94090908958093C60108956623A0
:1012600009F45DC08D3C41F40E947B05819580931B
:10127000FC010E94320508958E3C19F40E947B0502
:10128000F6CF8F3C31F40E947B0581958093FB0162
:10129000F0CF803D19F40E947B05F8CF893D29F4F9
:1012A0000E9459058093FD01E4CF8A3D21F40E94FC
:1012B00059058195F7CF8B3D31F40E9459058195F1
:1012C0008093FE01D6CF8C3D19F40E945905F8CFCA
:1012D0009FE2980F983070F4815D990B21E030E027
:1012E00001C0220F8A95EAF78091FA01822B809340
:1012F000FA01BFCF8D3D31F48091F401816080937C
:10130000F401B7CF8E3D21F48091F4018260F7CFD4
:101310008F3D09F0AECF8091F4018460F0CF409111
:10132000FB018D3C59F48091FC0187FF0DC01092A8
:10133000FC0141110BC01092F20108C08E3C81F4F7
:101340008091FC0118169CF3442381F08091FD01EB
:101350009091FE01892B09F08CCF1092F30189CF77
:101360008F3C49F447FFF0CF1092FB018091FC01C4
:101370008111ECCFE0CF803D19F41416ACF3E4CF2B
:101380009091FD01893D29F41916F4F61092FD01A2
:10139000DBCF8A3D19F497FFD7CFF8CF9091FE01AC
:1013A0008B3D29F497FFD0CF1092FE01CDCF8C3D1D
:1013B00019F41916CCF3C8CF9FE2980F983090F427
:1013C000815D990B21E030E0B90102C0660F771F03
:1013D0008A95E2F7CB0180959091FA018923809359
:1013E000FA01B2CF8D3D31F48091F4018E7F80936C
:1013F000F401AACF8E3D21F48091F4018D7FF7CFC7
:101400008F3D09F0A1CF8091F4018B7FF0CF9C013B
:101410003A9521153F4150F5FC01EE27F170BC01D2
:1014200066277270AC01442754709C0122273870E3
:1014300094FF0EC080E1EF2B09F480E0672B09F0E8
:101440008062452B09F08064232B89F08068089521
:1014500081E0EF2B09F480E0672B09F08260452BD7
:1014600009F08460232B19F08860089580E00895C6
:101470000F931F93CF93DF938B01EA019091150295
:10148000943061F58093E9008FEF9091E8008150EE
:1014900095FD06C095ED9A95F1F700008111F5CF05
:1014A0008091E80085FF1AC00E945903811111C084
:1014B0008091E80085FD06C08091E8008E778093DA
:1014C000E800F2CFF80181918F018093F10021971C
:1014D00079F78091E8008E778093E800DF91CF91D3
:1014E0001F910F91089543E050E0BC0184E00E94F9
:1014F000380A089546E050E0BC0184E00E94380AB2
:101500000895CF93DF93EC0148E050E0BC0181E007
:101510000E94380A88E0FE01ABE0B2E001900D9233
:101520008A95E1F7DF91CF910895CF93C82F6FEFA0
:10153000811164E184E290E00E9407236FEFC11102
:1015400068EF85E290E00E9407236FEFC11168EC1D
:1015500086E290E00E940723CF910895CF93DF9316
:10156000C4EBD1E060E0CE010E9407232196C115B3
:1015700084E0D807B9F7DF91CF9108951F93CF93F7
:10158000DF93122F8330E8F46830D8F44830C8F481
:1015900020E1629FE001112450E0440F551FC40F69
:1015A000D51F20E8829FC0011124C80FD91F632FC7
:1015B000CE0188960E940723612FCE0189960E9452
:1015C0000723DF91CF911F9108958F929F92AF9241
:1015D000BF92CF92DF92EF92FF921F93CF93DF9350
:1015E0008090F0019090F10181E090E09093F10102
:1015F0008093F0018DE0C82E83E0D82ED0E07601F4
:10160000C0E014C0F50125913491412F6C2F8D2F2E
:101610000E94BE0A82E0A80EB11C1F5F183091F72D
:1016200080E1E80EF11CCF5FC83019F0570110E0DF
:10163000E9CFDF5F80E8C80ED11CD33001F790926C
:10164000F1018092F001DF91CF911F91FF90EF9017
:10165000DF90CF90BF90AF909F908F90089580E0E3
:101660000E94950A60E087E290E00E9407230E94B2
:10167000E50A0E94AE0A81E00E94950A089584E27C
:1016800090E00E94E922843189F485E290E00E9492
:10169000E922883F59F486E290E00E94E92291E035
:1016A000883C09F090E0892F8170089580E0FCCF9C
:1016B0000F931F93CF93DF93833038F5683028F56D
:1016C000483018F520E1629F8001112450E0440F5A
:1016D000551F040F151F30E8839FC0011124080F08
:1016E000191FC80188960E94E922C82FD0E0DC2F7C
:1016F000CC27C80189960E94E9229E01282BC901A6
:10170000DF91CF911F910F91089590E080E0F8CF85
:10171000462F2091E4013091E501232B99F4703F8D
:1017200039F4603F79F48091E6019091E7010895E2
:10173000783040F4683030F4833020F4672F0E9412
:10174000580B089590E080E00895CF92DF92FF92C9
:101750000F931F93CF93DF936C010091C70180918A
:10176000C601082BC2E0D0E010E0FC2EC8010C2E10
:1017700002C0959587950A94E2F780FD0CC02197E9
:10178000A0F7F12C8F2DDF91CF911F910F91FF903A
:10179000DF90CF900895B6018C2F0E94880B0E9495
:1017A000F806019761F3EECFCF93DF93EC010E942F
:1017B000A50BBE010E94880B0E94F806DF91CF9115
:1017C0000895FC0124812223C1F0808191810E942F
:1017D000D40B92959F70963091F058F4925F9F7061
:1017E000923058F4803F19F030F4883E30F481E0B4
:1017F00008959A5FF4CF843FD1F380E00895883E46
:10180000B0F3813FD1F7F3CFA6E0B0E0EAE0FCE02F
:101810000C94902226E0FC01DE01119601900D92BD
:101820002A95E1F7FC01258189819A81222399F08B
:10183000662389F00E94A50B182F682F89819A8151
:101840000E948C0869817A81812F0E94880B2696DC
:10185000E3E00C94AC220E945808182FF3CF90912B
:10186000C90192FB222720F9281779F080FB92F911
:101870009093C9016091C8017091C90184E090E022
:101880000E94252382E00E94F2080895CF93C09120
:10189000B5018091AC01C82B8091B8018823F9F083
:1018A0000E94B2042091B6013091B701821B930BC4
:1018B0008838934110F00E9416088091B801C82B17
:1018C00020E082E891E0FC013191CF0131112F5FDE
:1018D000F1E088389F07B9F721110E941608C093DC
:1018E000800148E050E06DEA71E080E891E00E94FC
:1018F000D522892BA9F088E0E0E8F1E0ADEAB1E07B
:1019000001900D928A95E1F7E0910102F0910202B7
:10191000309731F00280F381E02D80E891E0099565
:10192000CF910895CF931092B501C6E0E2E8F1E0BF
:10193000DF018C2F1D928A95E9F790E080E00E94EC
:10194000000590E080E00E94DB041092AC010E9450
:10195000460CE9EFF1E0DF011D92CA95E9F710921C
:10196000F2011092F3011092F4010E943205CF911E
:101970000895AAE2B0E0EFEBFCE00C94902287E13E
:1019800092E02091F100DC012D93CD01B2E08F3186
:101990009B07B9F780911802833009F472C0B8F43C
:1019A000813009F449C0823009F4B7C08091E80061
:1019B00083FF3FC180911702909118029A3008F07E
:1019C00038C1E92FF0E0E35CFC4D0C9474228A30BE
:1019D00009F492C08B3009F471C0893039F78091D5
:1019E0001702813219F780911B0290911C02009717
:1019F00011F00297D9F68091E800877F8093E80084
:101A00008091E80082FF38C09091F3008091F2004D
:101A1000029731F48091F100813011F0863021F489
:101A20008091F10080930B018091E8008B77809387
:101A3000E8000E948A03BACF80911702813A09F028
:101A4000B5CF8091E800877F8093E80080911B02EA
:101A500090911C02892B61F468E08BE092E070E0C9
:101A60000E9436048091E8008B778093E8009ECF37
:101A700060E090E080E0F3CF809115028111C0CF4B
:101A800095CF80911702813A09F090CF80911B0287
:101A900090911C02892B09F089CF8091E800877F03
:101AA0008093E8008091E80080FFFCCF80910C01DA
:101AB0008093F1008091E8008E77B9CF8091170272
:101AC000813209F073CF80911B0290911C02892B07
:101AD00009F06CCF8091E800877F8093E8000E9436
:101AE0008A0381E090911902911101C080E08093F6
:101AF0000C010E94920C5ACF80911702813209F09A
:101B000055CF8091E800877F8093E8000E948A0388
:101B100080911A0280930A0149CF80911702813A7D
:101B200009F044CF8091E800877F8093E80080919E
:101B3000E80080FFFCCF80910A01BACF803899F08D
:101B4000823809F076C080911B028F70873008F0D0
:101B500070C08093E9008091EB0085FB882780F9B5
:101B60001092E90006C08091130290911402911125
:101B700082609091E800977F9093E8008093F10055
:101B80001092F1008091E8008E77C3C1882309F498
:101B9000B0C1823009F04DC0809119028111B4C1E9
:101BA00080911B028F702FEF280F263008F041C064
:101BB0008093E9002091EB0020FFA6C1933031F41F
:101BC0008091EB0080628093EB009EC19091EB00CE
:101BD00090619093EB0021E030E001C0220F8A95E4
:101BE000EAF72093EA001092EA008091EB00886007
:101BF000EACF81111EC0109119021F778091E30076
:101C00008078812B8093E3008091E800877F809328
:101C1000E8000E948A038091E80080FFFCCF809159
:101C2000E30080688093E30082E0111183E08093F9
:101C300015028091E80083FF0AC08091E800877F49
:101C40008093E8008091EB0080628093EB00AA967D
:101C5000E3E00C94AC228058823058F720911902AE
:101C600030911A022C3DE3E03E07A1F583E08A8320
:101C70008AE289834FB7F894DE01139620E03EE0B4
:101C800051E2E32FF0E050935700E49120FF03C0AE
:101C9000E295EF703F5FEF708E2F90E0EA30C0F07A
:101CA000C7968D939D932F5F243159F74FBF809135
:101CB000E800877F8093E8006AE270E0CE01019639
:101CC0000E9436048091E8008B778093E800B1CFC2
:101CD000C096E7CF80911B0290911C02432F55279D
:101CE0004330510509F44AC078F54130510509F4F3
:101CF00085C08BE590E0EDE8F4E04230510509F055
:101D000098CF2091E800277F2093E80020911D02C2
:101D100030911E028217930708F49C0140E02115C0
:101D2000310509F070C041116EC08091E80082FD5C
:101D3000C9CF80911502882329F2853019F280914C
:101D4000E80083FFF2CFBECF4132510509F447C00E
:101D50004232510509F06DCF8330910508F069CF0B
:101D6000FC01EE0FFF1FEE58FE4F0190F081E02DB9
:101D700081599E4FDC018C9190E01DC033272130AA
:101D80003105E9F02115310579F022303105F9F0FE
:101D90002330310509F04DCFEAEFF4E0E4918E2FC6
:101DA00090E0EAEFF4E007C0E4E4F5E0E4918E2F80
:101DB00090E0E4E4F5E0009709F43BCFA2CFE0E344
:101DC000F5E0E4918E2F90E0E0E3F5E0F4CFE8E178
:101DD000F5E0E4918E2F90E0E8E1F5E0ECCF833080
:101DE000910508F026CF880F991FFC01E858FE4F97
:101DF0000190F081E02D89E090E083CF82E190E0D6
:101E0000E8EEF4E07ECF80911502882309F45ACFE2
:101E1000853009F457CF8091E80083FD53CF80913E
:101E2000E80082FD82CF8091E80080FF78CF90911A
:101E3000F3008091F2002115310519F088309105E9
:101E400050F041E0089709F040E08091E8008E777B
:101E50008093E80064CF44914093F1003196215083
:101E600031090196E8CF803809F0E3CE8091E8008F
:101E7000877F8093E800809116028093F10082CEE4
:101E80008111D7CE10911902123008F0D2CE809174
:101E9000E800877F8093E800109316020E948A036F
:101EA000112311F084E005C08091E30087FDFACF93
:101EB00081E08093150242E061EC81E00E94A90379
:101EC00042E261EC84E00E94A90342E261EC82E01C
:101ED0000E94A90342E260EC83E00E94A903809182
:101EE0001502843021F081E080930D01A2CE82E0C2
:101EF000FBCF80911902813009F09BCE81E09330B5
:101F000009F080E0809314021092E9008091E800CB
:101F1000877F8093E8000E948A038BCE0E94920CF8
:101F20002FEF84E39CE0215080409040E1F700C017
:101F3000000088E19AE00FB6F894A89580936000BD
:101F40000FBE90936000FFCF882341F08095909161
:101F5000AC0189238093AC010E94460C089588232C
:101F600039F09091AC01982B9093AC010E94460CF3
:101F70000895882321F00E9436080E94460C089597
:101F8000882339F09091B501982B9093B5010E9468
:101F9000460C08958823D1F19CEF980F913A78F47C
:101FA000E2E8F1E09191891303C0DF0111971C92DF
:101FB00091E0E838F907B1F70E94460C089590E2E5
:101FC000980F983050F4877091E001C0990F8A956E
:101FD000EAF7892F0E943608EFCF9BE5980F9330E0
:101FE00028F490E080E00E940005089598E5980F9D
:101FF0009B3128F490E080E00E94DB04089593E395
:10200000980F933118F460E00E942F090895CF9340
:10201000C82F8823B1F08CEF8C0F813A00F5E2E8ED
:10202000F1E088E891E0DF012D91C21761F08A1795
:102030009B07D1F76C2F80E891E00E94C1040E94B9
:10204000460CCF9108952191C21303C0DF0111976F
:102050001C928E179F07B9F70E94460CEBCF80E2C7
:102060008C0F883068F4C77021E030E001C0220F87
:10207000CA95EAF78091B501822B8093B501DFCF35
:10208000EBE5EC0FE33040F4F0E0EA5EFE4F8081D8
:1020900090E00E940005D5CFE8E5EC0FEB3150F45D
:1020A000F0E0EE0FFF1FE75EFE4F808191810E94FE
:1020B000DB04C7CF83E38C0F833118F661E08C2FEC
:1020C0000E942F09BECF1F93CF93DF93182FEB01F0
:1020D0000E940710209739F4812F0E94CA0FDF91C8
:1020E000CF911F9108958FE99FE00197F1F700C00C
:1020F00000002197EFCFEF92FF920F931F93CF93A2
:10210000DF93C62FD42F022FFC0185818823A9F0ED
:1021100060935B020E94B20490935A02809359022A
:10212000C77081E001C0880FCA95EAF70E94C00F0E
:10213000CDB7DEB7E6E00C94A92280915B0268136C
:1021400036C0E0905902F0905A020E94B2048E19F3
:102150009F09883C910558F510E21D0FCD17B9F085
:1021600080E28C0F883040F4C77081E001C0880F96
:10217000CA95EAF70E94B90F183048F481E09D2F04
:10218000977001C0880F9A95EAF70E94C00F70E01F
:1021900060E0802F0E946310183050F6D77081E005
:1021A00001C0880FDA95EAF70E94B90FC1CFC77056
:1021B00081E001C0880FCA95EAF7F6CFB0E0A0E051
:1021C000E4EEF0E10C948922FC018AE0A82EDF0104
:1021D0002D918D012223E9F1213009F054C0818134
:1021E000813069F482818F010D5F1F4F70E060E0E4
:1021F000893311F460E570E00E94631008C08230FA
:1022000041F48F010D5F1F4F82810E940710F8017A
:10221000DECF833039F48F010D5F1F4F82810E9422
:10222000CA0FF5CF8F010E5F1F4F843081F482817A
:102230008F010D5F1F4F30E020E0682F6053770B58
:10224000AB016A30710550F02115310599F4811107
:10225000DECFCDB7DEB7EAE00C94A522A29EC00186
:10226000A39E900D11249A01280F391FF801819126
:102270008F01E3CFAFE9BFE01197F1F700C0000095
:1022800021503109E1CFE22FF0E0E858FA4FB49045
:10229000822F86958695869590E0FC01E859FA4F45
:1022A000E4902770F12C022E02C0F594E7940A9472
:1022B000E2F7B1E0EB22FF24FC01E85AFA4FC490A8
:1022C000D12C022E02C0D594C7940A94E2F7E1E023
:1022D000CE22DD24FC01E85BFA4FC491D0E002C0BD
:1022E000D595C7952A95E2F7C170DD27E114F10471
:1022F00019F081EE0E940710C114D10419F086EE86
:102300000E94071070E060E08B2D0E946310C114E2
:10231000D10419F086EE0E94CA0FE114F10419F0FD
:1023200081EE0E94CA0FCD2B09F471CF70E060E0FE
:102330008CE262CFA4E0B0E0E0EAF1E10C9482220A
:102340008C01FC018481882309F4E7C061E0C801A5
:102350000E94040C7C01F8018581882309F4BDC02A
:10236000970137572038310508F0C3C4DE2CFFE051
:10237000FE1508F4C3C08FEF93E00E94E92281119B
:10238000BDC064EBE62EFF24F394D11039C054E0B5
:10239000352EAE014F5F5F4F3A0144244A94F3015A
:1023A000232D11922A95E9F767013FEFC31AD30A4B
:1023B000C7010E94E9228983882309F49FC08130E4
:1023C000D9F4570142E0A40EB11CC6010E94E922D3
:1023D000582E8A83882309F491C08FEF850D8330AE
:1023E000F0F4670153E0C50ED11CC5010E94E9223B
:1023F0008B83882309F445C0C3010E94DE1041C0CD
:10240000E11424E0F20609F479C0C7010E94E92230
:10241000811101C0DA943FEFE31AF30AB6CF8BEFD4
:10242000850D833080F5470183E0880E911CC5013E
:102430000E94E9228B836401882319F1670194E0EB
:10244000C90ED11CC4010E94E9228C838823C9F0E3
:10245000EB80FC80E1E0EE16EFEFFE0610F0FE2CC4
:10246000EE24F6E05F1651F027E0521619F0C7018E
:102470000E945219C7010E941A1903C0C7010E9485
:10248000521976018CCF34E065015312FACFC501A1
:102490000E94E922B82E670144E0C40ED11CC70196
:1024A00003960E94E922BB2049F1882339F1E82FE5
:1024B000E150FF0B4E9EC0014F9E900D11244B2DFD
:1024C0004150550B840F951F0197D8F2EFE9FFE0BB
:1024D0003197F1F700C00000F7CFF701E851FC4752
:1024E000E730F10508F0EDC3E95BFC4D0C94742274
:1024F00026E241EE61EEC8010E947B108091AB01A3
:10250000877059F0F8018581882339F08091C901DD
:1025100082FF03C082E00E94F2082496E1E10C945D
:102520009E2227E245EE65EEE6CF26E241EE60EE22
:10253000E2CF27E245EE64EEDECF26E241EE62EE28
:10254000DACF27E245EE66EED6CF28E241E0EBCFC8
:102550008091C80181608093C80195C08091C901B4
:1025600088608093C9018FC08091C8018260F3CFD9
:102570008091C8018460EFCF8091C8018860EBCF63
:102580008091C9018160EDCF8091C9018260E9CF5E
:102590008091C8018061DFCF8091C8018062DBCF6C
:1025A0008091C8018064D7CF0E94920C8091C801AD
:1025B0008068D1CF8091C8018C60CDCF8091C90156
:1025C0008360CFCF8091C8018E7FC5CF8091C90134
:1025D000877FC7CF8091C8018D7FBDCF8091C80113
:1025E0008B7FB9CF8091C801877FB5CF8091C9011A
:1025F0008E7FB7CF8091C9018D7FB3CF8091C80105
:102600008F7EA9CF8091C8018F7DA5CF8091C80111
:102610008F7BA1CF0E94920C8091C8018F779BCFB6
:102620008091C801837F97CF8091C9018C7F99CF1A
:102630008091C80182FB992790F921E0922790FBB5
:1026400082F990FB83F987CF8091C901982F9095EB
:1026500091708E7F892B90FB81F983CF9091C80177
:10266000892F8F7B96FF806476CF0E94920C909189
:10267000C801892F97FB87F980586DCF61E08EE004
:1026800090E00E9407236091C8017091C90184E025
:1026900090E00E9425230E94920C30CF60E0EFCFA3
:1026A0009091C801892F8F7E94FF806154CF9091C3
:1026B000C801892F8E7F90FF81604DCF9091C90115
:1026C000892F877F93FF88604CCF85E304C327E77A
:1026D000E2162CE7F20601F138E7E3163CE7F306D1
:1026E00041F19701205E32452032310520F58111FC
:1026F00037C0EE2DEF7181E090E07C0102C0EE0C5E
:10270000FF1CEA95E2F76E2D83E090E00E9407231C
:102710008E2D0E942C09F2CE81E00E94090943E02F
:1027200062E081E00E94C508E9CE81E00E94E508F0
:10273000F6CF82E0F2CF882399F043E0E4164CE72D
:10274000F40609F47DC008F05CC0E1148CE7F806DB
:1027500009F469C091E0E9169CE7F90609F476C02E
:10276000F8018581E080F180882309F47DC0C701EC
:102770000E94A50BD82E682FC7010E948C08B701B4
:102780008D2D0E94880B0E94F8067C01882EF8018E
:10279000A580968092943FE093228091AB01877050
:1027A00009F1DA2CAA20F9F08F2D807F803469F0AE
:1027B00080E28E0D8830B0F08F2D807E803229F43B
:1027C000F1E0FE1578F4992069F08091C90182FF4B
:1027D00009C082E00E94F2088091AB018770DD247D
:1027E000D3948111D12CCF2CC2942FE0C2222BE0A4
:1027F0002C1508F4A0C0EC2DF0E0E25BFC4D0C942D
:102800007422EBE5EE16ECE7FE0661F1FCE5EF164F
:10281000FCE7FF06E9F02AE5E2162CE7F20609F0EC
:102820009FCF81E01CC00E94920C3FEF44E35CE02C
:10283000315040405040E1F700C000000E94950434
:102840006FEF7FEF90E080E00E9425230E948E0FC3
:102850008091C90182FB882780F991E089270E9435
:102860002F0C7ECF80E0FBCFC7010E945808D82EE6
:1028700086CF3F2D3F70B32E8F2D807F19F0B294FD
:1028800090EFB922AA20B9F0BB2069F080E28E0D4A
:10289000883010F0811009C08091B501B82AB0923B
:1028A000B5010E94460C8E2D44C08091AC01B82A1F
:1028B000B092AC01F6CF8E2D0E94CA0FBB20D9F189
:1028C00080E28E0D883010F0811004C08B2D0E94A4
:1028D000360806C0B0948091AC01B822B092AC0129
:1028E0000E94460C28C04F2D4F70B42E8F2D807F34
:1028F000803219F0B29480EFB822882051F051E074
:10290000851609F46FC0AA2009F47BC0992059F1FB
:10291000CACF8091C90182FD22C0AA20D1F0BB207C
:1029200039F0F090B501FB28F092B5010E94460CF9
:1029300080E00E9407104C2D4850550B4430510543
:1029400008F08EC10E94250560E0C8010E94040CB9
:10295000E4CD80E00E94CA0FBB2069F3B7CFAA2064
:1029600061F1911004C08B2D0E94C00FE4CF81E073
:10297000981210C0F090B8018B2D8F21B816D9F2A3
:102980000E94B2049093B7018093B601FB28F092A5
:10299000B801D1CF95E09912CECF8B2D0E94C00FF8
:1029A0008B2D0E9421088091A8019B2D9823B91698
:1029B00011F28B298093A801BECF91100AC08B2DF4
:1029C0000E94B90F8B2D0E9421088B2D0E94440874
:1029D000B2CFE1E09E12AFCF8091B5018B2109F417
:1029E000AACFEDCFAA2029F0F5E0F91508F4A3CF7E
:1029F000BACF24E0291508F49ECF8B2D0E94B90F81
:102A00009ACF9920D1F339E3831209C04FEF57EEE3
:102A100083E0415050408040E1F700C000008E2D1F
:102A20000E94CA0F88CF8F2D86958695837061F09E
:102A3000813009F080CFC7019370A11002C080E0FF
:102A400090E00E94DB0477CFC7019370A11002C011
:102A500080E090E00E9400056ECF6A2D8E2D0E94CE
:102A60002F0969CF8F2D837091F5A11064CF4E2D62
:102A7000429546954770440F440F8E2D8F70042E5B
:102A800001C0880F0A94EAF72E2D2071E4FE07C0DA
:102A90002FE030E001C0220F4A95EAF720953F2D44
:102AA000369536953370323069F050F44091C60156
:102AB000313029F0822B84230E942C093CCF842BB7
:102AC000822BFACF282B8091C6018227F5CF8695DD
:102AD000AA2011F08F2D8170882309F42CCF4E2D60
:102AE000429546954770440F440F8E2D8F70042EEB
:102AF00001C0880F0A94EAF72E2D2071E4FE07C06A
:102B00002FE030E001C0220F4A95EAF720953F2DD3
:102B1000369536953370323069F050F44091C701E4
:102B2000313029F0822B84230E94C20804CF842BE9
:102B3000822BFACF282B8091C7018227F5CF9F2DBA
:102B40009F70F92EAA2029F0892F0E9409098E2D45
:102B50000BCF8E2D0E94B90F8F2D0E94E508EBCE72
:102B60008E2DE2EF8E16B1F1E81570F0F0EF8F16B2
:102B7000D1F021EF821691F0AA2009F461C09110E2
:102B800092CE8F2D8F712AC033EF831651F144EF0F
:102B90008412F2CF8091C90182FD2FC08F2D8F71D9
:102BA000AA20D9F21BC0AA2081F054E0591508F4DC
:102BB000C2CE2F2D2F7181E090E001C0880F2A95A1
:102BC000EAF79091C7018927AFCF85E0891508F40E
:102BD000B2CEEFCF8F2D8F71A110BFCF0E94090908
:102BE000AACE80E0AA2009F49FCF9F2D9F7181E09B
:102BF00001C0880F9A95EAF797CFAA20B1F080918B
:102C0000AB018770843041F40E943D088F2D8F7195
:102C10000E94E508D12C8FCE94E063E09915D0F3A3
:102C20008F2D8F710E941509F5CFE4E0E91520F48E
:102C30000E943D0864E0F4CF81E00E94F208EACFF0
:102C4000992059F0893309F0EACEFFEF27EE33E0FF
:102C5000F15020403040E1F7E0CE8F2D8F717DCFD5
:102C6000DD2009F471CE8091AB0180FD6DCEF801BD
:102C700015828695869586950E940909C8010E944D
:102C80009A118091AB018695869586950E94E508FC
:102C90005BCEF6E1EF16FCE7FF0609F018CD809158
:102CA000B5018A7A91E009F490E09093880169E295
:102CB000811165E380E891E00E94C1040E94460C06
:102CC0001DCC26E1E2162CE7F206A9F580918801D9
:102CD0008111FBCC89E2E2E8F1E028E831E0919152
:102CE000891303C0DF0111971C922E173F07B9F714
:102CF000E5CFF701E851FC47E730F10508F4F4CBE4
:102D000010925B02970130572332310508F0C1CF92
:102D100084E090E00E94F1229093C9018093C80161
:102D2000F701E150F047E232F10508F011CCE65A24
:102D3000FC4D0C94742237E7E3163CE7F30609F4E4
:102D4000F4CC48E7E4164CE7F40609F0CACC82E07C
:102D5000EDCCCF93DF938091A701807F09F04DC028
:102D60008091A601882309F448C0E091580250914F
:102D70001F02C091A201D091A1016091A3017091A5
:102D8000A40147E05E17C9F18E2F90E0E49FF001A7
:102D90001124E05EFD4F2481222391F1489FF00130
:102DA000499FF00D1124DF01A05EBD4F11962C91BB
:102DB00011972C1325C02C912D1322C015962C9100
:102DC000159721111DC012962D913C91261B370B92
:102DD000283C3105A8F48091A7018F708061809311
:102DE000A701EA5DFD4F80818F708061808381EA59
:102DF00091E00E949A110E944E08DF91CF910895B0
:102E0000FC013196E770BECFA4E1B0E0EAE0F7E163
:102E10000C9487228C0186E0F801DE011F96019058
:102E20000D928A95E1F7F8018481E58091EAA92E57
:102E300091E0B92E9091A501911128C0882319F134
:102E4000EE20F1F0C8010E94E10BF82E8823C1F0BA
:102E500087E0F801D50101900D928A95E1F7809104
:102E6000A501813031F48091A1019091A2010E94CD
:102E7000D40B0E94A9168F2D6496ECE00C94A3222B
:102E8000C8010E949A11FF24F394F5CFD080C1802D
:102E900082809380F090A6012091A3013091A4013B
:102EA000A401421B530BFF2009F4D9C0483C510533
:102EB00008F092C08823F9F29091A2018091A701B5
:102EC000282F207F09F056C0C91214C09091A1018B
:102ED000D91210C0E11048C08F7080618093A701A3
:102EE00081EA91E00E949A118091A701F8018683FE
:102EF000F12CC1CFE11038C06C2D8D2D0E941B0329
:102F00006C2D8D2D0E941B03E82E8111F1CFDF86E1
:102F1000C88A8F8598890E94D40B292F22952F70FB
:102F2000243058F49F70223088F0992399F0F801EA
:102F30009681907F79F4FE2C9ECF2A5F2F702230ED
:102F400068F0C8010E949A11EF2CF5CF992311F077
:102F5000882389F3805E883070F3F3CF803F58F385
:102F6000815F833070F7E7CF8091A7018160809304
:102F7000A701BECFC91207C09091A101D91203C009
:102F8000EE2009F48DC0C8010E94E10B882309F4EA
:102F900077CFEE2009F474CF8091A701803288F0BA
:102FA0002091A1013091A201398728879B868A86CA
:102FB0009091A5019C871D868E87CE0108960E9460
:102FC0009A1187E0F801A1EAB1E001900D928A958B
:102FD000E1F70E94A91657CF9091A701292F207FD2
:102FE00051F481EA91E00E949A1187E0F501119273
:102FF0008A95E9F77DCF882309F43DCF8091A2011E
:103000008C1110C08091A101D8120CC0E1100AC02F
:103010009683C8010E949A1187E0F50111928A9562
:10302000E9F729CFC8010E94E10B882309F428CFD2
:10303000EE2009F425CF8091A701803210F2209173
:10304000A1013091A2013A8329839C828B829091C5
:10305000A5019D831E828F83CE010196B0CF483C8F
:103060005105D0F6882309F40ECFFE2CEE2009F48A
:1030700007CF8091A2018C1120C08091A101D812AC
:103080001CC08091A70180FD0FC0982F907F61F038
:103090008683903F31F0982F907F905F8F70892BBF
:1030A0008683C8010E949A1187E0F801A1EAB1E085
:1030B00001900D928A95E1F7DECEC8010E94E10BE6
:1030C00081117FCF8091A70181608093A701C80102
:1030D0000E949A11D0CEABE1B0E0E1E7F8E10C94A8
:1030E00090224E8B5F8B688F798F8A8F9B8F911187
:1030F0001092AC011D8A86E0FE017696DE011F96D5
:1031000001900D928A95E1F78091C90182FF1CC060
:103110000E94B2042091A9013091AA01821B930B55
:103120008838934120F08091AB0182FF7FC00E94DC
:10313000B2042091B6013091B701821B930B8838FD
:10314000934110F00E9416088B89882351F061E0AA
:10315000CE010F960E94040C61E0CE010F960E94F2
:10316000040C87E0FE013F96DE01189601900D9257
:103170008A95E1F7CE0108960E94041781110CC0D0
:1031800087E0FE013896DE01119601900D928A9536
:10319000E1F78C8581110BC017E080915802909166
:1031A0001F02891331C06B96E3E00C94AC2220918E
:1031B0001F0230E0C901019687709927409158029B
:1031C0004817190699F097E0929FD001939FB00D90
:1031D0001124A05EBD4FFE01319601900D929A958B
:1031E000E1F780931F020E944E08D6CF0E94920CF6
:1031F00010921F021092580287E0E1EAF1E0DF012D
:103200001D928A95E9F7C8CF819FC0011124805E85
:103210009D4F0E940417882331F28091580290E05C
:1032200001968770992780935802B7CF82E00E9459
:10323000F2087DCFA6E0B0E0E0E2F9E10C948F2245
:103240008C019093E7018093E601011580E2180755
:10325000C0F4802F0E94CA0FC8010E94070A98017B
:10326000205E31092830310518F00115110531F4BF
:103270000E94B90F2696E4E00C94AB220E94A40FA2
:10328000F9CF80EF89838A830E94B2048160682F1E
:103290009C838B8349815A817C8181E090E00E94EC
:1032A0006B18E8CFA6E0B0E0E8E5F9E10C948F22D6
:1032B0008C019093E7018093E601011580E21807E5
:1032C000C0F4C8010E94070A9801205E3109283025
:1032D000310518F00115110549F40E94C00F802F27
:1032E0000E9407102696E4E00C94AB220E94AF0FD8
:1032F000F6CF80EF89838A830E94B2048160682FB1
:103300009C838B8349815A817C8181E091E00E947A
:103310006B18E8CFA6E0B0E0E0E9F9E10C948F2269
:103320000E94B2048C018091B9019091BA0180177A
:10333000910781F019821A820E94B204682F498194
:103340005A81792F80E090E00E946B181093BA01A7
:103350000093B9012696E4E00C94AB228F929F92E1
:10336000BF92CF92DF92EF92FF920F931F93CF9372
:10337000DF93CDB7DEB728970FB6F894DEBF0FBE48
:10338000CDBF8E010F5F1F4F88E0F80111928A9523
:10339000E9F79FE4E92E91E0F92EBB24B394CC2405
:1033A000C394D12CF70181917F018F3F09F449C06B
:1033B000F894E82FE295EF70F0E021A18F70A6015C
:1033C00002C0440F551F8A95E2F7CA01922F982B2D
:1033D00091A392A18095892382A3789400C087E568
:1033E000882E81E0982ED8016B2D6095F401919183
:1033F0004F018D919D01215031099F3F09F456C025
:10340000492F42954F7050E0FA0140A150E09F7063
:1034100002C0559547959A95E2F740FD47C08B2924
:10342000F9018083FFE58F16F1E09F06F9F6F701B9
:10343000319780818F3F11F00E94F00540EA4A9554
:10344000F1F7BB0C57E5E51651E0F50609F0AACFF8
:1034500048E050E0B8018EEB91E00E94D522892B24
:1034600049F188E0F801AEEBB1E001900D928A9548
:10347000E1F781E08093BD010E94B2049093BC010A
:103480008093BB0110E0812F28960FB6F894DEBF21
:103490000FBECDBFDF91CF911F910F91FF90EF90A5
:1034A000DF90CF90BF909F908F9008958623B8CFE4
:1034B00010E021C01091BD01112321F3E090BB0168
:1034C000F090BC010E94B2048E199F090597D0F2BA
:1034D00048E050E06EEB71E08CED91E00E94D52267
:1034E000892B31F388E0EEEBF1E0ACEDB1E0019037
:1034F0000D928A95E1F71092BD01C5CF1F920F92F0
:103500000FB60F9211242F933F934F935F936F93B6
:103510007F938F939F93AF93BF93CF93DF93EF935B
:10352000FF93D091E900DF708091EC00C82FC1704B
:1035300080FDC0E81092E9008091F000877F8093C1
:10354000F00078940E94B90C1092E9008091F0008C
:1035500088608093F000CD2BCF70C093E900FF917D
:10356000EF91DF91CF91BF91AF919F918F917F911B
:103570006F915F914F913F912F910F900FBE0F90E0
:103580001F9018951F920F920FB60F9211242F9330
:103590003F934F935F936F937F938F939F93AF93DB
:1035A000BF93EF93FF938091E10082FF09C0809168
:1035B000E20082FF05C08091E1008B7F8093E100F3
:1035C0008091DA0080FF24C08091D80080FF20C065
:1035D0008091DA008E7F8093DA008091D90080FF9D
:1035E000AAC080E189BD82E189BD09B400FEFDCF9A
:1035F00081E08093150280910A02811109C00E9426
:103600003A030E94DB038091E20084608093E20031
:103610008091E10080FF1AC08091E20080FF16C017
:103620008091E2008E7F8093E2008091E2008061D1
:103630008093E2008091D80080628093D80019BC0A
:1036400085E08093150283E080930D018091E10075
:1036500084FF30C08091E20084FF2CC080E189BDEE
:1036600082E189BD99B5892F817090FFFBCF909140
:10367000D8009F7D9093D8009091E1009F7E909319
:10368000E1009091E2009F7E9093E2009091E20031
:1036900091609093E20090911602992309F451C031
:1036A00094E09093150290911502943009F482E011
:1036B00080930D018091E10083FF2CC08091E20096
:1036C00083FF28C08091E100877F8093E10082E042
:1036D00080931502109216028091E1008E7F8093F4
:1036E000E1008091E2008E7F8093E2008091E20011
:1036F00080618093E20042E060E080E00E94A903E4
:103700008091F00088608093F00081E080930D014B
:1037100080930C01FF91EF91BF91AF919F918F9199
:103720007F916F915F914F913F912F910F900FBEBD
:103730000F901F90189519BC1092150210920A0252
:1037400067CF9091E30097FD02C0982FAACF93E036
:10375000A8CF78941F921FB61F9211248F939F9326
:10376000AF93BF938091060290910702A091080247
:10377000B09109020196A11DB11D8093060290939C
:103780000702A0930802B0930902BF91AF919F91E5
:103790008F911F901FBE1F9018951F921FB61F92EA
:1037A00011248F939F93AF93BF9380910502811152
:1037B00013C08091060290910702A0910802B09177
:1037C00009024196A11DB11D809306029093070244
:1037D000A0930802B0930902BF91AF919F918F917E
:1037E0001F901FBE1F901895CDB7DEB7E1970FB69B
:1037F000F894DEBF0FBECDBF85B7806885BF85B7A3
:10380000806885BF84B7877F84BF0FB6F894A8957A
:1038100080916000886180936000109260000FBE0C
:1038200080E890E00FB6F894809361009093610077
:103830000FBE81E080930D018EEE95E090937F01A5
:1038400080937E010E943A030E94DB038091E20094
:1038500084608093E2007894809115028823A1F01F
:103860001091E9001F709091EC00892F817090FDFC
:1038700080E8182B1092E9008091E80083FD0E94F7
:10388000B90C1F701093E90082E084BD93E095BDF0
:103890009AEF97BD80936E000E943F0B811102C08A
:1038A0000E942F0BE8EEF1E088E0DF011D928A957F
:1038B000E9F781E08093D50160E080E00E94B605E1
:1038C00061E080E00E94B605EFE8F1E03197F1F7A2
:1038D00000C0000010E08091D501181708F4C0C0A6
:1038E0000FE411E0F7E5EF2EF1E0FF2ED8018D9106
:1038F0008D018F3F11F00E94F005E016F106B1F73F
:1039000007E511E0F80181918F018F3F11F00E94CE
:10391000F005F1E00F351F07A9F788E0ECEDF1E0C5
:10392000DF01282F1D922A95E9F7EEEBF1E0DF0188
:103930001D928A95E9F790E080E00E94F122853E91
:103940009E4F21F40E943F0B811163C065EE7EEF14
:1039500090E080E00E94252360E082E090E00E94F9
:10396000072381E08093C60161E083E090E00E943C
:10397000072360E074E184E090E00E94252360E08A
:1039800086E090E00E94072360E087E090E00E94DC
:10399000072340E050E0BA0188E090E00E9419233C
:1039A00060E083E290E00E94072360E08CE090E01A
:1039B0000E94072360E08DE090E00E9407231982B7
:1039C0001A821B821C821D821E821F82188648E07A
:1039D00050E067E170E0CE0101960E94F72240E0DE
:1039E00050E0BA018FE190E00E94192380E00E942C
:1039F000950A0E942F0B40E050E0BA018FE090E062
:103A00000E94192340E050E0BA0183E190E00E9457
:103A1000192382E090E00E94E9228093CA0184E0A9
:103A200090E00E94F1229093C9018093C8010E9406
:103A3000AE19EFEFF6E721E0E150F0402040E1F76A
:103A400000C000000E94AE198091DC0180FF1AC006
:103A50006FEF7FEF90E080E00E9425230E949504A5
:103A600060E0812F0E94A905082F61E0812F0E944C
:103A7000A905E12FF0E0EC52FE4F880F802B8083E8
:103A80001F5F29CF83E090E00E94E9220E942C0969
:103A900080E091E090930202809301028CED91E02E
:103AA00038E0380F39AB33243394222423948E0129
:103AB0000F5F1F4F8091150260E4F62E70E1E72E34
:103AC000E2E1DE2E853009F479C00E94AE194BEC9C
:103AD000E42E41E0F42E5CEDC52E51E0D52ED6014A
:103AE000F70191918D9121E0E33DF20709F470C057
:103AF0009817B9F3B12CD601AD906D01F701719013
:103B00007F017A1419F17A24912C88248394872DCB
:103B10008821A1F099A6BAA60E94B2049CA78BA7FF
:103B20002DA691E08A2D882109F490E09EA749A551
:103B30005AA56BA57CA58DA50E946B189394880C43
:103B4000F8E09F12E4CFF7013197A082B39428E008
:103B5000B212D1CF0E94A6043FC0809115028430DA
:103B600019F11092050288E190E00FB6F894A8953B
:103B7000809360000FBEF092600083B7817F846005
:103B800083BF83B7816083BF7894889583B78E7F26
:103B900083BF0FB6F894A8958091600088618093E8
:103BA0006000109260000FBE0E94AE19ECEDF1E0D3
:103BB0008191811131C399A99E13FACF8091150289
:103BC000853009F4CACF0E94920C0E9425057DCF52
:103BD000981390CF0E948A198091D601882351F0C2
:103BE0001092D6018091EA018093EB018091E80167
:103BF0008093E901D12C3CC061E08D2D0E94A90584
:103C0000F82E60E08D2D0E94A905EF2DEE0FE82B18
:103C10002D2D30E0D901AC52BE4F9C91892F83707D
:103C2000E81729F1990F990FE92BEC93EF70F0E069
:103C3000E15AFE4FC9018D529E4F7C018081D70110
:103C4000CC90C80ECC92B3E060E0BC1524F0EDEF50
:103C5000CE1624F461E08D2D0E94C9058C2DCC0C6C
:103C6000990B64E070E00E946022D7018C93D3949A
:103C70008091D501D81608F4BFCF90E08091EB0178
:103C80002091EA01281709F4E7C2E82FF0E0E45197
:103C9000FE4F90818F5F83708093EB018091E901EB
:103CA0008F5F8093E9016AE070E089EA97FD03C0C5
:103CB0006AE070E08AEA0E94631091E0DFCF309200
:103CC000FB012AC33092FC012FC33092FD016FC368
:103CD0003092FE0174C38091F100F70181937F015E
:103CE000F1E0CF1AD10809F4B3C38091E80085FD53
:103CF000F2CF8091E8008B778093E8000E9459030F
:103D0000882399F3A5C38C3009F4D2C068F58430B8
:103D100009F4B5C058F4823009F46BC008F0A0C0B3
:103D2000813009F462C08FEF898374C0863009F452
:103D3000BCC008F4AFC08B30B1F78091F001909116
:103D4000F101892B09F466C040E250E0B80182E03D
:103D50000E94380A3FEF81EE94E03150804090405D
:103D6000E1F700C000007ACE803109F4D2C088F5B6
:103D70008E3009F4A4C008F49EC08091F0019091A7
:103D8000F101892B09F446C0EC80F12C3DE1E316EA
:103D9000F10408F03FC0CA80DB80DC24CD24DC24A1
:103DA0005801E00EF11EC6018C549E4FAE14BF04A4
:103DB00089F1ACE4CA16A2E0DA0620F4F5016481C8
:103DC0000E940723FFEFAF1ABF0A2FEFC21AD20AD1
:103DD000EACF823109F4A2C008F49EC0833109F40D
:103DE000C6C08E3F09F09FCF4FC31A8289E08B83F4
:103DF00011C08A81823009F450C3833091F0813040
:103E000009F091CF0E94A6040E947A226B837C83E2
:103E10008D839E8340E250E0B80182E00E94380A20
:103E200049CE8091F0019091F101892B99F3809115
:103E3000DC018B838091DD018C838091DE018D8399
:103E40008091DF018E838091E0018F838091E10179
:103E500088878091E20189878091E3018A87DACFA0
:103E60008A81823009F05FCF6B817C818D819E8158
:103E70000E947A2287E290E00E940723CBCF4C81F8
:103E80006B818A810E94580B9827892798279E83E7
:103E90008D83C0CF2D813E813227232732274C814D
:103EA0006B818A810E94BE0AB5CF0E94E50AB2CF1B
:103EB00080E18A83AFCF82E08A838CE498CFEC8064
:103EC000F12C2DE1E216F10408F0A4CFCA80DB80CA
:103ED000DC24CD24DC245801E00EF11EC6018C54F4
:103EE0009E4FEA14FB0409F495CF3CE4C31632E07C
:103EF000D30660F40E94E922D50114968C93FFEF5B
:103F0000CF1ADF0A2FEFA21AB20AE8CFF501148206
:103F1000F6CF0E94AE0A7ECF83E0CBCFEC80F12CAF
:103F20003DE1E316F10408F075CFCA80DB80DC24A4
:103F3000CD24DC245801E00EF11EC6018896AE1493
:103F4000BF0409F467CFA0E8CA16A1E0DA0658F466
:103F50000E94E922F5018483BFEFCB1ADB0AEFEF61
:103F6000AE1ABE0AEACFD50114961C92F5CFCC80CA
:103F7000D12CFDE1CF16D10408F04CCFEA80FB80B4
:103F8000FE24EF24FE2420E8E21621E0F20608F0E9
:103F900041CF80E891E08E199F098C159D0508F4AA
:103FA00039CF370138E2630E711C8091F001909196
:103FB000F10127014C0C5D1C892BB9F5570181E0FB
:103FC000A822BB24E0FE0DC0C70187960E94E9220B
:103FD0009D8189279827892781159C4711F48FEFA8
:103FE0008D83460140FE1AC0B1E08B1A9108E5E0CE
:103FF000F0E0EC0FFD1FE80DF91DF8ABEFA7C301D2
:104000008C0D9D1D0E94E922AFA5B8A99C91811538
:104010009C4721F48FEFEFA5F8A98083F801EA0D02
:10402000FB1D2FEFA814B90410F068011BC0948188
:10403000858181159C4711F42483258382E0A80E95
:10404000B11C3296EFCFA0E8EA16A1E0FA0620F400
:10405000F60164810E940723FFEFCF1ADF0A2FEFDA
:10406000E21AF20AC7018896E414F50461F7D2CE89
:1040700088E0EEE0F1E0DE01919601900D928A95E4
:10408000E1F780E2D8011D928A95E9F786E08983FD
:1040900088E0FE01B196DE01159601900D928A9599
:1040A000E1F7B8CE80E889833A821B821C82B2CEC7
:1040B0008C81682F70E0762F66278B81860F972F73
:1040C000911D092E000CAA0BBB0B25E0880F991F30
:1040D000AA1FBB1F2A95D1F7AC01BD01405E5F4FFF
:1040E0006F4F7F4F481759076A077B0708F492CE36
:1040F0008038E1E09E07A105B10508F08BCE41387C
:10410000F1E05F076105710520F040E851E060E0F3
:1041100070E0481B590BBC0163577E4FC8010E94D9
:10412000CC2278CE4AE150E06FEF70E0CE010796E6
:104130000E94E2228091F0018983EA821B821C8224
:104140003D823E8267CE81E090E09093E5018093CE
:10415000E40182E390E09093DB018093DA010E9416
:10416000B2049093D9018093D80154CEEF2871F115
:10417000D090DC01C090DD01E090D801F090D90131
:104180000E94B2048E199F098536910540F1C1FE47
:1041900026C0D0FE24C00E94B2049093D90180931F
:1041A000D8018091DA019091DB0101979093DB01B6
:1041B0008093DA01892B51F41092E5011092E40109
:1041C00081E090E09093F1018093F0018091F00103
:1041D00089838091E4018A838091DA0108CE82E3A9
:1041E00090E09093DB018093DA01F0CF1092F1011F
:1041F0001092F0010FCE40E250E06FEF70E0C80186
:104200000E94E22207CE8B81811104CE80E2D80188
:104210001D928A95E9F7FECD80911402882309F456
:10422000CDCCE9BCD9BC09B400FEFDCF8091D8004B
:104230008F7D8093D8008091E00082608093E000C1
:104240008091E00081FDFCCF0E94920CB7CC822BC4
:10425000892B09F4D1C0CEC091110E94A60486E03A
:10426000E9EFF1E0D80101900D928A95E1F7909085
:10427000FA01C090FB01B090FC01A090FD01D0902C
:10428000FE011092FB011092FC011092FD011092B0
:10429000FE018C2D8B2909F447C0E090F701F090C6
:1042A000F8010E94B2049C012E193F099091F2017D
:1042B000992309F400C125313105B0F19F3F19F070
:1042C0009F5F9093F201CC2059F00E947B059FEFF5
:1042D0001C140CF491E0899F802D11248093FB0124
:1042E000BB2059F00E947B0591E01B140CF09FEF5E
:1042F000899F802D11248093FC018091FB018823EC
:1043000099F0F090FC01FF2079F00E949B05882332
:1043100009F4D5CC8093FB018F2D0E949B05882347
:1043200009F4D0CC8093FC018D2D8A2909F447C073
:10433000E090F501F090F6010E94B2049C012E1964
:104340003F099091F301992309F4B0C0213531055B
:10435000B0F19F3F19F09F5F9093F301AA2059F0AD
:104360000E9459059FEF1A140CF491E0899F802D4B
:1043700011248093FD01DD2059F00E94590591E040
:104380001D140CF09FEF899F802D11248093FE0156
:104390008091FD01882399F0F090FE01FF2079F0D3
:1043A0000E949B05882309F490CC8093FD018F2DFA
:1043B0000E949B05882309F48BCC8093FE01809199
:1043C000FA01891117C08091FB01882311F0C812EE
:1043D00011C02091FC01222311F0B2120BC0909168
:1043E000FE01992311F0D91205C03091FD0133234C
:1043F00009F42DCF0E94320586E0F801A9EFB1E063
:1044000001900D928A95E1F70E9425059091D701C0
:10441000891721F08093D7010E94A604809115028C
:10442000843009F047CB83E08093E9008091E80075
:1044300082FF40CB8091E80090E085FF0AC00E9497
:10444000590330E2C32ED12C7801882309F44DCCD6
:1044500091E08091E8008B778093E800992309F43C
:1044600029CBE090E401F090E5018981E114F104A9
:1044700009F449CC8E3F09F0CDCC8A81833020F0FD
:104480008550833008F0C6CCEA81EE3008F0C2CC0B
:10449000F0E0E458FC4D0C94742287E290E00E9416
:1044A000E9221B821C821D828E83B4CC2B30310505
:1044B00008F051CF84CF2B30310508F001CF34CF35
:1044C00097FB072E16F4009407D077FD09D00E94C1
:1044D000B82207FC05D03EF4909581959F4F089532
:1044E000709561957F4F0895EE0FFF1F0590F49131
:1044F000E02D099469279627692778278727782749
:1045000008952F923F924F925F926F927F928F9277
:104510009F92AF92BF92CF92DF92EF92FF920F9352
:104520001F93CF93DF93CDB7DEB7CA1BDB0B0FB65C
:10453000F894DEBF0FBECDBF09942A883988488819
:104540005F846E847D848C849B84AA84B984C884AF
:10455000DF80EE80FD800C811B81AA81B981CE0FA6
:10456000D11D0FB6F894DEBF0FBECDBFED0108958B
:10457000AA1BBB1B51E107C0AA1FBB1FA617B70789
:1045800010F0A61BB70B881F991F5A95A9F78095A5
:104590009095BC01CD010895FB01DC0102C005909E
:1045A0000D9241505040D8F70895FB01DC0104C042
:1045B0008D910190801921F441505040C8F7881B1B
:1045C000990B0895DC0101C06D9341505040E0F714
:1045D0000895F999FECF92BD81BDF89A992780B5CB
:1045E0000895A8E1B0E042E050E00C942D23DC01F6
:1045F000A40FB51F4150504048F0CB01840F951FC8
:104600002E910E94082341505040D0F70895262F44
:10461000F999FECF92BD81BDF89A019700B40216B8
:1046200039F01FBA20BD0FB6F894FA9AF99A0FBE66
:1046300008950396272F0E9408230E940723252F01
:104640000E940823242F0C9408230196272F0E94F0
:1046500008230C940723DC01CB01FC01F999FECF60
:1046600006C0F2BDE1BDF89A319600B40D924150FA
:104670005040B8F70895F894FFCF9E0DC60D190E5F
:10468000C60D190EF90D2B0E190E330F400F951292
:104690009912781291129D12A112A512391439148F
:1046A0007314731413152D159B149B1432159F1539
:1046B000B015B015E2125713EA12B412B812EE1286
:1046C000BC12F212FE12C8125013CC120213D012F6
:1046D00006132E13D4120A133513DA1210131813FB
:1046E000C012F612C412FA12DE12141324133E136F
:1046F0004E13AE12E6125E133820522058200A1FC5
:104700000A1F9220A320B620F620FB200A1F0A1FB2
:044710000A1F032158
:10471400BE04810A94047A0A730A0000010049570E
:10472400BD3DC0A4F03E818283E200E900EA00B509
:1047340000B600B700CD008301CC008A0192019439
:10474400012102230224022502260227022A02B39F
:1047540000B4006F0070009F01CB019F02A002F41F
:10476400F5F6F7313332369190946697C6343500B6
:10477400FF0100010000FFFF0000010001FF0044F1
:0E478400227B49012701AC009F04B804D80431
:00000001FF
