:100000000C9406030C9423030C9423030C942303F5
:100010000C9423030C9423030C9423030C942303C8
:100020000C9423030C9423030C94661B0C94221B46
:100030000C94711C0C9423030C9423030C94230341
:100040000C9423030C9423030C9423030C94230398
:100050000C9423030C944D1C0C9423030C94230345
:100060000C9423030C9423030C9423030C94230378
:100070000C9423030C9423030C9423030C94230368
:100080000C9423030C9423030C9423030C94230358
:100090000C9423030C9423030C9423030C94230348
:1000A0000C9423030C9423030C94230305010902ED
:1000B000A10185020901A1000509190129081500FE
:1000C0002501950875018102050109300931158165
:1000D000257F95027508810609381581257F9501D0
:1000E00075088106050C0A38021581257F95017572
:1000F000088106C0C005010980A101850319012AF4
:10010000B700150126B700950175108100C0050CD8
:100110000901A101850419012AA002150126A002E6
:10012000950175108100C00660FF0961A101096297
:10013000150026FF00952075088102096315002629
:10014000FF00952075089102C005010906A101056F
:100150000719E029E7150025019508750181029529
:1001600001750881010507190029FF150026FF0008
:100170009506750881000508190129051500250156
:10018000950575019102950175039101C0FD377ABE
:10019000585A000004E6D6B44602002101160000B9
:1001A00000742FE5A3E0037201455D003D8889C618
:1001B0005436C3174FE4DCC3E6127E2D9A0347D0B2
:1001C0009FFE7CF1301D4E026EBF680140BAEBE726
:1001D0002D192CBA37C3E20A1621FA99D3B0C3E914
:1001E000345B4CF9969A7BADDE840B1E25765F7DE1
:1001F000AB7D012942CC1A4D39E22274A18D8E4E7D
:1002000005598377EDBEBF4B0CF6738C3BB4571189
:10021000DF3409670DCF1BD772FA9AF8D4F0BCD03F
:100220009ED9297D55BFAF7FF9539EA44595AC411A
:10023000F9355AAAD9119AD5C655BDFA0D39831583
:1002400076A8E953EC693C61EDFD63142FC0A23739
:10025000166E32D836B0C10F5532E3C1AC7A8A89F6
:10026000C6A85D8F30DBD67D3F6069CE5909945BAF
:1002700056B46E3ABDE3CAA605BA91B655F67631C4
:100280008DDBA42E670D89E7EA75A2D2D6A7D4D755
:1002900075EF725E5D382F7FABAFE91D54A54151FC
:1002A000C6DD84D1264AE3601FF81ADE708C679C95
:1002B000A64B2C3F67BC20371031B9CA47017922C1
:1002C000B17633F37191F0317EE8A97BF2ADF2F2B1
:1002D0004450DDF413690B8F45C6A83E2D1407C6A4
:1002E0008E1236C6F3F536E6162D22D6C40E7133BD
:1002F00046000000006820C29CAEB97E810001E18A
:1003000002F3060000618AD3F4B1C467FB02000067
:10031000000004595A29001E001F0020002100225D
:1003200000230024002B0014001A000800150017F9
:10033000001C001800390004001600070009000A1C
:10034000000B000D00E1001D001B00060019000558
:1003500000110010002500260027002A000C0012C2
:100360000013004C000E000F00330034003600373D
:100370000038002800A800E000E200E30021522C31
:10038000002C00225200000000000000005000512C
:100390000052004F0035021E021F022002210222DD
:1003A000022302240235021E021F02200221022221
:1003B00002230224024C003A003B003C003D003E78
:1003C000003F002D02010040004100420043004474
:1003D00000450032022502260227024C0025022693
:1003E0000227024C002E022F023002310264024A20
:1003F000004D0001000100010001000100010001A9
:1004000000010001000000000000000000AB00AA95
:1004100000A900AE0035001E001F002000210022B0
:10042000002300240035001E001F002000210022B0
:1004300000230024004C003A003B003C003D003EFD
:10044000003F002D000100400041004200430044F5
:1004500000450032002500260027004C002500261C
:100460000027004C002E002F003000310064004BAC
:10047000004E000100010001000100010001000127
:1004800000010001000000000000000000AB00AA15
:1004900000A900AE00A900AA00AB00AC00AB00AC04
:1004A0000009025B00030100A0FA09040000010337
:1004B0000101000921110100012244000705810307
:1004C00008000109040100020300000009211101D4
:1004D0000001222200070582032000010705030313
:1004E000200001090402000103000000092111019C
:1004F0000001227B00070584032000011201000295
:1005000000000008868058560001010203011C0308
:100510007600690061006C003A0066003600340025
:1005200063003200620033006300000016034300E2
:1005300059004F00410020004F0072007400680015
:100540006F00000012035300540048004C004D009F
:1005500020006B006200000004030904000000009A
:10056000000000000000000000000000000000008B
:10057000000000000000000000000000000000007B
:100580007E0F00D4FFFFFFC70000007800000000CE
:10059000000000002A2B28000000000000000000DE
:1005A0000000000000000029000000002C1E342084
:1005B000212224342627252E362D3738271E1F20AA
:1005C0002122232425263333362E37381F040506EF
:1005D0000708090A0B0C0D0E0F1011121314151633
:1005E0001718191A1B1C1D2F3130232D3504050631
:1005F0000708090A0B0C0D0E0F1011121314151613
:100600001718191A1B1C1D2F3130354C11241FBE11
:10061000CFEFDAE0DEBFCDBF11E0A0E0B1E0E4E370
:10062000F9E402C005900D92AE37B107D9F722E088
:10063000AEE7B1E001C01D92AF35B207E1F70E940D
:10064000981C0C944B240C940000482F20915B02C2
:100650009091220257E0291302C080E0089530E013
:10066000529FF001539FF00D1124ED5DFD4F8181EC
:10067000681306C08081481303C085818111EECFC5
:100680002F5F3F4F2770E7CFE8EDF0E080818E7F4E
:1006900080831092E2001092DA001092E100A0EE46
:1006A000B0E08C9181608C9380818F77808319BCBE
:1006B000A7EDB0E08C918E7F8C9380818F7E8083BC
:1006C00010920D0208952091E4003091E50095E626
:1006D000A9012091EC00822F817020FF06C080913B
:1006E000E80080FF06C080E008952091E80022FD28
:1006F0001AC080911802882389F0853089F0809192
:10070000EB0085FD0FC02091E4003091E500421719
:100710005307F9F29150E1F684E0089582E00895DC
:1007200083E0089581E0089580911A0287FF13C045
:100730008091E80082FF06C08091E8008B7780936B
:10074000E80004C0809118028111F2CF08958091D1
:1007500018028823D9F38091E80080FFF8CF8091B8
:10076000E8008E77ECCF982F9093E900242F762F16
:1007700050E0891731F07091EC002091ED0050911C
:10078000F00021FD07C09F5F973071F78093E9006B
:1007900081E008953091EB003E7F3093EB00309183
:1007A000ED003D7F3093ED003091EB0031603093F0
:1007B000EB007093EC002093ED005093F00020913B
:1007C000EE0027FDE0CF80E00895B0E0A0E0EBEE82
:1007D000F3E00C949B23C8EDD0E088818F7E888362
:1007E000E7EDF0E080818160808384E082BF81E07A
:1007F00080930D0288818E7F888302EE10E0F801DD
:1008000010821092DA0081EEC82ED12CF6011082EF
:1008100088818F77888388818068888388818F7DAD
:10082000888319BC109218021092190210921702B4
:100830001092160290EEE92EF12CF70180818B7F49
:10084000808388818160888342E060E080E00E944C
:10085000B303F60180818E7F8083F80180818160FF
:100860008083808188608083F70180818E7F808390
:10087000888180618883CDB7DEB7E8E00C94B72328
:10088000FC01809120029091210286179707A0F029
:100890006115710529F49091E8009E779093E80026
:1008A00090E06115710551F4911108C08091E80044
:1008B00082FF34C080E00895BC01F2CF809118021D
:1008C0008823C1F18530C1F18091E80083FD30C0FB
:1008D0008091E80082FDEACF8091E80080FFE1CFBF
:1008E0008091F3002091F200382F6115710519F005
:1008F0002830310558F091E02830310509F090E0BA
:100900002091E8002E772093E800CBCF819180934F
:10091000F100615071092F5F3F4FE7CF80911802BE
:10092000882341F0853041F08091E80083FFBECFFD
:1009300081E0089582E0089583E00895089587E7AF
:1009400097E7909301088093000888E19AE00FB63A
:10095000F894A895809360000FBE90936000FFCF3D
:100960002FB7F8946091090270910A0280910B02EE
:1009700090910C022FBF08952FB7F894809109022F
:1009800090910A02A0910B02B0910C022FBF089522
:1009900080910B0108959C01FC0132969FEF80E04D
:1009A0004191461751F09F3F19F4411101C0982F12
:1009B0008F5F8630A9F79F3F09F40895290F311DF5
:1009C00097FD3A95F90162830895A3E0B0E0EBEE5C
:1009D000F4E00C94A123209106023091070228171D
:1009E0003907A1F09093070280930602E091040278
:1009F000F0910502309751F024E029839B838A838C
:100A00000084F185E02DCE01019609952396E2E060
:100A10000C94BD23A3E0B0E0E0E1F5E00C94A12349
:100A2000209102023091030228173907A1F0909318
:100A3000030280930202E0910402F09105023097D4
:100A400051F023E029839B838A830084F185E02D84
:100A5000CE01019609952396E2E00C94BD23E09126
:100A60000402F0910502309729F00190F081E02D09
:100A70000995089580E008950E94BC049C0190911E
:100A8000FE018091FF01982B21F03093FB01209310
:100A9000FA019091000280910102982B21F030938D
:100AA000F9012093F801E0910402F09105023097DA
:100AB00049F082E08093FC010680F781E02D8CEF05
:100AC00091E0099508958091F70180FD16C081FDA0
:100AD00016C082FD16C08091F6018823A1F08832ED
:100AE00080F428E0829FC001112468E270E00E9437
:100AF0007023862F672B39F0089582E0089584E0F3
:100B0000089588E0089581E008958091F70180FDBF
:100B100014C081FD14C082FD16C08091F5018823A8
:100B200081F08E3180F420E5829FC00111246EE1B6
:100B300070E00E947023862F089584E1089588E272
:100B4000089588E0089580E50895282F35EB230364
:100B5000C001112497FF04C080589109892F08957E
:100B600080589F4FFBCF23E9611122E989B190E0C2
:100B70002F7002C0959587952A95E2F781700895A8
:100B800023E9611122E93AB12F7081E090E001C0C0
:100B9000880F2A95EAF7982F909593239AB99BB1DD
:100BA000892B8BB908959091ED01E92FF0E04091E8
:100BB000EE019F012F5F3F4F23703327421713062B
:100BC000A9F0E151FE4F282F2F7780818078822B6A
:100BD00060FB87F980839F5F93709093ED01809114
:100BE000EB018F5F8093EB0181E0089580E0089531
:100BF00080E00895F894E82FE295EF70F0E031A1DD
:100C0000282F2F7081E090E001C0880F2A95EAF725
:100C1000982F9095932391A392A1892B82A37894E6
:100C200008959091CB0192FF10C041E0282F2471CC
:100C3000243009F040E031E0282F2871283009F0F5
:100C400030E0431711F02CE0822793FF10C041E001
:100C5000282F2471243109F040E031E0282F287139
:100C6000283109F030E0431711F02CE08227309151
:100C7000CC0130FF10C051E0282F2171213009F044
:100C800050E041E0282F2871283009F040E0541747
:100C900011F029E0822731FF10C041E0282F217197
:100CA000213109F040E031E0282F2871283109F086
:100CB00030E0431711F029E0822794FD877E0895E4
:100CC00082389105B9F1B0F48133910509F47DC002
:100CD00048F48932910509F46DC08A32910509F40E
:100CE0007BC008958533910509F45FC08933910570
:100CF00009F10895833E9105D9F138F4803E9105BC
:100D000029F1823E910579F10895863E9105D9F148
:100D1000873E910509F43EC0843E910541F520913E
:100D2000CC0121FF24C08091CB0184FD19C087EE46
:100D300090E008952091CB01237009F05AC02091D2
:100D4000CC0123FF14C089E290E008952091CB01EB
:100D500020FD38C03091CC0130FF09C024FF43C0D2
:100D600090E080E008952091CB0122FDF7CF089517
:100D70002091CB0122FD3AC03091CC0130FD39C029
:100D800024FFF5CFEDCF2091CB0123FFF0CF24FD41
:100D9000E7CFCDCF2091CB0123FD2EC03091CC01E8
:100DA00031FFEECF84EE90E008952091CB0125FF36
:100DB000DECFC9CF2091CB0125FD21C02091CC01F0
:100DC00023FFD5CF89E390E0D2CF2091CB0126FF3E
:100DD000CECF8AE290E008952091CB0126FFC7CFC5
:100DE00081E390E0089583EE90E0089582EE90E034
:100DF000089580EE90E0089586EE90E0089585E3F2
:100E000090E008951F93CF93DF930E946006EC015A
:100E1000C11580E5D807F0F5C11580E4D80708F0C2
:100E20009CC0C03ED10520F5CD3CD10508F082C064
:100E3000C83AD10578F4C53AD10508F073C0C1307D
:100E4000D10519F1209709F1C430D105F0F4D0E0B3
:100E5000C0E01BC0C33CD105D0F7C85AD0E0CC0FCE
:100E6000DD1FC75EDE4F0990D881C02DD4640DC050
:100E7000C11580E2D80708F0D1C0C11581E0D807BC
:100E800008F05AC0C83ED10510F7CE01DF91CF91CE
:100E90001F910895C03682E5D80718F5C03482E561
:100EA000D80708F06BC0C03282E5D80708F05FC0F1
:100EB000C11582E5D80708F497C02C2F26952695F2
:100EC00080E2289F900111248C2F8370C1E0D0E034
:100ED00002C0CC0FDD1F8A95E2F7C22BD32BDD6851
:100EE000D4CFC03A82E5D80760F4C03882E5D8078D
:100EF00008F459C0CF71D0E0DC2FCC27C46FD06A82
:100F0000C4CFC03C82E5D80708F462C0C03E82E589
:100F1000D80708F09CCFDC2FCC27CC27DF71C06F1F
:100F2000D06AB3CFC55AD0E0CA5EDE4FC881D0E0E8
:100F3000D064ABCFD065A9CF8D2F0E941106182F9A
:100F4000CE0199270E946006C12FD0E0DC2FCC276C
:100F5000CC27DF71C82BD92B98CFCE0199270E94BF
:100F60006006CC27DF70C82BD92BD06A8ECFCF710B
:100F7000D0E0DC2FCC27C16FD06A87CF2C2F2695ED
:100F80002695277080E2289F900111248C2F837072
:100F9000C1E0D0E002C0CC0FDD1F8A95E2F7C22B82
:100FA000D32BDC6872CF2C2F26952695277080E2F4
:100FB000289F900111248C2F8370C1E0D0E002C0E3
:100FC000CC0FDD1F8A95E2F7C22BD32BDA685DCFF9
:100FD0008C2F8F710E941106C82FD0E0DC2FCC27F8
:100FE000CC27DF71D06251CF8C2F8F710E941106F8
:100FF00055E0D695C7955A95E1F7CF70D0E0DC2F34
:10100000CC27282F30E084FF05C044E0220F331F97
:101010004A95E1F7C22BD32BD06937CF8D2F8F7133
:101020000E941106182FCE0199270E946006C12F39
:10103000D0E0DC2FCC27CC27DF71C82BD92BD2CF27
:101040008091BB01882331F01092BB011092BA014C
:101050001092B90108959091BB01292F282361F0C6
:10106000809589238093BB01882339F00E94BC04BA
:101070009093BA018093B901089590E080E0F8CF91
:1010800080959091B80198239093B801089510929B
:10109000AE011092AD011092AC0108959091AB0198
:1010A000292F282321F0809589238093AB0108956F
:1010B00080915B0290912202981301C008958F5F86
:1010C0008770FACFA82FA77023E0969587952A9569
:1010D000E1F7FC01EE0FFF1FE80FF91FE60FF71F06
:1010E00050E040E080E0219130E00A2E02C03695C9
:1010F00027950A94E2F721703327042E01C0220FAE
:101100000A94EAF7822B4F5F5F4F4330510559F73E
:101110000895903FB9F0983070F4883098F448E022
:10112000949F900111246CE871E0820F932F911D20
:101130000E94620808959C5F923020F469E871E093
:1011400090E0F6CF80E00895262F277091E001C04F
:10115000990F2A95EAF723E0769567952A95E1F7A6
:10116000FB01EE0FFF1FE60FF71FE40FF51F50E026
:1011700040E0682F70E08191DF0111979B01042E00
:1011800002C0369527950A94E2F721702195282709
:10119000292328272C934F5F5F4F4330510559F780
:1011A0000895282F862F903F71F0983068F42830EA
:1011B00050F438E0939FB0011124620F711D4CE888
:1011C00051E00E94A40808959C5F9230E0F7622FDE
:1011D00070E049E851E0F5CF8093CA0108959091FD
:1011E000CA0121E030E0F90101C0EE0F8A95EAF76B
:1011F000D90102C0AA0FBB1F6A95E2F7EA2B01C012
:10120000220F4A95EAF7892F8E23E81305C0292B70
:10121000822F0E94EC08089520952923F9CF21E020
:1012200030E001C0220F8A95EAF720958091CA012B
:1012300082230E94EC0808959091AE018095892345
:101240008093AE01282F277069F4891759F0909187
:10125000CC0192FF07C08695869586950E940F095E
:101260000E944708089521E030E001C0220F8A95CE
:10127000EAF78091CA01822B0E94EC0808959091B0
:10128000CC0192FF10C098E0899F90011124622B3D
:101290006093AE010E9433090E94BC049093AD019B
:1012A0008093AC0108950E94330908958093C90189
:1012B0000895662309F45DC08D3C41F40E948505C4
:1012C00081958093FF010E943C0508958E3C19F49E
:1012D0000E948505F6CF8F3C31F40E9485058195EB
:1012E0008093FE01F0CF803D19F40E948505F8CF70
:1012F000893D29F40E94630580930002E4CF8A3D72
:1013000021F40E9463058195F7CF8B3D31F40E9453
:101310006305819580930102D6CF8C3D19F40E941C
:101320006305F8CF9FE2980F983070F4815D990BB8
:1013300021E030E001C0220F8A95EAF78091FD019B
:10134000822B8093FD01BFCF8D3D31F48091F70159
:1013500081608093F701B7CF8E3D21F48091F70132
:101360008260F7CF8F3D09F0AECF8091F7018460A6
:10137000F0CF4091FE018D3C59F48091FF0187FF31
:101380000DC01092FF0141110BC01092F50108C071
:101390008E3C81F48091FF0118169CF3442381F068
:1013A0008091000290910102892B09F08CCF10925C
:1013B000F60189CF8F3C49F447FFF0CF1092FE0130
:1013C0008091FF018111ECCFE0CF803D19F414161C
:1013D000ACF3E4CF90910002893D29F41916F4F69C
:1013E00010920002DBCF8A3D19F497FFD7CFF8CFD8
:1013F000909101028B3D29F497FFD0CF109201020A
:10140000CDCF8C3D19F41916CCF3C8CF9FE2980FBD
:10141000983090F4815D990B21E030E0B90102C071
:10142000660F771F8A95E2F7CB0180959091FD01B9
:1014300089238093FD01B2CF8D3D31F48091F70176
:101440008E7F8093F701AACF8E3D21F48091F70122
:101450008D7FF7CF8F3D09F0A1CF8091F7018B7F72
:10146000F0CF9C013A9521153F4150F5FC01EE2744
:10147000F170BC0166277270AC01442754709C0166
:101480002227387094FF0EC080E1EF2B09F480E032
:10149000672B09F08062452B09F08064232B89F0CB
:1014A0008068089581E0EF2B09F480E0672B09F054
:1014B0008260452B09F08460232B19F08860089521
:1014C00080E008950F931F93CF93DF938B01EA0180
:1014D00090911802943061F58093E9008FEF90911C
:1014E000E800815095FD06C095ED9A95F1F7000052
:1014F0008111F5CF8091E80085FF1AC00E94630337
:10150000811111C08091E80085FD06C08091E8003E
:101510008E778093E800F2CFF80181918F0180935C
:10152000F100219779F78091E8008E778093E800A9
:10153000DF91CF911F910F91089543E050E0BC01DE
:1015400084E00E94620A089546E050E0BC0184E015
:101550000E94620A0895CF93DF93EC0148E050E0C7
:10156000BC0181E00E94620A88E0FE01AEE0B2E0C8
:1015700001900D928A95E1F7DF91CF910895CF9375
:10158000C82F6FEF811161EE84E290E00E94172472
:101590006FEFC1116AE885E290E00E9417246FEFB7
:1015A000C1116FE886E290E00E941724CF91089560
:1015B000CF93DF93C4EBD1E060E0CE010E9417240B
:1015C0002196C11584E0D807B9F7DF91CF9108952E
:1015D0000F931F93CF93DF93142F022F8330F0F4D8
:1015E00061111CC094E0899FE0011124C855DE4FB1
:1015F00082E090E0442311F090E080E0632F8C0FB4
:101600009D1F0E94172483E090E0112311F081E0D8
:1016100090E0602F8C0F9D1F0E941724DF91CF91C7
:101620001F910F9108951F93CF93DF93122F833053
:10163000E8F46830D8F44830C8F420E1629FE00153
:10164000112450E0440F551FC40FD51F20E8829F7E
:10165000C0011124C80FD91F632FCE0188960E94A4
:101660001724612FCE0189960E941724DF91CF9114
:101670001F910895B0E0A0E0E0E4FBE00C94962315
:10168000C090F301D090F40181E090E09093F401D8
:101690008093F30105E914E085E1E82E83E0F82E5C
:1016A000C0E05701D0E015C0F40125913491472DD9
:1016B0006D2F8C2F0E94130B82E0880E911C739467
:1016C00088E07812F1CF80E1A80EB11CDF5FD8303E
:1016D00019F04501712CE8CFF8012591349141E0D2
:1016E00060E08C2F0E94E80AF8013296259134912F
:1016F00040E060E08C2F0E94E80A0C5F1F4FCF5F34
:1017000080E8E80EF11CC33009F0CBCFD092F40191
:10171000C092F301CDB7DEB7EDE00C94B22380E0C8
:101720000E94BF0A60E087E290E00E9417240E94B6
:101730003A0B0E94D80A81E00E94BF0A089584E211
:1017400090E00E94F923813E89F485E290E00E94B6
:10175000F9238A3859F486E290E00E94F92391E057
:101760008F3809F090E0892F8170089580E0FCCFD8
:10177000FF920F931F93CF93DF93F42E833040F5A6
:10178000611126C024E0829F8001112408551E4F5C
:1017900082E090E0442311F090E080E0800F911F00
:1017A0000E94F923C82FD0E0DC2FCC2783E090E003
:1017B000FF2011F081E090E0800F911F0E94F9233B
:1017C0009E01282BC901CDB7DEB7E5E00C94BA2302
:1017D00090E080E0F8CF0F931F93CF93DF93833097
:1017E00038F5683028F5483018F520E1629F80010F
:1017F000112450E0440F551F040F151F30E8839F3C
:10180000C0011124080F191FC80188960E94F923EE
:10181000C82FD0E0DC2FCC27C80189960E94F9237D
:101820009E01282BC901DF91CF911F910F9108953F
:1018300090E080E0F8CF462F672F2091E7013091AC
:10184000E801232BC9F4703F39F4403FA9F480919B
:10185000E9019091EA010895783038F4483060F455
:10186000833050F40E94EB0B08957D3F41F4411109
:1018700003C041E0833048F090E080E008957C3F71
:10188000D9F74111F9CF8330B8F760E00E94B80B67
:101890000895CF92DF92FF920F931F93CF93DF9320
:1018A0006C010091CA018091C901082BC2E0D0E00F
:1018B00010E0FC2EC8010C2E02C0959587950A9465
:1018C000E2F780FD0CC02197A0F7F12C8F2DDF915E
:1018D000CF911F910F91FF90DF90CF900895B601A7
:1018E0008C2F0E941B0C0E940207019761F3EECF20
:1018F000CF93DF93EC010E94490CBE010E941B0CA8
:101900000E940207DF91CF910895FC0124812223D8
:10191000C1F0808191810E94780C92959F709630E1
:1019200091F058F4925F9F70923058F4803F19F014
:1019300030F4883E30F481E008959A5FF4CF843F1C
:10194000D1F380E00895883EB0F3813FD1F7F3CF23
:10195000A6E0B0E0EEEAFCE00C94A02326E0FC0157
:10196000DE01119601900D922A95E1F7FC01258187
:1019700089819A81222399F0662389F00E94490C7B
:10198000182F682F89819A810E94D10869817A81F4
:10199000812F0E941B0C2696E3E00C94BC230E942E
:1019A0008908182FF3CF9091CC0192FB222720F9C0
:1019B000281779F080FB92F99093CC016091CB01CC
:1019C0007091CC0184E090E00E94352482E00E9476
:1019D0001C090895CF93C091B8018091AF01C82B25
:1019E0008091BB018823F9F00E94BC042091B901C9
:1019F0003091BA01821B930B8838934110F00E94FA
:101A000020088091BB01C82B20E082E891E0FC0116
:101A10003191CF0131112F5FF1E088389F07B9F77D
:101A200021110E942008C093800148E050E060EB43
:101A300071E080E891E00E94E523892BA9F088E01D
:101A4000E0E8F1E0A0EBB1E001900D928A95E1F7BA
:101A5000E0910402F0910502309731F00280F381A9
:101A6000E02D80E891E00995CF910895CF931092F1
:101A7000B801C6E0E2E8F1E0DF018C2F1D928A9503
:101A8000E9F790E080E00E940A0590E080E00E9483
:101A9000E5041092AF010E94EA0CECEFF1E0DF01E7
:101AA0001D92CA95E9F71092F5011092F601109275
:101AB000F7010E943C05CF910895AAE2B0E0E3E669
:101AC000FDE00C94A0238AE192E02091F100DC017A
:101AD0002D93CD01B2E082329B07B9F780911B02B2
:101AE000833009F472C0B8F4813009F449C08230FF
:101AF00009F4B7C08091E80083FF3FC180911A02CA
:101B000090911B029A3008F038C1E92FF0E0E35BB6
:101B1000FB4D0C9484238A3009F492C08B3009F475
:101B200071C0893039F780911A02813219F780919A
:101B30001E0290911F02009711F00297D9F6809132
:101B4000E800877F8093E8008091E80082FF38C03A
:101B50009091F3008091F200029731F48091F100AE
:101B6000813011F0863021F48091F10080930B01D7
:101B70008091E8008B778093E8000E949403BACFAD
:101B800080911A02813A09F0B5CF8091E800877FF1
:101B90008093E80080911E0290911F02892B61F4CE
:101BA00068E08EE092E070E00E9440048091E800DE
:101BB0008B778093E8009ECF60E090E080E0F3CFE9
:101BC000809118028111C0CF95CF80911A02813A7D
:101BD00009F090CF80911E0290911F02892B09F08D
:101BE00089CF8091E800877F8093E8008091E800AA
:101BF00080FFFCCF80910C018093F1008091E80080
:101C00008E77B9CF80911A02813209F073CF80911B
:101C10001E0290911F02892B09F06CCF8091E80081
:101C2000877F8093E8000E94940381E090911C02DA
:101C3000911101C080E080930C010E94360D5ACFB3
:101C400080911A02813209F055CF8091E800877F98
:101C50008093E8000E94940380911D0280930A0102
:101C600049CF80911A02813A09F044CF8091E8006F
:101C7000877F8093E8008091E80080FFFCCF80910F
:101C80000A01BACF803899F0823809F076C0809185
:101C90001E028F70873008F070C08093E900809139
:101CA000EB0085FB882780F91092E90006C080913F
:101CB000160290911702911182609091E800977F2F
:101CC0009093E8008093F1001092F1008091E80079
:101CD0008E77C3C1882309F4B0C1823009F04DC0AA
:101CE00080911C028111B4C180911E028F702FEF70
:101CF000280F263008F041C08093E9002091EB00C6
:101D000020FFA6C1933031F48091EB008062809374
:101D1000EB009EC19091EB0090619093EB0021E06D
:101D200030E001C0220F8A95EAF72093EA00109272
:101D3000EA008091EB008860EACF81111EC010910B
:101D40001C021F778091E3008078812B8093E30051
:101D50008091E800877F8093E8000E94940380913F
:101D6000E80080FFFCCF8091E30080688093E3006F
:101D700082E0111183E0809318028091E80083FFD4
:101D80000AC08091E800877F8093E8008091EB0093
:101D900080628093EB00AA96E3E00C94BC23805809
:101DA000823058F720911C0230911D022C3DE3E057
:101DB0003E07A1F583E08A838AE289834FB7F894CE
:101DC000DE01139620E03EE051E2E32FF0E0509375
:101DD0005700E49120FF03C0E295EF703F5FEF7082
:101DE0008E2F90E0EA30C0F0C7968D939D932F5FC1
:101DF000243159F74FBF8091E800877F8093E80036
:101E00006AE270E0CE0101960E9440048091E800F1
:101E10008B778093E800B1CFC096E7CF80911E0208
:101E200090911F02432F55274330510509F44AC0B2
:101E300078F54130510509F485C08BE590E0E1EA81
:101E4000F4E04230510509F098CF2091E800277F57
:101E50002093E800209120023091210282179307FD
:101E600008F49C0140E02115310509F070C04111D2
:101E70006EC08091E80082FDC9CF8091180288234E
:101E800029F2853019F28091E80083FFF2CFBECFAE
:101E90004132510509F447C04232510509F06DCF76
:101EA0008330910508F069CFFC01EE0FFF1FEE585B
:101EB000FE4F0190F081E02D81599E4FDC018C9105
:101EC00090E01DC0332721303105E9F0211531059F
:101ED00079F022303105F9F02330310509F04DCF8A
:101EE000EEE0F5E0E4918E2F90E0EEE0F5E007C043
:101EF000E8E5F5E0E4918E2F90E0E8E5F5E0009765
:101F000009F43BCFA2CFE4E4F5E0E4918E2F90E01A
:101F1000E4E4F5E0F4CFECE2F5E0E4918E2F90E01C
:101F2000ECE2F5E0ECCF8330910508F026CF880F86
:101F3000991FFC01E858FE4F0190F081E02D89E0E7
:101F400090E083CF82E190E0ECEFF4E07ECF8091EF
:101F50001802882309F45ACF853009F457CF8091AD
:101F6000E80083FD53CF8091E80082FD82CF80910D
:101F7000E80080FF78CF9091F3008091F200211566
:101F8000310519F08830910550F041E0089709F0CB
:101F900040E08091E8008E778093E80064CF449120
:101FA0004093F1003196215031090196E8CF8038F5
:101FB00009F0E3CE8091E800877F8093E80080916C
:101FC00019028093F10082CE8111D7CE10911C02AC
:101FD000123008F0D2CE8091E800877F8093E8002D
:101FE000109319020E949403112311F084E005C09C
:101FF0008091E30087FDFACF81E08093180242E0F0
:1020000061EC81E00E94B30342E261EC84E00E9453
:10201000B30342E261EC82E00E94B30342E260EC6F
:1020200083E00E94B30380911802843021F081E0A4
:1020300080930D01A2CE82E0FBCF80911C02813003
:1020400009F09BCE81E0933009F080E08093170285
:102050001092E9008091E800877F8093E8000E9459
:1020600094038BCE0E94360D2FEF84E39CE0215029
:1020700080409040E1F700C0000088E19AE00FB690
:10208000F894A895809360000FBE90936000FFCFF6
:10209000882341F080959091AF0189238093AF010F
:1020A0000E94EA0C0895882339F09091AF01982B93
:1020B0009093AF010E94EA0C0895882321F00E94BA
:1020C00040080E94EA0C0895882339F09091B801E5
:1020D000982B9093B8010E94EA0C08958823D1F1BF
:1020E0009CEF980F913A78F4E2E8F1E0919189132E
:1020F00003C0DF0111971C9291E0E838F907B1F7AE
:102100000E94EA0C089590E2980F983050F487707E
:1021100091E001C0990F8A95EAF7892F0E94400843
:10212000EFCF9BE5980F933028F490E080E00E9479
:102130000A05089598E5980F9B3128F490E080E017
:102140000E94E504089593E3980F933118F460E03A
:102150000E9459090895CF93C82F8823B1F08CEFBE
:102160008C0F813A00F5E2E8F1E088E891E0DF01C8
:102170002D91C21761F08A179B07D1F76C2F80E869
:1021800091E00E94CB040E94EA0CCF910895219126
:10219000C21303C0DF0111971C928E179F07B9F776
:1021A0000E94EA0CEBCF80E28C0F883068F4C77095
:1021B00021E030E001C0220FCA95EAF78091B80112
:1021C000822B8093B801DFCFEBE5EC0FE33040F4D6
:1021D000F0E0EA5EFE4F808190E00E940A05D5CFD4
:1021E000E8E5EC0FEB3150F4F0E0EE0FFF1FE75E97
:1021F000FE4F808191810E94E504C7CF83E38C0F5D
:10220000833118F661E08C2F0E945909BECF1F93CD
:10221000CF93DF93182FEB010E94AB10209739F476
:10222000812F0E946E10DF91CF911F9108958FE949
:102230009FE00197F1F700C000002197EFCFEF92E8
:10224000FF920F931F93CF93DF93C62FD42F022FAC
:10225000FC0185818823A9F060935E020E94BC0482
:1022600090935D0280935C02C77081E001C0880F8B
:10227000CA95EAF70E946410CDB7DEB7E6E00C9489
:10228000B92380915E02681336C0E0905C02F09042
:102290005D020E94BC048E199F09883C910558F587
:1022A00010E21D0FCD17B9F080E28C0F883040F49A
:1022B000C77081E001C0880FCA95EAF70E945D10DF
:1022C000183048F481E09D2F977001C0880F9A95CF
:1022D000EAF70E94641070E060E0802F0E9407110E
:1022E000183050F6D77081E001C0880FDA95EAF710
:1022F0000E945D10C1CFC77081E001C0880FCA95F0
:10230000EAF7F6CFB0E0A0E0E8E8F1E10C94992319
:10231000FC018AE0A82EDF012D918D012223E9F135
:10232000213009F054C08181813069F482818F01AC
:102330000D5F1F4F70E060E0893311F460E570E0DD
:102340000E94071108C0823041F48F010D5F1F4FBA
:1023500082810E94AB10F801DECF833039F48F0107
:102360000D5F1F4F82810E946E10F5CF8F010E5FAF
:102370001F4F843081F482818F010D5F1F4F30E049
:1023800020E0682F6053770BAB016A30710550F085
:102390002115310599F48111DECFCDB7DEB7EAE022
:1023A0000C94B523A29EC001A39E900D11249A0106
:1023B000280F391FF80181918F01E3CFAFE9BFE00A
:1023C0001197F1F700C0000021503109E1CFE22F51
:1023D000F0E0E457FA4FB490822F86958695869563
:1023E00090E0FC01E458FA4FE4902770F12C022EA3
:1023F00002C0F594E7940A94E2F7B1E0EB22FF24DF
:10240000FC01E459FA4FC490D12C022E02C0D5949D
:10241000C7940A94E2F7E1E0CE22DD24FC01E45AFD
:10242000FA4FC491D0E002C0D595C7952A95E2F73E
:10243000C170DD27E114F10419F081EE0E94AB10A8
:10244000C114D10419F086EE0E94AB1070E060E078
:102450008B2D0E940711C114D10419F086EE0E9441
:102460006E10E114F10419F081EE0E946E10CD2B74
:1024700009F471CF70E060E08CE262CFA4E0B0E0DC
:10248000E4E4F2E10C9492238C01FC018481882322
:1024900009F4E7C061E0C8010E94A80C7C01F801C2
:1024A0008581882309F4BDC097013757203831054D
:1024B00008F0C3C4DE2CFFE0FE1508F4C3C08FEFA4
:1024C00093E00E94F9238111BDC064EBE62EFF2446
:1024D000F394D11039C054E0352EAE014F5F5F4FF9
:1024E0003A0144244A94F301232D11922A95E9F7E5
:1024F00067013FEFC31AD30AC7010E94F9238983FA
:10250000882309F49FC08130D9F4570142E0A40E1A
:10251000B11CC6010E94F923582E8A83882309F42E
:1025200091C08FEF850D8330F0F4670153E0C50E45
:10253000D11CC5010E94F9238B83882309F445C06F
:10254000C3010E94821141C0E11424E0F20609F4A3
:1025500079C0C7010E94F923811101C0DA943FEFCD
:10256000E31AF30AB6CF8BEF850D833080F5470170
:1025700083E0880E911CC5010E94F9238B836401BE
:10258000882319F1670194E0C90ED11CC4010E948F
:10259000F9238C838823C9F0EB80FC80E1E0EE1600
:1025A000EFEFFE0610F0FE2CEE24F6E05F1651F081
:1025B00027E0521619F0C7010E94F619C7010E94C0
:1025C000BE1903C0C7010E94F61976018CCF34E012
:1025D00065015312FACFC5010E94F923B82E670195
:1025E00044E0C40ED11CC70103960E94F923BB200E
:1025F00049F1882339F1E82FE150FF0B4E9EC001CD
:102600004F9E900D11244B2D4150550B840F951F5B
:102610000197D8F2EFE9FFE03197F1F700C0000031
:10262000F7CFF701E851FC47E730F10508F0EDC3BB
:10263000E95AFB4D0C94842326E241EE61EEC80179
:102640000E941F118091AE01877059F0F8018581B9
:10265000882339F08091CC0182FF03C082E00E9480
:102660001C092496E1E10C94AE2327E245EE65EEC9
:10267000E6CF26E241EE60EEE2CF27E245EE64EEE1
:10268000DECF26E241EE62EEDACF27E245EE66EEDD
:10269000D6CF28E241E0EBCF8091CB0181608093DF
:1026A000CB0195C08091CC0188608093CC018FC014
:1026B0008091CB018260F3CF8091CB018460EFCF1A
:1026C0008091CB018860EBCF8091CC018160EDCF10
:1026D0008091CC018260E9CF8091CB018061DFCF16
:1026E0008091CB018062DBCF8091CB018064D7CF1A
:1026F0000E94360D8091CB018068D1CF8091CB01B3
:102700008C60CDCF8091CC018360CFCF8091CB0105
:102710008E7FC5CF8091CC01877FC7CF8091CB01C1
:102720008D7FBDCF8091CB018B7FB9CF8091CB01C5
:10273000877FB5CF8091CC018E7FB7CF8091CC01C0
:102740008D7FB3CF8091CB018F7EA9CF8091CB01BC
:102750008F7DA5CF8091CB018F7BA1CF0E94360DBD
:102760008091CB018F779BCF8091CB01837F97CFD7
:102770008091CC018C7F99CF8091CB0182FB9927EE
:1027800090F921E0922790FB82F990FB83F987CFA3
:102790008091CC01982F909591708E7F892B90FB22
:1027A00081F983CF9091CB01892F8F7B96FF806435
:1027B00076CF0E94360D9091CB01892F97FB87F938
:1027C00080586DCF61E08EE090E00E941724609108
:1027D000CB017091CC0184E090E00E9435240E94EE
:1027E000360D30CF60E0EFCF9091CB01892F8F7EF7
:1027F00094FF806154CF9091CB01892F8E7F90FF01
:1028000081604DCF9091CC01892F877F93FF8860A5
:102810004CCF85E304C327E7E2162CE7F20601F16B
:1028200038E7E3163CE7F30641F19701205E3245B5
:102830002032310520F5811137C0EE2DEF7181E096
:1028400090E07C0102C0EE0CFF1CEA95E2F76E2DD1
:1028500083E090E00E9417248E2D0E945609F2CE4C
:1028600081E00E94330943E062E081E00E94EF08CA
:10287000E9CE81E00E940F09F6CF82E0F2CF8823F3
:1028800099F043E0E4164CE7F40609F47DC008F043
:102890005CC0E1148CE7F80609F469C091E0E91620
:1028A0009CE7F90609F476C0F8018581E080F180A3
:1028B000882309F47DC0C7010E94490CD82E682FD7
:1028C000C7010E94D108B7018D2D0E941B0C0E94E8
:1028D00002077C01882EF801A580968092943FE043
:1028E00093228091AE01877009F1DA2CAA20F9F0C9
:1028F0008F2D807F803469F080E28E0D8830B0F0BB
:102900008F2D807E803229F4F1E0FE1578F4992035
:1029100069F08091CC0182FF09C082E00E941C090D
:102920008091AE018770DD24D3948111D12CCF2CFE
:10293000C2942FE0C2222BE02C1508F4A0C0EC2D8D
:10294000F0E0E25AFB4D0C948423EBE5EE16ECE745
:10295000FE0661F1FCE5EF16FCE7FF06E9F02AE56B
:10296000E2162CE7F20609F09FCF81E01CC00E941E
:10297000360D3FEF44E35CE0315040405040E1F71A
:1029800000C000000E949F046FEF7FEF90E080E0A6
:102990000E9435240E9432108091CC0182FB88274E
:1029A00080F991E089270E94D30C7ECF80E0FBCF95
:1029B000C7010E948908D82E86CF3F2D3F70B32EC5
:1029C0008F2D807F19F0B29490EFB922AA20B9F030
:1029D000BB2069F080E28E0D883010F0811009C0B4
:1029E0008091B801B82AB092B8010E94EA0C8E2DED
:1029F00044C08091AF01B82AB092AF01F6CF8E2DBE
:102A00000E946E10BB20D9F180E28E0D883010F04C
:102A1000811004C08B2D0E94400806C0B0948091A4
:102A2000AF01B822B092AF010E94EA0C28C04F2D2E
:102A30004F70B42E8F2D807F803219F0B29480EFCA
:102A4000B822882051F051E0851609F46FC0AA2001
:102A500009F47BC0992059F1CACF8091CC0182FD45
:102A600022C0AA20D1F0BB2039F0F090B801FB2899
:102A7000F092B8010E94EA0C80E00E94AB104C2D4D
:102A80004850550B4430510508F08EC10E942F0567
:102A900060E0C8010E94A80CE4CD80E00E946E10A6
:102AA000BB2069F3B7CFAA2061F1911004C08B2D30
:102AB0000E946410E4CF81E0981210C0F090BB0136
:102AC0008B2D8F21B816D9F20E94BC049093BA01C5
:102AD0008093B901FB28F092BB01D1CF95E0991208
:102AE000CECF8B2D0E9464108B2D0E942B088091DD
:102AF000AB019B2D9823B91611F28B298093AB0162
:102B0000BECF91100AC08B2D0E945D108B2D0E94AC
:102B10002B088B2D0E944E08B2CFE1E09E12AFCF62
:102B20008091B8018B2109F4AACFEDCFAA2029F01A
:102B3000F5E0F91508F4A3CFBACF24E0291508F47D
:102B40009ECF8B2D0E945D109ACF9920D1F339E34F
:102B5000831209C04FEF57EE83E041505040804050
:102B6000E1F700C000008E2D0E946E1088CF8F2DDF
:102B700086958695837061F0813009F080CFC7011A
:102B80009370A11002C080E090E00E94E50477CF2E
:102B9000C7019370A11002C080E090E00E940A0576
:102BA0006ECF6A2D8E2D0E94590969CF8F2D8370AB
:102BB00091F5A11064CF4E2D429546954770440F74
:102BC000440F8E2D8F70042E01C0880F0A94EAF7EF
:102BD0002E2D2071E4FE07C02FE030E001C0220F4F
:102BE0004A95EAF720953F2D369536953370323069
:102BF00069F050F44091C901313029F0822B8423CF
:102C00000E9456093CCF842B822BFACF282B80912F
:102C1000C9018227F5CF8695AA2011F08F2D8170EA
:102C2000882309F42CCF4E2D429546954770440FCA
:102C3000440F8E2D8F70042E01C0880F0A94EAF77E
:102C40002E2D2071E4FE07C02FE030E001C0220FDE
:102C50004A95EAF720953F2D3695369533703230F8
:102C600069F050F44091CA01313029F0822B84235D
:102C70000E94EC0804CF842B822BFACF282B809162
:102C8000CA018227F5CF9F2D9F70F92EAA2029F027
:102C9000892F0E9433098E2D0BCF8E2D0E945D103F
:102CA0008F2D0E940F09EBCE8E2DE2EF8E16B1F123
:102CB000E81570F0F0EF8F16D1F021EF821691F049
:102CC000AA2009F461C0911092CE8F2D8F712AC075
:102CD00033EF831651F144EF8412F2CF8091CC018F
:102CE00082FD2FC08F2D8F71AA20D9F21BC0AA2080
:102CF00081F054E0591508F4C2CE2F2D2F7181E0D8
:102D000090E001C0880F2A95EAF79091CA018927BF
:102D1000AFCF85E0891508F4B2CEEFCF8F2D8F713C
:102D2000A110BFCF0E943309AACE80E0AA2009F4E7
:102D30009FCF9F2D9F7181E001C0880F9A95EAF780
:102D400097CFAA20B1F08091AE018770843041F412
:102D50000E9447088F2D8F710E940F09D12C8FCEB2
:102D600094E063E09915D0F38F2D8F710E943F0995
:102D7000F5CFE4E0E91520F40E94470864E0F4CFC1
:102D800081E00E941C09EACF992059F0893309F0AB
:102D9000EACEFFEF27EE33E0F15020403040E1F77C
:102DA000E0CE8F2D8F717DCFDD2009F471CE809123
:102DB000AE0180FD6DCEF8011582869586958695CB
:102DC0000E943309C8010E943E128091AE0186958F
:102DD000869586950E940F095BCEF6E1EF16FCE71B
:102DE000FF0609F018CD8091B8018A7A91E009F4C4
:102DF00090E09093880169E2811165E380E891E0B9
:102E00000E94CB040E94EA0C1DCC26E1E2162CE7BE
:102E1000F206A9F5809188018111FBCC89E2E2E8F4
:102E2000F1E028E831E09191891303C0DF011197A7
:102E30001C922E173F07B9F7E5CFF701E851FC4781
:102E4000E730F10508F4F4CB10925E029701305799
:102E50002332310508F0C1CF84E090E00E940124C4
:102E60009093CC018093CB01F701E150F047E2321F
:102E7000F10508F011CCE659FB4D0C94842337E79B
:102E8000E3163CE7F30609F4F4CC48E7E4164CE714
:102E9000F40609F0CACC82E0EDCCCF93DF938091A9
:102EA000AA01807F09F04DC08091A901882309F40F
:102EB00048C0E0915B0250912202C091A501D091DF
:102EC000A4016091A6017091A70147E05E17C9F1C6
:102ED0008E2F90E0E49FF0011124ED5DFD4F2481E1
:102EE000222391F1489FF001499FF00D1124DF0149
:102EF000AD5DBD4F11962C9111972C1325C02C91CF
:102F00002D1322C015962C91159721111DC01296D4
:102F10002D913C91261B370B283C3105A8F480915C
:102F2000AA018F7080618093AA01E75DFD4F8081C7
:102F30008F708061808384EA91E00E943E120E943B
:102F40005808DF91CF910895FC013196E770BECF0C
:102F5000A4E1B0E0EEEAF7E10C9497238C0186E05F
:102F6000F801DE011F9601900D928A95E1F7F801B4
:102F70008481E58094EAA92E91E0B92E9091A80170
:102F8000911128C0882319F1EE20F1F0C8010E94A8
:102F9000850CF82E8823C1F087E0F801D501019057
:102FA0000D928A95E1F78091A801813031F48091EA
:102FB000A4019091A5010E94780C0E944D178F2DBD
:102FC0006496ECE00C94B323C8010E943E12FF24E7
:102FD000F394F5CFD080C18082809380F090A901D6
:102FE0002091A6013091A701A401421B530BFF20A1
:102FF00009F4D9C0483C510508F092C08823F9F281
:103000009091A5018091AA01282F207F09F056C038
:10301000C91214C09091A401D91210C0E11048C087
:103020008F7080618093AA0184EA91E00E943E1231
:103030008091AA01F8018683F12CC1CFE11038C03C
:103040006C2D8D2D0E9425036C2D8D2D0E94250346
:10305000E82E8111F1CFDF86C88A8F8598890E947A
:10306000780C292F22952F70243058F49F7022302D
:1030700088F0992399F0F8019681907F79F4FE2CDD
:103080009ECF2A5F2F70223068F0C8010E943E1246
:10309000EF2CF5CF992311F0882389F3805E8830D7
:1030A00070F3F3CF803F58F3815F833070F7E7CF41
:1030B0008091AA0181608093AA01BECFC91207C086
:1030C0009091A401D91203C0EE2009F48DC0C8016B
:1030D0000E94850C882309F477CFEE2009F474CF81
:1030E0008091AA01803288F02091A4013091A5013D
:1030F000398728879B868A869091A8019C871D86A0
:103100008E87CE0108960E943E1287E0F801A4EA5D
:10311000B1E001900D928A95E1F70E944D1757CFCB
:103120009091AA01292F207F51F484EA91E00E9416
:103130003E1287E0F50111928A95E9F77DCF882349
:1031400009F43DCF8091A5018C1110C08091A4019C
:10315000D8120CC0E1100AC09683C8010E943E122A
:1031600087E0F50111928A95E9F729CFC8010E94FD
:10317000850C882309F428CFEE2009F425CF80910F
:10318000AA01803210F22091A4013091A5013A8366
:1031900029839C828B829091A8019D831E828F83BC
:1031A000CE010196B0CF483C5105D0F6882309F4F2
:1031B0000ECFFE2CEE2009F407CF8091A5018C11D3
:1031C00020C08091A401D8121CC08091AA0180FD6A
:1031D0000FC0982F907F61F08683903F31F0982F39
:1031E000907F905F8F70892B8683C8010E943E126A
:1031F00087E0F801A4EAB1E001900D928A95E1F729
:10320000DECEC8010E94850C81117FCF8091AA017A
:1032100081608093AA01C8010E943E12D0CEABE12A
:10322000B0E0E5E1F9E10C94A0234E8B5F8B688F51
:10323000798F8A8F9B8F91111092AF011D8A86E042
:10324000FE017696DE011F9601900D928A95E1F7B8
:103250008091CC0182FF1CC00E94BC042091AC0173
:103260003091AD01821B930B8838934120F08091FF
:10327000AE0182FF7FC00E94BC042091B901309151
:10328000BA01821B930B8838934110F00E942008EA
:103290008B89882351F061E0CE010F960E94A80C23
:1032A00061E0CE010F960E94A80C87E0FE013F96D8
:1032B000DE01189601900D928A95E1F7CE010896ED
:1032C0000E94A81781110CC087E0FE013896DE012C
:1032D000119601900D928A95E1F78C8581110BC0B2
:1032E00017E080915B0290912202891331C06B96A6
:1032F000E3E00C94BC232091220230E0C901019646
:103300008770992740915B024817190699F097E05A
:10331000929FD001939FB00D1124AD5DBD4FFE0172
:10332000319601900D929A95E1F7809322020E94C6
:103330005808D6CF0E94360D1092220210925B02DE
:1033400087E0E4EAF1E0DF011D928A95E9F7C8CF52
:10335000819FC00111248D5D9D4F0E94A817882375
:1033600031F280915B0290E00196877099278093FB
:103370005B02B7CF82E00E941C097DCFA6E0B0E0DF
:10338000E4ECF9E10C949F238C019093EA01809383
:10339000E901011580E21807C0F4802F0E946E1029
:1033A000C8010E94310A9801205E31092830310598
:1033B00018F00115110531F40E945D102696E4E025
:1033C0000C94BB230E944810F9CF80EF89838A8335
:1033D0000E94BC048160682F9C838B8349815A8141
:1033E0007C8181E090E00E940F19E8CFA6E0B0E078
:1033F000ECEFF9E10C949F238C019093EA01809308
:10340000E901011580E21807C0F4C8010E94310AE1
:103410009801205E31092830310518F00115110599
:1034200049F40E946410802F0E94AB102696E4E0BD
:103430000C94BB230E945310F6CF80EF89838A83BC
:103440000E94BC048160682F9C838B8349815A81D0
:103450007C8181E091E00E940F19E8CFA6E0B0E006
:10346000E4E3FAE10C949F230E94BC048C01809158
:10347000BC019091BD018017910781F019821A82D9
:103480000E94BC04682F49815A81792F80E090E026
:103490000E940F191093BD010093BC012696E4E031
:1034A0000C94BB238F929F92BF92CF92DF92EF92A8
:1034B000FF920F931F93CF93DF93CDB7DEB728977B
:1034C0000FB6F894DEBF0FBECDBF8E010F5F1F4F4A
:1034D00088E0F80111928A95E9F79FE4E92E91E0DE
:1034E000F92EBB24B394CC24C394D12CF701819141
:1034F0007F018F3F09F449C0F894E82FE295EF70FF
:10350000F0E021A18F70A60102C0440F551F8A95DB
:10351000E2F7CA01922F982B91A392A1809589235B
:1035200082A3789400C087E5882E81E0982ED80188
:103530006B2D6095F40191914F018D919D0121506A
:1035400031099F3F09F456C0492F42954F7050E012
:10355000FA0140A150E09F7002C0559547959A9599
:10356000E2F740FD47C08B29F9018083FFE58F1604
:10357000F1E09F06F9F6F701319780818F3F11F056
:103580000E94FA0540EA4A95F1F7BB0C57E5E516AB
:1035900051E0F50609F0AACF48E050E0B80181EC0F
:1035A00091E00E94E523892B49F188E0F801A1EC24
:1035B000B1E001900D928A95E1F781E08093C0011E
:1035C0000E94BC049093BF018093BE0110E0812F44
:1035D00028960FB6F894DEBF0FBECDBFDF91CF9116
:1035E0001F910F91FF90EF90DF90CF90BF909F9031
:1035F0008F9008958623B8CF10E021C01091C001AC
:10360000112321F3E090BE01F090BF010E94BC04A1
:103610008E199F090597D0F248E050E061EC71E007
:103620008FED91E00E94E523892B31F388E0E1ECF6
:10363000F1E0AFEDB1E001900D928A95E1F71092C3
:10364000C001C5CF1F920F920FB60F9211242F9376
:103650003F934F935F936F937F938F939F93AF931A
:10366000BF93CF93DF93EF93FF93D091E900DF7087
:103670008091EC00C82FC17080FDC0E81092E90075
:103680008091F000877F8093F00078940E945D0D18
:103690001092E9008091F00088608093F000CD2BBB
:1036A000CF70C093E900FF91EF91DF91CF91BF916F
:1036B000AF919F918F917F916F915F914F913F91CA
:1036C0002F910F900FBE0F901F9018951F920F9281
:1036D0000FB60F9211242F933F934F935F936F93E5
:1036E0007F938F939F93AF93BF93EF93FF938091BB
:1036F000E10082FF09C08091E20082FF05C0809155
:10370000E1008B7F8093E1008091DA0080FF24C08C
:103710008091D80080FF20C08091DA008E7F809356
:10372000DA008091D90080FFAAC080E189BD82E1E2
:1037300089BD09B400FEFDCF81E08093180280911D
:103740000D02811109C00E9444030E94E50380918B
:10375000E20084608093E2008091E10080FF1AC063
:103760008091E20080FF16C08091E2008E7F8093FE
:10377000E2008091E20080618093E2008091D800B5
:1037800080628093D80019BC85E08093180283E0A2
:1037900080930D018091E10084FF30C08091E200B0
:1037A00084FF2CC080E189BD82E189BD99B5892F54
:1037B000817090FFFBCF9091D8009F7D9093D800AF
:1037C0009091E1009F7E9093E1009091E2009F7EB6
:1037D0009093E2009091E20091609093E2009091CA
:1037E0001902992309F451C094E090931802909122
:1037F0001802943009F482E080930D018091E10079
:1038000083FF2CC08091E20083FF28C08091E100FB
:10381000877F8093E10082E0809318021092190262
:103820008091E1008E7F8093E1008091E2008E7FA5
:103830008093E2008091E20080618093E20042E0A8
:1038400060E080E00E94B3038091F0008860809384
:10385000F00081E080930D0180930C01FF91EF91C6
:10386000BF91AF919F918F917F916F915F914F9198
:103870003F912F910F900FBE0F901F90189519BC7C
:103880001092180210920D0267CF9091E30097FDFD
:1038900002C0982FAACF93E0A8CF78941F921FB6AA
:1038A0001F9211248F939F93AF93BF93809109022E
:1038B00090910A02A0910B02B0910C020196A11DF9
:1038C000B11D8093090290930A02A0930B02B0935A
:1038D0000C02BF91AF919F918F911F901FBE1F90BF
:1038E00018951F921FB61F9211248F939F93AF9329
:1038F000BF9380910802811113C0809109029091B9
:103900000A02A0910B02B0910C024196A11DB11DBB
:103910008093090290930A02A0930B02B0930C02C9
:10392000BF91AF919F918F911F901FBE1F901895CF
:10393000CDB7DEB7ED970FB6F894DEBF0FBECDBFA3
:1039400085B7806885BF85B7806885BF84B7877F66
:1039500084BF0FB6F894A895809160008861809329
:103960006000109260000FBE80E890E00FB6F894FF
:1039700080936100909361000FBE81E080930D0100
:1039800088EF95E090937F0180937E010E9444032D
:103990000E94E5038091E20084608093E2007894C5
:1039A000809118028823A1F01091E9001F70909176
:1039B000EC00892F817090FD80E8182B1092E900AF
:1039C0008091E80083FD0E945D0D1F701093E90057
:1039D00082E084BD93E095BD9AEF97BD80936E0021
:1039E0000E949F0B811102C00E948F0BEBEEF1E051
:1039F00088E0DF011D928A95E9F781E08093D80184
:103A000060E080E00E94C00561E080E00E94C005A7
:103A1000EFE8F1E03197F1F700C0000010E080918D
:103A2000D801181708F4C3C00FE411E027E5E22E0F
:103A300021E0F22ED8018D918D018F3F11F00E946F
:103A4000FA05E016F106B1F707E511E09FE5E92E6A
:103A500091E0F92EF80181918F018F3F11F00E94C2
:103A6000FA05E016F106B1F788E0EFEDF1E0DF01CD
:103A7000282F1D922A95E9F7E1ECF1E0DF011D9274
:103A80008A95E9F790E080E00E940124853E9E4FF0
:103A900021F40E949F0B811163C065EE7EEF90E0E0
:103AA00080E00E94352460E082E090E00E941724CC
:103AB00081E08093C90161E083E090E00E941724D7
:103AC00060E074E184E090E00E94352460E086E0EC
:103AD00090E00E94172460E087E090E00E941724A5
:103AE00040E050E0BA0188E090E00E94292460E0C4
:103AF00083E290E00E94172460E08CE090E00E9456
:103B0000172460E08DE090E00E94172419821A8249
:103B10001B821C821D821E821F82188648E050E094
:103B200067E170E0CE0101960E94072440E050E07A
:103B3000BA018FE190E00E94292480E00E94BF0A30
:103B40000E948F0B40E050E0BA018FE090E00E94AD
:103B5000292440E050E0BA0183E190E00E9429244A
:103B600082E090E00E94F9238093CD0184E090E010
:103B70000E9401249093CC018093CB010E94521AA1
:103B8000EFEFF6E721E0E150F0402040E1F700C020
:103B900000000E94521A8091DF0180FF1AC06FEF6F
:103BA0007FEF90E080E00E9435240E949F0460E057
:103BB000812F0E94B305082F61E0812F0E94B30579
:103BC000E12FF0E0E952FE4F880F802B80831F5FCA
:103BD00026CF83E090E00E94F9230E94560980E0FE
:103BE00091E090930502809304028FED91E038E01C
:103BF000380F3DAF33243394222423948E010F5F7A
:103C00001F4F80911802853079F4A0E4FA2EB0E1BC
:103C1000EB2E82E1D82E80911802853009F44CC039
:103C20000E94360D0E942F050E94521AEEECEE2ED5
:103C3000E1E0FE2EFFEDCF2EF1E0DF2ED601F70101
:103C400091918D9121E0E63DF20709F467C0981744
:103C5000B9F3B12CD601AD906D01F70171907F01E0
:103C60007A1419F17A24912C88248394872D882141
:103C7000A1F09DAABEAA0E94BC0498AF8FAB29AE4A
:103C800091E08A2D882109F490E09AAF4DA95EA9B0
:103C90006FA978AD89AD0E940F199394880CF8E054
:103CA0009F12E4CFF7013197A082B39428E0B212BB
:103CB000D1CF0E94B00436C080911802843019F12F
:103CC0001092080288E190E00FB6F894A8958093CE
:103CD00060000FBEF092600083B7817F846083BF75
:103CE00083B7816083BF7894889583B78E7F83BFC5
:103CF0000FB6F894A8958091600088618093600069
:103D0000109260000FBE0E94521AEFEDF1E0819117
:103D1000811192C39DAD9E13FACF7DCF981399CF99
:103D20000E942E1A8091D901882351F01092D90156
:103D30008091ED018093EE018091EB018093EC0185
:103D4000D12C3CC061E08D2D0E94B305F82E60E0BF
:103D50008D2D0E94B305EF2DEE0FE82B2D2D30E0B9
:103D6000D901A952BE4F9C91892F8370E81729F180
:103D7000990F990FE92BEC93EF70F0E0E15AFE4FA9
:103D8000C9018A529E4F7C018081D701CC90C80E18
:103D9000CC92B3E060E0BC1524F0EDEFCE1624F435
:103DA00061E08D2D0E94D3058C2DCC0C990B64E025
:103DB00070E00E947023D7018C93D3948091D80136
:103DC000D81608F4BFCF90E04CEFD42E53E0C52EA8
:103DD0006DEFB62E72E0A72E8091EE012091ED01DD
:103DE000281709F449C3E82FF0E0E151FE4F908114
:103DF00097FBEE24E0F8F92EE894F7F88F5F8370D4
:103E00008093EE018091EC018F5F8093EC01E110D3
:103E100008C00E94BC04F9A6DAA69CA78BA7CDA671
:103E200007C00E94BC04F9A6BAA69CA78BA7ADA6A2
:103E30003EA649A55AA56BA57CA58DA59EA50E9469
:103E40000F19EE2091F00E94BC04FFA6B8AA9AAB0D
:103E500089ABABAA1CAA4FA558A969A97AA98BA9B5
:103E60009CA90E940F1991E0B7CF0E94BC04FFA645
:103E7000D8AA9AAB89ABCBAAEDCF3092FE015CC336
:103E80003092FF0161C330920002A1C3309201025F
:103E9000A6C38091F100F70181937F01F1E0CF1A71
:103EA000D10809F4E5C38091E80085FDF2CF809147
:103EB000E8008B778093E8000E946303882399F3DE
:103EC000D7C38C3009F4D2C068F5843009F4B5C08A
:103ED00058F4823009F46BC008F0A0C0813009F4B6
:103EE00062C08FEF898374C0863009F4BCC008F4C7
:103EF000AFC08B30B1F78091F3019091F401892B21
:103F000009F466C040E250E0B80182E00E94620A13
:103F10003FEF81EE94E0315080409040E1F700C0E7
:103F2000000043CE803109F4D2C088F58E3009F408
:103F3000A4C008F49EC08091F3019091F401892BF4
:103F400009F446C0EC80F12C3DE1E316F10408F0E1
:103F50003FC0CA80DB80DC24CD24DC245801E00E85
:103F6000F11EC6018C549E4FAE14BF0489F1ACE41F
:103F7000CA16A2E0DA0620F4F50164810E94172433
:103F8000FFEFAF1ABF0A2FEFC21AD20AEACF82316F
:103F900009F4A2C008F49EC0833109F4C6C08E3F64
:103FA00009F09FCF81C31A8289E08B8311C08A8177
:103FB000823009F482C3833091F0813009F091CFCF
:103FC0000E94B0040E948A236B837C838D839E832E
:103FD00040E250E0B80182E00E94620A12CE809175
:103FE000F3019091F401892B99F38091DF018B8388
:103FF0008091E0018C838091E1018D838091E201C9
:104000008E838091E3018F838091E4018887809182
:10401000E50189878091E6018A87DACF8A8182303B
:1040200009F05FCF6B817C818D819E810E948A2304
:1040300087E290E00E941724CBCF4C816B818A816C
:104040000E94EB0B9827892798279E838D83C0CFEA
:104050002D813E813227232732274C816B818A8133
:104060000E94130BB5CF0E943A0BB2CF80E18A8336
:10407000AFCF82E08A838CE498CFEC80F12C2DE1E5
:10408000E216F10408F0A4CFCA80DB80DC24CD2442
:10409000DC245801E00EF11EC6018C549E4FEA1438
:1040A000FB0409F495CF3CE4C31632E0D30660F478
:1040B0000E94F923D50114968C93FFEFCF1ADF0AE3
:1040C0002FEFA21AB20AE8CFF5011482F6CF0E94B0
:1040D000D80A7ECF83E0CBCFEC80F12C3DE1E31614
:1040E000F10408F075CFCA80DB80DC24CD24DC2409
:1040F0005801E00EF11EC6018896AE14BF0409F403
:1041000067CFA0E8CA16A1E0DA0658F40E94F923A6
:10411000F5018483BFEFCB1ADB0AEFEFAE1ABE0ABC
:10412000EACFD50114961C92F5CFCC80D12CFDE1BD
:10413000CF16D10408F04CCFEA80FB80FE24EF2498
:10414000FE2420E8E21621E0F20608F041CF80E8E4
:1041500091E08E199F098C159D0508F439CF370120
:1041600038E2630E711C8091F3019091F4012701F4
:104170004C0C5D1C892BB9F5570181E0A822BB24AA
:10418000E0FE0DC0C70187960E94F9239D81892713
:104190009827892781159C4711F48FEF8D8346015D
:1041A00040FE1AC0B1E08B1A9108E5E0F0E0EC0F98
:1041B000FD1FE80DF91DFCAFEBAFC3018C0D9D1D7C
:1041C0000E94F923ABADBCAD9C9181159C4721F4B5
:1041D0008FEFEBADFCAD8083F801EA0DFB1D2FEFF7
:1041E000A814B90410F068011BC094818581811561
:1041F0009C4711F42483258382E0A80EB11C3296DB
:10420000EFCFA0E8EA16A1E0FA0620F4F6016481F7
:104210000E941724FFEFCF1ADF0A2FEFE21AF20AEB
:10422000C70188964E145F0461F7D2CE88E0EEE0B5
:10423000F1E0DE01919601900D928A95E1F780E21E
:10424000D8011D928A95E9F786E0898388E0FE010E
:10425000B196DE01159601900D928A95E1F7B8CEE0
:1042600088E889833A821B821C82B2CE8C81682FB7
:1042700070E0762F66278B81860F972F911D092E70
:10428000000CAA0BBB0B25E0880F991FAA1FBB1FB0
:104290002A95D1F7AC01BD01405E5F4F6F4F7F4F54
:1042A000481759076A077B0708F492CE8838E1E07F
:1042B0009E07A105B10508F08BCE4938F1E05F07F4
:1042C0006105710520F048E851E060E070E0481BAE
:1042D000590BBC0163577E4FC8010E94DC2378CE86
:1042E000FB80EC8040E06E2D8F2D0E94B80B98274C
:1042F000892798279A83898341E06E2D8F2D0E940C
:10430000B80B9827892798279C838B8361CE2E81B1
:104310003F8132272327322721158CE7380741F4C4
:104320008091F3019091F401892B11F430E020E0A9
:1043300041E08D81811101C040E06C818B810E9440
:10434000E80A46CE4AE150E06FEF70E0CE010796F2
:104350000E94F2238091F3018983EA821B821C82EE
:104360003D823E8235CE81E090E09093E8018093DB
:10437000E70182E390E09093DE018093DD010E94EB
:10438000BC049093DC018093DB0122CEEF2871F115
:10439000D090DF01C090E001E090DB01F090DC0103
:1043A0000E94BC048E199F098536910540F1C1FE1B
:1043B00026C0D0FE24C00E94BC049093DC018093F0
:1043C000DB018091DD019091DE0101979093DE0188
:1043D0008093DD01892B51F41092E8011092E701DE
:1043E00081E090E09093F4018093F3018091F301D8
:1043F00089838091E7018A838091DD01D6CD82E3B4
:1044000090E09093DE018093DD01F0CF1092F401F3
:104410001092F301DDCD40E250E06FEF70E0C80193
:104420000E94F223D5CD8B818111D2CD80E2D801BB
:104430001D928A95E9F7CCCD80911702882309F463
:10444000EACBE9BCD9BC09B400FEFDCF8091D8000D
:104450008F7D8093D8008091E00082608093E0009F
:104460008091E00081FDFCCF0E94360DD4CB822BE1
:10447000892B09F4D1C0CEC091110E94B00486E00E
:10448000ECEFF1E0D80101900D928A95E1F7909060
:10449000FD01B090FE01D090FF01A0900002C090FD
:1044A00001021092FE011092FF0110920002109280
:1044B00001028D2D8B2909F447C0E090FA01F0909C
:1044C000FB010E94BC049C012E193F099091F5014B
:1044D000992309F400C125313105B0F19F3F19F04E
:1044E0009F5F9093F501BB2059F00E9485059FEFD7
:1044F0001B140CF491E0899F802D11248093FE0100
:10450000DD2059F00E94850591E01D140CF09FEF0D
:10451000899F802D11248093FF018091FE018823C3
:1045200099F0F090FF01FF2079F00E94A505882303
:1045300009F4A3CC8093FE018F2D0E94A50588234A
:1045400009F49ECC8093FF018A2D8C2909F447C081
:10455000E090F801F090F9010E94BC049C012E1932
:104560003F099091F601992309F4B0C02135310536
:10457000B0F19F3F19F09F5F9093F601AA2059F088
:104580000E9463059FEF1A140CF491E0899F802D1F
:10459000112480930002CC2059F00E94630591E021
:1045A0001C140CF09FEF899F802D11248093010231
:1045B00080910002882399F0F0900102FF2079F0A9
:1045C0000E94A505882309F45ECC809300028F2DFC
:1045D0000E94A505882309F459CC8093010280919B
:1045E000FD01981217C08091FE01882311F08B11F4
:1045F00011C02091FF01222311F0D2120BC0909123
:104600000102992311F09C1105C03091000233235F
:1046100009F42DCF0E943C0586E0F801ACEFB1E033
:1046200001900D928A95E1F70E942F059091DA0191
:10463000891721F08093DA010E94B004809118025A
:10464000843009F0DECA83E08093E9008091E800BD
:1046500082FFD7CA8091E80090E085FF0AC00E94DF
:10466000630330E2C32ED12C7801882309F41BCCDC
:1046700091E08091E8008B778093E800992309F41A
:10468000C0CAE090E701F090E8018981E114F104EB
:1046900009F417CC8E3F09F09BCC8A81833020F03F
:1046A0008550833008F094CCEA81EE3008F090CC4D
:1046B000F0E0E457FB4D0C94842387E290E00E94E5
:1046C000F9231B821C821D828E8382CC2B30310504
:1046D00008F051CF84CF2B30310508F001CF34CF13
:1046E00097FB072E16F4009407D077FD09D00E949F
:1046F000C82307FC05D03EF4909581959F4F0895FF
:10470000709561957F4F0895EE0FFF1F0590F4910E
:10471000E02D099469279627692778278727782726
:1047200008952F923F924F925F926F927F928F9255
:104730009F92AF92BF92CF92DF92EF92FF920F9330
:104740001F93CF93DF93CDB7DEB7CA1BDB0B0FB63A
:10475000F894DEBF0FBECDBF09942A8839884888F7
:104760005F846E847D848C849B84AA84B984C8848D
:10477000DF80EE80FD800C811B81AA81B981CE0F84
:10478000D11D0FB6F894DEBF0FBECDBFED01089569
:10479000AA1BBB1B51E107C0AA1FBB1FA617B70767
:1047A00010F0A61BB70B881F991F5A95A9F7809583
:1047B0009095BC01CD010895FB01DC0102C005907C
:1047C0000D9241505040D8F70895FB01DC0104C020
:1047D0008D910190801921F441505040C8F7881BF9
:1047E000990B0895DC0101C06D9341505040E0F7F2
:1047F0000895F999FECF92BD81BDF89A992780B5A9
:104800000895A8E1B0E042E050E00C943D24DC01C2
:10481000A40FB51F4150504048F0CB01840F951FA5
:104820002E910E94182441505040D0F70895262F11
:10483000F999FECF92BD81BDF89A019700B4021696
:1048400039F01FBA20BD0FB6F894FA9AF99A0FBE44
:1048500008950396272F0E9418240E941724252FBD
:104860000E941824242F0C9418240196272F0E94AC
:1048700018240C941724DC01CB01FC01F999FECF1C
:1048800006C0F2BDE1BDF89A319600B40D924150D8
:104890005040B8F70895F894FFCF420E6A0EBD0E4F
:1048A0006A0EBD0E9D0ECF0EBD0ED70FE40F39134D
:1048B0003D131C133513411345134913DD14DD1447
:1048C00017151715B715D1153F153F15D6154316F2
:1048D000541654168613FB138E1358135C1392133D
:1048E00060139613A2136C13F4137013A6137413AE
:1048F000AA13D2137813AE13D9137E13B413BC13B7
:1049000064139A1368139E138213B813C813E21327
:10491000F21352138A13021416213021362170210A
:104920008721A221B321C62106220B22E81FE81FFE
:04493000E81F132247
:10493400C804AB0A9E04A40A9D0A0000010049575A
:10494400BD3DC0A4F03E818283E200E900EA00B5E7
:1049540000B600B700CD008301CC008A0192019417
:10496400012102230224022502260227022A02B37D
:1049740000B4006F0070009F01CB019F02A002F4FD
:10498400F5F6F7313332369190946697C634350094
:10499400FF0100010000FFFF0000010001FF0044CF
:0E49A400227B49012701AC00B304CC04EC04D3
:00000001FF
