:100000000C94B4010C94D1010C94D1010C94D10145
:100010000C94D1010C94D1010C94D1010C94D10118
:100020000C94D1010C94D1010C94121C0C94E61C7C
:100030000C9441170C94D1010C94D1010C94D10172
:100040000C94D1010C94D1010C94D1010C94D101E8
:100050000C94D1010C94C8170C94D1010C94D101CB
:100060000C94D1010C94D1010C94D1010C94D101C8
:100070000C94D1010C94D1010C94D1010C94D101B8
:100080000C94D1010C94D1010C94D1010C94D101A8
:100090000C94D1010C94D1010C94D1010C94D10198
:1000A0000C94D1010C94D1010C94D10135001E00A7
:1000B0001F00200021002200230024002B00140038
:1000C0001A000800150017001C0018002900040081
:1000D0001600070009000A000B000D00E1001D00DA
:1000E0001B00060019000500110010002500260065
:1000F00027002A000C00120013004C000E000F0015
:10010000330034003600370038002800A800E00033
:10011000E200E30021522C002C00225200000000DB
:10012000000000005000510052004F0035021E0236
:100130001F022002210222022302240235021E0293
:100140001F02200221022202230224024C003A0054
:100150003B003C003D003E003F002D0201004000FE
:1001600041004200430044004500320225022602BD
:1001700027022A002502260227024C002E022F0207
:100180003002310264024A004D000100010001000A
:100190000100010001000100010001000000000059
:1001A00000000000AB00AA00A900AE0035001E0050
:1001B0001F002000210022002300240035001E0023
:1001C0001F00200021002200230024004C003A00E0
:1001D0003B003C003D003E003F002D000100400080
:1001E0004100420043004400450032002500260043
:1001F00027002A002500260027004C002E002F0093
:100200003000310064004B004E000100010001008D
:1002100001000100010001000100010000000000D8
:1002200000000000AB00AA00A900AE0016034300C6
:1002300059004F00410020004F0072007400680018
:100240006F00000012035300540048004C004D00A2
:1002500020006B00620000000403090409023B0057
:10026000020100A0FA0904000001030101000921B4
:10027000110100012244000705810308000109045F
:1002800001000103000000092111010001227B008F
:100290000705820320000112010002000000088609
:1002A00080585600010102000105010902A10185E3
:1002B000020901A100050919012908150025019568
:1002C00008750181020501093009311581257F95E5
:1002D000027508810609381581257F950175088109
:1002E00006050C0A38021581257F950175088106DF
:1002F000C0C005010980A101850319012AB70015B5
:100300000126B700950175108100C0050C0901A1F7
:1003100001850419012AA002150126A00295017584
:10032000108100C005010906A101050719E029E7B0
:100330001500250195087501810295017508810157
:100340000507190029FF150026FF0095067508818D
:10035000000508190129051500250195057501916C
:1003600002950175039101C011241FBECFEFDAE0A1
:10037000DEBFCDBF11E0A0E0B1E0E6E3FFE302C0E5
:1003800005900D92A83AB107D9F722E0A8EAB1E0AA
:1003900001C01D92AE38B207E1F70E94FE100C9426
:1003A0005A1F0C9400008330C0F46830B0F4483019
:1003B000A0F498E0899FF0011124E60FF11D83E07D
:1003C000EE0FFF1F8A95E1F7E40FF11DEE0FFF1FFF
:1003D000E455FF4F85919491089581E090E0089550
:1003E0000E94D301089581E008950E94F3010895C9
:1003F00081E008950E94F30108950E94FA01089592
:1004000008950E9400020895A6E0B0E0EAE0F2E05C
:100410000C94B61E49835A839E833091AF01898123
:100420009A8131111AC03E81332399F0222389F039
:100430000E949B07182F682F89819A810E94780754
:1004400069817A81812F0E94720E2696E3E00C94D6
:10045000D21E0E948907182FF3CF0E949B07698143
:100460007A81F1CFFC01262F408151816281738115
:10047000848195810E9404020895CF93DF93EC015B
:1004800061E00E943202BE010E94F501DF91CF912E
:100490000895CF93DF93EC0160E00E943202BE0129
:1004A0000E940102DF91CF91089581E008950E949A
:1004B00055020895CF93C82F0E944D068C2F0E949D
:1004C00057022FEF84E39CE0215080409040E1F7F9
:1004D00000C00000CF91089581E00E945A020E945E
:1004E000EC17089580E00E945A020E94FD170895BB
:1004F0000F931F93CF93DF938C0161E00E94320230
:10050000EC01B8010E94FD01811106C080E0DF917D
:10051000CF911F910F910895B801CE010E94AB15A4
:100520008823A1F3B801CE010E94D511882371F36D
:10053000B801CE010E94AB11882341F3F8018581F7
:10054000882361F0C330FCE7DF07E9F058F4C115F8
:10055000ECE7DE07A9F0C130DC47B9F0C8010E9422
:10056000F801D5CFCB358CE7D807A9F0CC35ECE72F
:10057000DE0771F0CA35DC4789F70E94B20BEECF77
:100580000E946C02C3CF0E94BA0B0E947202BECFBF
:100590000E94A80BE3CF0E94B60BE0CF0E941E176B
:1005A0000E94F50208950E94F9020E9423170895FF
:1005B000089581E008950895CF93DF93D82F0E9486
:1005C000D902C82F882319F08D2F0E94DB028C2FAF
:1005D000DF91CF9108950895CF93C82F0E94D8023C
:1005E0008C2F0E94DC02CF91089580E00E94EC02E3
:1005F00008950E94F4150E94EC020895CF930E9482
:10060000F415C82F8091AA018C1779F0C093AA0124
:100610000E94AD176093AB017093AC018093AD0164
:100620009093AE018C2F0E94EC02CF910895ADE023
:10063000B0E0EDE1F3E00C94B71E488759876A8774
:100640007B878C879D8791110E94E80A1F8286E034
:10065000FE013896DE01119601900D928A95E1F720
:100660008D8181110DC029813A814B815C816D8121
:100670007E818F810E94320A2D96E2E00C94D31E77
:10068000CE0101960E943D028111EDCFF5CFFC0114
:100690002481213021F4808191810E94CD07089529
:1006A000662329F00E9436130E941B1408950E94AD
:1006B000A213FACFCF93C82F882399F08CEF8C0F19
:1006C000813A88F48C2F0E947916882329F08C2F88
:1006D0000E94BC160E94570B8C2F0E94B4160E94D9
:1006E000570BCF91089580E28C0F883048F4C77083
:1006F00081E001C0880FCA95EAF70E94CB0AEFCFCC
:10070000EBE5EC0FE33040F4F0E0E55BFE4F808179
:1007100090E00E941A16E5CFE8E5EC0FEB3150F4BB
:10072000F0E0EE0FFF1FEB5EFE4F808191810E9493
:100730003F16D7CF83E38C0F833198F661E08C2F7F
:100740000E945003CECF882381F19CEF980F913AFD
:1007500028F40E94BC160E94570B089590E2980F4F
:10076000983050F4877091E001C0990F8A95EAF7AC
:10077000892F0E94D10AEFCF9BE5980F933028F480
:1007800090E080E00E941A16089598E5980F9B313A
:1007900028F490E080E00E943F16089593E3980FBC
:1007A000933118F460E00E94500308951F93CF9393
:1007B000DF93182FEB010E945A03209739F4812F01
:1007C0000E94A303DF91CF911F9108958FE99FE0CD
:1007D0000197F1F700C000002197EFCF70E060E0D3
:1007E000893311F460E570E00E94D60308958823F0
:1007F00021F00E94CB0A0E94570B0895882321F014
:100800000E94D10A0E94570B0895B0E0A0E0EBE0EF
:10081000F4E00C94B01E6C01D62FC72FFC0115819B
:10082000068102950F700E94C10AE82E8823F9F014
:10083000E12E1123E1F08C2F807F803461F080E283
:100840008D0F883008F18C2F807E803221F4D230D9
:10085000D8F00023C9F080916C0282FF15C082E0BD
:100860000E947C0B0E94C10A91E0E82EE926BC2E72
:10087000B2949FE0B922FBE0FB15B8F1EB2DF0E05C
:10088000E45AF04E0C94A11EE12CF1CF0C2F0F7006
:10089000C07F11F00295007F112399F0002359F0D9
:1008A00080E28D0F883010F0D11107C0802F0E9498
:1008B000CB0A0E94570B8D2F5AC0802F0E94DB0A53
:1008C000F8CF8D2F0E94A303002379F080E28D0FD3
:1008D000883010F0D11104C0802F0E94D10A03C0CB
:1008E000802F0E94E10A0E94570BEB2DE850FF0B6E
:1008F000349720F40E94F4150E94EC02EE2089F057
:100900000E94BD0A80FD0DC0F60115820E94B70A43
:100910000E94D606C6010E9414060E94B70A0E94D1
:10092000E606CDB7DEB7E9E00C94CC1E2C2F2F7075
:10093000F22EC07FC03219F0F29480EFF822DD234E
:1009400041F0D130D1F1112309F444C00023F1F07A
:10095000B2CF80916C0282FD15C0112359F0FF20A7
:1009600029F08F2D0E94CB0A0E94570B80E00E9435
:100970005A03BBCF80E00E94A303FF2009F4B5CF48
:100980008F2DABCF112369F0011104C08F2D0E9470
:10099000F703ABCF013009F0A8CF8F2D0E94FF0ADB
:1009A000A4CF0111A2CF8F2D0E94FE038F2D0E9494
:1009B0000B0B8F2D0E94EF0A98CF112321F00630E8
:1009C00008F093CFE3CF053008F08FCF8F2D0E9432
:1009D000FE038BCF0023D1F3D93349F43FEF87EEE9
:1009E00093E0315080409040E1F700C000008D2F2F
:1009F0000E94A3037ACF8C2F86958695837069F029
:100A0000813009F072CF8D2F9C2F9370111102C08D
:100A100080E090E00E943F1668CF8D2F9C2F93704E
:100A2000111102C080E090E00E941A165ECF612F83
:100A30008D2F0E94500359CF8C2F8370A1F5111177
:100A400054CF4D2F429546954770440F440F2D2F9C
:100A50002F7030E0042E02C0220F331F0A94E2F7F9
:100A600090E080E0D4FF09C08FE090E002C0880FE2
:100A7000991F4A95E2F780959095C695C695C370E3
:100A8000822B932BC23049F058F4C13019F00E94E8
:100A9000A6062BCF0E949D0628CF0E94AF0625CF29
:100AA0000E949A0622CF8695112311F08C2F817017
:100AB000882309F41ACF4D2F429546954770440F6D
:100AC000440F2D2F2F7030E0042E02C0220F331F51
:100AD0000A94E2F790E080E0D4FF09C08FE090E054
:100AE00002C0880F991F4A95E2F780959095C695A8
:100AF000C695C370822B932BC23049F058F4C13095
:100B000019F00E941107F1CE0E940807EECE0E9454
:100B10001A07EBCE0E94BE06E8CECF70112329F053
:100B20008C2F0E94D6068D2F32CF8D2F0E94FE0370
:100B30008C2F0E94E606D9CED23F41F160F4D03F1F
:100B4000B9F0D13F81F0112309F446C00111B3CEB1
:100B50008C2F8F711FC0D33F01F1D43FA1F780913B
:100B60006C0282FD24C08C2F8F71112311F312C0EF
:100B7000112341F0053008F0B8CE8C2F8F710E9400
:100B8000F806B3CE063008F0B0CEF7CF8C2F8F71B9
:100B90001111CFCF0E94D606A8CE112329F08C2F99
:100BA0008F710E94CA06A1CE0E94C5069ECE112357
:100BB00049F0CF718C2F0E94D60663E08C2F0E94E3
:100BC0005E0B93CE81E00E947C0B023008F48DCE48
:100BD00082E00E947C0B89CE002359F0D93309F0C2
:100BE00006CFEFEFF7EE23E0E150F0402040E1F7D1
:100BF000FCCE8C2F8F719DCF0F931F93CF93DF93DC
:100C0000EC01688179818D810E94D8078C010E9456
:100C100023070E949906B801CE010E940504DF91C6
:100C2000CF911F910F910895CF93DF93EC018C81A9
:100C3000882399F0CE010E947802811111C00E9490
:100C4000C10A882351F08D81882339F080916C028C
:100C500082FF03C082E00E947C0BDF91CF91089558
:100C6000CE010E94FC05CE010E944902F6CF90E021
:100C700080E00E941A1690E080E00E943F160E94D9
:100C8000E80A0E94570B0E9437140E941B14089513
:100C90000E94C4160E94370608950E94D80A0E9436
:100CA0004806089592959F70963091F058F4925F9F
:100CB0009F70923058F4803F19F030F4883E30F441
:100CC00081E008959A5FF4CF843FD1F380E00895E6
:100CD000883EB0F3813FD1F7F3CFFC01248122237A
:100CE00039F0808191810E94CD070E9452060895BB
:100CF00080E00895A6E0B0E0E0E8F6E00C94B71ECE
:100D00002696E2E00C94D31EA7E0B0E0EAE8F6E015
:100D10000C94B71E2796E2E00C94D31E08950E940F
:100D20008E0608950E948F069093D3018093D2017E
:100D3000089508950E94920608952091D20130915D
:100D4000D301822B932B0E94920608952091D20109
:100D50003091D301822393230E949206089520911B
:100D6000D2013091D301822793270E9492060895E1
:100D70000E948E0608950E94B80608950E94BB0640
:100D80009093D1018093D001089590E080E00E947B
:100D9000BE06089521E030E0A90102C0440F551FAE
:100DA0008A95E2F7CA010E94BE06089521E030E06C
:100DB00002C0220F331F8A95E2F78091D0019091F3
:100DC000D101822B932B0E94BE06089521E030E0D2
:100DD00002C0220F331F8A95E2F72095309580914B
:100DE000D0019091D101822393230E94BE060895E1
:100DF00021E030E002C0220F331F8A95E2F7809194
:100E0000D0019091D101822793270E94BE060895B8
:100E10002091D0013091D101822B932B0E94BE06EC
:100E200008952091D0013091D101822393230E9413
:100E3000BE0608952091D0013091D10182279327D9
:100E40000E94BE0608950895262F277091E001C0E4
:100E5000990F2A95EAF723E0769567952A95E1F7A9
:100E6000660F771F660F771FFA01E60FF71F50E036
:100E700040E0682F70E08191DF0111979B01042E03
:100E800002C0369527950A94E2F72170219528270C
:100E9000292328272C934F5F5F4F4430510559F782
:100EA0000895A82FA77023E0969587952A95E1F7D6
:100EB000880F991F880F991FFB01E80FF91F50E059
:100EC00040E080E0219130E00A2E02C0369527955F
:100ED0000A94E2F721703327042E01C0220F0A94EE
:100EE000EAF7822B4F5F5F4F4430510559F7089561
:100EF000262F983068F4883058F438E0939FB0017A
:100F00001124680F711D40EB51E0822F0E942407CD
:100F10000895983070F4883060F448E0949F900110
:100F2000112460EB71E0820F932F911D0E945107F5
:100F3000089580E00895B0E0A0E0E1EAF7E00C94C5
:100F4000B01E7C010091D0011091D1018091D2019D
:100F50009091D301082B192BCFE0D0E0CC24C3947F
:100F6000D12CBC2EC6010C2E02C0880F991F0A94EA
:100F7000E2F780239123892B49F4219790F7B12C34
:100F80008B2DCDB7DEB7E9E00C94CC1EB7018C2FCA
:100F90000E947E0E019789F3F3CFCF93DF93EC018C
:100FA0000E949B07BE010E947E0EDF91CF910895A3
:100FB0001F93CF93DF93EB019091AF01992339F009
:100FC000CB010E94CD07DF91CF911F910895882317
:100FD00069F0CB010E949B07182F682FCE010E9459
:100FE0007807BE01812F0E947E0EEDCFCB010E94BB
:100FF0008907182FF6CF1F93CF93DF93C091D401A9
:1010000017E08091D5018C1304C0DF91CF911F911F
:101010000895D0E01C9FF0011D9FF00D1124EA52AD
:10102000FE4F2081318142815381648175818681A7
:101030000E9484062196C770E4CF20910E02309161
:101040000F024091100250911102609112027091B2
:101050001302809114020E9484060895CF93DF93B7
:1010600080911402807F09F04DC080911302882383
:1010700009F448C0E091D4015091D501C0910F020C
:10108000D0910E02609110027091110247E05E173C
:10109000C9F18E2F90E0E49FF0011124EA52FE4F37
:1010A0002481222391F1489FF001499FF00D1124E2
:1010B000DF01AA52BE4F11962C9111972C1325C017
:1010C0002C912D1322C015962C91159721111DC01E
:1010D00012962D913C91261B370B283C3105A8F424
:1010E000809114028F70806180931402E452FE4F4D
:1010F00080818F70806180838EE092E00E94140670
:101100000E94FB07DF91CF910895FC013196E770B3
:10111000BECF482F2091D4019091D50157E02913DB
:1011200002C080E0089530E0529FF001539FF00D1F
:101130001124EA52FE4F8181681306C08081481352
:1011400003C085818111EECF2F5F3F4F2770E7CF1E
:10115000A4E1B0E0EEEAF8E00C94AD1E8C0186E06C
:10116000F801DE011F9601900D928A95E1F7F801D2
:101170008481E5809EE0A92E92E0B92E9091120222
:1011800091111FC08823D1F0EE20A9F0C8010E9460
:101190006D06F82E882379F087E0F801D5010190DB
:1011A0000D928A95E1F7C5010E9447030E942E081F
:1011B0000E941D085FC0C8010E941406FF24F3941A
:1011C00059C0C080D18082809380F090130220911A
:1011D000100230911102A401421B530BFF2009F4AD
:1011E000F9C0483C510508F0A7C0882309F442C063
:1011F00090910F0280911402282F207F09F05CC08B
:101200009D1116C090910E02C91212C0E1104EC07D
:101210008F708061809314020E941D088EE092E01E
:101220000E94140680911402F8018683F12C22C0DA
:10123000E1103CC06D2D8C2D0E9489086D2D8C2DE8
:101240000E948908E82E8111F1CFCF86D88A8F8538
:1012500098890E94CD07292F22952F70243078F489
:101260009F702230A8F09923B9F0F8019681907F01
:1012700099F4FE2C8F2D6496ECE00C94C91E2A5F25
:101280002F70223068F0C8010E941406EF2CF1CFB5
:10129000992311F0882369F3805E883050F3F3CFEF
:1012A000803F38F3815F833070F7E3CF8091140281
:1012B000816080931402BACF9D1113C090910E02E9
:1012C000C9120FC0E1100DC08683C8010E94140628
:1012D00087E0F801AEE0B2E001900D928A95E1F767
:1012E00067CFC8010E946D06882309F464CFEE2001
:1012F00009F461CF80911402803288F020910E02AF
:1013000030910F02398728879B868A869091120236
:101310009C871D868E87CE0108960E94140687E062
:10132000F801AEE0B2E001900D928A95E1F70E94DB
:101330002E080E941D0842CF90911402292F207F71
:10134000A1F4682D9A8A898AA6017A899E2D0E9425
:101350007A068EE092E00E94140687E0F501119271
:101360008A95E9F70E941D0861CF882309F482CF8E
:1013700080910F028D1110C080910E02C8120CC016
:10138000E1100AC09683C8010E94140687E0F501A7
:1013900011928A95E9F76ECFC8010E946D068823E5
:1013A00009F409CFEE2009F406CF809114028032AF
:1013B00008F4B5CF20910E0230910F023A832983B1
:1013C0009C828B82909112029D831E828F83CE011C
:1013D0000196A3CF483C5105B8F5882309F4EECE19
:1013E000FE2CEE2009F4E7CE80910F028D111EC075
:1013F00080910E02C8121AC08091140280FD0DC0A7
:10140000982F907F51F08683903F09F45ECF982FFC
:10141000907F905F8F70892B57CF87E0F801AEE007
:10142000B2E001900D928A95E1F724CFC8010E94A5
:101430006D06811174CF8091140281608093140233
:10144000C8010E94140616CF682D9A8A898AA601BF
:101450007A899E2D0E947A0687E0F50111928A957D
:10146000E9F7A6CEAEE0B0E0E8E3FAE00C94B61EF1
:10147000288739874A875B876C877D878E87CE016F
:1014800008960E94A8088823B1F06C85662341F075
:10149000288539854A855B857D858E850E948406F1
:1014A00017E08091D4019091D50189133DC02E960B
:1014B000E3E00C94D21E87E0FE013896DE0111961F
:1014C00001900D928A95E1F78C85882349F320914C
:1014D000D50130E0C9010196877099274091D40168
:1014E0004817190699F097E0929FD001939FB00D8D
:1014F0001124AA52BE4FFE01319601900D929A9589
:10150000E1F78093D5010E94FB07CACF0E944D06E8
:101510001092D5011092D40187E0EEE0F2E0DF01F5
:101520001D928A95E9F7BCCF819FC00111248A5290
:101530009E4F0E94A808882309F4B9CFE091D401F6
:101540001E9FF0011124EA52FE4F20813181428119
:1015500053816481758186810E9484068091D401C3
:1015600090E00196877099278093D4019ACF80915B
:101570001D02869586958695089580911D02877037
:10158000089590911D02977081E009F480E008951C
:1015900080912902089590912902892B8093290234
:1015A0000895809590912902982390932902089597
:1015B00010922902089590912802892B8093280285
:1015C0000895809590912802982390932802089579
:1015D00010922802089508950E94EB0A08959091B0
:1015E0001E02292F282331F08095892380931E0223
:1015F0000E94EC0A089508950E94FB0A08959091B4
:101600001F02292F2823281729F0982B90931F02B7
:101610000E94FC0A089590911F02292F282331F07F
:101620008095892380931F020E94FC0A089580916F
:101630001F02882329F010921F0280E00E94FC0AFA
:1016400008950F931F93CF93DF93009100011091A2
:101650000101C091290280912802C82B80911F02AC
:10166000882331F0C82B0E94641681110E94170B49
:10167000F801C083C0910001D091010148E050E021
:1016800065E172E0CE010E94F21E892B59F088E0DC
:10169000FE01A5E1B2E001900D928A95E1F7CE013D
:1016A0000E940116DF91CF911F910F9108950E9422
:1016B000210B089508950E945A0B089590916C0291
:1016C00092FF11C098E0899F90011124622B6093D2
:1016D0001D020E94D60680911D02869586958695EC
:1016E0000E945B0B08950E94D606089510921D0279
:1016F00080E00E945B0B089590911D0280958923E4
:1017000080931D02282F277069F4891759F0909152
:101710006C0292FF07C08695869586950E94E60624
:101720000E94760B089590916C0292FB222720F97B
:10173000281769F080FB92F990936C0280916B02FC
:1017400090916C020E94DB0B82E00E947C0B08955A
:1017500080916C0282FB882780F991E089270E94A2
:10176000930B089581E00E94930B089580E00E94FE
:10177000930B08956FEF7FEF90E080E00E94441F8D
:10178000089590E080E00E94101F21E0863E9E4F69
:1017900009F020E0822F089582E090E00E94081F67
:1017A000089583E090E00E94081F089584E090E08F
:1017B0000E94101F0895BC0184E090E00E94441F25
:1017C0000895AB01BC018FE090E00E94381F08959E
:1017D000AB01BC0183E190E00E94381F089560E0F6
:1017E00070E0CB010E94E80B089560E070E0CB014F
:1017F0000E94E10B0E94EF0B0895A8E0B0E0E3E047
:10180000FCE00C94B71E66EE7EEF90E080E00E9454
:10181000441F60E082E090E00E94261F81E090E09B
:101820009093D3018093D20161E083E090E00E9425
:10183000261F60E074E184E090E00E94441F60E0B5
:1018400086E090E00E94261F6FEF87E090E00E9404
:10185000261F40E050E0BA0188E090E00E94381F67
:1018600060E084E290E00E94261F60E087E190E063
:101870000E94261F60E08CE090E00E94261F60E03E
:101880008DE090E00E94261F19821A821B821C8222
:101890001D821E821F82188648E050E068E170E0D9
:1018A000CE0101960E94161F40E050E0BA0180E28E
:1018B00090E00E94381F0E94F50B2896E2E00C94FD
:1018C000D31E0E94FD0B0895682F8EE090E00E94C9
:1018D000261F0895A6E0B0E0E0E7FCE00C94B51EFA
:1018E0000E94A1178C0180912A0290912B028017EF
:1018F000910781F019821A820E94A117682F4981ED
:101900005A81792F80E090E00E94170310932B02F8
:1019100000932A022696E4E00C94D11E0E94AD1793
:1019200060933C0270933D0280933E0290933F028D
:10193000609338027093390280933A0290933B028D
:1019400008950E94AD1760933C0270933D0280930E
:101950003E0290933F02609334027093350280936D
:101960003602909337020895089508950E94B40CAA
:10197000089508950E94B90C089584E79FE00E949D
:101980000B110E94B50C0E94B60C089581E00895D9
:101990000E94C60C08950E94C60C089508950895EB
:1019A0000E94CE0C0E94CF0C08950E94930F0E94BB
:1019B000EB0208950E9498170E942D110E94611059
:1019C0000E94D50C0E94BA0C0895A6E0B0E0EBEEA0
:1019D000FCE00C94AE1E0E94C80C81110FC00E9446
:1019E0006A0C0E944C1181110E94A10C0E94591492
:1019F0000E94FE022696EBE00C94CA1E0E9477100D
:101A00008CE2A82E82E0B82E750110E0F70101915A
:101A10007F01812F0E94B90F1F5F183009F441C068
:101A20000817A1F38091400281FD0E94BF0F0E9420
:101A3000CB0CC82E10E099249394812F0E94B90FEB
:101A4000082FF50181915F01081729F1D02ED826C2
:101A5000F12CEE24E3948D2D8E21A9F0CC2099F069
:101A6000F9821A830E94A1179C838B839D8291E047
:101A7000802F8E2109F490E049815A816B817C810D
:101A80008D810E941703F394EE0CF8E0FF12E3CF70
:101A9000F501319700831F5F183079F60E948E0C94
:101AA000A0CF0813BFCF9BCF1F93CF93DF930E948C
:101AB000830EEC01C11580E5D807F0F5C11580E46F
:101AC000D80708F09CC0C03ED10520F5CD3CD1051B
:101AD00008F082C0C83AD10578F4C53AD10508F0BB
:101AE00073C0C130D10519F1209709F1C430D10577
:101AF000F0F4D0E0C0E01BC0C33CD105D0F7C85A19
:101B0000D0E0CC0FDD1FC25BDE4F0990D881C02D25
:101B1000D4640DC0C11580E2D80708F0D1C0C1154A
:101B200081E0D80708F05AC0C83ED10510F7CE01B1
:101B3000DF91CF911F910895C03682E5D80718F53F
:101B4000C03482E5D80708F06BC0C03282E5D80700
:101B500008F05FC0C11582E5D80708F497C02C2FA4
:101B60002695269580E2289F900111248C2F837062
:101B7000C1E0D0E002C0CC0FDD1F8A95E2F7C22B96
:101B8000D32BDD68D4CFC03A82E5D80760F4C038E3
:101B900082E5D80708F459C0CF71D0E0DC2FCC27FC
:101BA000C46FD06AC4CFC03C82E5D80708F462C0D5
:101BB000C03E82E5D80708F09CCFDC2FCC27CC278D
:101BC000DF71C06FD06AB3CFC55AD0E0CC57DE4FBB
:101BD000C881D0E0D064ABCFD065A9CF8D2F0E9453
:101BE000250F182FCE0199270E94830EC12FD0E018
:101BF000DC2FCC27CC27DF71C82BD92B98CFCE0177
:101C000099270E94830ECC27DF70C82BD92BD06A6E
:101C10008ECFCF71D0E0DC2FCC27C16FD06A87CFB9
:101C20002C2F26952695277080E2289F900111245D
:101C30008C2F8370C1E0D0E002C0CC0FDD1F8A95ED
:101C4000E2F7C22BD32BDC6872CF2C2F269526957A
:101C5000277080E2289F900111248C2F8370C1E0AF
:101C6000D0E002C0CC0FDD1F8A95E2F7C22BD32B48
:101C7000DA685DCF8C2F8F710E94250FC82FD0E0BE
:101C8000DC2FCC27CC27DF71D06251CF8C2F8F7106
:101C90000E94250F55E0D695C7955A95E1F7CF706C
:101CA000D0E0DC2FCC27282F30E084FF05C044E0B3
:101CB000220F331F4A95E1F7C22BD32BD06937CFC0
:101CC0008D2F8F710E94250F182FCE0199270E940A
:101CD000830EC12FD0E0DC2FCC27CC27DF71C82B9F
:101CE000D92BD2CF462F783030F4683020F4672FCC
:101CF0000E94F001089590E080E008950E94720E25
:101D00000E94540D089582389105B9F1B0F48133E1
:101D1000910509F47DC048F48932910509F46DC03C
:101D20008A32910509F47BC008958533910509F441
:101D30005FC08933910509F10895833E9105D9F17A
:101D400038F4803E910529F1823E910579F108959C
:101D5000863E9105D9F1873E910509F43EC0843E47
:101D6000910541F520916C0221FF24C080916B0206
:101D700084FD19C087EE90E0089520916B022370D6
:101D800009F05AC020916C0223FF14C089E290E050
:101D9000089520916B0220FD38C030916C0230FF15
:101DA00009C024FF43C090E080E0089520916B02B9
:101DB00022FDF7CF089520916B0222FD3AC03091A9
:101DC0006C0230FD39C024FFF5CFEDCF20916B02BE
:101DD00023FFF0CF24FDE7CFCDCF20916B0223FD71
:101DE0002EC030916C0231FFEECF84EE90E008956A
:101DF00020916B0225FFDECFC9CF20916B0225FD1C
:101E000021C020916C0223FFD5CF89E390E0D2CF8F
:101E100020916B0226FFCECF8AE290E008952091B8
:101E20006B0226FFC7CF81E390E0089583EE90E038
:101E3000089582EE90E0089580EE90E0089586EE99
:101E400090E0089585E390E0089590916B0292FFF1
:101E500010C041E0282F2471243009F040E031E027
:101E6000282F2871283009F030E0431711F02CE0BA
:101E7000822793FF10C041E0282F2471243109F0FC
:101E800040E031E0282F2871283109F030E0431775
:101E900011F02CE0822730916C0230FF10C051E02D
:101EA000282F2171213009F050E041E0282F2871BE
:101EB000283009F040E0541711F029E0822731FF63
:101EC00010C041E0282F2171213109F040E031E0BC
:101ED000282F2871283109F030E0431711F029E04C
:101EE000822794FD877E089580E008950E94BA0BB2
:101EF00008950E9477102FEF86E791E021508040EF
:101F00009040E1F700C000000E94771080E00E943E
:101F1000B90F80FF04C00E94760F0E94EC1708954D
:101F20000E94790F08950E94C10B811102C00E9486
:101F3000610C0E94CC0B809340020E94D60B9093C0
:101F40006C0280936B020E94900F0E94D10B90E074
:101F50000E949A068091D0019091D1010E94BB0607
:101F6000089508950E94B10F089508950E94B50F35
:101F70000895E82FF0E0EB58FD4F80810895089513
:101F800080EA8A95F1F7089500C008950E94C00F75
:101F90000895F894E82FE295EF70F0E031A1282F32
:101FA0002F7081E090E001C0880F2A95EAF7982F02
:101FB0009095932391A392A1892B82A3789408955D
:101FC000CF93DF93C7E8D1E089918F3F11F00E9452
:101FD000C90F81E0CF38D807B9F7CFE8D1E08991B0
:101FE0008F3F11F00E94C90F81E0C739D807B9F7B8
:101FF000DF91CF910895B0E0A0E0E1E0F0E10C9432
:10200000B11E7C01162F042FC62FD0E0C957DE4F1A
:1020100028812F3F09F44CC0F894E22FE295EF702D
:10202000F0E031A12F7081E090E001C0880F2A9587
:10203000EAF7932F982B91A392A18095892382A3ED
:1020400078940E94C40F8FE8C82E81E0D82EF70143
:10205000A701485F5F4FF12CE02EE094D6019D91DF
:102060006D0181919F01215031099F3F31F1692F0D
:1020700062956F7070E0DB0190966C9170E09F70DC
:1020800002C0759567959A95E2F760FD16C0802BA2
:10209000D9018C93FF24F394E417F507F9F68881AE
:1020A0008F3F11F00E94C90F6F2D812F0E94C60F24
:1020B000CDB7DEB7E8E00C94CD1E8E21D9018C930C
:1020C000EBCF0E94E00F88E0E5E7F2E0DF01982F18
:1020D0001D929A95E9F7EDE6F2E0DF011D928A95EF
:1020E000E9F788E00E94B6100E94B20F0895A8E0B8
:1020F000B0E0EDE7F0E10C94B31E8E010F5F1F4FCF
:1021000088E0F80111928A95E9F7F12CEE24E39426
:102110004E2D6F2DC8010E94FB0FF394EE0CF8E0DA
:10212000FF12F6CF48E050E0B8018DE692E00E9441
:10213000F21E21E0009709F420E0892B41F088E0AD
:10214000F801ADE6B2E001900D928A95E1F748E022
:1021500065E772E08DE692E00E94B710182F0E94AA
:10216000B60F812F2896E6E00C94CF1E0895B0E0BC
:10217000A0E0EDEBF0E10C94B11E6C017B01042FAB
:10218000C22F222379F081E0809343020E94A1179D
:10219000909342028093410280E0CDB7DEB7E8E041
:1021A0000C94CD1ED0914302DD23B1F38091410206
:1021B000909142020E94B917059770F310E0A801B0
:1021C000B601C7010E94F21E892B31F0A801B601A9
:1021D000C7010E94FF1ECD2F109243028C2FDDCF2E
:1021E0000E9463190E94DA0C0E94701908950E94DF
:1021F00075190E94E50C0E948F1908950E943A17E4
:102200000E9449190E94BD0C0E94F0100E94F71014
:102210000E94D00CFBCF9093A9018093A801089550
:102220008FE891E00197F1F700C00000089581E088
:102230000895CF93DF93D62F0E941711C82F8823BC
:1022400041F06AE070E089EAD11101C08AEA0E9497
:10225000D6038C2FDF91CF91089581E080934502C2
:1022600053985B9A52985A9A0E94101120914502F5
:1022700047E452E0FA018E2F841B821708F008957C
:1022800089B183FB882780F94A9904C090E0892BA3
:102290008193F1CF92E0FBCFB0E0A0E0E2E5F1E185
:1022A0000C94B11EF12CE12C84E0C82ED12C80912D
:1022B0004502F81630F08E2DCDB7DEB7E8E00C946D
:1022C000CD1E0F2D10E0E9B1E3FBEE27E0F94A99AE
:1022D00040C080E08E2BD801A95BBD4FEC919E2FB2
:1022E00093709817A1F1EE0FEE0FE82BEC93EF70BF
:1022F000F0E0E956FE4FE801CA5BDD4F808198812E
:10230000890F888320E084305CF0F801EC5BFD4F9E
:1023100080818F5F808360E08F2D0E94191121E002
:1023200088818D3F5CF4F801EC5BFD4F808181502A
:10233000808361E08F2D0E94191121E08881082E91
:10234000000C990BB6010E948D1E8883E22AF3943B
:10235000AECF82E0BFCFCF93DF93EB0186319C47B6
:1023600011F50E94C80A9D81992399F08A7A91E01B
:1023700009F490E090934802811109C089E20E941B
:10238000B4160E94570B80E0DF91CF91089585E34A
:10239000F6CF80914802811104C089E20E94BC16E8
:1023A000F0CF85E3FBCF81E0EFCFCF93DF93EC015C
:1023B000FB018581882309F4D2C09E013057233266
:1023C000310508F0B2C00E94D60B90936C02809346
:1023D0006B02FE01E150F047E232F10520F4E859CA
:1023E000F04E0C94A11E80916B02816080936B0271
:1023F00093C080916C02886080936C028DC0809144
:102400006B028260F3CF80916B028460EFCF80918A
:102410006B028860EBCF80916C028160EDCF809180
:102420006C028260E9CF80916B028061DFCF809186
:102430006B028062DBCF80916B028064D7CF0E94F9
:102440004D0680916B028068D1CF80916B028C60C9
:10245000CDCF80916C028360CFCF80916B028E7F55
:10246000C5CF80916C02877FC7CF80916B028D7F33
:10247000BDCF80916B028B7FB9CF80916B02877F3C
:10248000B5CF80916C028E7FB7CF80916C028D7F2B
:10249000B3CF80916B028F7EA9CF80916B028F7D2D
:1024A000A5CF80916B028F7BA1CF0E944D068091BA
:1024B0006B028F779BCF80916B02837F97CF809148
:1024C0006C028C7F99CF80916B0282FB992790F9E7
:1024D00021E0922790FB82F990FB83F987CF8091CE
:1024E0006C02982F909591708E7F892B90FB81F9CB
:1024F00083CF90916B02892F8F7B96FF806476CF7C
:102500000E944D0690916B02892F97FB87F98058A6
:102510006DCF81E00E94640C80916B0290916C02FF
:102520000E94DB0B0E944D0680E0DF91CF91089561
:1025300080E0F0CF90916B02892F8F7E94FF8061B5
:1025400055CF90916B02892F8E7F90FF81604ECF87
:1025500090916C02892F877F93FF88604DCF81E037
:10256000E4CF282F35EB2303C001112497FF04C0CB
:1025700080589109892F089580589F4FFBCF8091F3
:102580004F0280FF0DC06091070170E0660F771F5A
:102590006038710570F56115710569F1862F089530
:1025A00081FF07C06091070184E0689FB00111249A
:1025B000EFCF6091070182FD0AC080914E0288230F
:1025C000A9F02091060160910701821710F088E0C0
:1025D000ECCF869FC001112433E0880F991F3A95F4
:1025E000E1F7622F70E00E948D1ED2CF68E070E0AC
:1025F000D5CF8FE7089581E0089580914F0280FF45
:102600000CC06091030170E07595679575956795AD
:102610006115710549F1862F089581FF06C060910B
:10262000030170E075956795F3CF6091030182FD1A
:102630000BC090914D029923A1F06091020180910D
:102640000301961738F0682F70E06038710500F3C9
:102650008FE70895899FC001112470E00E948D1EAC
:10266000F4CF61E070E0D7CF81E0089590915202FD
:1026700020915302922B20915502922B20915402CB
:10268000922B31F098E090934E0291E090934D029E
:102690008D3C31F40E94BF128195809353020895BE
:1026A0008E3C19F40E94BF12F8CF8F3C31F40E9487
:1026B000BF128195809352020895803D19F40E94C3
:1026C000BF12F8CF893D29F40E94FD128093540275
:1026D00008958A3D21F40E94FD128195F7CF8B3D2C
:1026E00031F40E94FD1281958093550208958C3D2E
:1026F00019F40E94FD12F8CF9FE2980F983070F401
:10270000815D990B21E030E001C0220F8A95EAF744
:1027100080915102822B8093510208958D3D31F4B6
:1027200080914F02816080934F0208958E3D21F485
:1027300080914F028260F7CF8F3DB9F780914F02B1
:102740008460F1CF409152028D3C59F48091530244
:1027500087FF0DC01092530241110BC010924E0220
:1027600008C08E3C81F48091530218169CF34423D8
:1027700081F08091540290915502892B09F05AC042
:1027800010924D0208958F3C49F447FFF0CF10920C
:102790005202809153028111ECCFE0CF803D19F4B9
:1027A0001416ACF3E4CF90915402893D29F4191624
:1027B000F4F610925402DBCF8A3D19F497FFD7CF7D
:1027C000F8CF909155028B3D29F497FFD0CF10920E
:1027D0005502CDCF8C3D19F41916CCF3C8CF9FE22A
:1027E000980F983090F4815D990B21E030E0B901A9
:1027F00002C0660F771F8A95E2F7CB018095909112
:102800005102892380935102B2CF8D3D31F48091E2
:102810004F028E7F80934F02AACF8E3D21F480918C
:102820004F028D7FF7CF8F3D09F0A1CF80914F02EE
:102830008B7FF0CF08950E94A1179C0190915202C6
:1028400080915302982B21F030934C0220934B023D
:102850009091540280915502982B21F030934A02B6
:102860002093490280E592E00E940C16089586E0CC
:10287000E0E5F2E0DF011D928A95E9F710924E0241
:1028800010924D0210924F020895FC018281811135
:102890000EC0838181110BC08481811108C091E039
:1028A0008581811101C090E0892F8170089581E0B8
:1028B000FCCFA6E0B0E0EFE5F4E10C94B61E86E0B4
:1028C000E0E5F2E0DE01119601900D928A95E1F7C4
:1028D000109252021092530210925402109255021A
:1028E0008B819C81892B89F080914B0290914C02C5
:1028F0000E94B917AC0190914E029923C9F18091C1
:1029000008018417150608F440C08D819E81892B2B
:1029100091F08091490290914A020E94B917AC014E
:1029200090914D02992309F46AC0809104018417A3
:10293000150608F472C0BE016F5F7F4F80E592E01C
:102940000E94CF16811105C080E592E00E944514D7
:1029500081110E941B1486E0FE013196A0E5B2E0D1
:1029600001900D928A95E1F72696E3E00C94D21E31
:10297000209109018AE0289F90011124241735072E
:1029800020F69F5F90934E0202C09F3FD1F71B81BC
:10299000112359F00E94BF129FEF11160CF491E021
:1029A000899F802D1124809352021C81112359F09C
:1029B0000E94BF129FEF11160CF491E0899F802DA9
:1029C00011248093530280915202882309F49DCFF1
:1029D00010915302112309F498CF0E94B112882359
:1029E00051F080935202812F0E94B112882329F066
:1029F000809353028ACF81E0F4CF81E0F9CF209118
:102A000005018AE0289F900111242417350708F05A
:102A100092CF9F5F90934D0202C09F3FD1F71D81DF
:102A2000112359F00E94FD129FEF11160CF491E052
:102A3000899F802D1124809354021E81112359F007
:102A40000E94FD129FEF11160CF491E0899F802DDA
:102A500011248093550280915402882309F46BCF8E
:102A600010915502112309F466CF0E94B1128823F8
:102A700051F080935402812F0E94B112882329F0D3
:102A80008093550258CF81E0F4CF81E0F9CF0F93C6
:102A90001F93CF93DF93C42FD22FFC01858188230E
:102AA000C9F0409358020E94A11790935702809357
:102AB000560280E28C0F883040F4C77081E001C07C
:102AC000880FCA95EAF70E94F703DF91CF911F9113
:102AD0000F91089510915802141332C0809156023C
:102AE000909157020E94B917883C910548F5C0E2C1
:102AF000CD0F1D17B9F080E2810F883040F41770B8
:102B000081E001C0880F1A95EAF70E94FE03C830E1
:102B100048F481E09D2F977001C0880F9A95EAF7DD
:102B20000E94F703802F0E94EE03C83070F6D77022
:102B300081E001C0880FDA95EAF70E94FE03C5CF55
:102B400080E28C0F883008F6C77081E001C0880FE2
:102B5000CA95EAF7F2CF0F93DB0188519C47873083
:102B60009105A0F5FC01E657F04E0C94A11E06E27B
:102B700021EE41EE6AE17CE7CD010E94471580E03D
:102B80000F91089507E225EE45EE6BE17CE7F4CF67
:102B900006E221EE40EE68E17CE7EECF07E225EEAB
:102BA00044EE69E17CE7E8CF06E221EE42EE6CE11B
:102BB0007CE7E2CF07E225EE46EE6DE17CE7DCCF75
:102BC00008E221E045EE6EE17CE7D6CF15968C91C8
:102BD000882319F010925802D3CF81E0D1CF90937F
:102BE0005E0280935D020895E0915D02F0915E02C5
:102BF000309729F00190F081E02D0995089580E04B
:102C00000895E0915D02F0915E02309721F002801C
:102C1000F381E02D09950895E0915D02F0915E0247
:102C2000309739F022E0DC012C930680F781E02D0B
:102C300009950895A3E0B0E0E0E2F6E10C94B71E38
:102C400020915B0230915C0228173907A1F0909324
:102C50005C0280935B02E0915D02F0915E0230972E
:102C600051F023E029839B838A830084F185E02D42
:102C7000CE01019609952396E2E00C94D31EA3E0C1
:102C8000B0E0E5E4F6E10C94B71E209159023091D2
:102C90005A0228173907A1F090935A0280935902DB
:102CA000E0915D02F0915E02309751F024E02983BB
:102CB0009B838A830084F185E02DCE0101960995DE
:102CC0002396E2E00C94D31E409100015091010143
:102CD0009A012E5F3F4F485F5F4F80E02417350712
:102CE00009F40895F90191919F019923B9F38F5F38
:102CF000F5CF882371F02091000130910101F90195
:102D00003296285F3F4F9191981729F0E217F30709
:102D1000D1F780E0089581E008959C01FC0132968E
:102D20009FEF80E04191461751F09F3F19F4411108
:102D300001C0982F8F5F8630A9F79F3F09F408954F
:102D4000290F311D97FD3A95F90162830895FC0121
:102D5000329608962191261303C0DF0111971C9229
:102D6000E817F907B9F70895682F8091000190914D
:102D700001010E948D160895682F809100019091A5
:102D800001010E94A7160895E0910001F091010150
:102D9000329686E0DF011D928A95E9F70895DC01FD
:102DA000FB0111969C9111978181981322C0129674
:102DB0008C911297882319F0928189131AC0139667
:102DC0008C911397882319F09381891312C015965B
:102DD0008C911597882319F0958189130AC0149650
:102DE0009C91992321F081E02481291303C080E084
:102DF00001C081E08170089508950E94FC16089535
:102E0000811106C081E080935F020E94FD16089543
:102E100082E0F9CF83E080935F020E94FD1608955F
:102E20000E940017089581E080935F020E94FD16C2
:102E300008950E9413170895089508950E941D177C
:102E40000895089508950E941C170895CF930E9435
:102E500021170E9477100E942217C0E08C2F0E9439
:102E6000B90F811105C0CF5FC830C1F7CF91089568
:102E700081E0FCCF85B7806885BF85B7806885BF56
:102E800008951F921FB61F9211248F939F93AF93A3
:102E9000BF9380916002811113C080917D02909157
:102EA0007E02A0917F02B09180024196A11DB11DCA
:102EB00080937D0290937E02A0937F02B093800264
:102EC000BF91AF919F918F911F901FBE1F9018953A
:102ED00080918502843031F10E94CE02109260020E
:102EE00088E190E020E40FB6F894A8958093600004
:102EF0000FBE2093600083B7817F846083BF83B758
:102F0000816083BF7894889583B78E7F83BF0FB627
:102F1000F894A89580916000886180936000109279
:102F200060000FBE08950E944D060E94D3020895CE
:102F300082E084BD93E095BD9AEF97BD80936E00CB
:102F400008952FB7F89480917D0290917E02A09110
:102F50007F02B09180022FBF08952FB7F89460913F
:102F60007D0270917E0280917F02909180022FBF3E
:102F700008959C014FB7F89480917D0290917E0254
:102F8000A0917F02B09180024FBF821B930B0895E6
:102F900078941F921FB61F9211248F939F93AF9323
:102FA000BF9380917D0290917E02A0917F02B091AB
:102FB00080020196A11DB11D80937D0290937E0237
:102FC000A0937F02B0938002BF91AF919F918F91A8
:102FD0001F901FBE1F90189587E797E790930108F1
:102FE0008093000888E19AE00FB6F894A895809342
:102FF00060000FBE90936000FFCF88E19AE00FB6AB
:10300000F894A895809360000FBE90936000FFCF66
:1030100080916902089508959B01BA0190918502FB
:103020009430E9F48F708093E9009FEF8091E8007D
:10303000915085FD06C085ED8A95F1F7000091114C
:10304000F5CF8091E80085FF0AC050E040E0C9015B
:103050000E94061A8091E8008E778093E800089518
:1030600043E050E0BC0182E00E940C18089546E065
:1030700050E0BC0182E00E940C180895CF93DF93CA
:10308000EC0148E050E0BC0181E00E940C1888E0AF
:10309000FE01A1E6B2E001900D928A95E1F7DF9181
:1030A000CF91089580918402811109C00E94961BDE
:1030B0000E94F31B8091E20084608093E2000895F7
:1030C0001092840208950E9413170895609181025E
:1030D00081E0611101C080E00E940A17089590917B
:1030E000850281E0943009F080E0609181020E94C5
:1030F0001017089542E061EC81E00E94121B42E249
:1031000061EC82E00E94121B9091850281E0943074
:1031100009F080E0609181020E940017089580917B
:103120008702833009F461C030F48130D1F18230FC
:1031300009F49EC008958A3009F48AC08B3009F4DE
:103140006FC0893009F050C080918602813209F049
:103150004BC080918A0290918B02029708F044C084
:103160008091E800877F8093E8008091E80082FFEB
:1031700037C09091F3008091F200029731F4809172
:10318000F100813011F0863021F48091F1008093BC
:1031900069028091E8008B778093E8000E94461BCB
:1031A00023C080918602813AF9F48091E800877FFC
:1031B0008093E80080918A0290918B02892B61F4C0
:1031C00068E081E692E070E00E94551A8091E80084
:1031D0008B778093E800089560E090E080E0F3CF83
:1031E000809185028111C1CF089580918602813A34
:1031F000D9F780918A0290918B02892BA9F780914F
:10320000E800877F8093E8008091E80080FFFCCF92
:10321000809114018093F1008091E8008E77BCCFFB
:1032200080918602813201F780918A0290918B020F
:10323000892BD1F68091E800877F8093E8000E9477
:10324000461B80918802809314010E944D060895C8
:1032500080918602813241F68091E800877F8093D9
:10326000E8000E94461B8091890280936A020895BB
:1032700080918602813A09F0B7CF8091E800877F7C
:103280008093E8008091E80080FFFCCF80916A0283
:10329000C1CF84B7877F84BF0FB6F894A89580917B
:1032A0006000886180936000109260000FBE80E82B
:1032B00090E00FB6F89480936100909361000FBE88
:1032C0000E94191708950E94961B0E94F31BE2EEBC
:1032D000F0E080818460808378940E94721E08955B
:1032E0008AE091E00E94EF15089580918502853073
:1032F00031F480918502853019F00E94931708956A
:103300000E94681780918302882399F30E942617F0
:10331000882379F30E94F0190E944D06EACF0895A0
:103320009A0140918C0250918D020E949819089543
:10333000492F55274330510519F168F441305105A3
:1033400009F444C04230510509F445C090E080E0E2
:1033500050E040E025C04132510549F1423251056B
:10336000A9F784E490E044E253E061157105C1F0EF
:103370008BE790E049EA52E06130710589F0E6CFD1
:1033800099278130910581F0009729F00297F1F695
:10339000ECE2F2E002C0E8E5F2E0849190E0AF01F7
:1033A000F901518340830895E4E4F2E0F6CF89E027
:1033B00090E04EE652E06115710591F389E090E0EE
:1033C00047E852E06130710559F3C0CF82E190E0E7
:1033D00047E952E0E5CF8BE390E04CE552E0E0CFE7
:1033E00080E189BD82E189BD09B400FEFDCF8091F5
:1033F000D8008F7D8093D8008091E0008260809318
:10340000E0008091E00081FDFCCF0895AF92BF9273
:10341000CF92DF92FF920F931F93CF93DF936C01B4
:10342000EB018A010E94651BF82E811123C0011552
:10343000110539F0F80180819181C81BD90BC80EA4
:10344000D91EB12CA12C2097A9F08091E80085FD10
:1034500022C08091E8008E778093E8000115110565
:10346000A1F0F80180819181A80EB91EB182A082DD
:1034700085E0F82E8F2DDF91CF911F910F91FF9056
:10348000DF90CF90BF90AF9008950E94651B882376
:10349000D1F2F82EEFCFF60181916F018093F10008
:1034A0002197FFEFAF1ABF0ACECFFC0180918C02AB
:1034B00090918D0286179707A0F06115710529F488
:1034C0009091E8009E779093E80090E06115710577
:1034D00051F4911108C08091E80082FF34C080E06F
:1034E0000895BC01F2CF809185028823C1F1853017
:1034F000C1F18091E80083FD30C08091E80082FD39
:10350000EACF8091E80080FFE1CF8091F300209125
:10351000F200382F6115710519F02830310558F087
:1035200091E02830310509F090E02091E8002E77F5
:103530002093E800CBCF81918093F1006150710915
:103540002F5F3F4FE7CF80918502882341F0853080
:1035500041F08091E80083FFBECF81E0089582E0D2
:10356000089583E00895FC0180918C0290918D0272
:1035700086179707A0F06115710529F48091E8007E
:103580008E778093E80090E06115710551F49111F8
:1035900008C08091E80082FF35C080E00895BC013A
:1035A000F2CF809185028823C9F18530C9F18091DD
:1035B000E80083FD31C08091E80082FDEACF809170
:1035C000E80080FFE1CF8091F3002091F200382FD6
:1035D0006115710519F02830310558F091E0283057
:1035E000310509F090E08091E8008E778093E80043
:1035F000CBCF84918093F1003196615071092F5F98
:103600003F4FE6CF80918502882341F0853041F01D
:103610008091E80083FFBDCF81E0089582E00895A6
:1036200083E00895982F973028F08F708093E900F9
:1036300081E008959093E900242F762F50E09817A9
:1036400031F07091EC002091ED005091F00021FDDF
:1036500002C09F5FE8CF3091EB003E7F3093EB00DC
:103660003091ED003D7F3093ED003091EB00316003
:103670003093EB007093EC002093ED005093F0003A
:103680002091EE0027FDE5CF80E00895809186022D
:1036900087FF13C08091E80082FF06C08091E80098
:1036A0008B778093E80004C0809185028111F2CF6E
:1036B0000895809185028823D9F38091E80080FFE6
:1036C000F8CF8091E8008E77ECCF2091E400309124
:1036D000E50095E6A9012091EC00822F817020FF82
:1036E00006C08091E80080FF06C080E00895209128
:1036F000E80022FD1AC080918502882389F0853078
:1037000089F08091EB0085FD0FC02091E40030919D
:10371000E50042175307F9F29150E1F684E008956D
:1037200082E0089583E0089581E008950E94051CD9
:103730000E940D1CE0EEF0E0808181608083E8ED66
:10374000F0E080818F77808319BCA7EDB0E08C9189
:103750008E7F8C9380818F7E808310928402089567
:103760000F931F93CF93DF930E94051C0E940D1CA3
:10377000C8EDD0E088818F778883888180688883CE
:1037800088818F7D888319BC1092850210928102F6
:10379000109283021092820200EE10E0F801808104
:1037A0008B7F808388818160888342E060E080E055
:1037B0000E94121BE1EEF0E080818E7F8083E2EEBA
:1037C000F0E0808181608083808188608083F8015F
:1037D00080818E7F8083888180618883DF91CF9113
:1037E0001F910F910895E8EDF0E080818F7E808336
:1037F000E7EDF0E080818160808384E082BF81E03A
:10380000809384020E94B01B0895E8EDF0E080816F
:103810008E7F80831092E20008951092DA00109259
:10382000E10008951F920F920FB60F9211242F936B
:103830003F934F935F936F937F938F939F93AF9338
:10384000BF93EF93FF938091E10082FF0BC08091C3
:10385000E20082FF07C08091E1008B7F8093E1004E
:103860000E94711E8091DA0080FF19C08091D800FB
:1038700080FF15C08091DA008E7F8093DA008091FE
:10388000D90080FF96C080E189BD82E189BD09B47D
:1038900000FEFDCF81E0809385020E945218809146
:1038A000E10080FF19C08091E20080FF15C0809187
:1038B000E2008E7F8093E2008091E200806180933D
:1038C000E2008091D80080628093D80019BC85E026
:1038D000809385020E9466188091E10084FF2BC0CE
:1038E0008091E20084FF27C080E189BD82E189BD2B
:1038F00089B5982F917080FFFBCF8091D8008F7D84
:103900008093D8008091E1008F7E8093E1008091C8
:10391000E2008F7E8093E2008091E20081608093DC
:10392000E20080918102882309F449C084E08093F9
:1039300085020E946F188091E10083FF29C0809169
:10394000E20083FF25C08091E100877F8093E10042
:1039500082E080938502109281028091E1008E7F47
:103960008093E1008091E2008E7F8093E20080915D
:10397000E20080618093E20042E060E080E00E942B
:10398000121B8091F00088608093F0000E94631801
:10399000FF91EF91BF91AF919F918F917F916F9127
:1039A0005F914F913F912F910F900FBE0F901F90FD
:1039B000189519BC109285020E94601870CF8091F2
:1039C000E30087FD93E090938502B3CF1F920F929F
:1039D0000FB60F9211242F933F934F935F936F93E2
:1039E0007F938F939F93AF93BF93CF93DF93EF9387
:1039F000FF93D091E900DF708091EC00C82FC17077
:103A000080FDC0E81092E9008091F000877F8093EC
:103A1000F00078940E942A1D1092E9008091F00035
:103A200088608093F000CD2BCF70C093E900FF91A8
:103A3000EF91DF91CF91BF91AF919F918F917F9146
:103A40006F915F914F913F912F910F900FBE0F900B
:103A50001F901895AAE2B0E0E0E3FDE10C94B61ED9
:103A600086E892E02091F100FC012193CF01F2E081
:103A70008E389F07B9F70E948F188091E80083FF66
:103A80001EC180918602909187029A3008F017C17A
:103A9000E92FF0E0EF56F04E0C94A11E803899F01B
:103AA000823809F00CC180918A028F70873008F04B
:103AB00006C18093E9008091EB0085FB882780F99F
:103AC0001092E90006C080918202909183029111C8
:103AD00082609091E800977F9093E8008093F100D6
:103AE0001092F1008091E8008E77E5C0882309F4F8
:103AF000D3C0823009F0E3C0809188028111D6C022
:103B000080918A028F702FEF280F263008F0D7C0DF
:103B10008093E9002091EB0020FFC8C0933031F47E
:103B20008091EB0080628093EB00C0C09091EB002D
:103B300090619093EB0021E030E001C0220F8A9564
:103B4000EAF72093EA001092EA008091EB00886087
:103B5000EACF8111B4C0109188021F778091E300F1
:103B60008078812B8093E3008091E800877F8093A9
:103B7000E8000E94461B8091E80080FFFCCF809106
:103B8000E30080688093E30082E0111183E080937A
:103B9000850295C08058823008F091C080918802DB
:103BA000909189028C3D23E09207A1F583E08A83FE
:103BB0008AE289834FB7F894DE01139620E03EE055
:103BC00051E2E32FF0E050935700E49120FF03C04F
:103BD000E295EF703F5FEF708E2F90E0EA30C0F01B
:103BE000C7968D939D932F5F243159F74FBF8091D6
:103BF000E800877F8093E8006AE270E0CE010196DA
:103C00000E94551A8091E8008B778093E80057C096
:103C1000C096E7CF60918A0270918B02AE014F5F30
:103C20005F4F0E949019BC01892B09F448C0909104
:103C3000E800977F9093E80089819A810E94B31AE7
:103C4000E1CF8038E1F58091E800877F8093E8003C
:103C5000809181028093F10045CF811130C0909115
:103C60008802923060F58091E800877F8093E800B9
:103C7000909381020E94461B80918102882311F05B
:103C800084E005C08091E30087FDFACF81E0809356
:103C900085020E947A1813C080918802813079F4DD
:103CA00081E0933009F080E0809383021092E90074
:103CB0008091E800877F8093E8000E94461B8091F6
:103CC000E80083FF0AC08091E800877F8093E800C6
:103CD0008091EB0080628093EB00AA96E3E00C9465
:103CE000D21E0895CF93809185028823A1F0C091C0
:103CF000E900CF709091EC00892F817090FD80E8F1
:103D0000C82B1092E9008091E80083FD0E942A1DD3
:103D1000CF70C093E900CF91089597FB072E16F45A
:103D2000009407D077FD09D00E94DE1E07FC05D065
:103D30003EF4909581959F4F0895709561957F4FC2
:103D40000895EE0FFF1F0590F491E02D09942F9236
:103D50003F924F925F926F927F928F929F92AF921B
:103D6000BF92CF92DF92EF92FF920F931F93CF9368
:103D7000DF93CDB7DEB7CA1BDB0B0FB6F894DEBFFF
:103D80000FBECDBF09942A88398848885F846E8425
:103D90007D848C849B84AA84B984C884DF80EE806F
:103DA000FD800C811B81AA81B981CE0FD11D0FB678
:103DB000F894DEBF0FBECDBFED010895AA1BBB1B5B
:103DC00051E107C0AA1FBB1FA617B70710F0A61B1B
:103DD000B70B881F991F5A95A9F780959095BC013C
:103DE000CD010895FB01DC0104C08D910190801983
:103DF00021F441505040C8F7881B990B0895FB01EE
:103E0000DC0102C001900D9241505040D8F7089556
:103E1000F999FECF92BD81BDF89A992780B5089592
:103E2000A8E1B0E042E050E00C944C1FDC01A40F8C
:103E3000B51F4150504048F0CB01840F951F2E9183
:103E40000E94271F41505040D0F70895262FF9991E
:103E5000FECF92BD81BDF89A019700B4021639F0E9
:103E60001FBA20BD0FB6F894FA9AF99A0FBE0895BA
:103E70000396272F0E94271F0E94261F252F0E948E
:103E8000271F242F0C94271F0196272F0E94271FDE
:103E90000C94261FDC01CB01FC01F999FECF06C072
:103EA000F2BDE1BDF89A319600B40D9241505040F8
:103EB000B8F70895F894FFCF460446049604960494
:103EC000FB041705750475041C058D059C059C05F0
:103ED0002D12A1123512FF110312391207123D12D1
:103EE000491213129A1217124D121B125112791203
:103EF0001F125512801225125B1263120B1241120F
:103F00000F12451229125F126F1289129812F911BD
:103F10003112A812C815CE15B715C215D415DA1569
:103F2000E0154E1D761D5F1E761D5F1EA91DCA1D64
:063F30005F1E211E2D1E84
:103F36002002280850011E0A140108183E180B1802
:103F46003718301801E200E900EA00B500B600B7FC
:103F560000CD008301CC008A019201940121022345
:103F66000224022502260227022A02B300B4006FA9
:103F76000070009F01CB019F02A002818283E200B4
:103F8600E900EA00B500B600B700CD008301CC0019
:103F96008A019201940121022302240225022602AB
:103FA60027022A02B300B4006F0070009F01CB0104
:103FB6009F02A002818283F4F5F6F73133323691FF
:103FC60090946697C6343500FF0100010000FFFF9C
:083FD6000000010001FF0000E2
:00000001FF
