:100000000C94DC020C94F9020C94F9020C94F902A1
:100010000C94F9020C94F9020C94F9020C94F90274
:100020000C94F9020C94F9020C9438190C94F418FD
:100030000C94351A0C94F9020C94F9020C94F90200
:100040000C94F9020C94F9020C94F9020C94F90244
:100050000C94F9020C94111A0C94F9020C94F90204
:100060000C94F9020C94F9020C94F9020C94F90224
:100070000C94F9020C94F9020C94F9020C94F90214
:100080000C94F9020C94F9020C94F9020C94F90204
:100090000C94F9020C94F9020C94F9020C94F902F4
:1000A0000C94F9020C94F9020C94F90205010980F0
:1000B000A101850319012AB700150126B700950192
:1000C00075108100C0050C0901A101850419012AE0
:1000D000A002150126A002950175108100C00660DE
:1000E000FF0961A1010962150026FF00952075082E
:1000F00081020963150026FF00952075089102C052
:1001000005010906A101050719E029E715002501E8
:10011000950875018102950175088101050719008F
:1001200029FF150026FF00950675088100050819AE
:1001300001290515002501950575019102950175A7
:10014000039101C0FD377A585A000004E6D6B44640
:100150000200210116000000742FE5A3E00328012E
:100160003A5D003D8889C65436C3174FE4DCC3E6C8
:10017000127E2D9A0347D09FFE7CF1301D4E026EF9
:10018000BF680140BAEBE72D192CBA37C3E20A1653
:1001900021FA99D3B0C3E9345B4CF9969A7BADDE72
:1001A000840B1E25765F7DAB7D012942CC1A4D392B
:1001B000E22274A18D8E4E05598377EDBEBF4B0CA4
:1001C000F6738C3BB45711DF3409670DCF1BD77220
:1001D000FA9AF8D4F0BCD09ED9297D55BFAF7FF9EB
:1001E000539EA44595AC41F9355AAAD9119AD5C662
:1001F00055BDFA0D39831576A8E953EC693C61EDDC
:10020000FD63142FC0A237166E32D836B0C10F5519
:1002100032E3C1AC7A8A89C6A85D8F30DBD67D3FD8
:100220006069CE5909945B56B46E3ABDE3CAA6051F
:10023000BA91B655F676318DDBA42E670D848B4EC0
:100240003B75AFBBEB33E7F99665ACAE557E74FBFF
:10025000B78C0B38E54DA864F55973347FF363749C
:10026000F4D11A932F398EC470E2FC04413C4C1B2C
:10027000A33702D4124394220A17F8CFA19A4DD67D
:1002800076C21A7985926E36DA19BD911DB34DB0DA
:10029000445ED9B327E4E1F2A2BF83383F000000F7
:1002A0006EC85A29B073FB970001D602A906000058
:1002B000B2521C49B1C467FB020000000004595A45
:1002C000290014001A000800150017001C0018006F
:1002D0002B0004001600070009000A000B000D00A7
:1002E000E1001D001B0006001900050011001000B0
:1002F000A800E000E200E30021522C002C00225272
:100300000C00120013002A000E000F00330034000E
:1003100036003700380028005000510052004F00CE
:1003200000000000000000000000000000000000CD
:1003300000000000000000000000000000000000BD
:1003400035021E021F022002210222022302240281
:100350004C003A003B003C003D003E003F002D02B7
:1003600001004000410042004300440045003202C9
:100370000100010001000100010001000100010075
:100380002502260227024C002E022F0230023102E3
:1003900064024A004D000100AB00AA00A900AE00B3
:1003A000000000000000000000000000000000004D
:1003B000000000000000000000000000000000003D
:1003C00035001E001F002000210022002300240011
:1003D0004C003A003B003C003D003E003F002D0039
:1003E000010040004100420043004400450032004B
:1003F00001000100010001000100010001000100F5
:100400002500260027004C002E002F003000310070
:1004100064004B004E000100AB00AA00A900AE0032
:1004200000000000000000000000000000000000CC
:1004300000000000000000000000000000000000BC
:10044000A900AA00AB00AC00AB00AC0009025B0045
:10045000030100A0FA0904000001030101000921C1
:10046000110100012244000705810308000109046D
:1004700001000203000000092111010001222200F5
:10048000070582032000010705030320000109047A
:1004900002000103000000092111010001223200C5
:1004A00007058403200001120100020000000886F5
:1004B0008056560001010203011C037600690061A9
:1004C000006C003A006600360034006300320062BF
:1004D0000033006300000016034300590041004F41
:1004E0000020004F007200740068006F00000012CE
:1004F000035300540048004C004D0020006B006284
:1005000000000004030904000000000000000000D7
:1005100000000000000000000000000000000000DB
:1005200000000000000000000000007E0F00D4FF6B
:10053000FFFFC70000007800000000000000002A54
:100540002B28000000000000000000000000000058
:10055000000029000000002C1E3420212224342613
:1005600027252E362D3738271E1F2021222324250C
:10057000263333362E37381F0405060708090A0BC1
:100580000C0D0E0F101112131415161718191A1B33
:100590001C1D2F3130232D350405060708090A0BD1
:1005A0000C0D0E0F101112131415161718191A1B13
:1005B0001C1D2F3130354C0011241FBECFEFDAE067
:1005C000DEBFCDBF11E0A0E0B1E0E6EDF2E402C095
:1005D00005900D92AC37B107D9F722E0ACE7B1E056
:1005E00001C01D92AA34B207E1F70E945C1A0C9474
:1005F0001C210C940000482F2091460290910D027E
:1006000057E0291302C080E0089530E0529FF001C6
:10061000539FF00D1124E25FFD4F8181681306C0E6
:100620008081481303C085818111EECF2F5F3F4F3A
:100630002770E7CFE8EDF0E080818E7F8083109215
:10064000E2001092DA001092E100A0EEB0E08C918E
:1006500081608C9380818F77808319BCA7EDB0E097
:100660008C918E7F8C9380818F7E80831092F60197
:1006700008952091E4003091E50095E6A9012091CC
:10068000EC00822F817020FF06C08091E80080FF7F
:1006900006C080E008952091E80022FD1AC08091F4
:1006A0000302882389F0853089F08091EB0085FD75
:1006B0000FC02091E4003091E50042175307F9F292
:1006C0009150E1F684E0089582E0089583E0089572
:1006D00081E008958091050287FF13C08091E800B2
:1006E00082FF06C08091E8008B778093E80004C009
:1006F000809103028111F2CF089580910302882333
:10070000D9F38091E80080FFF8CF8091E8008E77E0
:10071000ECCF982F9093E900242F762F50E0891783
:1007200031F07091EC002091ED005091F00021FD2E
:1007300007C09F5F973071F78093E90081E00895CB
:100740003091EB003E7F3093EB003091ED003D7F28
:100750003093ED003091EB0031603093EB007093FB
:10076000EC002093ED005093F0002091EE0027FD67
:10077000E0CF80E00895B0E0A0E0E1ECF3E00C947D
:100780006C20C8EDD0E088818F7E8883E7EDF0E0B3
:1007900080818160808384E082BF81E08093F60164
:1007A00088818E7F888302EE10E0F801108210921B
:1007B000DA0081EEC82ED12CF601108288818F7765
:1007C000888388818068888388818F7D888319BC2D
:1007D000109203021092040210920202109201027F
:1007E00090EEE92EF12CF70180818B7F8083888148
:1007F0008160888342E060E080E00E948903F60126
:1008000080818E7F8083F8018081816080838081F8
:1008100088608083F70180818E7F808388818061FA
:100820008883CDB7DEB7E8E00C948820FC01809186
:100830000B0290910C0286179707A0F061157105C5
:1008400029F49091E8009E779093E80090E061157C
:10085000710551F4911108C08091E80082FF34C005
:1008600080E00895BC01F2CF809103028823C1F19A
:100870008530C1F18091E80083FD30C08091E800AF
:1008800082FDEACF8091E80080FFE1CF8091F30004
:100890002091F200382F6115710519F028303105CB
:1008A00058F091E02830310509F090E02091E800FF
:1008B0002E772093E800CBCF81918093F100615097
:1008C00071092F5F3F4FE7CF80910302882341F0EA
:1008D000853041F08091E80083FFBECF81E008952C
:1008E00082E0089583E00895089508958091F801C5
:1008F000089587E797E7909301088093000888E1BF
:100900009AE00FB6F894A895809360000FBE90937C
:100910006000FFCF9C014FB7F8948091F201909155
:10092000F301A091F401B091F5014FBF821B930B2D
:1009300008952FB7F8946091F2017091F3018091BE
:10094000F4019091F5012FBF08952FB7F89480918D
:10095000F2019091F301A091F401B091F5012FBF44
:1009600008959C01FC0132969FEF80E0419146176B
:1009700051F09F3F19F4411101C0982F8F5F8630CD
:10098000A9F79F3F09F40895290F311D97FD3A9566
:10099000F90162830895A3E0B0E0E1EDF4E00C9486
:1009A00072202091EF013091F00128173907A1F052
:1009B0009093F0018093EF01E091ED01F091EE0151
:1009C000309751F024E029839B838A830084F1854A
:1009D000E02DCE01019609952396E2E00C948E203D
:1009E000A3E0B0E0E6EFF4E00C9472202091EB017C
:1009F0003091EC0128173907A1F09093EC01809316
:100A0000EB01E091ED01F091EE01309751F023E020
:100A100029839B838A830084F185E02DCE01019692
:100A200009952396E2E00C948E20E091ED01F0917F
:100A3000EE01309729F00190F081E02D099508959D
:100A400080E0089580E00895F894E82FE295EF7033
:100A5000F0E031A1282F2F7081E090E001C0880FD5
:100A60002A95EAF7982F9095932391A392A1892B29
:100A700082A3789408959091C90192FF10C041E03B
:100A8000282F2471243009F040E031E0282F28710C
:100A9000283009F030E0431711F02CE0822793FF53
:100AA00010C041E0282F2471243109F040E031E0EA
:100AB000282F2871283109F030E0431711F02CE07D
:100AC00082273091CA0130FF10C051E0282F2171D8
:100AD000213009F050E041E0282F2871283009F03A
:100AE00040E0541711F029E0822731FF10C041E0A7
:100AF000282F2171213109F040E031E0282F2871A1
:100B0000283109F030E0431711F029E0822794FDE5
:100B1000877E089582389105B9F1B0F4813391054B
:100B200009F47DC048F48932910509F46DC08A3218
:100B3000910509F47BC008958533910509F45FC0E0
:100B40008933910509F10895833E9105D9F138F46F
:100B5000803E910529F1823E910579F10895863E06
:100B60009105D9F1873E910509F43EC0843E910577
:100B700041F52091CA0121FF24C08091C90184FD63
:100B800019C087EE90E008952091C901237009F003
:100B90005AC02091CA0123FF14C089E290E0089551
:100BA0002091C90120FD38C03091CA0130FF09C031
:100BB00024FF43C090E080E008952091C90122FD08
:100BC000F7CF08952091C90122FD3AC03091CA01A2
:100BD00030FD39C024FFF5CFEDCF2091C90123FFAF
:100BE000F0CF24FDE7CFCDCF2091C90123FD2EC04A
:100BF0003091CA0131FFEECF84EE90E0089520914C
:100C0000C90125FFDECFC9CF2091C90125FD21C033
:100C10002091CA0123FFD5CF89E390E0D2CF209164
:100C2000C90126FFCECF8AE290E008952091C90144
:100C300026FFC7CF81E390E0089583EE90E008950A
:100C400082EE90E0089580EE90E0089586EE90E0C8
:100C5000089585E390E008951F93CF93DF930E945A
:100C60008A05EC01C11580E5D807F0F5C11580E4CF
:100C7000D80708F09CC0C03ED10520F5CD3CD10579
:100C800008F082C0C83AD10578F4C53AD10508F019
:100C900073C0C130D10519F1209709F1C430D105D5
:100CA000F0F4D0E0C0E01BC0C33CD105D0F7C85A77
:100CB000D0E0CC0FDD1FCA5EDE4F0990D881C02D79
:100CC000D4640DC0C11580E2D80708F0D1C0C115A9
:100CD00081E0D80708F05AC0C83ED10510F7CE0110
:100CE000DF91CF911F910895C03682E5D80718F59E
:100CF000C03482E5D80708F06BC0C03282E5D8075F
:100D000008F05FC0C11582E5D80708F497C02C2F02
:100D10002695269580E2289F900111248C2F8370C0
:100D2000C1E0D0E002C0CC0FDD1F8A95E2F7C22BF4
:100D3000D32BDD68D4CFC03A82E5D80760F4C03841
:100D400082E5D80708F459C0CF71D0E0DC2FCC275A
:100D5000C46FD06AC4CFC03C82E5D80708F462C033
:100D6000C03E82E5D80708F09CCFDC2FCC27CC27EB
:100D7000DF71C06FD06AB3CFC55AD0E0CD5EDE4F11
:100D8000C881D0E0D064ABCFD065A9CF8D2F0E94B1
:100D90003B05182FCE0199270E948A05C12FD0E06C
:100DA000DC2FCC27CC27DF71C82BD92B98CFCE01D5
:100DB00099270E948A05CC27DF70C82BD92BD06ACF
:100DC0008ECFCF71D0E0DC2FCC27C16FD06A87CF18
:100DD0002C2F26952695277080E2289F90011124BC
:100DE0008C2F8370C1E0D0E002C0CC0FDD1F8A954C
:100DF000E2F7C22BD32BDC6872CF2C2F26952695D9
:100E0000277080E2289F900111248C2F8370C1E00D
:100E1000D0E002C0CC0FDD1F8A95E2F7C22BD32BA6
:100E2000DA685DCF8C2F8F710E943B05C82FD0E010
:100E3000DC2FCC27CC27DF71D06251CF8C2F8F7164
:100E40000E943B0555E0D695C7955A95E1F7CF70BE
:100E5000D0E0DC2FCC27282F30E084FF05C044E011
:100E6000220F331F4A95E1F7C22BD32BD06937CF1E
:100E70008D2F8F710E943B05182FCE0199270E945C
:100E80008A05C12FD0E0DC2FCC27CC27DF71C82BFF
:100E9000D92BD2CF8091B901882331F01092B901BA
:100EA0001092B8011092B70108959091B901292FBD
:100EB000282361F0809589238093B901882339F034
:100EC0000E94A5049093B8018093B701089590E023
:100ED00080E0F8CF80959091B60198239093B60169
:100EE00008951092AC011092AB011092AA010895DE
:100EF0009091A901292F282321F08095892380939F
:100F0000A90108958091460290910D02981301C0A5
:100F100008958F5F8770FACFA82FA77023E096956A
:100F200087952A95E1F7FC01EE0FFF1FE80FF91FE7
:100F3000E60FF71F50E040E080E0219130E00A2EFC
:100F400002C0369527950A94E2F721703327042EC4
:100F500001C0220F0A94EAF7822B4F5F5F4F4330A4
:100F6000510559F70895903FB9F0983070F48830E2
:100F700098F448E0949F900111246AE871E0820F90
:100F8000932F911D0E948C0708959C5F923020F44E
:100F900067E871E090E0F6CF80E00895262F277093
:100FA00091E001C0990F2A95EAF723E076956795BD
:100FB0002A95E1F7FB01EE0FFF1FE60FF71FE40F85
:100FC000F51F50E040E0682F70E08191DF0111973C
:100FD0009B01042E02C0369527950A94E2F72170F2
:100FE00021952827292328272C934F5F5F4F4330D3
:100FF000510559F70895282F862F903F71F09830AA
:1010000068F4283050F438E0939FB0011124620F47
:10101000711D4AE851E00E94CE0708959C5F92300E
:10102000E0F7622F70E047E851E0F5CF8093C80108
:1010300008959091C80121E030E0F90101C0EE0F60
:101040008A95EAF7D90102C0AA0FBB1F6A95E2F799
:10105000EA2B01C0220F4A95EAF7892F8E23E81365
:1010600005C0292B822F0E94160808952095292358
:10107000F9CF21E030E001C0220F8A95EAF72095F0
:101080008091C80182230E94160808959091AC01B6
:10109000809589238093AC01282F277069F48917E4
:1010A00059F09091CA0192FF07C086958695869562
:1010B0000E9439080E947107089521E030E001C0C4
:1010C000220F8A95EAF78091C801822B0E941608A8
:1010D00008959091CA0192FF10C098E0899F9001F5
:1010E0001124622B6093AC010E945D080E94A5044C
:1010F0009093AB018093AA0108950E945D08089522
:101100008093C70108959C013A9521153F4150F500
:10111000FC01EE27F170BC0166277270AC01442718
:1011200054709C012227387094FF0EC080E1EF2B91
:1011300009F480E0672B09F08062452B09F0806498
:10114000232B89F08068089581E0EF2B09F480E07B
:10115000672B09F08260452B09F08460232B19F07E
:101160008860089580E008950F931F93CF93DF93D5
:101170008B01EA0190910302943061F58093E900BC
:101180008FEF9091E800815095FD06C095ED9A95FE
:10119000F1F700008111F5CF8091E80085FF1AC0BA
:1011A0000E943903811111C08091E80085FD06C0BD
:1011B0008091E8008E778093E800F2CFF80181916A
:1011C0008F018093F100219779F78091E8008E7765
:1011D0008093E800DF91CF911F910F91089543E034
:1011E00050E0BC0184E00E94B4080895CF93DF93DF
:1011F000EC0148E050E0BC0181E00E94B40888E0C6
:10120000FE01A9EFB1E001900D928A95E1F7DF911F
:10121000CF910895CF93C82F6FEF811161EE85E2D2
:1012200090E00E94E8206FEFC11166E286E290E054
:101230000E94E8206FEFC11165E087E290E00E9414
:10124000E820CF910895CF93DF93C5EBD1E060E024
:10125000CE010E94E8202196C11584E0D807B9F795
:10126000DF91CF9108950F931F93CF93DF93142FA6
:10127000022F8330F0F461111CC094E0899FE001DB
:101280001124C755DE4F82E090E0442311F090E036
:1012900080E0632F8C0F9D1F0E94E82083E090E088
:1012A000112311F081E090E0602F8C0F9D1F0E94B0
:1012B000E820DF91CF911F910F9108951F93CF9355
:1012C000DF93122F8330E8F46830D8F44830C8F444
:1012D00020E1629FE001112450E0440F551FC40F2C
:1012E000D51F20E8829FC0011124C80FD91F632F8A
:1012F000CE0189960E94E820612FCE018A960E9435
:10130000E820DF91CF911F910895B0E0A0E0EBE8D5
:10131000F9E00C946720C090E901D090EA0181E0E7
:1013200090E09093EA018093E90100E414E080ECFE
:10133000E82E82E0F82EC0E05701D0E015C0F4019D
:1013400025913491472D6D2F8C2F0E945E0982E0EC
:10135000880E911C739488E07812F1CF80E1A80E7A
:10136000B11CDF5FD83019F04501712CE8CFF801CE
:101370002591349141E060E08C2F0E943309F801FF
:1013800032962591349140E060E08C2F0E94330921
:101390000C5F1F4FCF5F80E8E80EF11CC33009F0EF
:1013A000CBCFD092EA01C092E901CDB7DEB7EDE034
:1013B0000C94832080E00E940A0960E088E290E0BB
:1013C0000E94E8200E9485090E94230981E00E9472
:1013D0000A09089585E290E00E94CA20813E89F4BE
:1013E00086E290E00E94CA20863259F487E290E0BB
:1013F0000E94CA2091E0853009F090E0892F817029
:10140000089580E0FCCFFF920F931F93CF93DF935B
:10141000F42E833040F5611126C024E0829F8001C4
:10142000112407551E4F82E090E0442311F090E014
:1014300080E0800F911F0E94CA20C82FD0E0DC2FCF
:10144000CC2783E090E0FF2011F081E090E0800F56
:10145000911F0E94CA209E01282BC901CDB7DEB77B
:10146000E5E00C948B2090E080E0F8CF0F931F9381
:10147000CF93DF93833038F5683028F5483018F57E
:1014800020E1629F8001112450E0440F551F040F9A
:10149000151F30E8839FC0011124080F191FC801D0
:1014A00089960E94CA20C82FD0E0DC2FCC27C80123
:1014B0008A960E94CA209E01282BC901DF91CF91F4
:1014C0001F910F91089590E080E0F8CF462F672F8D
:1014D0002091E5013091E601232BC9F4703F39F4E6
:1014E000403FA9F48091E7019091E8010895783098
:1014F00038F4483060F4833050F40E94360A08957E
:101500007D3F41F4411103C041E0833048F090E059
:1015100080E008957C3FD9F74111F9CF8330B8F7C7
:1015200060E00E94030A0895CF92DF92FF920F932A
:101530001F93CF93DF936C010091C8018091C70185
:10154000082BC2E0D0E010E0FC2EC8010C2E02C037
:10155000959587950A94E2F780FD0CC02197A0F736
:10156000F12C8F2DDF91CF911F910F91FF90DF9084
:10157000CF900895B6018C2F0E94660A0E942C0617
:10158000019761F3EECFCF93DF93EC010E94940AB1
:10159000BE010E94660A0E942C06DF91CF91089539
:1015A000FC0124812223C1F0808191810E94C30A21
:1015B00092959F70963091F058F4925F9F709230A0
:1015C00058F4803F19F030F4883E30F481E00895FB
:1015D0009A5FF4CF843FD1F380E00895883EB0F362
:1015E000813FD1F7F3CFA6E0B0E0E9EFFAE00C9449
:1015F000712049835A8349815A819923A1F022237A
:1016000091F0CA010E94940A182F682F89819A814B
:101610000E94FB0769817A81812F0E94660A2696C3
:10162000E3E00C948D20CA010E94B307182FF2CF7B
:101630009091CA0192FB222720F9281779F080FBAC
:1016400092F99093CA016091C9017091CA0184E036
:1016500090E00E94062182E00E9446080895CF9300
:10166000C091B6018091AD01C82B8091B90188234A
:10167000F9F00E94A5042091B7013091B801821BB6
:10168000930B8838934110F00E944A078091B9016A
:10169000C82B20E080E891E0FC013191CF013111AD
:1016A0002F5FF1E086389F07B9F721110E944A07A2
:1016B000C0937E0148E050E06EEA71E08EE791E071
:1016C0000E94B620892BA9F088E0EEE7F1E0AEEAAF
:1016D000B1E001900D928A95E1F7E091ED01F09172
:1016E000EE01309731F00280F381E02D8EE791E03A
:1016F0000995CF9108951092B601E0E8F1E086E0F7
:10170000DF011D928A95E9F790E080E00E94F004E5
:1017100090E080E00E94CB041092AD010E942F0B5C
:101720000895AAE2B0E0E7E9FBE00C94712085E0BF
:1017300092E02091F100DC012D93CD01B2E08D30DB
:101740009B07B9F780910602833009F472C0B8F4A0
:10175000813009F449C0823009F4B3C08091E800B7
:1017600083FF96C280910502909106029A3008F09C
:101770008FC2E92FF0E0E25EFE4D0C9455208A30D6
:1017800009F48EC08B3009F471C0893039F780912B
:101790000502813219F78091090290910A0200979F
:1017A00011F00297D9F68091E800877F8093E800D6
:1017B0008091E80082FF38C09091F3008091F200A0
:1017C000029731F48091F100813011F0863021F4DC
:1017D0008091F1008093F8018091E8008B778093ED
:1017E000E8000E946A03BACF80910502813A09F0AD
:1017F000B5CF8091E800877F8093E800809109024F
:1018000090910A02892B61F468E089EF91E070E021
:101810000E9416048091E8008B778093E8009ECFA9
:1018200060E090E080E0F3CF809103028111C0CFAF
:1018300095CF80910502813A09F090CF80910902FD
:1018400090910A02892B09F089CF8091E800877F67
:101850008093E8008091E80080FFFCCF80910A012E
:101860008093F1008091E8008E77B9CF80910502D6
:10187000813209F073CF8091090290910A02892B7D
:1018800009F06CCF8091E800877F8093E8000E9488
:101890006A038091070280930A010E947B0B5ECF4E
:1018A00080910502813209F059CF8091E800877F4D
:1018B0008093E8000E946A03809108028093F701F8
:1018C0004DCF80910502813A09F048CF8091E80020
:1018D000877F8093E8008091E80080FFFCCF8091B3
:1018E000F701BECF803899F0823809F0D1C18091DC
:1018F00009028F70873008F0CBC18093E900809196
:10190000EB0085FB882780F91092E90006C08091E2
:10191000010290910202911182609091E800977FFC
:101920009093E8008093F1001092F1008091E8001C
:101930008E77AAC1882309F498C1823009F0A8C122
:101940008091070281119BC1809109028F702FEF56
:10195000280F263008F09CC18093E9002091EB000D
:1019600020FF8DC1933031F48091EB008062809331
:10197000EB0085C19091EB0090619093EB0021E02A
:1019800030E001C0220F8A95EAF72093EA00109216
:10199000EA008091EB008860EACF811179C1109153
:1019A00007021F778091E3008078812B8093E3000A
:1019B0008091E800877F8093E8000E946A0380910D
:1019C000E80080FFFCCF8091E30080688093E30013
:1019D00082E0111183E0809303025AC18058823063
:1019E00008F056C120910702309108022C3DE3E037
:1019F0003E07A1F583E08A838AE289834FB7F89492
:101A0000DE01139620E03EE051E2E32FF0E0509338
:101A10005700E49120FF03C0E295EF703F5FEF7045
:101A20008E2F90E0EA30C0F0C7968D939D932F5F84
:101A3000243159F74FBF8091E800877F8093E800F9
:101A40006AE270E0CE0101960E9416048091E800DF
:101A50008B778093E8001CC1C096E7CF8091090284
:101A600090910A02432F55274330510509F44AC08B
:101A700078F54130510509F485C08BE590E0ECE440
:101A8000F4E04230510509F003C12091E800277FBE
:101A90002093E80020910B0230910C0282179307EB
:101AA00008F49C0140E02115310509F070C0411196
:101AB0006EC08091E80082FDC9CF80910302882327
:101AC00029F2853019F28091E80083FFF2CFBECF72
:101AD0004132510509F447C04232510509F0D8C0DE
:101AE0008330910508F0D4C0FC01EE0FFF1FE159CF
:101AF000FE4F0190F081E02D84599E4FDC018C91C6
:101B000090E01DC0332721303105E9F02115310562
:101B100079F022303105F9F02330310509F0B8C0F1
:101B2000E9EBF4E0E4918E2F90E0E9EBF4E007C0FC
:101B3000E3E0F5E0E4918E2F90E0E3E0F5E000973C
:101B400009F4A6C0A2CFEFEEF4E0E4918E2F90E06E
:101B5000EFEEF4E0F4CFE7EDF4E0E4918E2F90E0C7
:101B6000E7EDF4E0ECCF8330910508F091C0880FE9
:101B7000991FFC01EB58FE4F0190F081E02D89E0A8
:101B800090E083CF82E190E0E7EAF4E07ECF8091BD
:101B90000302882309F45ACF853009F457CF809186
:101BA000E80083FD53CF8091E80082FD82CF8091D1
:101BB000E80080FF78CF9091F3008091F20021152A
:101BC000310519F08830910550F041E0089709F08F
:101BD00040E08091E8008E778093E80064CF4491E4
:101BE0004093F1003196215031090196E8CF8038B9
:101BF00009F04EC08091E800877F8093E8008091D3
:101C000004028093F10092CE811142C0109107022C
:101C10001230F0F58091E800877F8093E800109300
:101C200004020E946A03112311F084E005C0809130
:101C3000E30087FDFACF81E08093030242E061EC8C
:101C400081E00E94890342E261EC84E00E94890302
:101C500042E261EC82E00E94890342E260EC83E0B0
:101C60000E9489038091030213C080910702813092
:101C700079F481E0933009F080E0809302021092C1
:101C8000E9008091E800877F8093E8000E946A0362
:101C90008091E80083FF0AC08091E800877F8093ED
:101CA000E8008091EB0080628093EB00AA96E3E06D
:101CB0000C948D200E947B0B2FEF84E39CE021503D
:101CC00080409040E1F700C0000088E19AE00FB644
:101CD000F894A895809360000FBE90936000FFCFAA
:101CE000882341F080959091AD0189238093AD01C7
:101CF0000E942F0B0895882339F09091AD01982B05
:101D00009093AD010E942F0B0895882321F00E942B
:101D10006A070E942F0B0895882339F09091B6012D
:101D2000982B9093B6010E942F0B0895882391F170
:101D30009CEF980F913A80F4E0E8F1E026E831E07A
:101D40009191891303C0DF0111971C922E173F0751
:101D5000B9F70E942F0B089590E2980F983050F435
:101D6000877091E001C0990F8A95EAF7892F0E9448
:101D70006A07EFCF9BE5980F933028F490E080E05E
:101D80000E94F0040895885A8B3120F490E080E09E
:101D90000E94CB040895CF93C82F8823B1F08CEF15
:101DA0008C0F813A00F5E0E8F1E086E891E0DF0190
:101DB0002D91C21761F08A179B07D1F76C2F8EE720
:101DC00091E00E94B1040E942F0BCF9108952191C0
:101DD000C21303C0DF0111971C928E179F07B9F73A
:101DE0000E942F0BEBCF80E28C0F883068F4C77015
:101DF00021E030E001C0220FCA95EAF78091B601D8
:101E0000822B8093B601DFCFEBE5EC0FE33040F49B
:101E1000F0E0ED5EFE4F808190E00E94F004D5CFAF
:101E2000C85ACB3190F6EC2FF0E0EE0FFF1FEA5EC0
:101E3000FE4F808191810E94CB04C7CF1F93CF9327
:101E4000DF93182FD0E0C0E0893311F4C0E5D0E073
:101E5000812F0E94CB0E209739F4812F0E94960E7D
:101E6000DF91CF911F9108958FE99FE00197F1F7DE
:101E700000C000002197EFCF0F931F93CF93DF9304
:101E8000C62FD42F022FFC0185818823A9F06093EF
:101E900049020E94A5049093480280934702C770AC
:101EA00081E001C0880FCA95EAF70E948C0EDF918D
:101EB000CF911F910F91089580914902681332C00C
:101EC00080914702909148020E948A04883C9105C3
:101ED00048F510E21D0FCD17B9F080E28C0F883065
:101EE00040F4C77081E001C0880FCA95EAF70E94EC
:101EF000850E183048F481E09D2F977001C0880F3F
:101F00009A95EAF70E948C0E802F0E941E0F1830BF
:101F100070F6D77081E001C0880FDA95EAF70E9469
:101F2000850EC5CFC77081E001C0880FCA95EAF75A
:101F3000F6CFB0E0A0E0EFE9FFE00C946A20EC01FE
:101F40008AE0A82E2881222309F48FC02130C9F508
:101F500099818A81913021F422960E941E0F05C03A
:101F6000923029F422960E94CB0E2196EBCF93302B
:101F700021F422960E94960EF8CF943011F021960B
:101F8000F4CF229630E020E0AE014F5F5F4F8053E8
:101F9000990B8A30910550F02150310930F38FE9C7
:101FA0009FE00197F1F700C00000F6CFA29EB001BC
:101FB000A39E700D11249C01260F371F8981EA0111
:101FC000E3CFE22FF0E0E95CFA4FB490822F8695E0
:101FD0008695869590E0FC01E95DFA4FE4902770C4
:101FE000F12C022E02C0F594E7940A94E2F731E056
:101FF000E322FF24FC01E95EFA4FC490D12C022EAB
:1020000002C0D594C7940A94E2F731E0C322DD24DC
:10201000FC01E95FFA4F049110E002C015950795A5
:102020002A95E2F701701127E114F10419F081EE0D
:102030000E94CB0EC114D10419F086EE0E94CB0E83
:102040008B2D0E941E0FC114D10419F086EE0E9440
:10205000960EE114F10419F081EE0E94960E01151E
:10206000110509F482CF8CE278CFCDB7DEB7EAE074
:102070000C948620A4E0B0E0E0E4F0E10C94682049
:102080007C01FC018481882309F4DDC021E04081CA
:1020900051816281738195810E94F30A8C01F7015D
:1020A0008581882309F4AFC0C8019757803891050E
:1020B00008F08DC4003108F0B7C08FEF93E00E94A4
:1020C000CA208111B1C055EBC52EDD24D394011176
:1020D00035C019821A821B821C820FEF46013FEF26
:1020E000831A930AC6010E94CA2089831A82882310
:1020F00009F49AC0813009F080C0560142E0A40E74
:10210000B11CC4010E94CA20182F8A83882309F4B5
:102110008BC0C5010E94CA20982E8FEF810F83309B
:10212000E0F4560153E0A50EB11C9B82992021F0EA
:10213000CE0101960E94990F6501D0CFC114F4E041
:10214000DF0609F471C0C6010E94CA20811101C0D6
:1021500001502FEFC21AD20ABACF8BEF810F833012
:1021600038F5C60103969B825C01992029F356013C
:10217000E4E0AE0EB11C0E94CA208C838823E1F2F9
:10218000CB80DC80F1E0CF16FFEFDF0610F0DC2C17
:10219000CC24163049F0173019F0C6010E94BE1742
:1021A000C6010E948617C8CFC6010E94BE17C4CFC1
:1021B000143011F6560124E0A20EB11CC60103969C
:1021C0000E94CA20992081F1882371F18150990BD6
:1021D000089F9001099F300D1124492D4150550B46
:1021E000CA01820F931F019708F4A6CFEFE9FFE021
:1021F0003197F1F700C00000F6CFCE0101960E94A2
:10220000990F540199CFF801E851FC47E730F105E7
:1022100008F0C6C3E85DFE4D0C94552026E241EE61
:1022200061EEC7010E943C0F8091AC01877059F0AC
:10223000F7018581882339F08091CA0182FF03C0AC
:1022400082E00E9446082496ECE00C94842027E269
:1022500045EE65EEE6CF26E241EE60EEE2CF27E204
:1022600045EE64EEDECF26E241EE62EEDACF27E203
:1022700045EE66EED6CF28E241E0EBCF8091C90172
:1022800081608093C90195C08091CA018860809364
:10229000CA018FC08091C9018260F3CF8091C901CA
:1022A0008460EFCF8091C9018860EBCF8091CA0133
:1022B0008160EDCF8091CA018260E9CF8091C90130
:1022C0008061DFCF8091C9018062DBCF8091C9013D
:1022D0008064D7CF0E947B0B8091C9018068D1CFE9
:1022E0008091C9018C60CDCF8091CA018360CFCF2E
:1022F0008091C9018E7FC5CF8091CA01877FC7CFEA
:102300008091C9018D7FBDCF8091C9018B7FB9CFED
:102310008091C901877FB5CF8091CA018E7FB7CFE9
:102320008091CA018D7FB3CF8091C9018F7EA9CFE3
:102330008091C9018F7DA5CF8091C9018F7BA1CFED
:102340000E947B0B8091C9018F779BCF8091C9013F
:10235000837F97CF8091CA018C7F99CF8091C901EB
:1023600082FB992790F921E0922790FB82F990FB5C
:1023700083F987CF8091CA01982F909591708E7FB5
:10238000892B90FB81F983CF9091C901892F8F7B95
:1023900096FF806476CF0E947B0B9091C901892FB4
:1023A00097FB87F980586DCF61E08EE090E00E9446
:1023B000E8206091C9017091CA0184E090E00E9418
:1023C00006210E947B0B30CF60E0EFCF9091C901D6
:1023D000892F8F7E94FF806154CF9091C901892FFE
:1023E0008E7F90FF81604DCF9091CA01892F877FAA
:1023F00093FF88604CCF85E3DCC207372CE71207D8
:1024000009F467C082E008373CE7130709F462C0AB
:1024100003304CE7140709F484C008F067C00115C5
:102420008CE7180709F470C001301C4709F47FC01D
:10243000F701858100811181882309F486C0C801D4
:102440000E94940AD82E682FC8010E94FB07B80189
:102450008D2D0E94660A0E942C068C01882EF701A1
:10246000A580968092943FE093228091AC01877082
:1024700009F1DA2CAA20F9F0812F807F803469F0ED
:1024800080E2800F8830B0F0812F807E803229F486
:10249000F1E0F01778F4992069F08091CA0182FF89
:1024A00009C082E00E9446088091AC018770DD245B
:1024B000D3948111D12CC12EC2942FE0C2222BE0E3
:1024C0002C1508F4A7C0EC2DF0E0E15DFE4D0C9456
:1024D000552081E00E945D0843E062E081E00E94B7
:1024E0001908A2CE81E00E943908F6CF0B35ECE73F
:1024F0001E0749F10C35FCE71F07D9F00A351C47C8
:1025000009F096CF81E01CC00E947B0B3FEF44E3B3
:102510005CE0315040405040E1F700C000000E94B4
:1025200079046FEF7FEF90E080E00E9406210E9427
:102530005A0E8091CA0182FB882780F991E0892791
:102540000E94180B75CF80E0FBCFC8010E94B30733
:10255000D82E7DCF312F3F70B32E107F19F0B2945B
:1025600090EFB922AA20B9F0BB2069F080E2800F79
:10257000883010F0811009C08091B601B82AB0925D
:10258000B6010E942F0B802F43C08091AD01B82A65
:10259000B092AD01F6CF802F0E94960EBB20D1F1F4
:1025A000005E083010F0811004C08B2D0E946A0775
:1025B00006C0B0948091AD01B822B092AD010E94E6
:1025C0002F0B28C0412F4F70B42E107F103219F0FE
:1025D000B29480EFB822882059F051E0851609F4B2
:1025E0008EC0AA2009F49AC0992009F447C0CBCF25
:1025F0008091CA0182FD3EC0AA20B1F1BB2039F012
:102600001091B6011B291093B6010E942F0B80E098
:102610000E94CB0E4C2D4850550B4430510510F400
:102620000E941505DD20A9F08091AC0180FD11C04C
:10263000F70115828695869586950E945D08C701EB
:102640000E943A108091AC018695869586950E94ED
:10265000390820E0F70140815181628173818481D2
:1026600095810E94F30AEFCD80E00E94960EBB2078
:1026700089F29BCFAA2071F1911004C08B2D0E948A
:102680008C0EC8CF81E0981211C01091B9018B2D2A
:102690008123B81609F4BECF0E94A5049093B80117
:1026A0008093B7011B291093B901B4CF95E099121B
:1026B000B1CF8B2D0E948C0E8B2D0E9455078091DF
:1026C000A9019B2D9823B91609F4A4CF8B298093D7
:1026D000A901A0CF91100AC08B2D0E94850E8B2DD1
:1026E0000E9455078B2D0E94780794CFE1E09E123F
:1026F00091CF8091B6018B2109F48CCFEDCFAA2028
:1027000029F0F5E0F91508F485CFB8CF24E02915B4
:1027100008F480CF8B2D0E94850E7CCF9920D1F3B9
:1027200039E3831209C04FEF57EE83E04150504028
:102730008040E1F700C00000802F0E94960E6ACF13
:10274000812F86958695837061F0813009F062CF84
:10275000C8019370A11002C080E090E00E94CB04F9
:1027600059CFC8019370A11002C080E090E00E9490
:10277000F00450CF812F837089F5A1104BCF402FEB
:10278000429546954770440F440F802F8F70042E5A
:1027900001C0880F0A94EAF7202F207104FF07C0B8
:1027A0002FE030E001C0220F4A95EAF720951695F8
:1027B00016951370123069F050F43091C701113042
:1027C00029F0822B83230E94800824CF832B822B25
:1027D000FACF282B8091C7018227F5CF8695AA20B2
:1027E00011F0812F8170882309F414CF402F429576
:1027F00046954770440F440F802F8F70042E01C000
:10280000880F0A94EAF7202F207104FF07C02FE0F9
:1028100030E001C0220F4A95EAF7209516951695EB
:102820001370123069F050F43091C801113029F062
:10283000822B83230E941608EDCE832B822BFACFA6
:10284000282B8091C8018227F5CF1F70AA2029F07C
:10285000812F0E945D08802F12CF802F0E94850E4D
:10286000812F0E943908D6CE802F92EF8916B1F1C0
:10287000981570F0E0EF8E16D1F0F1EF8F1691F011
:10288000AA2009F466C091107ECE812F8F712AC0D4
:1028900023EF821651F134EF8312F2CF8091CA01F7
:1028A00082FD2FC0812F8F71AA20D9F21BC0AA20D0
:1028B00081F044E0491508F4ADCE1F7181E090E04D
:1028C000012E01C0880F0A94EAF79091C801892768
:1028D000B1CF55E0591508F49DCEEFCF812F8F7100
:1028E000A110BFCF0E945D0895CE80E0AA2009F418
:1028F000A1CF1F7181E0012E01C0880F0A94EAF771
:1029000099CFAA20C9F08091AC018770843041F43E
:102910000E947107812F8F710E943908D12C7ACEC5
:1029200084E08915D8F31F71812F0E945D0863E050
:10293000812F0E946908F2CF94E0991530F40E942B
:10294000710764E0812F8F71F4CF81E00E94460807
:10295000E5CF992059F0893309F0EECEEFEFF7EE8D
:1029600023E0E150F0402040E1F7E4CE812F8F7169
:1029700078CF0631FCE71F0709F03FCD8091B60103
:102980008A7A91E009F490E09093860169E28111DE
:1029900065E38EE791E00E94B1040E942F0B44CCC6
:1029A00006312CE7120799F580918601811123CD1C
:1029B00089E2E0E8F1E026E831E09191891303C073
:1029C000DF0111971C922E173F07B9F7E6CFF801E8
:1029D000E851FC47E730F10508F41CCC109249029D
:1029E000C8019057839728F684E090E00E94D22097
:1029F0009093CA018093C901F801E150F047E23297
:102A0000F10508F03BCCE55CFE4D0C9455200737F2
:102A10003CE7130709F466CD08374CE7140709F0C3
:102A200007CD82E060CDCF93DF938091A801807FB6
:102A300009F04DC08091A701882309F448C0E091B6
:102A4000460250910D02C091A301D091A201609164
:102A5000A4017091A50147E05E17C9F18E2F90E0A7
:102A6000E49FF0011124E25FFD4F2481222391F1C4
:102A7000489FF001499FF00D1124DF01A25FBD4F77
:102A800011962C9111972C1325C02C912D1322C037
:102A900015962C91159721111DC012962D913C91E0
:102AA000261B370B283C3105A8F48091A8018F70B4
:102AB00080618093A801EC5EFD4F80818F70806102
:102AC000808382EA91E00E943A100E948207DF919F
:102AD000CF910895FC013196E770BECFA4E1B0E03C
:102AE000E4E7F5E10C9468208C0186E0F801DE0152
:102AF0001F9601900D928A95E1F7F8018481E58097
:102B000092EAA92E91E0B92E9091A601911128C0C8
:102B1000882319F1EE20F1F0C8010E94D00AF82EA6
:102B20008823C1F087E0F801D50101900D928A95C4
:102B3000E1F78091A601813031F48091A20190915A
:102B4000A3010E94C30A0E9413158F2D6496ECE026
:102B50000C948420C8010E943A10FF24F394F5CF0E
:102B6000D080C18082809380F090A7012091A40141
:102B70003091A501A401421B530BFF2009F4D9C0D9
:102B8000483C510508F092C08823F9F29091A301C6
:102B90008091A801282F207F09F056C0C91214C0C7
:102BA0009091A201D91210C0E11048C08F708061CD
:102BB0008093A80182EA91E00E943A108091A801D6
:102BC000F8018683F12CC1CFE11038C06C2D8D2D1A
:102BD0000E94FB026C2D8D2D0E94FB02E82E8111BC
:102BE000F1CFDF86C88A8F8598890E94C30A292F72
:102BF00022952F70243058F49F70223088F099234A
:102C000099F0F8019681907F79F4FE2C9ECF2A5F8F
:102C10002F70223068F0C8010E943A10EF2CF5CFD7
:102C2000992311F0882389F3805E883070F3F3CF05
:102C3000803F58F3815F833070F7E7CF8091A80120
:102C400081608093A801BECFC91207C09091A201F4
:102C5000D91203C0EE2009F48DC0C8010E94D00A29
:102C6000882309F477CFEE2009F474CF8091A8016E
:102C7000803288F02091A2013091A3013987288702
:102C80009B868A869091A6019C871D868E87CE01A1
:102C900008960E943A1087E0F801A2EAB1E001909C
:102CA0000D928A95E1F70E94131557CF9091A801D4
:102CB000292F207F51F482EA91E00E943A1087E0A8
:102CC000F50111928A95E9F77DCF882309F43DCF6C
:102CD0008091A3018C1110C08091A201D8120CC068
:102CE000E1100AC09683C8010E943A1087E0F501FE
:102CF00011928A95E9F729CFC8010E94D00A88234A
:102D000009F428CFEE2009F425CF8091A801803264
:102D100010F22091A2013091A3013A8329839C8271
:102D20008B829091A6019D831E828F83CE01019696
:102D3000B0CF483C5105D0F6882309F40ECFFE2CC5
:102D4000EE2009F407CF8091A3018C1120C080915F
:102D5000A201D8121CC08091A80180FD0FC0982F3D
:102D6000907F61F08683903F31F0982F907F905F45
:102D70008F70892B8683C8010E943A1087E0F80182
:102D8000A2EAB1E001900D928A95E1F7DECEC8018A
:102D90000E94D00A81117FCF8091A8018160809329
:102DA000A801C8010E943A10D0CEABE1B0E0EBED33
:102DB000F6E10C9470204E8B5F8B688F798F8A8F31
:102DC0009B8F092F91111092AD011D8A86E0FE01A3
:102DD0007696DE011F9601900D928A95E1F71A8D85
:102DE0008091CA0182FF1CC00E94A5042091AA0103
:102DF0003091AB01821B930B8838934120F0809176
:102E0000AC0182FF7FC00E94A5042091B7013091E0
:102E1000B801821B930B8838934110F00E944A0737
:102E2000112349F021E04F85588969897A89812FDA
:102E3000902F0E94F30A1B8B0C8B87E0FE013F96BC
:102E4000DE01189601900D928A95E1F7CE01089661
:102E50000E946E1581110CC087E0FE013896DE01DC
:102E6000119601900D928A95E1F78C8581110BC026
:102E700017E08091460290910D02891331C06B9644
:102E8000E4E00C948C2020910D0230E0C901019601
:102E900087709927409146024817190699F097E0E4
:102EA000929FD001939FB00D1124A25FBD4FFE01F0
:102EB000319601900D929A95E1F780930D020E9450
:102EC0008207D6CF0E947B0B10920D021092460211
:102ED00087E0E2EAF1E0DF011D928A95E9F7C8CFC9
:102EE000819FC0011124825F9D4F0E946E1588232F
:102EF00031F28091460290E0019687709927809385
:102F00004602B7CF82E00E9446087DCFA6E0B0E03F
:102F1000ECE8F7E10C9470208C019093E801809329
:102F2000E701011580E21807C0F4802F0E94960E79
:102F3000C8010E9483089801205E310928303105BC
:102F400018F00115110531F40E94850E2696E4E073
:102F50000C948C200E94700EF9CF80EF89838A83B5
:102F60000E94A5048160682F9C838B8349815A81CC
:102F70007C8181E090E00E94D516E8CFA6E0B0E029
:102F8000E4ECF7E10C9470208C019093E8018093BD
:102F9000E701011580E21807C0F4C8010E94830808
:102FA0009801205E31092830310518F0011511050E
:102FB00049F40E948C0E802F0E94CB0E2696E4E0EE
:102FC0000C948C200E947B0EF6CF80EF89838A833D
:102FD0000E94A5048160682F9C838B8349815A815C
:102FE0007C8181E091E00E94D516E8CFA6E0B0E0B8
:102FF000ECEFF7E10C9470200E94A5048C01809105
:10300000BA019091BB018017910781F019821A8251
:103010000E94A504682F49815A81792F80E090E0B1
:103020000E94D5161093BB010093BA012696E4E0E6
:103030000C948C204F925F927F928F929F92AF92CE
:10304000BF92CF92DF92EF92FF920F931F93CF9395
:10305000DF93CDB7DEB728970FB6F894DEBF0FBE6B
:10306000CDBF8E010F5F1F4F88E0F80111928A9546
:10307000E9F79CE4E92E91E0F92E24E5C22E21E047
:10308000D22E77247394AA24A394B12C4CE5842ED9
:1030900041E0942EF70181917F018F3F09F447C0F1
:1030A000F894E82FE295EF70F0E021A18F70A50170
:1030B00002C0440F551F8A95E2F7CA01922F982B40
:1030C00091A392A18095892382A3789400C084E57E
:1030D000482E81E0582ED801672D6095F20151915C
:1030E0002F014D919D01215031095F3F09F456C0D8
:1030F000852F82958F7090E0FC0180A190E05F7039
:1031000002C0959587955A95E2F780FD47C04729FB
:10311000F90140838414950409F7F7013197808100
:103120008F3F11F00E942405F0EAFA95F1F7770C31
:10313000CE14DF0409F0AECF48E050E0B8018FEBC9
:1031400091E00E94B620892B69F188E0F801AFEB8D
:10315000B1E001900D928A95E1F781E08093BE0184
:103160000E94A5049093BD018093BC0110E0812FC3
:1031700028960FB6F894DEBF0FBECDBFDF91CF917A
:103180001F910F91FF90EF90DF90CF90BF90AF9085
:103190009F908F907F905F904F9008954623B8CF77
:1031A00010E01FC01091BE01112301F38091BC01FA
:1031B0009091BD010E948A040597C0F248E050E05A
:1031C0006FEB71E08DED91E00E94B620892B41F309
:1031D00088E0EFEBF1E0ADEDB1E001900D928A9562
:1031E000E1F71092BE01C3CF1F920F920FB60F925C
:1031F00011242F933F934F935F936F937F938F93FC
:103200009F93AF93BF93CF93DF93EF93FF93D091AF
:10321000E900DF708091EC00C82FC17080FDC0E82C
:103220001092E9008091F000877F8093F0007894FD
:103230000E94910B1092E9008091F00088608093C9
:10324000F000CD2BCF70C093E900FF91EF91DF919B
:10325000CF91BF91AF919F918F917F916F915F912E
:103260004F913F912F910F900FBE0F901F90189587
:103270001F920F920FB60F9211242F933F934F93EB
:103280005F936F937F938F939F93AF93BF93EF93CE
:10329000FF938091E10082FF09C08091E20082FFEC
:1032A00005C08091E1008B7F8093E1008091DA007E
:1032B00080FF24C08091D80080FF20C08091DA0078
:1032C0008E7F8093DA008091D90080FF9DC080E1DD
:1032D00089BD82E189BD09B400FEFDCF81E0809304
:1032E00003028091F601811109C00E941A030E9415
:1032F000BB038091E20084608093E2008091E10052
:1033000080FF17C08091E20080FF13C08091E2002F
:103310008E7F8093E2008091E20080618093E200E2
:103320008091D80080628093D80019BC85E080939A
:1033300003028091E10084FF2BC08091E20084FFB2
:1033400027C080E189BD82E189BD89B5982F917040
:1033500080FFFBCF8091D8008F7D8093D800809133
:10336000E1008F7E8093E1008091E2008F7E809368
:10337000E2008091E20081608093E200809104028B
:10338000882309F447C084E08093030280910302FC
:103390008091E10083FF27C08091E20083FF23C07A
:1033A0008091E100877F8093E10082E080930302B7
:1033B000109204028091E1008E7F8093E100809161
:1033C000E2008E7F8093E2008091E2008061809332
:1033D000E20042E060E080E00E9489038091F0001A
:1033E00088608093F000FF91EF91BF91AF919F9122
:1033F0008F917F916F915F914F913F912F910F909E
:103400000FBE0F901F90189519BC109203021092D6
:10341000F60174CF8091E30087FD93E0909303025F
:10342000B5CF78941F921FB61F9211248F939F934C
:10343000AF93BF938091F2019091F301A091F401B9
:10344000B091F5010196A11DB11D8093F2019093F9
:10345000F301A093F401B093F501BF91AF919F9157
:103460008F911F901FBE1F9018951F921FB61F921D
:1034700011248F939F93AF93BF938091F10181119A
:1034800013C08091F2019091F301A091F401B091E9
:10349000F5014196A11DB11D8093F2019093F301B6
:1034A000A093F401B093F501BF91AF919F918F91DB
:1034B0001F901FBE1F901895CDB7DEB7C654D10917
:1034C0000FB6F894DEBF0FBECDBF85B7806885BF4D
:1034D00085B7806885BF84B7877F84BF0FB6F894AF
:1034E000A8958091600088618093600010926000D0
:1034F0000FBE80E890E00FB6F8948093610090933F
:1035000061000FBE82E295E090937D0180937C0183
:103510000E941A030E94BB038091E20084608093A2
:10352000E2007894809103028823A1F01091E900D1
:103530001F709091EC00892F817090FD80E8182B0E
:103540001092E9008091E80083FD0E94910B1F70AA
:103550001093E90082E084BD93E095BD9AEF97BD9A
:1035600080936E000E94EA09811102C00E94DA096C
:1035700081E08093D60153985B9A52985A9A8FE8CB
:1035800091E00197F1F700C000002091D60147EDCE
:1035900051E0FA018E2F841B821708F4C5C00CE499
:1035A00011E0D8018D918D018F3F11F00E9424050B
:1035B000B1E004351B07A9F704E511E02CE5E22E84
:1035C00021E0F22EF80181918F018F3F11F00E94CE
:1035D0002405E016F106B1F788E0EDEDF1E0DF013A
:1035E000282F1D922A95E9F7EFEBF1E0DF011D92FC
:1035F0008A95E9F790E080E00E94D220863E9E4FB7
:1036000021F40E94EA09811168C066EE7EEF90E025
:1036100080E00E94062160E082E090E00E94E820C5
:1036200081E08093C70161E083E090E00E94E820A0
:1036300060E074E184E090E00E94062160E086E0B2
:1036400090E00E94E8206FEF87E090E00E94E82081
:1036500040E050E0BA0188E090E00E94FA2060E08B
:1036600084E290E00E94E82060E087E190E00E9420
:10367000E82060E08CE090E00E94E82060E08DE0CF
:1036800090E00E94E82019821A821B821C821D820F
:103690001E821F82188648E050E068E170E0CE018B
:1036A00001960E94D82040E050E0BA0180E290E00C
:1036B0000E94FA2080E00E940A090E94DA0940E094
:1036C00050E0BA018FE090E00E94FA2040E050E024
:1036D000BA0183E190E00E94FA2082E090E00E942B
:1036E000CA208093CB0184E090E00E94D220909386
:1036F000CA018093C9010E941A18EFEFF6E721E092
:10370000E150F0402040E1F700C000000E941A188C
:103710008091DD0180FF14C06FEF7FEF90E080E0CB
:103720000E9406210E94790489B183FB882780F9D1
:103730004A9904C090E0892B81932CCF92E0FBCF73
:1037400083E090E00E94CA200E94800880E091E01F
:103750009093EE018093ED0198E1292E312C809118
:103760000302853091F400E4E02E8DED91E018E045
:10377000180F80E1F82E02E180910302853009F4F0
:1037800063C00E947B0B0E9415050E941A18BCECB6
:10379000CB2EB1E0DB2E1DEDA12E11E0B12ED50117
:1037A000F60191918D9131E0E43DF30709F480C079
:1037B0009817B9F310E0D5010D915D01F6018191E3
:1037C0006F018017D1F1982E9026F12CEE24E3940E
:1037D00088248394892D8E2141F12296FFAE229771
:1037E00023961FAF23970E94A50425969FAF8EAF07
:1037F000259726968FAE269791E0802F8E2109F48B
:1038000090E027969FAF279722964FAD2297239659
:103810005FAD239724966FAD249725967FAD2597AE
:1038200026968FAD26970E94D516F394EE0CF8E0FD
:10383000FF12D0CFF601319700831F5F183009F0D7
:10384000BACF0E94990438C080910302843009F1F4
:103850001092F1010FB6F894A895209260000FBE67
:10386000E092600083B7817F846083BF83B781600B
:1038700083BF7894889583B78E7F83BF0FB6F89403
:10388000A89580916000886180936000109260002C
:103890000FBE80910202882309F46ECF0E941A188D
:1038A000EDEDF1E081918111CEC31E13FBCF64CF0A
:1038B000981380CF0E94F61710E000E062E0962E89
:1038C00074E0A72EB12CEDEF8E2E77247394FCEFCD
:1038D0006F2EA3E05A2E87C0E12EF12CE9B1E3FB55
:1038E000EE27E0F94A99CCC080E08E2BD701A9528F
:1038F000BE4FEC919E2F9370891709F473C0EE0FA1
:10390000EE0FE82BEC93EF70F0E0E45AFE4F9701D6
:103910002B523E4F69018081D9019C91890F8C9374
:1039200020E084304CF1F701EC52FE4F80818F5F34
:1039300080830E94A5041DAB6EAA682F8FAB98AF41
:1039400059AE7AAE412F5CEF792F83E091E00E946F
:10395000D5160E94A5041BAF6CAE682F8DAF9EAF2D
:103960005FAE21961FAE2197412F5CEF792F83E048
:1039700090E00E94D51621E0F60180818D3F3CF554
:10398000F701EC52FE4F8081815080830E94A50494
:1039900019A78AA6682F8BA79CA79DA67EA6412F54
:1039A0005DEF792F82E091E00E94D5160E94A50478
:1039B0001FA788AA682F89AB9AAB9BAA1CAA412F84
:1039C0005DEF792F82E090E00E94D51621E0D601CC
:1039D0008C91082E000C990BB5010E944120F60134
:1039E0008083022B1F5F8091D601181708F474CFD3
:1039F00001110E9499040E9415059091D801891720
:103A000021F08093D8010E949904809103028430B0
:103A100009F0A5CE83E08093E9008091E80082FF61
:103A20009ECE8091E80090E085FF05C00E9439039A
:103A3000882341F191E08091E8008B778093E80042
:103A4000992309F48CCE0091E5011091E60189815A
:103A500001151105A1F18E3F09F0BDC08A818330A7
:103A600020F08550833008F0B6C0EA81EE3008F0CF
:103A7000B2C0F0E0E35AFE4DCE0101960C94552001
:103A800082E033CF00E210E09E012F5F3F4F7901CB
:103A90008091E80085FD0AC08091E8008B778093D3
:103AA000E8000E943903882399F3C4CF8091F10084
:103AB000D7018D937D010150110951F7BBCF8C3097
:103AC00009F4D9C078F5843009F4BCC058F48230C8
:103AD00009F470C008F0A7C0813009F467C08FEF07
:103AE000898379C0863009F4C3C008F4B6C08B302E
:103AF000B1F78091E9019091EA01892B09F46BC03B
:103B000040E250E0BE016F5F7F4F82E00E94B40848
:103B10003FEF81EE94E0315080409040E1F700C0EB
:103B2000000000CE803109F4D9C0A0F58E3009F430
:103B3000A9C008F4A3C08091E9019091EA01892B02
:103B400009F449C08C81E82EF12C2DE1E216F10434
:103B500008F041C0CA80DB80DC24CD24DC248E0147
:103B60000F5F1F4FE00EF11EC6018B549E4FE016F3
:103B7000F10689F13BE4C31632E0D30628F4D801FC
:103B800014966C910E94E8200F5F1F4FBFEFCB1A75
:103B9000DB0AEACF823109F4A6C008F4A2C083315F
:103BA00009F4CCC08E3F09F09ACF5FCF1A8289E02A
:103BB0008B8311C08A81823009F45BC28330A1F00B
:103BC000813009F08CCF0E9499040E945B206B83A6
:103BD0007C838D839E8340E250E0BE016F5F7F4F08
:103BE00082E00E94B408BBCD8091E9019091EA0186
:103BF000892B89F38091DD018B838091DE018C8399
:103C00008091DF018D838091E0018E838091E101BD
:103C10008F838091E20188878091E3018987809179
:103C2000E4018A87D8CF8A81823009F058CF6B812E
:103C30007C818D819E810E945B2088E290E00E94C1
:103C4000E820C9CF4C816B818A810E94360A98276F
:103C5000892798279E838D83BECF2D813E81322771
:103C6000232732274C816B818A810E945E09B3CF62
:103C70000E948509B0CF80E18A83ADCF82E08A833C
:103C80008BE496CF8C81E82EF12CBDE1EB16F1048C
:103C900008F0A1CFCA80DB80DC24CD24DC248E0197
:103CA0000F5F1F4FE00EF11EC6018B549E4FE016B2
:103CB000F10609F490CFEBE4CE16E2E0DE0658F40C
:103CC0000E94CA20D80114968C93FFEFCF1ADF0A06
:103CD0000F5F1F4FE9CFF8011482F7CF0E9423092D
:103CE0007ACF83E0C9CF8C81E82EF12CEDE1EE167E
:103CF000F10408F070CFCA80DB80DC24CD24DC2402
:103D00008E010F5F1F4FE00EF11EC60189960E1542
:103D10001F0509F460CFF0E8CF16F1E0DF0658F494
:103D20000E94CA20D80114968C93FFEFCF1ADF0AA5
:103D30000F5F1F4FEACFF8011482F7CFEC80F12C10
:103D40002DE1E216F10408F046CF0A811B8110270D
:103D500001271027003831E0130708F03CCF80E836
:103D600091E0801B910B8E159F0508F434CF48011C
:103D700089E2880E911C8091E9019091EA01380155
:103D80006E0C7F1C892BB9F5680191E0C922DD24F6
:103D900000FF0DC0C80188960E94CA209D81892716
:103DA0009827892781159C4711F48FEF8D83570140
:103DB00060FE17C0B1E0AB1AB10855E0452E512C9A
:103DC0004C0E5D1E4A0C5B1CC4018E0D9F1D0E9493
:103DD000CA20F201908181159C4719F48FEFD2011E
:103DE0008C93E1E0F0E0EC0FFD1FEC0DFD1D2FEFDB
:103DF000CA14DB0428F09E012F5F3F4F790119C0E0
:103E00009481858181159C4711F42483258332E0B8
:103E1000C30ED11C3296ECCF0038A1E01A0720F473
:103E2000F70164810E94E820FFEFEF1AFF0A0F5F9D
:103E30001F4FC80189966016710671F7CCCE28E035
:103E4000EBE0F1E0DE01919601900D922A95E1F709
:103E500020E2DC011D922A95E9F786E0898388E05B
:103E6000FE01B196DE01159601900D928A95E1F75B
:103E7000B2CE8CE7898381E08A831B821C82ABCE21
:103E80000C81602F70E0762F66270B81060F172FAD
:103E9000111D012E000C220B330B45E0000F111FEA
:103EA000221F331F4A95D1F7B901A801405E5F4F29
:103EB0006F4F7F4F401751076207730708F48BCE8F
:103EC0000C37B1E01B072105310508F084CE4D37D2
:103ED000E1E05E076105710520F04CE751E060E02C
:103EE00070E0401B510BB8016C5B7E4F0E94AD200F
:103EF00072CE1B810C8140E0602F812F0E94030A4B
:103F00009827892798279A83898341E0602F812FFA
:103F10000E94030A9827892798279C838B835BCE6E
:103F20002E813F813227232732272115FCE73F07C7
:103F300041F48091E9019091EA01892B11F430E07C
:103F400020E041E08D81811101C040E06C818B81D6
:103F50000E94330940CE4AE150E06FEF70E0CE019D
:103F600007960E94C3208091E90189830A831B82FE
:103F70001C8281E08D838E832ECE81E090E0909331
:103F8000E6018093E50182E390E09093DC01809369
:103F9000DB010E94A5049093DA018093D9011BCE26
:103FA000012B61F11091DD010091DE018091D901B9
:103FB0009091DA010E948A048536910540F101FF53
:103FC00026C010FF24C00E94A5049093DA018093BC
:103FD000D9018091DB019091DC0101979093DC0184
:103FE0008093DB01892B51F41092E6011092E501D8
:103FF00081E090E09093EA018093E9018091E901EA
:1040000089838091E5018A838091DB01D1CD82E3B0
:1040100090E09093DC018093DB01F0CF1092EA01F5
:104020001092E901D8CD40E250E06FEF70E00E94BD
:10403000C320D1CD2B812111CECD20E2DC011D92F8
:104040002A95E9F7C8CDF9BC09BD09B400FEFDCF3A
:104050008091D8008F7D8093D8008091E0008260AD
:104060008093E0008091E00081FDFCCF0E947B0BFB
:1040700083CB88E290E00E94CA201B821C821D82B2
:104080007ACF97FB072E16F4009407D077FD09D05E
:104090000E94992007FC05D03EF4909581959F4F92
:1040A0000895709561957F4F0895EE0FFF1F05905D
:1040B000F491E02D099469279627692778278727A7
:1040C000782708952F923F924F925F926F927F923E
:1040D0008F929F92AF92BF92CF92DF92EF92FF9218
:1040E0000F931F93CF93DF93CDB7DEB7CA1BDB0BC4
:1040F0000FB6F894DEBF0FBECDBF09942A88398869
:1041000048885F846E847D848C849B84AA84B9846F
:10411000C884DF80EE80FD800C811B81AA81B9817B
:10412000CE0FD11D0FB6F894DEBF0FBECDBFED018F
:104130000895AA1BBB1B51E107C0AA1FBB1FA617EE
:10414000B70710F0A61BB70B881F991F5A95A9F740
:1041500080959095BC01CD010895FB01DC0102C062
:1041600005900D9241505040D8F70895FB01DC01B5
:1041700004C08D910190801921F441505040C8F73E
:10418000881B990B0895DC0101C06D93415050408C
:10419000E0F70895F999FECF92BD81BDF89A99276D
:1041A00080B50895A8E1B0E042E050E00C940E2103
:1041B000DC01A40FB51F4150504048F0CB01840FE3
:1041C000951F2E910E94E92041505040D0F708954C
:1041D000262FF999FECF92BD81BDF89A019700B4C0
:1041E000021639F01FBA20BD0FB6F894FA9AF99A60
:1041F0000FBE08950396272F0E94E9200E94E82011
:10420000252F0E94E920242F0C94E9200196272FC6
:104210000E94E9200C94E820DC01CB01FC01F99913
:10422000FECF06C0F2BDE1BDF89A319600B40D9202
:1042300041505040B8F70895F894FFCF720C9A0C93
:10424000480E9A0C480ECD0CEE0C480EF70D040EDD
:104250002B112F110E112711331137113B11AA12F7
:10426000AA12E212E212A0130A130A130A13BA13D3
:104270002514341434147811ED1180114A114E11A3
:1042800084115211881194115E11E6116211981176
:1042900066119C11C4116A11A011CB117011A611E5
:1042A000AE1156118C115A1190117411AA11BA1134
:1042B000D411E41144117C11F4111F1F391F401F48
:1042C000791F901FAB1FBD1FD01F0E201320EB1DA9
:0642D000EB1DEB1D1A209E
:1042D6007604F60874047504EF08014957BD3DC01D
:1042E600A4F03E818283E200E900EA00B500B60050
:1042F600B700CD008301CC008A019201940121020E
:10430600230224022502260227022A02B300B40051
:104316006F0070009F01CB019F02A002F4F5F6F733
:10432600313332369190946697C6343500FF0100DA
:10433600010000FFFF0000010001FF0044223200DF
:0C43460001DE00AC005E04770497040068
:00000001FF
