:100000000C94F6020C9413030C9413030C94130336
:100010000C9413030C9413030C9413030C94130308
:100020000C9413030C9413030C94821D0C943E1D2A
:100030000C948D1E0C9413030C9413030C94130353
:100040000C9413030C9413030C9413030C941303D8
:100050000C9413030C94691E0C9413030C94130357
:100060000C9413030C9413030C9413030C941303B8
:100070000C9413030C9413030C9413030C941303A8
:100080000C9413030C9413030C9413030C94130398
:100090000C9413030C9413030C9413030C94130388
:1000A0000C9413030C9413030C941303050109021D
:1000B000A10185020901A1000509190129081500FE
:1000C0002501950875018102050109300931158165
:1000D000257F95027508810609381581257F9501D0
:1000E00075088106050C0A38021581257F95017572
:1000F000088106C0C005010980A101850319012AF4
:10010000B700150126B700950175108100C0050CD8
:100110000901A101850419012AA002150126A002E6
:10012000950175108100C00660FF0961A101096297
:10013000150026FF00952075088102096315002629
:10014000FF00952075089102C005010906A101056F
:100150000719E029E7150025019508750181029529
:1001600001750881010507190029FF150026FF0008
:100170009506750881000508190129051500250156
:10018000950575019102950175039101C0FD377ABE
:10019000585A000004E6D6B44602002101160000B9
:1001A00000742FE5A3E0031501335D003D8889C687
:1001B0005436C3174FE4DCC3E6127E2D9A0347D0B2
:1001C0009FFE7CF1301D4E026EBF680140BAEBE726
:1001D0002D192CBA37C3E20A1621FA99D3B0C3E914
:1001E000345B4CF9969A7BADDE840B1E25765F7DE1
:1001F000AB7D012942CC1A4D39E22274A18D8E4E7D
:1002000005598377EDBEBF4B0CF6738C3BB4571189
:10021000DF3409670DCF1BD772FA9AF8D4F0BCD03F
:100220009ED9297D55BFAF7FF9539EA44595AC411A
:10023000F9355AAAD9119AD5C655BDFA0D39831583
:1002400076A8E953EC693C61EDFD63142FC0A23739
:10025000166E32D836B0C10F5532E3C1AC7A8A89F6
:10026000C6A85D8F30DBD67D3F6069CE5909945BAF
:1002700056B46E3ABDE3CAA605BA91B655F67631C4
:100280008DDBA42E670D89E7EA757BF4C87114AD88
:1002900079D8C54DC05AFB5D2371C16B9A7B46CCA2
:1002A0001AECB852CD4A253DCDB8E1560EDB7D693A
:1002B000E558EAC162C8237BDCC011F0015519D5AD
:1002C000FBE7F7E466248D2499E1088205AA2EF362
:1002D0004E8FC07C1874F98949380F40593C000092
:1002E0000089EBF91EAA63FFCB0001CF029606003E
:1002F0000016E98DC5B1C467FB0200000000045977
:100300005A290014001A000800150017001C0018D4
:10031000002B0004001600070009000A000B000D66
:1003200000E1001D001B000600190005001100106F
:1003300000A800E000E200E30021522C002C002283
:10034000520C00120013002A000E000F003300347C
:100350000036003700380028005000510052004F8E
:10036000000000000000000000000000000000008D
:10037000000000000000000000000000000000007D
:100380000035021E021F0220022102220223022443
:10039000024C003A003B003C003D003E003F002D77
:1003A0000201004000410042004300440045003289
:1003B0000201000100010001000100010001000133
:1003C000002502260227024C002E022F02300231A5
:1003D0000264024A004D000100AB00AA00A900AE71
:1003E000000000000000000000000000000000000D
:1003F00000000000000000000000000000000000FD
:100400000035001E001F00200021002200230024D0
:10041000004C003A003B003C003D003E003F002DF8
:10042000000100400041004200430044004500320A
:1004300000010001000100010001000100010001B4
:10044000002500260027004C002E002F0030003130
:100450000064004B004E000100AB00AA00A900AEF2
:10046000000000000000000000000000000000008C
:10047000000000000000000000000000000000007C
:100480000009025B00030100A0FA09040000010357
:100490000101000921110100012244000705810327
:1004A00008000109040100020300000009211101F4
:1004B0000001222200070582032000010705030333
:1004C00020000109040200010300000009211101BC
:1004D0000001227B000705840320000112010002B5
:1004E00000000008868058560001010203011C0329
:1004F0007600690061006C003A0066003600340046
:100500006300320062003300630000001603430002
:1005100059004F00410020004F0072007400680035
:100520006F00000012035300540048004C004D00BF
:1005300020006B00620000000403090400000000BA
:1005400000000000000000000000000000000000AB
:10055000000000000000000000000000000000009B
:100560007E0F00D4FFFFFFC70000007800000000EE
:10057000000000002A2B28000000000000000000FE
:100580000000000000000029000000002C1E3420A4
:10059000212224342627252E362D3738271E1F20CA
:1005A0002122232425263333362E37381F0405060F
:1005B0000708090A0B0C0D0E0F1011121314151653
:1005C0001718191A1B1C1D2F3130232D3504050651
:1005D0000708090A0B0C0D0E0F1011121314151633
:1005E0001718191A1B1C1D2F3130354C11241FBE32
:1005F000CFEFDAE0DEBFCDBF11E0A0E0B1E0EEE189
:10060000FEE402C005900D92AE37B107D9F722E0A3
:10061000AEE7B1E001C01D92AE3AB207E1F70E9429
:10062000B41E0C94C0260C940000482F2091AD02FB
:100630009091740257E0291302C080E0089530E0E1
:10064000529FF001539FF00D1124EB58FD4F818113
:10065000681306C08081481303C085818111EECFE5
:100660002F5F3F4F2770E7CFE8EDF0E080818E7F6E
:1006700080831092E2001092DA001092E100A0EE66
:10068000B0E08C9181608C9380818F77808319BCDE
:10069000A7EDB0E08C918E7F8C9380818F7E8083DC
:1006A00010925F0208952091E4003091E50095E6F4
:1006B000A9012091EC00822F817020FF06C080915B
:1006C000E80080FF06C080E008952091E80022FD48
:1006D0001AC080916A02882389F0853089F0809160
:1006E000EB0085FD0FC02091E4003091E50042173A
:1006F0005307F9F29150E1F684E0089582E00895FD
:1007000083E0089581E0089580916C0287FF13C013
:100710008091E80082FF06C08091E8008B7780938B
:10072000E80004C080916A028111F2CF089580919F
:100730006A028823D9F38091E80080FFF8CF809186
:10074000E8008E77ECCF982F9093E900242F762F36
:1007500050E0891731F07091EC002091ED0050913C
:10076000F00021FD07C09F5F973071F78093E9008B
:1007700081E008953091EB003E7F3093EB003091A3
:10078000ED003D7F3093ED003091EB003160309310
:10079000EB007093EC002093ED005093F00020915B
:1007A000EE0027FDE0CF80E00895B0E0A0E0EBEDA3
:1007B000F3E00C94F825C8EDD0E088818F7E888323
:1007C000E7EDF0E080818160808384E082BF81E09A
:1007D00080935F0288818E7F888302EE10E0F801AB
:1007E00010821092DA0081EEC82ED12CF601108210
:1007F00088818F77888388818068888388818F7DCE
:10080000888319BC10926A0210926B0210926902DE
:100810001092680290EEE92EF12CF70180818B7F17
:10082000808388818160888342E060E080E00E946C
:10083000A303F60180818E7F8083F801808181602F
:100840008083808188608083F70180818E7F8083B0
:10085000888180618883CDB7DEB7E8E00C941426E8
:10086000FC01809172029091730286179707A0F0A5
:100870006115710529F49091E8009E779093E80046
:1008800090E06115710551F4911108C08091E80064
:1008900082FF34C080E00895BC01F2CF80916A02EB
:1008A0008823C1F18530C1F18091E80083FD30C01B
:1008B0008091E80082FDEACF8091E80080FFE1CFDF
:1008C0008091F3002091F200382F6115710519F025
:1008D0002830310558F091E02830310509F090E0DA
:1008E0002091E8002E772093E800CBCF8191809370
:1008F000F100615071092F5F3F4FE7CF80916A028D
:10090000882341F0853041F08091E80083FFBECF1D
:1009100081E0089582E0089583E00895089587E7CF
:1009200097E7909301088093000888E19AE00FB65A
:10093000F894A895809360000FBE90936000FFCF5D
:100940002FB7F89460915B0270915C0280915D0218
:1009500090915E022FBF08952FB7F89480915B02AB
:1009600090915C02A0915D02B0915E022FBF08954C
:1009700080910B0108959C01FC0132969FEF80E06D
:100980004191461751F09F3F19F4411101C0982F32
:100990008F5F8630A9F79F3F09F40895290F311D15
:1009A00097FD3A95F90162830895A3E0B0E0EBED7D
:1009B000F4E00C94FE25209158023091590228173A
:1009C0003907A1F09093590280935802E0915602A2
:1009D000F0915702309751F024E029839B838A835A
:1009E0000084F185E02DCE01019609952396E2E081
:1009F0000C941A26A3E0B0E0E0E0F5E00C94FE25AC
:100A0000209154023091550228173907A1F0909394
:100A1000550280935402E0915602F09157023097AC
:100A200051F023E029839B838A830084F185E02DA4
:100A3000CE01019609952396E2E00C941A26E091E6
:100A40005602F0915702309729F00190F081E02D85
:100A50000995089580E008954115510511F0FA01B6
:100A6000099508950E94AC049C01909149028091DF
:100A70004A02982B21F03093460220934502909130
:100A80004B0280914C02982B21F03093440220932A
:100A90004302E0915602F0915702309749F082E00C
:100AA000809347020680F781E02D87E492E0099564
:100AB00008958091420280FD16C081FD16C082FD1E
:100AC00016C0809141028823A1F0883280F428E08A
:100AD000829FC001112468E270E00E94CD25862F1C
:100AE000672B39F0089582E0089584E0089588E046
:100AF000089581E008958091420280FD14C081FD37
:100B000014C082FD16C080914002882381F08E318E
:100B100080F420E5829FC00111246EE170E00E9404
:100B2000CD25862F089584E1089588E2089588E010
:100B3000089580E50895282F35EB2303C001112483
:100B400097FF04C080589109892F089580589F4FBE
:100B5000FBCF23E9611122E989B190E02F7002C037
:100B6000959587952A95E2F78170089523E961119B
:100B700022E93AB12F7081E090E001C0880F2A95F8
:100B8000EAF7982F909593239AB99BB1892B8BB94B
:100B9000089590913802E92FF0E0409139029F01C9
:100BA0002F5F3F4F2370332742171306A9F0E65CEF
:100BB000FD4F282F2F7780818078822B60FB87F96B
:100BC00080839F5F937090933802809136028F5F8D
:100BD0008093360281E0089580E00895E6EFF1E029
:100BE00090E080E06FEA7BE146ED5BE12EE13BE1E6
:100BF00077836683518740873387228797878687E5
:100C0000019670968430910599F7089580E00895D3
:100C1000F894E82FE295EF70F0E031A1282F2F70C3
:100C200081E090E001C0880F2A95EAF7982F90950F
:100C3000932391A392A1892B82A3789408959091F4
:100C4000C60192FF10C041E0282F2471243009F022
:100C500040E031E0282F2871283009F030E04317B8
:100C600011F02CE0822793FF10C041E0282F24715F
:100C7000243109F040E031E0282F2871283109F0B3
:100C800030E0431711F02CE082273091C70130FF8C
:100C900010C051E0282F2171213009F050E041E0CF
:100CA000282F2871283009F040E0541711F029E06E
:100CB000822731FF10C041E0282F2171213109F036
:100CC00040E031E0282F2871283109F030E0431747
:100CD00011F029E0822794FD877E089582389105DE
:100CE000B9F1B0F48133910509F47DC048F489323B
:100CF000910509F46DC08A32910509F47BC008950D
:100D00008533910509F45FC08933910509F1089590
:100D1000833E9105D9F138F4803E910529F1823E58
:100D2000910579F10895863E9105D9F1873E9105A7
:100D300009F43EC0843E910541F52091C70121FF91
:100D400024C08091C60184FD19C087EE90E008950B
:100D50002091C601237009F05AC02091C70123FFDA
:100D600014C089E290E008952091C60120FD38C0AA
:100D70003091C70130FF09C024FF43C090E080E0FC
:100D800008952091C60122FDF7CF08952091C60154
:100D900022FD3AC03091C70130FD39C024FFF5CFA4
:100DA000EDCF2091C60123FFF0CF24FDE7CFCDCFBB
:100DB0002091C60123FD2EC03091C70131FFEECF37
:100DC00084EE90E008952091C60125FFDECFC9CFC3
:100DD0002091C60125FD21C02091C70123FFD5CF59
:100DE00089E390E0D2CF2091C60126FFCECF8AE2E0
:100DF00090E008952091C60126FFC7CF81E390E0DF
:100E0000089583EE90E0089582EE90E0089580EEDC
:100E100090E0089586EE90E0089585E390E00895CF
:100E20001F93CF93DF930E946E06EC01C11580E5FE
:100E3000D807F0F5C11580E4D80708F09CC0C03E83
:100E4000D10520F5CD3CD10508F082C0C83AD105C6
:100E500078F4C53AD10508F073C0C130D10519F155
:100E6000209709F1C430D105F0F4D0E0C0E01BC0F8
:100E7000C33CD105D0F7C85AD0E0CC0FDD1FC75E08
:100E8000DE4F0990D881C02DD4640DC0C11580E219
:100E9000D80708F0D1C0C11581E0D80708F05AC0C2
:100EA000C83ED10510F7CE01DF91CF911F91089573
:100EB000C03682E5D80718F5C03482E5D80708F0B7
:100EC0006BC0C03282E5D80708F05FC0C11582E56B
:100ED000D80708F497C02C2F2695269580E2289FE6
:100EE000900111248C2F8370C1E0D0E002C0CC0FA0
:100EF000DD1F8A95E2F7C22BD32BDD68D4CFC03A31
:100F000082E5D80760F4C03882E5D80708F459C0F4
:100F1000CF71D0E0DC2FCC27C46FD06AC4CFC03CE7
:100F200082E5D80708F462C0C03E82E5D80708F021
:100F30009CCFDC2FCC27CC27DF71C06FD06AB3CF1A
:100F4000C55AD0E0CA5EDE4FC881D0E0D064ABCFD6
:100F5000D065A9CF8D2F0E941F06182FCE0199278B
:100F60000E946E06C12FD0E0DC2FCC27CC27DF718A
:100F7000C82BD92B98CFCE0199270E946E06CC277B
:100F8000DF70C82BD92BD06A8ECFCF71D0E0DC2F89
:100F9000CC27C16FD06A87CF2C2F26952695277036
:100FA00080E2289F900111248C2F8370C1E0D0E053
:100FB00002C0CC0FDD1F8A95E2F7C22BD32BDC6871
:100FC00072CF2C2F26952695277080E2289F9001BE
:100FD00011248C2F8370C1E0D0E002C0CC0FDD1F44
:100FE0008A95E2F7C22BD32BDA685DCF8C2F8F71F5
:100FF0000E941F06C82FD0E0DC2FCC27CC27DF7142
:10100000D06251CF8C2F8F710E941F0655E0D6956C
:10101000C7955A95E1F7CF70D0E0DC2FCC27282F69
:1010200030E084FF05C044E0220F331F4A95E1F70A
:10103000C22BD32BD06937CF8D2F8F710E941F0603
:10104000182FCE0199270E946E06C12FD0E0DC2F09
:10105000CC27CC27DF71C82BD92BD2CF8091B601FA
:10106000882331F01092B6011092B5011092B401AC
:1010700008959091B601292F282361F08095892346
:101080008093B601882339F00E94AC049093B50197
:101090008093B401089590E080E0F8CF809590911E
:1010A0005002982390935002089580959091510298
:1010B00098239093510208951092AB011092AA01C7
:1010C0001092A90108959091A801292F282321F0B9
:1010D000809589238093A80108958091AD02909115
:1010E0007402981301C008958F5F8770FACF98300B
:1010F00080F5883070F548E0949F90011124820FAC
:10110000932F911D682F677023E0969587952A95F8
:10111000E1F7FC01EE0FFF1FE80FF91FE757FE4F45
:1011200050E040E080E0219130E0062E02C036958C
:1011300027950A94E2F721703327042E01C0220F6D
:101140000A94EAF7822B4F5F5F4F4330510559F7FE
:10115000089580E00895983098F5883088F548E043
:10116000949F90011124820F932F911D282F277097
:1011700041E001C0440F2A95EAF723E09695879550
:101180002A95E1F7FC01EE0FFF1FE80FF91FE75763
:10119000FE4F90E080E070E05191DF0111979B01DC
:1011A000082E02C0369527950A94E2F72170219502
:1011B0002527242325272C9301968330910561F759
:1011C00008958093C50108959091C50121E030E014
:1011D000F90101C0EE0F8A95EAF7D90102C0AA0F02
:1011E000BB1F6A95E2F7EA2B01C0220F4A95EAF786
:1011F000892F8E23E81305C0292B822F0E94E10836
:10120000089520952923F9CF21E030E001C0220F75
:101210008A95EAF720958091C50182230E94E10812
:1012200008959091AB01809589238093AB01282F7D
:10123000277069F4891759F09091C70192FF07C090
:101240008695869586950E9404090E945C080895FB
:1012500021E030E001C0220F8A95EAF78091C501B4
:10126000822B0E94E10808959091C70192FF10C05F
:1012700098E0899F90011124622B6093AB010E943A
:1012800028090E94AC049093AA018093A9010895B3
:101290000E94280908958093C4010895662309F4E3
:1012A0005DC08D3C41F40E947B05819580934A028C
:1012B0000E94320508958E3C19F40E947B05F6CFFA
:1012C0008F3C31F40E947B05819580934902F0CFD9
:1012D000803D19F40E947B05F8CF893D29F40E94D6
:1012E000590580934B02E4CF8A3D21F40E945905B1
:1012F0008195F7CF8B3D31F40E94590581958093FC
:101300004C02D6CF8C3D19F40E945905F8CF9FE2CC
:10131000980F983070F4815D990B21E030E001C0A6
:10132000220F8A95EAF780914802822B8093480227
:10133000BFCF8D3D31F480914202816080934202A3
:10134000B7CF8E3D21F4809142028260F7CF8F3D6E
:1013500009F0AECF809142028460F0CF4091490203
:101360008D3C59F480914A0287FF0DC010924A02C9
:1013700041110BC01092400208C08E3C81F4809154
:101380004A0218169CF3442381F080914B029091FD
:101390004C02892B09F08CCF1092410289CF8F3CEF
:1013A00049F447FFF0CF1092490280914A0281111F
:1013B000ECCFE0CF803D19F41416ACF3E4CF90915C
:1013C0004B02893D29F41916F4F610924B02DBCF3B
:1013D0008A3D19F497FFD7CFF8CF90914C028B3DFF
:1013E00029F497FFD0CF10924C02CDCF8C3D19F449
:1013F0001916CCF3C8CF9FE2980F983090F4815D16
:10140000990B21E030E0B90102C0660F771F8A9581
:10141000E2F7CB018095909148028923809348029E
:10142000B2CF8D3D31F4809142028E7F8093420293
:10143000AACF8E3D21F4809142028D7FF7CF8F3D60
:1014400009F0A1CF809142028B7FF0CF9C013A95A9
:1014500021153F4150F5FC01EE27F170BC016627D4
:101460007270AC01442754709C012227387094FF9D
:101470000EC080E1EF2B09F480E0672B09F0806259
:10148000452B09F08064232B89F08068089581E062
:10149000EF2B09F480E0672B09F08260452B09F0FF
:1014A0008460232B19F08860089580E008950F93DD
:1014B0001F93CF93DF938B01EA0190916A029430DE
:1014C00061F58093E9008FEF9091E800815095FDE0
:1014D00006C095ED9A95F1F700008111F5CF809146
:1014E000E80085FF1AC00E945303811111C080914A
:1014F000E80085FD06C08091E8008E778093E800C3
:10150000F2CFF80181918F018093F100219779F753
:101510008091E8008E778093E800DF91CF911F9152
:101520000F91089543E050E0BC0184E00E94570A07
:10153000089546E050E0BC0184E00E94570A0895F7
:10154000CF93DF93EC0148E050E0BC0181E00E94C2
:10155000570A88E0FE01A0E6B2E001900D928A955C
:10156000E1F7DF91CF910895CF93C82F6FEF8111ED
:1015700066ED84E290E00E9484266FEFC11163E67D
:1015800085E290E00E94842661E06C27619586E206
:1015900090E00E948426CF910895CF93DF93CCED05
:1015A000D1E060E0CE010E9484262196C11584E03E
:1015B000D807B9F7DF91CF9108951F93CF93DF93A9
:1015C000122F8330E8F46830D8F44830C8F420E1B2
:1015D000629FE001112450E0440F551FC40FD51F36
:1015E00020E8829FC0011124C80FD91F632FCE01AC
:1015F00088960E948426612FCE0189960E948426B7
:10160000DF91CF911F91089584E290E00E946626B9
:10161000863D81F485E290E00E946626833651F48F
:1016200086E290E00E94662691E0811190E0892F89
:101630008170089580E0FCCF0F931F93CF93DF93C9
:10164000833038F5683028F5483018F520E1629F7E
:101650008001112450E0440F551F040F151F30E87E
:10166000839FC0011124080F191FC80188960E948A
:101670006626C82FD0E0DC2FCC27C80189960E94AF
:1016800066269E01282BC901DF91CF911F910F91F2
:10169000089590E080E0F8CF462F2091E40130914A
:1016A000E501232B99F4703F39F4603F79F4809180
:1016B000E6019091E7010895783040F4683030F405
:1016C000833020F4672F0E941C0B089590E080E087
:1016D0000895CF92DF92FF920F931F93CF93DF93E2
:1016E0006C010091C5018091C401082BC2E0D0E0DB
:1016F00010E0FC2EC8010C2E02C0959587950A9427
:10170000E2F780FD0CC02197A0F7F12C8F2DDF911F
:10171000CF911F910F91FF90DF90CF900895B60168
:101720008C2F0E944C0B0E941007019761F3EECFA3
:10173000CF93DF93EC010E94690BBE010E944C0B1A
:101740000E941007DF91CF910895FC01248122238C
:10175000C1F0808191810E94980B92959F70963084
:1017600091F058F4925F9F70923058F4803F19F0D6
:1017700030F4883E30F481E008959A5FF4CF843FDE
:10178000D1F380E00895883EB0F3813FD1F7F3CFE5
:10179000A6E0B0E0EEECFBE00C94FD2526E0FC01B9
:1017A000DE01119601900D922A95E1F7FC01258149
:1017B00089819A81222399F0662389F00E94690B1E
:1017C000182F682F89819A810E94AB0869817A81DC
:1017D000812F0E944C0B2696E3E00C9419260E9460
:1017E0007708182FF3CFAAE0B0E0E9EFFBE00C9404
:1017F000F32580903E0290903F0281E090E090932C
:101800003F0280933E0281E0C82E83E0D82E00E0A4
:10181000760110E015C0F50125913491472D612F17
:10182000802F0E94DD0A82E0A80EB11C739488E02C
:101830007812F1CF80E1E80EF11C1F5F183019F02B
:101840005701712CE8CF0F5F80E8C80ED11C033020
:10185000F9F61A8219821C821B821E821D8218864A
:101860001F8288EC90E09A8789874AE050E064EB19
:1018700071E0CE0101960E94A8264AE050E06EEB8E
:1018800071E0CE0101960E94A8264AE050E068EC83
:1018900071E0CE0101960E94A8264AE050E062ED78
:1018A00071E0CE0101960E94A82690923F0280929C
:1018B0003E022A96EDE00C940F2680E00E94B40AC6
:1018C00060E087E290E00E9484260E94F30B0E9471
:1018D000CD0A81E00E94B40A08959B01843070F41F
:1018E0009AE0899FB00111246C547E4F4AE050E089
:1018F000C9010E94562690E080E008958FEF9FEF87
:101900000895AAE0B0E0E7E8FCE00C94FE259C0115
:1019100037552F3F310509F068F4BE016F5F7F4FE7
:101920000E946D0C892B31F489859A852A96E2E014
:101930000C941A2688EC90E0F9CF9091C70192FBA5
:10194000222720F9281779F080FB92F99093C7019C
:101950006091C6017091C70184E090E00E94A226C8
:1019600082E00E9411090895CF93C09151028091A5
:101970005002C82B8091B6018823F9F00E94AC0474
:101980002091B4013091B501821B930B88389341AB
:1019900010F00E942E088091B601C82B20E082E84A
:1019A00091E0FC013191CF0131112F5FF1E08838D6
:1019B0009F07B9F721110E942E08C093800148E0CB
:1019C00050E06CEA71E080E891E00E944226892BA9
:1019D000A9F088E0E0E8F1E0ACEAB1E001900D9216
:1019E0008A95E1F7E0915602F0915702309731F075
:1019F0000280F381E02D80E891E00995CF91089570
:101A0000CF9310925102C6E0E2E8F1E0DF018C2FA3
:101A10001D928A95E9F790E080E00E94FA0490E038
:101A200080E00E94D504109250020E94B40CE7E4BA
:101A3000F2E0DF011D92CA95E9F710924002109280
:101A40004102109242020E943205CF910895AAE20B
:101A5000B0E0EDE2FDE00C94FD258CE692E02091F3
:101A6000F100DC012D93CD01B2E084379B07B9F77B
:101A700080916D02833009F472C0B8F4813009F4AA
:101A800049C0823009F4B7C08091E80083FF3FC1AC
:101A900080916C0290916D029A3008F038C1E92F64
:101AA000F0E0EE53F94D0C94E1258A3009F492C030
:101AB0008B3009F471C0893039F780916C02813222
:101AC00019F78091700290917102009711F00297BE
:101AD000D9F68091E800877F8093E8008091E80044
:101AE00082FF38C09091F3008091F200029731F4A8
:101AF0008091F100813011F0863021F48091F10065
:101B000080930B018091E8008B778093E8000E941E
:101B10008403BACF80916C02813A09F0B5CF8091ED
:101B2000E800877F8093E8008091700290917102B5
:101B3000892B61F468E080E692E070E00E94300456
:101B40008091E8008B778093E8009ECF60E090E082
:101B500080E0F3CF80916A028111C0CF95CF809150
:101B60006C02813A09F090CF8091700290917102DD
:101B7000892B09F089CF8091E800877F8093E80066
:101B80008091E80080FFFCCF80910C018093F100F0
:101B90008091E8008E77B9CF80916C02813209F094
:101BA00073CF8091700290917102892B09F06CCFF4
:101BB0008091E800877F8093E8000E94840381E0A1
:101BC00090916E02911101C080E080930C010E94FF
:101BD000000D5ACF80916C02813209F055CF80916F
:101BE000E800877F8093E8000E94840380916F0261
:101BF00080930A0149CF80916C02813A09F044CF69
:101C00008091E800877F8093E8008091E80080FF62
:101C1000FCCF80910A01BACF803899F0823809F060
:101C200076C0809170028F70873008F070C080930A
:101C3000E9008091EB0085FB882780F91092E9008C
:101C400006C0809168029091690291118260909122
:101C5000E800977F9093E8008093F1001092F100E4
:101C60008091E8008E77C3C1882309F4B0C1823027
:101C700009F04DC080916E028111B4C18091700253
:101C80008F702FEF280F263008F041C08093E900B5
:101C90002091EB0020FFA6C1933031F48091EB003E
:101CA00080628093EB009EC19091EB0090619093D5
:101CB000EB0021E030E001C0220F8A95EAF7209383
:101CC000EA001092EA008091EB008860EACF81116F
:101CD0001EC010916E021F778091E3008078812BE7
:101CE0008093E3008091E800877F8093E8000E9462
:101CF00084038091E80080FFFCCF8091E30080683E
:101D00008093E30082E0111183E080936A02809166
:101D1000E80083FF0AC08091E800877F8093E80095
:101D20008091EB0080628093EB00AA96E3E00C9434
:101D300019268058823058F720916E0230916F0238
:101D40002C3DE3E03E07A1F583E08A838AE28983A4
:101D50004FB7F894DE01139620E03EE051E2E32F06
:101D6000F0E050935700E49120FF03C0E295EF703C
:101D70003F5FEF708E2F90E0EA30C0F0C7968D93F2
:101D80009D932F5F243159F74FBF8091E800877FE3
:101D90008093E8006AE270E0CE0101960E94300470
:101DA0008091E8008B778093E800B1CFC096E7CFB1
:101DB0008091700290917102432F55274330510555
:101DC00009F44AC078F54130510509F485C08BE526
:101DD00090E0E1E8F4E04230510509F098CF20911D
:101DE000E800277F2093E80020917202309173026F
:101DF0008217930708F49C0140E02115310509F092
:101E000070C041116EC08091E80082FDC9CF809101
:101E10006A02882329F2853019F28091E80083FF55
:101E2000F2CFBECF4132510509F447C042325105CD
:101E300009F06DCF8330910508F069CFFC01EE0FFA
:101E4000FF1FEE58FE4F0190F081E02D81599E4F0B
:101E5000DC018C9190E01DC0332721303105E9F081
:101E60002115310579F022303105F9F023303105A3
:101E700009F04DCFEEEEF4E0E4918E2F90E0EEEE1F
:101E8000F4E007C0E8E3F5E0E4918E2F90E0E8E3AA
:101E9000F5E0009709F43BCFA2CFE4E2F5E0E4914E
:101EA0008E2F90E0E4E2F5E0F4CFECE0F5E0E49191
:101EB0008E2F90E0ECE0F5E0ECCF8330910508F058
:101EC00026CF880F991FFC01E858FE4F0190F08142
:101ED000E02D89E090E083CF82E190E0ECEDF4E04A
:101EE0007ECF80916A02882309F45ACF853009F4A5
:101EF00057CF8091E80083FD53CF8091E80082FDA9
:101F000082CF8091E80080FF78CF9091F30080919C
:101F1000F2002115310519F08830910550F041E0AB
:101F2000089709F040E08091E8008E778093E80000
:101F300064CF44914093F1003196215031090196CC
:101F4000E8CF803809F0E3CE8091E800877F809366
:101F5000E80080916B028093F10082CE8111D7CE90
:101F600010916E02123008F0D2CE8091E800877F87
:101F70008093E80010936B020E948403112311F0F8
:101F800084E005C08091E30087FDFACF81E0809373
:101F90006A0242E061EC81E00E94A30342E261EC4C
:101FA00084E00E94A30342E261EC82E00E94A3036A
:101FB00042E260EC83E00E94A30380916A028430D5
:101FC00021F081E080930D01A2CE82E0FBCF8091D1
:101FD0006E02813009F09BCE81E0933009F080E001
:101FE000809369021092E9008091E800877F8093D6
:101FF000E8000E9484038BCE0E94000D2FEF84E343
:102000009CE0215080409040E1F700C0000088E152
:102010009AE00FB6F894A895809360000FBE909355
:102020006000FFCFCF93DF93EC014A855B856E851F
:102030007F850E942C058B810E944E088C810E9416
:1020400055080E94B40C86E0FE0111928A95E9F7CA
:10205000DF91CF910895CF93DF93EC018D8181FDC6
:1020600017C082608D83809150029B81892B809361
:102070005002809151029C81892B809351020E94D1
:10208000B40C488559856E857F85CE010E942C054C
:1020900010925302109252028D8180FD03C0CE0136
:1020A0000E941210DF91CF910895882321F00E94A1
:1020B0004E080E94B40C0895882339F09091500284
:1020C000982B909350020E94B40C0895882321F01D
:1020D0000E9455080E94B40C0895882339F090910D
:1020E0005102982B909351020E94B40C08958823BA
:1020F000D1F19CEF980F913A78F4E2E8F1E09191F8
:10210000891303C0DF0111971C9291E0E838F907A9
:10211000B1F70E94B40C089590E2980F983050F4F3
:10212000877091E001C0990F8A95EAF7892F0E9484
:102130005508EFCF9BE5980F933028F490E080E0AE
:102140000E94FA04089598E5980F9B3128F490E0D6
:1021500080E00E94D504089593E3980F933118F41A
:1021600060E00E944E090895CF93C82F8823B1F0F4
:102170008CEF8C0F813A00F5E2E8F1E088E891E01D
:10218000DF012D91C21761F08A179B07D1F76C2FE1
:1021900080E891E00E94BB040E94B40CCF910895A6
:1021A0002191C21303C0DF0111971C928E179F0764
:1021B000B9F70E94B40CEBCF80E28C0F883068F442
:1021C000C77021E030E001C0220FCA95EAF7809184
:1021D0005102822B80935102DFCFEBE5EC0FE3300D
:1021E00040F4F0E0EA5EFE4F808190E00E94FA0445
:1021F000D5CFE8E5EC0FEB3150F4F0E0EE0FFF1F28
:10220000E75EFE4F808191810E94D504C7CF83E3B2
:102210008C0F833118F661E08C2F0E944E09BECFDF
:102220001F93CF93DF93182FEB010E94B4102097D8
:1022300039F4812F0E947710DF91CF911F9108957B
:102240008FE99FE00197F1F700C000002197EFCFE1
:10225000B0E0A0E0EEE2F1E10C94F8256B01C42FB0
:10226000D22FFC0185818823A9F040934F020E9460
:10227000AC0490934E0280934D02C77081E001C080
:10228000880FCA95EAF70E946D10CDB7DEB7E8E077
:102290000C94142610914F0214133BC0E0904D0291
:1022A000F0904E020E94AC048E199F097C01C60179
:1022B0000E94810CE816F90660F5C0E2CD0F1D17EB
:1022C000C1F080E2810F883048F4177081E0012E60
:1022D00001C0880F0A94EAF70E946610C83048F4DB
:1022E00081E09D2F977001C0880F9A95EAF70E94B0
:1022F0006D1070E060E0802F0E941011C83028F649
:10230000D77081E001C0880FDA95EAF70E94661065
:10231000BCCFC77081E001C0880FCA95EAF7F6CF3D
:10232000B0E0A0E0E6E9F1E10C94F625FC018AE0DA
:10233000A82EDF012D918D012223E9F1213009F032
:1023400054C08181813069F482818F010D5F1F4FFC
:1023500070E060E0893311F460E570E00E941011D4
:1023600008C0823041F48F010D5F1F4F82810E94AF
:10237000B410F801DECF833039F48F010D5F1F4FA9
:1023800082810E947710F5CF8F010E5F1F4F84303E
:1023900081F482818F010D5F1F4F30E020E0682FB4
:1023A0006053770BAB016A30710550F02115310590
:1023B00099F48111DECFCDB7DEB7EAE00C94122696
:1023C000A29EC001A39E900D11249A01280F391FCF
:1023D000F80181918F01E3CFAFE9BFE01197F1F7E9
:1023E00000C0000021503109E1CFE22FF0E0E459B4
:1023F000FA4FB490822F86958695869590E0FC01E1
:10240000E45AFA4FE4902770F12C022E02C0F594A2
:10241000E7940A94E2F7B1E0EB22FF24FC01E45BCD
:10242000FA4FC490D12C022E02C0D594C7940A94BE
:10243000E2F7E1E0CE22DD24FC01E45CFA4FC49136
:10244000D0E002C0D595C7952A95E2F7C170DD2787
:10245000E114F10419F081EE0E94B410C114D1040A
:1024600019F086EE0E94B41070E060E08B2D0E949F
:102470001011C114D10419F086EE0E947710E114F6
:10248000F10419F081EE0E947710CD2B09F471CF81
:1024900070E060E08CE262CFA4E0B0E0E2E5F2E15F
:1024A0000C94EF257C01DC0114968C91882309F4AF
:1024B000E8C161E0C7010E94C80B8C01F70185816A
:1024C000882331F18091520290915302009701F1DB
:1024D00008171907E9F0FC01FF278C7F9927892B42
:1024E00009F069C0A4E0EE0FFF1FAA95E1F7EA50DA
:1024F000FE4F85818460858311830083CF010E9414
:102500002B101092500261E0C7010E94C80B8C0191
:10251000D70115968C91882309F4BBC098013757D1
:102520002038310508F0B5C0D02EBFE0B01708F450
:1025300098C18FEF93E00E946626811192C10CED45
:1025400011E0D1103BC074E0472E9E012F5F3F4F3A
:10255000390133243A94D301E42D1D92EA95E9F729
:102560006801FFEFCF1ADF0AC8010E94662689833F
:10257000882309F476C18130D1F4580122E0A20EFB
:10258000B11CC6010E946626582E8A83882309F44E
:1025900068C18FEF850D8330F8F4680133E0C30E16
:1025A000D11CC5010E9466268B838823F1F1C301EB
:1025B0000E9490113AC0F0E0E0E09BCF0115E4E00A
:1025C0001E0709F44EC1C8010E946626811101C090
:1025D000DA940F5F1F4FB5CF8BEF850D833068F511
:1025E000480143E0840E911CC5010E9466268B833E
:1025F00064018823D1F0680154E0C50ED11CC401E8
:102600000E9466268C83882381F08B819C81813097
:10261000AFEF9A0710F0982F8827B6E05B1639F0D5
:10262000E7E05E1639F00E94A41B860194CF0E9459
:102630006C1BFBCF0E94E61AF8CFF4E065015F1235
:10264000F4CFC5010E946626B82E680124E0C20EB0
:10265000D11CC80103960E946626BB2009F401C163
:10266000882309F4FEC0482F4150550B349EC00109
:10267000359E900D1124AB2DA150BB0B8A0F9B1FD3
:10268000019798F2EFE9FFE03197F1F700C0000001
:10269000F7CF680127E5D21A8111AAC03FEFC31610
:1026A000D10411F008F0AAC06CEE71E08C2D0E94EC
:1026B0006D0C892B31F5C60154E0880F991F5A958E
:1026C000E1F7FC01EA50FE4F2281213009F07BC086
:1026D0002091EC013091ED01232B99F02091EE0136
:1026E0003091EF01232B69F02091F0013091F1013D
:1026F0004091F2015091F301242B352B232B09F447
:102700006CC0C8018C7F9927892B09F0AAC0F801F9
:10271000FF2744E0EE0FFF1F4A95E1F7CF018A50F3
:102720009E4F6C01D70115968C91E550FE4F90811C
:1027300080FB90F99083882309F46EC00E94AC045A
:102740009093D2018093D101F60182818F5F8283C1
:102750008091500290915102892B83838091B60120
:1027600084834681578166857785C6010E942C0542
:10277000D60115968C9181FF4CC090E080E090933B
:10278000520280935302F7018581882309F424C4FF
:1027900010924F02980130572332310508F006C4D9
:1027A00084E090E00E946E269093C7018093C6015A
:1027B000F801E150F047E232F10508F08AC0E45335
:1027C000F94D0C94E125223009F09BCF2091F001C6
:1027D0003091F101232B09F494CFFC01E550FE4F19
:1027E00020812E7F20838A509E4F0E942B1089CFFC
:1027F0004FEFC416D10409F008F483CFF801E85173
:10280000FC47E730F10508F0BECFE251F94D0C94DA
:10281000E125902F812FB3CFF6014485558566853C
:102820007785C6010E942C05D60115968C9181FFF3
:10283000AACFC6010E9412108091520290915302B9
:102840000817190709F09FCF1092530210925202F5
:102850009ACF06E221EE41EE6AE17CE7C7010E94D1
:1028600028118091AB01877061F0D70115968C918A
:10287000882339F08091C70182FF03C082E00E9463
:1028800011092496E1E10C940B2607E225EE45EEB2
:102890006BE17CE7E3CF06E221EE40EE68E17CE706
:1028A000DDCF07E225EE44EE69E17CE7D7CF06E213
:1028B00021EE42EE6CE17CE7D1CF07E225EE46EE59
:1028C0006DE17CE7CBCF08E221E045EE6EE17CE7ED
:1028D000C5CF8091C60181608093C60195C080916B
:1028E000C70188608093C7018FC08091C601826054
:1028F000F3CF8091C6018460EFCF8091C6018860DC
:10290000EBCF8091C7018160EDCF8091C7018260DC
:10291000E9CF8091C6018061DFCF8091C6018062DE
:10292000DBCF8091C6018064D7CF0E94000D8091DB
:10293000C6018068D1CF8091C6018C60CDCF8091D7
:10294000C7018360CFCF8091C6018E7FC5CF8091B4
:10295000C701877FC7CF8091C6018D7FBDCF809192
:10296000C6018B7FB9CF8091C601877FB5CF80919B
:10297000C7018E7FB7CF8091C7018D7FB3CF809184
:10298000C6018F7EA9CF8091C6018F7DA5CF809192
:10299000C6018F7BA1CF0E94000D8091C6018F7769
:1029A0009BCF8091C601837F97CF8091C7018C7F99
:1029B00099CF8091C60182FB992790F921E0922757
:1029C00090FB82F990FB83F987CF8091C701982F04
:1029D000909591708E7F892B90FB81F983CF909198
:1029E000C601892F8F7B96FF806476CF0E94000DF1
:1029F0009091C601892F97FB87F980586DCF61E0D0
:102A00008EE090E00E9484266091C6017091C7011B
:102A100084E090E00E94A2260E94000D22CF60E098
:102A2000EFCF9091C601892F8F7E94FF806154CFA4
:102A30009091C601892F8E7F90FF81604DCF90913C
:102A4000C701892F877F93FF88604CCF85E3CDC274
:102A500081E00E94280943E062E081E00E94E408EE
:102A600000CF81E00E940409F6CF82E0F2CF8823F4
:102A700081F003303CE7130709F47AC008F05DC029
:102A800001155CE7150709F466C001301C4709F41D
:102A900075C0F701858100811181882309F47CC00C
:102AA000C8010E94690BD82E682FC8010E94AB088C
:102AB000B8018D2D0E944C0B0E9410078C01882EAE
:102AC000D7011596CC9015971696BC90B2943FE01E
:102AD000B3228091AB01877009F1AC2CCC20F9F0C6
:102AE000812F807F803469F080E2800F8830B0F0E1
:102AF000812F807E803229F4B1E0B01778F4BB20BA
:102B000069F08091C70182FF09C082E00E9411092B
:102B10008091AB018770AA24A3948111A12C912EDE
:102B200092942FE09222EBE0E91508F495C0E92D8C
:102B3000F0E0EB50F94D0C94E1250B359CE71907BB
:102B400049F10C35ACE71A07D9F00A351C4709F0F2
:102B5000A0CF81E01CC00E94000DEFEFF4E32CE059
:102B6000E150F0402040E1F700C000000E948F04D7
:102B70006FEF7FEF90E080E00E94A2260E94FC0FA2
:102B80008091C70182FB882780F991E089270E9404
:102B90009D0C7FCF80E0FBCFC8010E947708D82E24
:102BA00087CFF12FFF70DF2E107F19F0D29490EFB6
:102BB000D922CC20B9F0DD2069F080E2800F883086
:102BC00010F0811009C080915102D82AD092510290
:102BD0000E94B40C802F3EC080915002D82AD0921F
:102BE0005002F6CF802F0E947710DD20A9F1005E01
:102BF0008D2D083010F0811003C00E94550802C0CE
:102C00000E944E080E94B40C27C0212F2F70D22E94
:102C1000107F103219F0D29480EFD822882051F022
:102C200031E0831609F46FC0CC2009F47BC0BB20CF
:102C300059F1D0CF8091C70182FD22C0CC20C9F0CC
:102C4000DD2039F080915102D82AD09251020E94A1
:102C5000B40C80E00E94B410A92DA850BB0B1497AF
:102C600008F08BC10E941F0560E0C7010E94C80BDD
:102C700008CE80E00E947710DD2071F38D2DBDCF4E
:102C8000CC2061F1B11004C08D2D0E946D10E4CFF5
:102C900041E0B41210C01091B6018D2D8123D816D9
:102CA000D9F20E94AC049093B5018093B401D12A6B
:102CB000D092B601D1CF55E0B512CECF8D2D0E9466
:102CC0006D108D2D0E9439088091A8019D2D9823AB
:102CD000D91611F2D82AD092A801BECFB1100AC0DD
:102CE0008D2D0E9466108D2D0E9439088D2D0E9419
:102CF0006308B2CF81E0B812AFCF809151028D212D
:102D000009F4AACFEDCFCC2029F095E09B1508F46B
:102D1000A3CFBACFA4E0AB1508F49ECF8D2D0E94AF
:102D200066109ACFBB20D1F3B9E38B1209C0EFEF45
:102D3000F7EE23E0E150F0402040E1F700C0000052
:102D4000802F0E94771088CF812F8695869583707B
:102D500061F0813009F080CFC8019370C11002C0CA
:102D600080E090E00E94D50477CFC8019370C11035
:102D700002C080E090E00E94FA046ECF6C2D802F9C
:102D80000E944E0969CF812F837089F5C11064CFED
:102D9000402F429546954770440F440F802F8F7007
:102DA000042E01C0880F0A94EAF7202F207104FF37
:102DB00007C02FE030E001C0220F4A95EAF72095C6
:102DC000169516951370123069F050F43091C401C5
:102DD000113029F0822B83230E944B093DCF832B96
:102DE000822BFACF282B8091C4018227F5CF8695BC
:102DF000CC2011F0812F8170882309F42DCF402F32
:102E0000429546954770440F440F802F8F70042ED3
:102E100001C0880F0A94EAF7202F207104FF07C031
:102E20002FE030E001C0220F4A95EAF72095169571
:102E300016951370123069F050F43091C5011130BD
:102E400029F0822B83230E94E10806CF832B822B5B
:102E5000FACF282B8091C5018227F5CF1F70CC2097
:102E600029F0812F0E942809802F0FCF802F0E94E8
:102E70006610812F0E940409EFCE802F32EF831657
:102E8000B1F1381570F040EF8416D1F051EF85168E
:102E900091F0CC2009F461C0B1109CCE812F8F71CC
:102EA0002AC093EF891651F1A4EF8A12F2CF8091D4
:102EB000C70182FD2FC0812F8F71CC20D9F21BC09A
:102EC000CC2081F0B4E0BB1508F4C6CE1F7181E0C0
:102ED00090E0012E01C0880F0A94EAF79091C50195
:102EE0008927B1CFE5E0EB1508F4B6CEEFCF812FFF
:102EF0008F71C110BFCF0E942809AECE80E0CC20D8
:102F000009F4A1CF1F7181E0012E01C0880F0A943E
:102F1000EAF799CFCC20B1F08091AB018770843073
:102F200041F40E945C08812F8F710E940409A12C3A
:102F300093CEF4E063E0FB15D0F3812F8F710E94F4
:102F40003409F5CF24E02B1520F40E945C0864E0DE
:102F5000F4CF81E00E941109EACFBB2059F08933F8
:102F600009F0EECE3FEF47EE53E031504040504085
:102F7000E1F7E4CE812F8F717DCFAA2009F474CEC2
:102F80008091AB0180FD70CEF70115828695869504
:102F900086950E942809C7010E944C128091AB01BE
:102FA0008695869586950E9404095ECE0631FCE7DB
:102FB0001F0749F5809151028A7A91E009F490E067
:102FC0009093880169E2811165E380E891E00E94B5
:102FD000BB040E94B40C45CC06312CE71207C9F59E
:102FE00080918801811132CD89E2E2E8F1E028E8A0
:102FF00031E09191891303C0DF0111971C922E17C4
:103000003F07B9F7E6CF07373CE7130709F420CDB0
:1030100008374CE7140709F428CD9801205E3245A3
:103020002032310508F023CD811133CD0F7181E0BD
:1030300090E09C0102C0220F331F0A95E2F789013C
:10304000622F83E090E00E948426802F0E944B092B
:1030500008CC07375CE7150709F403CD08379CE770
:103060001907D9F682E0FECCB0E0A0E0EAE3F8E18F
:103070000C94F9258091A701807F09F051C08091BF
:10308000A601882309F44CC0E091AD0287E0D82E58
:10309000809174028E1709F443C00E2F10E0ED9D4D
:1030A000F0011124EB58FD4F84818823F1F1D09E6B
:1030B000E001D19ED00D1124FE01EB58FD4F91810E
:1030C0008091A201981331C090818091A101981341
:1030D0002CC08581811129C0E280F3808091A301F9
:1030E0009091A401E81AF90A60E081EA91E00E9457
:1030F000C80B0E94810CE816F906B8F48091A7016C
:103100008F7080618093A701C558DD4F88818F70D3
:103110008061888381EA91E00E944C120E946D08D0
:10312000CDB7DEB7E7E00C941526F8013196E770CD
:10313000AFCFA4E1B0E0EFE9F8E10C94F1258C0108
:1031400086E0F801DE011F9601900D928A95E1F765
:10315000F801F480E58081EA882E81E0982E809144
:10316000A50181112AC0F11003C0FF24F3941CC0F3
:10317000EE20F9F0C8010E94A50BF82E8823C9F0B3
:1031800087E0F801A1EAB1E001900D928A95E1F79C
:103190008091A501813031F48091A1019091A2012B
:1031A0000E94980B0E9434188F2D6496EFE00C94C7
:1031B0000D26C8010E944C12D8CFC280D380B09097
:1031C000A6018091A3019091A4013601681A790AA1
:1031D000BB2009F4F9C05080A18060E081EA91E051
:1031E0000E94C80B0E94810C6816790608F0A5C0E1
:1031F000FF2009F4BACF8091A701382F307F2091AA
:10320000A201F8019181311158C0FE2C291314C07C
:103210002091A101908129130FC0E11047C08F7048
:1032200080618093A70181EA91E00E944C12809115
:10323000A701F8018683B8CFE11038C06A2D852D2B
:103240000E9415036A2D852D0E941503E82E811119
:10325000ABCF5F86A88A8F8598890E94980B292F0B
:1032600022952F70243058F49F70223088F09923D3
:1032700099F0F8019681907F79F4FE2C95CF2A5F22
:103280002F70223068F0C8010E944C12EB2CF5CF51
:10329000992311F0882389F3805E883070F3F3CF8F
:1032A000803F58F3815F833070F7E7CF8091A701AB
:1032B00081608093A701F12C77CF291315C020914D
:1032C000A1019081291310C0E1100EC08683C801AE
:1032D0000E944C1287E0F801A1EAB1E001900D9242
:1032E0008A95E1F7FB2C60CFC8010E94A50B8823CB
:1032F00009F45FCFEE2009F45CCF8091A701803202
:1033000088F02091A1013091A20139872887DB86BE
:10331000CA869091A5019C871D868E87CE0108964E
:103320000E944C1287E0F801A1EAB1E001900D92F1
:103330008A95E1F70E94341818CF8091A701982F41
:10334000907F51F481EA91E00E944C1287E0F401F1
:1033500011928A95E9F7AFCFFF2009F406CF2091AB
:10336000A201F8019181291311C02091A10190813E
:1033700029130CC0E1100AC08683C8010E944C12B8
:1033800087E0F40111928A95E9F7ACCFC8010E9459
:10339000A50B882309F40DCFEE2009F40ACF809104
:1033A000A701803208F4BECF2091A1013091A20183
:1033B0003A832983DC82CB829091A5019D831E8272
:1033C0008F83CE010196ACCF60E081EA91E00E944C
:1033D000C80B0E94810C6816790608F0B7CFFF2051
:1033E00009F4C3CEFE2CEE2009F4E3CE9091A201A5
:1033F000F801818198132DC09091A10180819813CB
:1034000028C08091A3019091A401C81AD90AF8ECB0
:10341000CF16D104A8F49091A70190FD11C0907F20
:1034200079F08091A701F8018683903F31F0982FC1
:10343000907F905F8F70892B8683C8010E944C1209
:1034400087E0F801A1EAB1E001900D928A95E1F7D9
:10345000ABCEC8010E94A50B811164CF8091A7015A
:1034600081608093A701C8010E944C129DCEABE100
:10347000B0E0EDE3FAE10C94FD254E8B5F8B688F95
:10348000798F8A8F9B8F9111109250021D8A86E04E
:10349000FE017696DE011F9601900D928A95E1F766
:1034A0008091C70182FF1CC00E94AC042091A90139
:1034B0003091AA01821B930B8838934120F08091B0
:1034C000AB0182FF7FC00E94AC042091B401309117
:1034D000B501821B930B8838934110F00E942E088F
:1034E0008B89882351F061E0CE010F960E94C80BB2
:1034F00061E0CE010F960E94C80B87E0FE013F9667
:10350000DE01189601900D928A95E1F7CE0108969A
:103510000E94991881110CC087E0FE013896DE01E7
:10352000119601900D928A95E1F78C8581110BC05F
:1035300017E08091AD0290917402891331C06B96AF
:10354000E3E00C9419262091740230E0C901019641
:10355000877099274091AD024817190699F097E0B6
:10356000929FD001939FB00D1124AB58BD4FFE0127
:10357000319601900D929A95E1F7809374020E9422
:103580006D08D6CF0E94000D109274021092AD0209
:1035900087E0E1EAF1E0DF011D928A95E9F7C8CF03
:1035A000819FC00111248B589D4F0E949918882338
:1035B00031F28091AD0290E0019687709927809357
:1035C000AD02B7CF82E00E9411097DCFA6E0B0E046
:1035D000ECEEFAE10C94FC258C019093E7018093CA
:1035E000E601011580E21807C0F4802F0E947710D1
:1035F000C8010E94260A9801205E31092830310551
:1036000018F00115110531F40E9466102696E4E0C9
:103610000C9418260E945510F9CF80EF89838A8375
:103620000E94AC048160682F9C838B8349815A81FE
:103630007C8181E090E00E94371AE8CF0F931F93BE
:10364000CF93DF938C01EB016CEE71E08C2F0E9425
:103650006D0C892B71F4DD27C851DE4F8881F8018C
:10366000128218828330F1F048F4813059F08230B0
:1036700081F0DF91CF911F910F9108958430B9F0BF
:103680008530B9F78091EC019091ED01009789F3B5
:1036900006C08091EE019091EF01009799F30E948E
:1036A000E61AE7CF8091F0019091F101F6CF809179
:1036B000F2019091F301009791F72091EC01309184
:1036C000ED018091EE019091EF0121153105F1F2AC
:1036D000009729F7C901E3CFA6E0B0E0E2E7FBE1FC
:1036E0000C94FC258C019093E7018093E601011571
:1036F00080E21807C0F4C8010E94260A9801205EE3
:1037000031092830310518F00115110549F40E94DE
:103710006D10802F0E94B4102696E4E00C941826B9
:103720000E945C10F6CF80EF89838A830E94AC04EC
:103730008160682F9C838B8349815A817C8181E0E1
:1037400091E00E94371AE8CFCF93DF93EC010E94FB
:103750006C1BCE010E94E61ADF91CF9108950F9362
:103760001F93CF93DF938C01862F6CEE71E00E9444
:103770006D0C892BB1F4C091EC01D091ED01209733
:1037800081F0F8018281833051F4CE010E94A41BA4
:10379000CE010E94A41BCE010E94A41B02C0843053
:1037A000D0F7DF91CF911F910F9108950F931F9341
:1037B000CF93DF938C01EB016CEE71E08C2F0E94B4
:1037C0006D0C892B09F05CC0FE01FF27D801129611
:1037D0008C911297E851FE4F8130B9F415969C9167
:1037E00092FF02C080830AC090FFFCCF82E08083FA
:1037F0008091EE019091EF010097B9F48091EC0176
:103800009091ED010097E1F110C08230B9F5159665
:103810008C9182FD28C080FD0BC083E08083809165
:10382000F0019091F101009701F10E946C1B28C0FA
:1038300084E080838091F2019091F3010097A9F7D1
:103840008091EC019091ED010097F9F00E94A41B8A
:103850008091EE019091EF01009739F78091EC0192
:103860009091ED01E2CF85E080838091EC01909111
:10387000ED01009729F00E94A41BF0CF86E0808321
:10388000DF91CF911F910F9108958091EE0190915A
:10389000EF01B8CFA6E0B0E0E0E5FCE10C94FC2538
:1038A0000E94AC048C018091B7019091B8018017FF
:1038B000910781F019821A820E94AC04682F498115
:1038C0005A81792F80E090E00E94371A1093B80156
:1038D0000093B7012696E4E00C9418268F929F92ED
:1038E000BF92CF92DF92EF92FF920F931F93CF93ED
:1038F000DF93CDB7DEB728970FB6F894DEBF0FBEC3
:10390000CDBF8E010F5F1F4F88E0F80111928A959D
:10391000E9F79FE4E92E91E0F92EBB24B394CC247F
:10392000C394D12CF70181917F018F3F09F449C0E5
:10393000F894E82FE295EF70F0E021A18F70A601D6
:1039400002C0440F551F8A95E2F7CA01922F982BA7
:1039500091A392A18095892382A3789400C087E5E2
:10396000882E81E0982ED8016B2D6095F4019191FD
:103970004F018D919D01215031099F3F09F456C09F
:10398000492F42954F7050E0FA0140A150E09F70DE
:1039900002C0559547959A95E2F740FD47C08B299F
:1039A000F9018083FFE58F16F1E09F06F9F6F70134
:1039B000319780818F3F11F00E94080640EA4A95B6
:1039C000F1F7BB0C57E5E51651E0F50609F0AACF73
:1039D00048E050E0B8018CEB91E00E944226892B30
:1039E00049F188E0F801ACEBB1E001900D928A95C5
:1039F000E1F781E08093BB010E94AC049093BA018F
:103A00008093B90110E0812F28960FB6F894DEBF9D
:103A10000FBECDBFDF91CF911F910F91FF90EF901F
:103A2000DF90CF90BF909F908F9008958623B8CF5E
:103A300010E021C01091BB01112321F3E090B901E6
:103A4000F090BA010E94AC048E199F090597D0F23C
:103A500048E050E06CEB71E08CED91E00E94422672
:103A6000892B31F388E0ECEBF1E0ACEDB1E00190B3
:103A70000D928A95E1F71092BB01C5CF1F920F926C
:103A80000FB60F9211242F933F934F935F936F9331
:103A90007F938F939F93AF93BF93CF93DF93EF93D6
:103AA000FF93D091E900DF708091EC00C82FC170C6
:103AB00080FDC0E81092E9008091F000877F80933C
:103AC000F00078940E94270D1092E9008091F00098
:103AD00088608093F000CD2BCF70C093E900FF91F8
:103AE000EF91DF91CF91BF91AF919F918F917F9196
:103AF0006F915F914F913F912F910F900FBE0F905B
:103B00001F9018951F920F920FB60F9211242F93AA
:103B10003F934F935F936F937F938F939F93AF9355
:103B2000BF93EF93FF938091E10082FF09C08091E2
:103B3000E20082FF05C08091E1008B7F8093E1006D
:103B40008091DA0080FF24C08091D80080FF20C0DF
:103B50008091DA008E7F8093DA008091D90080FF17
:103B6000AAC080E189BD82E189BD09B400FEFDCF14
:103B700081E080936A0280915F02811109C00E94F6
:103B800034030E94D5038091E20084608093E200B8
:103B90008091E10080FF1AC08091E20080FF16C092
:103BA0008091E2008E7F8093E2008091E20080614C
:103BB0008093E2008091D80080628093D80019BC85
:103BC00085E080936A0283E080930D018091E1009B
:103BD00084FF30C08091E20084FF2CC080E189BD69
:103BE00082E189BD99B5892F817090FFFBCF9091BB
:103BF000D8009F7D9093D8009091E1009F7E909394
:103C0000E1009091E2009F7E9093E2009091E200AB
:103C100091609093E20090916B02992309F451C056
:103C200094E090936A0290916A02943009F482E0E1
:103C300080930D018091E10083FF2CC08091E20010
:103C400083FF28C08091E100877F8093E10082E0BC
:103C500080936A0210926B028091E1008E7F8093C4
:103C6000E1008091E2008E7F8093E2008091E2008B
:103C700080618093E20042E060E080E00E94A30364
:103C80008091F00088608093F00081E080930D01C6
:103C900080930C01FF91EF91BF91AF919F918F9114
:103CA0007F916F915F914F913F912F910F900FBE38
:103CB0000F901F90189519BC10926A0210925F0223
:103CC00067CF9091E30097FD02C0982FAACF93E0B1
:103CD000A8CF78941F921FB61F9211248F939F93A1
:103CE000AF93BF9380915B0290915C02A0915D02C3
:103CF000B0915E020196A11DB11D80935B0290936D
:103D00005C02A0935D02B0935E02BF91AF919F9160
:103D10008F911F901FBE1F9018951F921FB61F9264
:103D200011248F939F93AF93BF9380915A02811177
:103D300013C080915B0290915C02A0915D02B091F2
:103D40005E024196A11DB11D80935B0290935C02BF
:103D5000A0935D02B0935E02BF91AF919F918F914E
:103D60001F901FBE1F901895CDB7DEB7E3970FB613
:103D7000F894DEBF0FBECDBF85B7806885BF85B71D
:103D8000806885BF84B7877F84BF0FB6F894A895F5
:103D900080916000886180936000109260000FBE87
:103DA00080E890E00FB6F8948093610090936100F2
:103DB0000FBE81E080930D0186E096E090937F0135
:103DC00080937E010E94EE050E9434030E94D50379
:103DD0008091E20084608093E200789480916A028E
:103DE0008823A1F01091E9001F709091EC00892FB9
:103DF000817090FD80E8182B1092E9008091E80016
:103E000083FD0E94270D1F701093E90082E084BD9E
:103E100093E095BD9AEF97BD80936E000E94040BCE
:103E2000811102C00E945D0CE6E3F2E088E0DF0150
:103E30001D928A95E9F781E08093D50160E080E0EA
:103E40000E94B60561E080E00E94B605EFE8F1E06F
:103E50003197F1F700C0000010E08091D5011817EC
:103E600008F4BDC00FE411E0D8018D918D018F3FA2
:103E700011F00E940806B1E007351B07A9F707E516
:103E800011E0F80181918F018F3F11F00E94080627
:103E9000F1E00F351F07A9F788E0ECEDF1E0DF0155
:103EA000282F1D922A95E9F7ECEBF1E0DF011D9236
:103EB0008A95E9F790E080E00E946E26853E9E4F4D
:103EC00021F40E94040B811163C065EE7EEF90E047
:103ED00080E00E94A22660E082E090E00E948426BA
:103EE00081E08093C40161E083E090E00E94842639
:103EF00060E074E184E090E00E94A22660E086E049
:103F000090E00E94842660E087E090E00E94842692
:103F100040E050E0BA0188E090E00E94962660E020
:103F200083E290E00E94842660E08CE090E00E94B2
:103F3000842660E08DE090E00E94842619821A8237
:103F40001B821C821D821E821F82188648E050E060
:103F500067E170E0CE0101960E94742640E050E0D7
:103F6000BA018FE190E00E94962680E00E94B40A98
:103F70000E945D0C40E050E0BA018FE090E00E94AA
:103F8000962640E050E0BA0183E190E00E94962638
:103F900082E090E00E9466268093C80184E090E071
:103FA0000E946E269093C7018093C6010E946E1CEA
:103FB000EFEFF6E721E0E150F0402040E1F700C0EC
:103FC00000000E946E1C8091DC0180FF1AC06FEF20
:103FD0007FEF90E080E00E94A2260E948F0460E0C4
:103FE000812F0E94A905082F61E0812F0E94A90559
:103FF000E12FF0E0EC52FE4F880F802B80831F5F93
:104000002CCF83E090E00E9466260E944B0980E05E
:1040100091E090935702809356028CED91E038E046
:10402000380F3BAB33243394222423948E010F5F4B
:104030001F4F80916A02E0E4FE2EF0E1EF2EA2E134
:10404000DA2E853009F479C00E946E1C69ECE62EE8
:1040500061E0F62E7CEDC72E71E0D72ED601F70178
:1040600091918D9121E0E13DF20709F470C098171C
:10407000B9F3B12CD601AD906D01F70171907F01BC
:104080007A1419F17A24912C88248394872D88211D
:10409000A1F09BA6BCA60E94AC049EA78DA72FA64C
:1040A00091E08A2D882109F490E098AB4BA55CA59E
:1040B0006DA57EA58FA50E94371A9394880CF8E011
:1040C0009F12E4CFF7013197A082B39428E0B21297
:1040D000D1CF0E94A0043FC080916A02843019F1C0
:1040E00010925A0288E190E00FB6F894A895809358
:1040F00060000FBEF092600083B7817F846083BF51
:1041000083B7816083BF7894889583B78E7F83BFA0
:104110000FB6F894A8958091600088618093600044
:10412000109260000FBE0E946E1CECEDF1E08191D8
:104130008111DFC39BA99E13FACF80916A0285305B
:1041400009F4CACF0E94000D0E941F057DCF98136D
:1041500090CF0E944A1CE0905202F0905302E1146A
:10416000F10431F1C090D101D090D2010E94AC0491
:104170008C199D096C01C7010E94810C8C159D054D
:10418000B8F42091520230915302C90199272C7F33
:104190003327232BE9F454E0880F991F5A95E1F750
:1041A0008A509E4FDC0115962C9122FF0E942B1005
:1041B0008091D601882351F01092D6018091380267
:1041C000809339028091360280933702D12C3FC010
:1041D00090E080E0E7CF61E08D2D0E94A905F82EE8
:1041E00060E08D2D0E94A905EF2DEE0FE82B2D2DFF
:1041F00030E0D901AC52BE4F9C91892F8370E817F3
:1042000029F1990F990FE92BEC93EF70F0E0E15A47
:10421000FE4FC9018D529E4F7C018081D701CC9009
:10422000C80ECC92B3E060E0BC1524F0EDEFCE16E2
:1042300024F461E08D2D0E94C9058C2DCC0C990BC6
:1042400064E070E00E94CD25D7018C93D3948091D7
:10425000D501D81608F4BFCF90E0809139022091A3
:104260003802281709F465C3E82FF0E0E65CFD4F3B
:1042700090818F5F837080933902809137028F5FC6
:10428000809337026AE070E089EA97FD03C06AE034
:1042900070E08AEA0E94101191E0DFCF309249026B
:1042A000A8C330924A02ADC330924B02EDC33092A4
:1042B0004C02F2C38091F100F70181937F01F1E09C
:1042C000CF1AD10809F431C48091E80085FDF2CFFE
:1042D0008091E8008B778093E8000E945303882345
:1042E00099F323C48C3009F4D2C068F5843009F402
:1042F000B5C058F4823009F46BC008F0A0C081301A
:1043000009F462C08FEF898374C0863009F4BCC0A1
:1043100008F4AFC08B30B1F780913E0290913F021C
:10432000892B09F466C040E250E0B80182E00E94A7
:10433000570A3FEF81EE94E0315080409040E1F722
:1043400000C000004ACE803109F4D2C088F58E301A
:1043500009F4A4C008F49EC080913E0290913F02EF
:10436000892B09F446C0EC80F12C3DE1E316F10401
:1043700008F03FC0CA80DB80DC24CD24DC24580157
:10438000E00EF11EC60184529E4FAE14BF0489F1A7
:10439000A4E2CA16A2E0DA0620F4F50164810E94C4
:1043A0008426FFEFAF1ABF0A2FEFC21AD20AEACF54
:1043B000823109F4A2C008F49EC0833109F4C6C05A
:1043C0008E3F09F09FCFCDC31A8289E08B8311C045
:1043D0008A81823009F4CEC3833091F0813009F0B4
:1043E00091CF0E94A0040E94E7256B837C838D837C
:1043F0009E8340E250E0B80182E00E94570A19CE45
:1044000080913E0290913F02892B99F38091DC01CB
:104410008B838091DD018C838091DE018D8380917F
:10442000DF018E838091E0018F838091E101888795
:104430008091E20189878091E3018A87DACF8A81BE
:10444000823009F05FCF6B817C818D819E810E94DB
:10445000E72587E290E00E948426CBCF4C816B81D8
:104460008A810E941C0B9827892798279E838D8319
:10447000C0CF2D813E813227232732274C816B818B
:104480008A810E94DD0AB5CF0E94F30BB2CF80E192
:104490008A83AFCF82E08A8384E298CFEC80F12CCC
:1044A0002DE1E216F10408F0A4CFCA80DB80DC2401
:1044B000CD24DC245801E00EF11EC60184529E4F2B
:1044C000EA14FB0409F495CF34E2C31632E0D306B4
:1044D00060F40E946626D50114968C93FFEFCF1AE4
:1044E000DF0A2FEFA21AB20AE8CFF5011482F6CF45
:1044F0000E94CD0A7ECF83E0CBCFEC80F12C3DE152
:10450000E316F10408F075CFCA80DB80DC24CD24EB
:10451000DC245801E00EF11EC6018896AE14BF04DB
:1045200009F467CFA0E8CA16A1E0DA0658F40E94A1
:104530006626F5018483BFEFCB1ADB0AEFEFAE1AD4
:10454000BE0AEACFD50114961C92F5CFCC80D12CAF
:10455000FDE1CF16D10408F04CCFEA80FB80FE24A9
:10456000EF24FE2420E8E21621E0F20608F041CF15
:1045700080E891E08E199F098C159D0508F439CFCC
:10458000370138E2630E711C80913E0290913F0228
:1045900027014C0C5D1C892BB9F5570181E0A8223D
:1045A000BB24E0FE0DC0C70187960E9466269D8150
:1045B00089279827892781159C4711F48FEF8D83D0
:1045C000460140FE1AC0B1E08B1A9108E5E0F0E028
:1045D000EC0FFD1FE80DF91DFAABE9ABC3018C0D23
:1045E0009D1D0E946626A9A9BAA99C9181159C4788
:1045F00021F48FEFE9A9FAA98083F801EA0DFB1DE8
:104600002FEFA814B90410F068011BC094818581B4
:1046100081159C4711F42483258382E0A80EB11CE8
:104620003296EFCFA0E8EA16A1E0FA0620F4F601F0
:1046300064810E948426FFEFCF1ADF0A2FEFE21A6F
:10464000F20AC7018896E414F50461F7D2CE88E037
:10465000EEE0F1E0DE01919601900D928A95E1F78E
:1046600080E2D8011D928A95E9F786E0898388E087
:10467000FE01B196DE01159601900D928A95E1F743
:10468000B8CE84E789833A821B821C82B2CE8C81A9
:10469000682F70E0762F66278B81860F972F911DEC
:1046A000092E000CAA0BBB0B35E0880F991FAA1F1F
:1046B000BB1F3A95D1F7AC01BD01405E5F4F6F4F14
:1046C0007F4F481759076A077B0708F492CE843753
:1046D000E1E09E07A105B10508F08BCE4537F1E07A
:1046E0005F076105710520F044E751E060E070E08C
:1046F000481B590BBC0163577E4FC8010E943926E5
:1047000078CE4AE150E06FEF70E0CE0107960E944C
:104710004F2680913E028983EA821B821C823D8261
:104720003E8267CE81E090E09093E5018093E401C2
:1047300082E390E09093DB018093DA010E94AC0465
:104740009093D9018093D80154CEEF2871F1D09085
:10475000DC01C090DD01E090D801F090D9010E9409
:10476000AC048E199F098536910540F1C1FE26C023
:10477000D0FE24C00E94AC049093D9018093D8014C
:104780008091DA019091DB0101979093DB01809396
:10479000DA01892B51F41092E5011092E40181E0D5
:1047A00090E090933F0280933E0280913E02898385
:1047B0008091E4018A838091DA0108CE82E390E05F
:1047C0009093DB018093DA01F0CF10923F021092B8
:1047D0003E020FCE40E250E06FEF70E0C8010E9451
:1047E0004F2607CE8B81813009F46BC0882309F4F2
:1047F00061C0823009F0FDCD6C818AE0FE01359602
:10480000DE01919601900D928A95E1F789A19AA116
:1048100081153CE7930741F420913E0230913F021D
:10482000232B11F490E080E09AA389A38BA19CA193
:104830008115ACE79A0741F420913E0230913F0286
:10484000232B11F490E080E09CA38BA38DA19EA16B
:104850008115BCE79B0741F420913E0230913F0255
:10486000232B11F490E080E09EA38DA38FA198A547
:104870008115ECE79E0741F420913E0230913F0202
:10488000232B11F490E080E098A78FA38FEF643082
:1048900068F4FAE06F9FB00111246C547E4F4AE037
:1048A00050E0CE0181960E94A82680E089830E9474
:1048B000EE059FCD80E2D8011D928A95E9F784E04C
:1048C00022CD8C819AE0D92E7E01B1E2EB0EF11C53
:1048D000F7012D2D11922A95E9F7B7010E946D0C71
:1048E0008983F701DE01129601900D92DA94E1F7C7
:1048F00080CD80916902882309F41FCCE9BCD9BC22
:1049000009B400FEFDCF8091D8008F7D8093D80040
:104910008091E00082608093E0008091E00081FD62
:10492000FCCF0E94000D09CC822B892B09F4D1C049
:10493000CEC091110E94A00486E0E7E4F2E0D80125
:1049400001900D928A95E1F790904802C09049023B
:10495000B0904A02A0904B02D0904C0210924902B3
:1049600010924A0210924B0210924C028C2D8B290D
:1049700009F447C0E0904502F09046020E94AC0462
:104980009C012E193F0990914002992309F400C11E
:1049900025313105B0F19F3F19F09F5F90934002A0
:1049A000CC2059F00E947B059FEF1C140CF491E081
:1049B000899F802D112480934902BB2059F00E94C9
:1049C0007B0591E01B140CF09FEF899F802D112433
:1049D00080934A0280914902882399F0F0904A021C
:1049E000FF2079F00E949B05882309F457CC80931F
:1049F00049028F2D0E949B05882309F452CC809395
:104A00004A028D2D8A2909F447C0E0904302F090B4
:104A100044020E94AC049C012E193F09909141026E
:104A2000992309F4B0C021353105B0F19F3F19F049
:104A30009F5F90934102AA2059F00E9459059FEF71
:104A40001A140CF491E0899F802D112480934B025D
:104A5000DD2059F00E94590591E01D140CF09FEFE4
:104A6000899F802D112480934C0280914B028823D2
:104A700099F0F0904C02FF2079F00E949B0588236A
:104A800009F412CC80934B028F2D0E949B05882342
:104A900009F40DCC80934C0280914802981217C003
:104AA00080914902882311F0C81211C020914A0256
:104AB000222311F0B2120BC090914C02992311F0F5
:104AC000D91205C030914B02332309F42DCF0E9437
:104AD000320586E0F801A7E4B2E001900D928A95D4
:104AE000E1F70E941F059091D701891721F080936B
:104AF000D7010E94A00480916A02843009F099CA0B
:104B000083E08093E9008091E80082FF92CA80915F
:104B1000E80090E085FF0AC00E94530340E2C42EE3
:104B2000D12C7801882309F4CFCB91E08091E80063
:104B30008B778093E800992309F47BCAE090E40125
:104B4000F090E5018981E114F10409F4CBCB8E3FAB
:104B500009F04FCC8A81833020F08550833008F0F3
:104B600048CCEA81EE3008F044CCF0E0EF5FF84D3D
:104B70000C94E12587E290E00E9466261B821C824D
:104B80001D828E8336CC2B30310508F051CF84CF77
:104B90002B30310508F001CF34CF97FB072E16F4E8
:104BA000009407D077FD09D00E94252607FC05D088
:104BB0003EF4909581959F4F0895709561957F4F34
:104BC0000895EE0FFF1F0590F491E02D09946927D9
:104BD0009627692778278727782708952F923F926D
:104BE0004F925F926F927F928F929F92AF92BF92FD
:104BF000CF92DF92EF92FF920F931F93CF93DF93A9
:104C0000CDB7DEB7CA1BDB0B0FB6F894DEBF0FBE05
:104C1000CDBF09942A88398848885F846E847D8452
:104C20008C849B84AA84B984C884DF80EE80FD8054
:104C30000C811B81AA81B981CE0FD11D0FB6F894CA
:104C4000DEBF0FBECDBFED010895AA1BBB1B51E116
:104C500007C0AA1FBB1FA617B70710F0A61BB70BEC
:104C6000881F991F5A95A9F780959095BC01CD0191
:104C70000895FB01DC0102C005900D9241505040A7
:104C8000D8F70895FB01DC0104C08D9101908019D3
:104C900021F441505040C8F7881B990B0895DC015E
:104CA00001C06D9341505040E0F70895DC01CB0105
:104CB000FC01F999FECF06C0F2BDE1BDF89A31962C
:104CC00000B40D9241505040B8F70895F999FECFC5
:104CD00092BD81BDF89A992780B50895A8E1B0E00A
:104CE00042E050E00C945826DC01A40FB51F41505F
:104CF000504048F0CB01840F951F2E910E948526CD
:104D000041505040D0F70895262FF999FECF92BD1B
:104D100081BDF89A019700B4021639F01FBA20BD80
:104D20000FB6F894FA9AF99A0FBE08950396272FB2
:104D30000E9485260E948426252F0E948526242FE6
:104D40000C9485260196272F0E9485260C94842694
:104D5000DC01CB0103C02D910E94B326415050408D
:104D6000D0F70895262FF999FECF1FBA92BD81BDC5
:104D700020BD0FB6F894FA9AF99A0FBE01960895DD
:104D8000F894FFCF0C0E340E870E340E870E670E8C
:104D9000990E870EA10FAE0FA3141815AB1475143E
:104DA0007914AF147D14B314BF14891411158D1424
:104DB000C3149114C714EF149514CB14F6149B1458
:104DC000D114D9148114B7148514BB149F14D514AD
:104DD000E514FF140F156F14A7141F154B1451146D
:104DE0002914451457145D146314D115D1150516F3
:104DF0000516A416BE162C162C16C3162E173D1714
:104E00003D17272341234723F921F92181239223A9
:0E4E1000A523E523EA23F921F921F921F22354
:104E1E00B804A00A8E04990A920A000001004957AC
:104E2E00BD3DC0A4F03E818283E200E900EA00B5F8
:104E3E0000B600B700CD008301CC008A0192019428
:104E4E00012102230224022502260227022A02B38E
:104E5E0000B4006F0070009F01CB019F02A002F40E
:104E6E00F5F6F7313332369190946697C6343500A5
:104E7E00FF0100010000FFFF0000010001FF0044E0
:0E4E8E00227B49012701AC009304AC04CC0444
:00000001FF
