:100000000C9490010C94AD010C94AD010C94AD01D5
:100010000C94AD010C94AD010C94AD010C94AD01A8
:100020000C94AD010C94AD010C94D8180C94AC193F
:100030000C940D140C94AD010C94AD010C94AD0115
:100040000C94AD010C94AD010C94AD010C94AD0178
:100050000C94AD010C9494140C94AD010C94AD016E
:100060000C94AD010C94AD010C94AD010C94AD0158
:100070000C94AD010C94AD010C94AD010C94AD0148
:100080000C94AD010C94AD010C94AD010C94AD0138
:100090000C94AD010C94AD010C94AD010C94AD0128
:1000A0000C94AD010C94AD010C94AD012900140029
:1000B0001A000800150017001C0018002B0004008F
:1000C0001600070009000A000B000D00E1001D00EA
:1000D0001B0006001900050011001000A800E00038
:1000E000E200E30021522C002C0022520C001200EE
:1000F00013002A000E000F003300340036003700D2
:10010000380028005000510052004F00000000004D
:1001100000000000000000000000000000000000DF
:1001200000000000000000000000000035021E0278
:100130001F02200221022202230224024C003A0064
:100140003B003C003D003E003F002D02010040000E
:10015000410042004300440045003202010001001A
:10016000010001000100010001000100250226023A
:1001700027024C002E022F023002310264024A0094
:100180004D000100AB00AA00A900AE000000000075
:10019000000000000000000000000000000000005F
:1001A00000000000000000000000000035001E00FC
:1001B0001F00200021002200230024004C003A00F0
:1001C0003B003C003D003E003F002D000100400090
:1001D000410042004300440045003200010001009C
:1001E00001000100010001000100010025002600BE
:1001F00027004C002E002F003000310064004B001F
:100200004E000100AB00AA00A900AE0000000000F3
:1002100000000000000000000000000000000000DE
:100220000000000000000000000000001603430072
:10023000590041004F0020004F0072007400680018
:100240006F00000012035300540048004C004D00A2
:1002500020006B00620000000403090409023B0057
:10026000020100A0FA0904000001030101000921B4
:10027000110100012244000705810308000109045F
:1002800001000103000000092111010001223200D8
:100290000705820320000112010002000000088906
:1002A00080565600010102000105010980A1018567
:1002B0000319012AB700150126B7009501751081B1
:1002C00000C0050C0901A101850419012AA002152D
:1002D0000126A002950175108100C005010906A143
:1002E00001050719E029E715002501950875018129
:1002F000029501750881010507190029FF150026DF
:10030000FF009506750881000508190129051500EB
:100310002501950575019102950175039101C000B4
:1003200011241FBECFEFDAE0DEBFCDBF11E0A0E0A9
:10033000B1E0E2ECF8E302C005900D92A03AB107FB
:10034000D9F722E0A0EAB1E001C01D92A937B207B7
:10035000E1F70E94AF100C94201C0C940000CF9386
:10036000DF93D62F0E94C810C82F882341F06AE07F
:1003700070E0DD2341F08AEA0E94AE03CD2F8C2F7E
:10038000DF91CF91089589EA0E94AE03F8CF8330C0
:10039000C0F46830B0F44830A0F498E0899FF001D0
:1003A0001124E60FF11D83E0EE0FFF1F8A95E1F7A0
:1003B000E40FF11DEE0FFF1FE455FF4F859194915F
:1003C000089581E090E008950E94C701089581E0BA
:1003D00008950E94E701089581E008950E94E701D1
:1003E00008950E94EE01089508950E94F401089571
:1003F000A6E0B0E0EEEFF1E00C947C1B49835A8359
:100400009E833091A70189819A8131111AC03E8162
:10041000332399F0222389F00E946A07182F682F4E
:1004200089819A810E94470769817A81812F0E9480
:100430003F0E2696E3E00C94981B0E945807182F55
:10044000F3CF0E946A0769817A81F1CFFC01262FE0
:100450004081518162817381848195810E94F8017C
:100460000895CF93DF93EC0161E00E942602BE0164
:100470000E94E901DF91CF910895CF93DF93EC01C2
:1004800060E00E942602BE010E94F501DF91CF913B
:10049000089581E008950E9449020895CF93C82FDE
:1004A0000E941C068C2F0E944B022FEF84E39CE0DD
:1004B000215080409040E1F700C00000CF910895A6
:1004C00081E00E944E020E94B814089580E00E94CC
:1004D0004E020E94C91408950F931F93CF93DF9388
:1004E0008C0161E00E942602EC01B8010E94F1013A
:1004F000811106C080E0DF91CF911F910F91089587
:10050000B801CE010E94B2128823A1F3B801CE0136
:100510000E947211882371F3B801CE010E94481124
:10052000882341F3F8018581882361F0C330FCE71B
:10053000DF07E9F058F4C115ECE7DE07A9F0C13098
:10054000DC47B9F0C8010E94EC01D5CFCB358CE770
:10055000D807A9F0CC35ECE7DE0771F0CA35DC47E7
:1005600089F70E94810BEECF0E946002C3CF0E94E8
:10057000890B0E946602BECF0E94770BE3CF0E94D8
:10058000850BE0CF0E94EA130E94E90208950E94C1
:10059000ED020E94EF130895089581E008950895F3
:1005A000CF93DF93D82F0E94CD02C82F882319F054
:1005B0008D2F0E94CF028C2FDF91CF910895089547
:1005C000CF93C82F0E94CC028C2F0E94D002CF91D3
:1005D000089580E00E94E00208950E94FB120E94AC
:1005E000E0020895CF930E94FB12C82F8091A201D0
:1005F0008C1779F0C093A2010E9479146093A30133
:100600007093A4018093A5019093A6018C2F0E9462
:10061000E002CF910895ADE0B0E0E1E1F3E00C94A9
:100620007D1B488759876A877B878C879D879111B7
:100630000E94B70A1F8286E0FE013896DE011196FD
:1006400001900D928A95E1F78D8181110DC029816C
:100650003A814B815C816D817E818F810E94010A8C
:100660002D96E2E00C94991BCE0101960E94310276
:100670008111EDCFF5CFFC012481213021F480815F
:1006800091810E949C070895CF93C82F882399F0E9
:100690008CEF8C0F813A88F48C2F0E947213882380
:1006A00029F08C2F0E94B5130E94260B8C2F0E94DC
:1006B000AD130E94260BCF91089580E28C0F8830F5
:1006C00048F4C77081E001C0880FCA95EAF70E941C
:1006D0009A0AEFCFEBE5EC0FE33040F4F0E0ED5B8E
:1006E000FE4F808190E00E941313E5CFC85ACB31B2
:1006F00010F7EC2FF0E0EE0FFF1FE35FFE4F80815D
:1007000091810E943813D7CF882339F19CEF980F3D
:10071000913A28F40E94B5130E94260B089590E2A6
:10072000980F983050F4877091E001C0990F8A9526
:10073000EAF7892F0E94A00AEFCF9BE5980F93302C
:1007400028F490E080E00E9413130895885A8B31BA
:1007500020F490E080E00E94381308951F93CF9317
:10076000DF93182FEB010E944403209739F4812F67
:100770000E948403DF91CF911F9108958FE99FE03C
:100780000197F1F700C000002197EFCF70E060E023
:10079000893311F460E570E00E94AE030895882368
:1007A00021F00E949A0A0E94260B0895882321F0C6
:1007B0000E94A00A0E94260B0895B0E0A0E0E3EE9C
:1007C000F3E00C94761B6C01D62FC72FFC0115812A
:1007D000068102950F700E94900AE82E8823F9F096
:1007E000E12E1123E1F08C2F807F803461F080E2D4
:1007F0008D0F883008F18C2F807E803221F4D2302A
:10080000D8F00023C9F08091570282FF15C082E022
:100810000E944B0B0E94900A91E0E82EE926BC2E24
:10082000B2949FE0B922FBE0FB15B8F1EB2DF0E0AC
:10083000EE5DF34E0C94671BE12CF1CF0C2F0F7083
:10084000C07F11F00295007F112399F0002359F029
:1008500080E28D0F883010F0D11107C0802F0E94E8
:100860009A0A0E94260B8D2F5AC0802F0E94AA0A36
:10087000F8CF8D2F0E948403002379F080E28D0F42
:10088000883010F0D11104C0802F0E94A00A03C04C
:10089000802F0E94B00A0E94260BEB2DE850FF0B20
:1008A000349720F40E94FB120E94E002EE2089F0AF
:1008B0000E948C0A80FD0DC0F60115820E94860AF6
:1008C0000E94A506C6010E94E7050E94860A0E94B2
:1008D000B506CDB7DEB7E9E00C94921B2C2F2F7034
:1008E000F22EC07FC03219F0F29480EFF822DD239F
:1008F00041F0D130D1F1112309F444C00023F1F0CB
:10090000B2CF8091570282FD15C0112359F0FF200C
:1009100029F08F2D0E949A0A0E94260B80E00E94E7
:100920004403BBCF80E00E948403FF2009F4B5CFCD
:100930008F2DABCF112369F0011104C08F2D0E94C0
:10094000CF03ABCF013009F0A8CF8F2D0E94CE0A84
:10095000A4CF0111A2CF8F2D0E94D6038F2D0E940C
:10096000DA0A8F2D0E94BE0A98CF112321F006309B
:1009700008F093CFE3CF053008F08FCF8F2D0E9482
:10098000D6038BCF0023D1F3D93349F43FEF87EE61
:1009900093E0315080409040E1F700C000008D2F7F
:1009A0000E9484037ACF8C2F86958695837069F098
:1009B000813009F072CF8D2F9C2F9370111102C0DE
:1009C00080E090E00E94381368CF8D2F9C2F9370A9
:1009D000111102C080E090E00E9413135ECF8C2FB3
:1009E0008370A1F5111159CF4D2F4295469547704F
:1009F000440F440F2D2F2F7030E0042E02C0220F21
:100A0000331F0A94E2F790E080E0D4FF09C08FE042
:100A100090E002C0880F991F4A95E2F78095909563
:100A2000C695C695C370822B932BC23049F058F4FB
:100A3000C13019F00E94750630CF0E946C062DCF90
:100A40000E947E062ACF0E94690627CF8695112331
:100A500011F08C2F8170882309F41FCF4D2F429500
:100A600046954770440F440F2D2F2F7030E0042E11
:100A700002C0220F331F0A94E2F790E080E0D4FF17
:100A800009C08FE090E002C0880F991F4A95E2F7F5
:100A900080959095C695C695C370822B932BC230D6
:100AA00049F058F4C13019F00E94E006F6CE0E94D9
:100AB000D706F3CE0E94E906F0CE0E948D06EDCE59
:100AC000CF70112329F08C2F0E94A5068D2F37CFD0
:100AD0008D2F0E94D6038C2F0E94B506DECED23F0A
:100AE00041F160F4D03FB9F0D13F81F0112309F416
:100AF00046C00111B8CE8C2F8F711FC0D33F01F1BA
:100B0000D43FA1F78091570282FD24C08C2F8F71B2
:100B1000112311F312C0112341F0053008F0BDCEAE
:100B20008C2F8F710E94C706B8CE063008F0B5CE64
:100B3000F7CF8C2F8F711111CFCF0E94A506ADCEAC
:100B4000112329F08C2F8F710E949906A6CE0E9446
:100B50009406A3CE112349F0CF718C2F0E94A506D5
:100B600063E08C2F0E942D0B98CE81E00E944B0BEE
:100B7000023008F492CE82E00E944B0B8ECE00230E
:100B800059F0D93309F00BCFEFEFF7EE23E0E15046
:100B9000F0402040E1F701CF8C2F8F719DCF0F9354
:100BA0001F93CF93DF93EC01688179818D810E943F
:100BB000A7078C010E94F2060E946806B801CE01C8
:100BC0000E94DD03DF91CF911F910F910895CF9384
:100BD000DF93EC018C81882399F0CE010E946C0296
:100BE000811111C00E94900A882351F08D818823C1
:100BF00039F08091570282FF03C082E00E944B0BC4
:100C0000DF91CF910895CE010E94CF05CE010E94C1
:100C10003D02F6CF90E080E00E94131390E080E068
:100C20000E9438130E94B70A0E94260B08950E9462
:100C3000BD130E940A0608950E94A70A0E94170683
:100C4000089592959F70963091F058F4925F9F703E
:100C5000923058F4803F19F030F4883E30F481E04F
:100C600008959A5FF4CF843FD1F380E00895883EE1
:100C7000B0F3813FD1F7F3CFFC012481222339F077
:100C8000808191810E949C070E942106089580E046
:100C90000895A6E0B0E0EFE4F6E00C947D1B269604
:100CA000E2E00C94991BA7E0B0E0E9E5F6E00C94D3
:100CB0007D1B2796E2E00C94991B08950E945D0627
:100CC00008950E945E069093CB018093CA01089517
:100CD00008950E94610608952091CA013091CB01C8
:100CE000822B932B0E94610608952091CA013091B6
:100CF000CB01822393230E94610608952091CA01AB
:100D00003091CB01822793270E94610608950E94AB
:100D10005D0608950E94870608950E948A069093B2
:100D2000C9018093C801089590E080E00E948D067B
:100D3000089521E030E0A90102C0440F551F8A95B3
:100D4000E2F7CA010E948D06089521E030E002C05A
:100D5000220F331F8A95E2F78091C8019091C90153
:100D6000822B932B0E948D06089521E030E002C073
:100D7000220F331F8A95E2F7209530958091C801A4
:100D80009091C901822393230E948D06089521E04A
:100D900030E002C0220F331F8A95E2F78091C8012C
:100DA0009091C901822793270E948D060895209172
:100DB000C8013091C901822B932B0E948D060895A2
:100DC0002091C8013091C901822393230E948D068E
:100DD00008952091C8013091C901822793270E946C
:100DE0008D0608950895262F277091E001C0990F70
:100DF0002A95EAF723E0769567952A95E1F7660F3D
:100E0000771F660F771FFA01E60FF71F50E040E0EB
:100E1000682F70E08191DF0111979B01042E02C0C1
:100E2000369527950A94E2F72170219528272923E2
:100E300028272C934F5F5F4F4430510559F7089591
:100E4000A82FA77023E0969587952A95E1F7880F3C
:100E5000991F880F991FFB01E80FF91F50E040E030
:100E600080E0219130E00A2E02C0369527950A9441
:100E7000E2F721703327042E01C0220F0A94EAF70B
:100E8000822B4F5F5F4F4430510559F70895262F4D
:100E9000983068F4883058F438E0939FB0011124FA
:100EA000680F711D48EA51E0822F0E94F3060895F1
:100EB000983070F4883060F448E0949F90011124D9
:100EC00068EA71E0820F932F911D0E942007089518
:100ED00080E00895B0E0A0E0E0E7F7E00C94761B36
:100EE0007C010091C8011091C9018091CA019091C3
:100EF000CB01082B192BCFE0D0E0CC24C394D12C0C
:100F0000BC2EC6010C2E02C0880F991F0A94E2F76E
:100F100080239123892B49F4219790F7B12C8B2DB5
:100F2000CDB7DEB7E9E00C94921BB7018C2F0E947D
:100F30004B0E019789F3F3CFCF93DF93EC010E941F
:100F40006A07BE010E944B0EDF91CF9108951F9357
:100F5000CF93DF93EB019091A701992339F0CB0157
:100F60000E949C07DF91CF911F910895882369F01B
:100F7000CB010E946A07182F682FCE010E944707F5
:100F8000BE01812F0E944B0EEDCFCB010E9458076E
:100F9000182FF6CF1F93CF93DF93C091CC0117E0AA
:100FA0008091CD018C1304C0DF91CF911F910895E2
:100FB000D0E01C9FF0011D9FF00D1124E253FE4F65
:100FC00020813181428153816481758186810E94B3
:100FD00053062196C770E4CF209106023091070294
:100FE000409108025091090260910A0270910B022F
:100FF00080910C020E9453060895CF93DF93809155
:101000000C02807F09F04DC080910B02882309F407
:1010100048C0E091CC015091CD01C0910702D09120
:101020000602609108027091090247E05E17C9F15B
:101030008E2F90E0E49FF0011124E253FE4F2481B3
:10104000222391F1489FF001499FF00D1124DF0107
:10105000A253BE4F11962C9111972C1325C02C91A1
:101060002D1322C015962C91159721111DC0129693
:101070002D913C91261B370B283C3105A8F480911B
:101080000C028F70806180930C02EC52FE4F8081C5
:101090008F708061808386E092E00E94E7050E9465
:1010A000CA07DF91CF910895FC013196E770BECF5A
:1010B000482F2091CC019091CD0157E0291302C017
:1010C00080E0089530E0529FF001539FF00D11240D
:1010D000E253FE4F8181681306C08081481303C02C
:1010E00085818111EECF2F5F3F4F2770E7CFA4E1BD
:1010F000B0E0EDE7F8E00C94731B8C0186E0F8019A
:10110000DE011F9601900D928A95E1F7F801848126
:10111000E58096E0A92E92E0B92E90910A029111F5
:101120001FC08823D1F0EE20A9F0C8010E943C0620
:10113000F82E882379F087E0F801D50101900D920F
:101140008A95E1F7C5010E943B030E94FD070E94BA
:10115000EC075FC0C8010E94E705FF24F39459C063
:10116000C080D18082809380F0900B022091080291
:1011700030910902A401421B530BFF2009F4F9C06E
:10118000483C510508F0A7C0882309F442C090915B
:10119000070280910C02282F207F09F05CC09D116E
:1011A00016C090910602C91212C0E1104EC08F7095
:1011B000806180930C020E94EC0786E092E00E941E
:1011C000E70580910C02F8018683F12C22C0E11022
:1011D0003CC06D2D8C2D0E9458086D2D8C2D0E94C9
:1011E0005808E82E8111F1CFCF86D88A8F8598894B
:1011F0000E949C07292F22952F70243078F49F702D
:101200002230A8F09923B9F0F8019681907F99F4E3
:10121000FE2C8F2D6496ECE00C948F1B2A5F2F70B0
:10122000223068F0C8010E94E705EF2CF1CF992326
:1012300011F0882369F3805E883050F3F3CF803F4C
:1012400038F3815F833070F7E3CF80910C028160C7
:1012500080930C02BACF9D1113C090910602C9125F
:101260000FC0E1100DC08683C8010E94E70587E02A
:10127000F801A6E0B2E001900D928A95E1F767CF00
:10128000C8010E943C06882309F464CFEE2009F4CB
:1012900061CF80910C02803288F02091060230915B
:1012A0000702398728879B868A8690910A029C8745
:1012B0001D868E87CE0108960E94E70587E0F8011B
:1012C000A6E0B2E001900D928A95E1F70E94FD0739
:1012D0000E94EC0742CF90910C02292F207FA1F4AD
:1012E000682D9A8A898AA6017A899E2D0E944906CC
:1012F00086E092E00E94E70587E0F50111928A9569
:10130000E9F70E94EC0761CF882309F482CF80912E
:1013100007028D1110C080910602C8120CC0E110A6
:101320000AC09683C8010E94E70587E0F501119283
:101330008A95E9F76ECFC8010E943C06882309F41C
:1013400009CFEE2009F406CF80910C02803208F418
:10135000B5CF20910602309107023A8329839C82FF
:101360008B8290910A029D831E828F83CE0101960B
:10137000A3CF483C5105B8F5882309F4EECEFE2CE6
:10138000EE2009F4E7CE809107028D111EC08091F6
:101390000602C8121AC080910C0280FD0DC0982F61
:1013A000907F51F08683903F09F45ECF982F907F15
:1013B000905F8F70892B57CF87E0F801A6E0B2E0ED
:1013C00001900D928A95E1F724CFC8010E943C0656
:1013D000811174CF80910C02816080930C02C8014E
:1013E0000E94E70516CF682D9A8A898AA6017A8914
:1013F0009E2D0E94490687E0F50111928A95E9F732
:10140000A6CEAEE0B0E0E7E0FAE00C947C1B2887C3
:1014100039874A875B876C877D878E87CE010896E0
:101420000E9477088823B1F06C85662341F02885F7
:1014300039854A855B857D858E850E94530617E038
:101440008091CC019091CD0189133DC02E96E3E0AF
:101450000C94981B87E0FE013896DE0111960190EE
:101460000D928A95E1F78C85882349F32091CD016F
:1014700030E0C9010196877099274091CC01481747
:10148000190699F097E0929FD001939FB00D112417
:10149000A253BE4FFE01319601900D929A95E1F74D
:1014A0008093CD010E94CA07CACF0E941C061092E9
:1014B000CD011092CC0187E0E6E0F2E0DF011D9261
:1014C0008A95E9F7BCCF819FC001112482539E4FBA
:1014D0000E947708882309F4B9CFE091CC011E9FC0
:1014E000F0011124E253FE4F20813181428153816A
:1014F0006481758186810E9453068091CC0190E0C1
:101500000196877099278093CC019ACF809115021C
:101510008695869586950895809115028770089521
:1015200090911502977081E009F480E00895809110
:101530002102089590912102892B80932102089520
:101540008095909121029823909321020895109202
:101550002102089590912002892B80932002089502
:1015600080959091200298239093200208951092E4
:101570002002089508950E94BA0A089590911602D3
:10158000292F282331F080958923809316020E9409
:10159000BB0A089508950E94CA0A089590911702FF
:1015A000292F2823281729F0982B909317020E949F
:1015B000CB0A089590911702292F282331F08095A6
:1015C0008923809317020E94CB0A08958091170205
:1015D000882329F01092170280E00E94CB0A089518
:1015E0000F931F93CF93DF9300910001109101019E
:1015F000C091210280912002C82B8091170288237C
:1016000031F0C82B0E945D1381110E94E60AF80197
:10161000C083C0910001D091010148E050E06DE02D
:1016200072E0CE010E94B81B892B59F088E0FE01C0
:10163000ADE0B2E001900D928A95E1F7CE010E94F3
:101640000813DF91CF911F910F9108950E94F00A26
:10165000089508950E94290B08959091570292FFD2
:1016600011C098E0899F90011124622B60931502AC
:101670000E94A506809115028695869586950E9402
:101680002A0B08950E94A50608951092150280E085
:101690000E942A0B089590911502809589238093CA
:1016A0001502282F277069F4891759F09091570275
:1016B00092FF07C08695869586950E94B5060E9482
:1016C000450B08959091570292FB222720F9281785
:1016D00069F080FB92F990935702809156029091A5
:1016E00057020E94AA0B82E00E944B0B0895809142
:1016F000570282FB882780F991E089270E94620BBC
:10170000089581E00E94620B089580E00E94620BC0
:1017100008956FEF7FEF90E080E00E940A1C08952B
:1017200090E080E00E94D61B21E0863E9E4F09F0AB
:1017300020E0822F089582E090E00E94CE1B089561
:1017400083E090E00E94CE1B089584E090E00E9428
:10175000D61B0895BC0184E090E00E940A1C089505
:10176000AB01BC018FE090E00E94FE1B0895AB012D
:10177000BC0183E190E00E94FE1B089560E070E0F0
:10178000CB010E94B70B089560E070E0CB010E948E
:10179000B00B0E94BE0B0895A8E0B0E0E2EDFBE0C4
:1017A0000C947D1B66EE7EEF90E080E00E940A1CA8
:1017B00060E082E090E00E94EC1B81E090E090937A
:1017C000CB018093CA0161E083E090E00E94EC1BB2
:1017D00060E074E184E090E00E940A1C60E086E032
:1017E00090E00E94EC1B6FEF87E090E00E94EC1B02
:1017F00040E050E0BA0188E090E00E94FE1B60E00B
:1018000084E290E00E94EC1B60E087E190E00E949F
:10181000EC1B60E08CE090E00E94EC1B60E08DE04F
:1018200090E00E94EC1B19821A821B821C821D828E
:101830001E821F82188648E050E068E170E0CE0109
:1018400001960E94DC1B40E050E0BA0180E290E08B
:101850000E94FE1B0E94C40B2896E2E00C94991B88
:101860000E94CC0B0895682F8EE090E00E94EC1B44
:101870000895A6E0B0E0EFE3FCE00C947B1B0E942F
:101880006D148C01809122029091230280179107A0
:1018900081F019821A820E946D14682F49815A8141
:1018A000792F80E090E00E940B03109323020093B5
:1018B00022022696E4E00C94971B0E947914609310
:1018C000340270933502809336029093370260930E
:1018D0003002709331028093320290933302089564
:1018E0000E9479146093340270933502809336021B
:1018F0009093370260932C0270932D0280932E02F6
:1019000090932F020895089508950E94830C0895DE
:1019100008950E94880C089581E49FE00E94BC1005
:101920000E94840C0E94850C089581E008950E9415
:10193000950C08950E94950C0895089508950E94AD
:101940009D0C0E949E0C08950E94440F0E94DF028D
:1019500008950E9464140E94CA100E9412100E94EE
:10196000A40C0E94890C0895A6E0B0E0EAEBFCE02C
:101970000C94741B0E94970C81110DC00E94390CAD
:101980000E94E91081110E94700C0E94F2022696BA
:10199000EBE00C94901B0E94281084E2A82E82E0B9
:1019A000B82E750110E0F70101917F01812F0E948F
:1019B0006A0F1F5F183009F441C00817A1F3809126
:1019C000380281FD0E94700F0E949A0CC82E10E010
:1019D00099249394812F0E946A0F082FF501819119
:1019E0005F01081729F1D02ED826F12CEE24E394BC
:1019F0008D2D8E21A9F0CC2099F0F9821A830E94B6
:101A00006D149C838B839D8291E0802F8E2109F43D
:101A100090E049815A816B817C818D810E940B030A
:101A2000F394EE0CF8E0FF12E3CFF5013197008359
:101A30001F5F183079F60E945D0CA2CF0813BFCF4C
:101A40009DCF1F93CF93DF930E94500EEC01C115E1
:101A500080E5D807F0F5C11580E4D80708F09CC0F0
:101A6000C03ED10520F5CD3CD10508F082C0C83A72
:101A7000D10578F4C53AD10508F073C0C130D1055D
:101A800019F1209709F1C430D105F0F4D0E0C0E09D
:101A90001BC0C33CD105D0F7C85AD0E0CC0FDD1F26
:101AA000CA5BDE4F0990D881C02DD4640DC0C1152A
:101AB00080E2D80708F0D1C0C11581E0D80708F04E
:101AC0005AC0C83ED10510F7CE01DF91CF911F91CA
:101AD0000895C03682E5D80718F5C03482E5D807E6
:101AE00008F06BC0C03282E5D80708F05FC0C115AE
:101AF00082E5D80708F497C02C2F2695269580E21A
:101B0000289F900111248C2F8370C1E0D0E002C087
:101B1000CC0FDD1F8A95E2F7C22BD32BDD68D4CF23
:101B2000C03A82E5D80760F4C03882E5D80708F4E7
:101B300059C0CF71D0E0DC2FCC27C46FD06AC4CF9E
:101B4000C03C82E5D80708F462C0C03E82E5D807F1
:101B500008F09CCFDC2FCC27CC27DF71C06FD06A78
:101B6000B3CFC55AD0E0C458DE4FC881D0E0D064AE
:101B7000ABCFD065A9CF8D2F0E94F20E182FCE01CA
:101B800099270E94500EC12FD0E0DC2FCC27CC2704
:101B9000DF71C82BD92B98CFCE0199270E94500E08
:101BA000CC27DF70C82BD92BD06A8ECFCF71D0E075
:101BB000DC2FCC27C16FD06A87CF2C2F2695269596
:101BC000277080E2289F900111248C2F8370C1E040
:101BD000D0E002C0CC0FDD1F8A95E2F7C22BD32BD9
:101BE000DC6872CF2C2F26952695277080E2289FDF
:101BF000900111248C2F8370C1E0D0E002C0CC0F83
:101C0000DD1F8A95E2F7C22BD32BDA685DCF8C2FCC
:101C10008F710E94F20EC82FD0E0DC2FCC27CC278A
:101C2000DF71D06251CF8C2F8F710E94F20E55E080
:101C3000D695C7955A95E1F7CF70D0E0DC2FCC2729
:101C4000282F30E084FF05C044E0220F331F4A955F
:101C5000E1F7C22BD32BD06937CF8D2F8F710E9424
:101C6000F20E182FCE0199270E94500EC12FD0E0FE
:101C7000DC2FCC27CC27DF71C82BD92BD2CF462F16
:101C8000783030F4683020F4672F0E94E401089522
:101C900090E080E008950E943F0E0E94210D08957B
:101CA00082389105B9F1B0F48133910509F47DC012
:101CB00048F48932910509F46DC08A32910509F41E
:101CC0007BC008958533910509F45FC08933910580
:101CD00009F10895833E9105D9F138F4803E9105CC
:101CE00029F1823E910579F10895863E9105D9F159
:101CF000873E910509F43EC0843E910541F520914F
:101D0000570221FF24C08091560284FD19C087EE3E
:101D100090E0089520915602237009F05AC0209156
:101D2000570223FF14C089E290E0089520915602E3
:101D300020FD38C03091570230FF09C024FF43C056
:101D400090E080E008952091560222FDF7CF08959B
:101D50002091560222FD3AC03091570230FD39C021
:101D600024FFF5CFEDCF2091560223FFF0CF24FDC5
:101D7000E7CFCDCF2091560223FD2EC030915702E0
:101D800031FFEECF84EE90E008952091560225FFBA
:101D9000DECFC9CF2091560225FD21C020915702E8
:101DA00023FFD5CF89E390E0D2CF2091560226FFC2
:101DB000CECF8AE290E008952091560226FFC7CF49
:101DC00081E390E0089583EE90E0089582EE90E044
:101DD000089580EE90E0089586EE90E0089585E302
:101DE00090E008959091560292FF10C041E0282F94
:101DF0002471243009F040E031E0282F2871283088
:101E000009F030E0431711F02CE0822793FF10C057
:101E100041E0282F2471243109F040E031E0282FDF
:101E20002871283109F030E0431711F02CE08227A7
:101E30003091570230FF10C051E0282F217121301E
:101E400009F050E041E0282F2871283009F040E0E7
:101E5000541711F029E0822731FF10C041E0282FEC
:101E60002171213109F040E031E0282F287128311B
:101E700009F030E0431711F029E0822794FD877EB6
:101E8000089580E0089508950E94900B811102C08A
:101E90000E94300C0E949B0B809338020E94A50B7D
:101EA00090935702809356020E94430F0E94A00B0A
:101EB00090E00E9469068091C8019091C9010E943A
:101EC0008A06089508950E94620F089508950E9459
:101ED000660F0895E82FF0E0E05AFD4F80810895E5
:101EE000089580EA8A95F1F7089500C008950E9448
:101EF000710F0895F894E82FE295EF70F0E031A1AA
:101F0000282F2F7081E090E001C0880F2A95EAF712
:101F1000982F9095932391A392A1892B82A37894D3
:101F20000895CF93DF93CFE7D1E089918F3F11F0F0
:101F30000E947A0F81E0C738D807B9F7C7E8D1E027
:101F400089918F3F11F00E947A0F81E0CF38D80736
:101F5000B9F7DF91CF910895B0E0A0E0E2EBFFE0A8
:101F60000C94771B7C01162F042FC62FD0E0C1588C
:101F7000DE4F28812F3F09F44CC0F894E22FE29500
:101F8000EF70F0E031A12F7081E090E001C0880F88
:101F90002A95EAF7932F982B91A392A180958923F4
:101FA00082A378940E94750F87E8C82E81E0D82E0E
:101FB000F701A701485F5F4FF12CE02EE094D601B6
:101FC0009D916D0181919F01215031099F3F31F118
:101FD000692F62956F7070E0DB0190966C9170E0F4
:101FE0009F7002C0759567959A95E2F760FD16C0DF
:101FF000802BD9018C93FF24F394E417F507F9F6AD
:1020000088818F3F11F00E947A0F6F2D812F0E94DF
:10201000770FCDB7DEB7E8E00C94931B8E21D90182
:102020008C93EBCF0E94910F88E0E0E6F2E0DF01B5
:10203000982F1D929A95E9F7E8E5F2E0DF011D92ED
:102040008A95E9F788E00E9467100E94630F08955F
:10205000A8E0B0E0EEE2F0E10C94791B8E010F5F96
:102060001F4F88E0F80111928A95E9F7F12CEE24D0
:10207000E3944E2D6F2DC8010E94AC0FF394EE0C2B
:10208000F8E0FF12F6CF48E050E0B80188E592E0B2
:102090000E94B81B21E0009709F420E0892B41F051
:1020A00088E0F801A8E5B2E001900D928A95E1F789
:1020B00048E060E672E088E592E00E946810182F20
:1020C0000E94670F812F2896E6E00C94951B0895D7
:1020D000B0E0A0E0EEE6F0E10C94771B6C017B0130
:1020E000042FC22F222379F081E080933B020E94CB
:1020F0006D1490933A028093390280E0CDB7DEB739
:10210000E8E00C94931BD0913B02DD23B1F3809166
:10211000390290913A020E948514059770F310E0FD
:10212000A801B601C7010E94B81B892B31F0A80194
:10213000B601C7010E94C51BCD2F10923B028C2F08
:10214000DDCF0E9429160E94A90C0E943616089520
:102150000E943B160E94B40C0E94551608950E94DE
:1021600006140E940F160E948C0C0E94A1100E945F
:10217000A8100E949F0CFBCF9093A1018093A00117
:1021800008958FE891E00197F1F700C000000895ED
:1021900081E0089581E080933D0253985B9A5298C4
:1021A0005A9A0E94C11020913D024FE352E0FA0179
:1021B0008E2F841B821708F0089589B183FB88272E
:1021C00080F94A9904C090E0892B8193F1CF92E085
:1021D000FBCFB0E0A0E0EFEEF0E10C94771BF12C28
:1021E000E12C84E0C82ED12C80913D02F81630F00D
:1021F0008E2DCDB7DEB7E8E00C94931B0F2D10E0C9
:10220000E9B1E3FBEE27E0F94A9940C080E08E2B6C
:10221000D801A15CBD4FEC919E2F93709817A1F14E
:10222000EE0FEE0FE82BEC93EF70F0E0E157FE4F6E
:10223000E801C25CDD4F80819881890F888320E0AE
:1022400084305CF0F801E45CFD4F80818F5F808317
:1022500060E08F2D0E94AF0121E088818D3F5CF40A
:10226000F801E45CFD4F80818150808361E08F2D17
:102270000E94AF0121E08881082E000C990BB60165
:102280000E94531B8883E22AF394AECF82E0BFCF33
:10229000CF93DF93EB0186319C4711F50E94970A9B
:1022A0009D81992399F08A7A91E009F490E09093C6
:1022B0004002811109C089E20E94AD130E94260BE1
:1022C00080E0DF91CF91089585E3F6CF80914002C1
:1022D000811104C089E20E94B513F0CF85E3FBCFE2
:1022E00081E0EFCFCF93DF93EC01FB018581882361
:1022F00009F4D2C09E0130572332310508F0B2C034
:102300000E94A50B9093570280935602FE01E15064
:10231000F047E232F10520F4E25DF34E0C94671BC6
:102320008091560281608093560293C0809157023B
:102330008860809357028DC0809156028260F3CFEF
:10234000809156028460EFCF809156028860EBCF77
:10235000809157028160EDCF809157028260E9CF72
:10236000809156028061DFCF809156028062DBCF80
:10237000809156028064D7CF0E941C06809156023D
:102380008068D1CF809156028C60CDCF809157026A
:102390008360CFCF809156028E7FC5CF8091570248
:1023A000877FC7CF809156028D7FBDCF8091560227
:1023B0008B7FB9CF80915602877FB5CF809157022E
:1023C0008E7FB7CF809157028D7FB3CF8091560219
:1023D0008F7EA9CF809156028F7DA5CF8091560226
:1023E0008F7BA1CF0E941C06809156028F779BCFD6
:1023F00080915602837F97CF809157028C7F99CF2F
:102400008091560282FB992790F921E0922790FB58
:1024100082F990FB83F987CF80915702982F90958E
:1024200091708E7F892B90FB81F983CF909156021A
:10243000892F8F7B96FF806476CF0E941C06909137
:102440005602892F97FB87F980586DCF81E00E9453
:10245000330C80915602909157020E94AA0B0E9461
:102460001C0680E0DF91CF91089580E0F0CF90913D
:102470005602892F8F7E94FF806155CF909156022E
:10248000892F8E7F90FF81604ECF90915702892FC8
:10249000877F93FF88604DCF81E0E4CF0F931F9338
:1024A000CF93DF93C42FD22FFC0185818823C9F0FD
:1024B000409343020E946D14909342028093410224
:1024C00080E28C0F883040F4C77081E001C0880F33
:1024D000CA95EAF70E94CF03DF91CF911F910F9128
:1024E000089510914302141332C0809141029091DB
:1024F00042020E948514883C910548F5C0E2CD0F48
:102500001D17B9F080E2810F883040F4177081E028
:1025100001C0880F1A95EAF70E94D603C83048F424
:1025200081E09D2F977001C0880F9A95EAF70E946D
:10253000CF03802F0E94C603C83070F6D77081E0A9
:1025400001C0880FDA95EAF70E94D603C5CF80E272
:102550008C0F883008F6C77081E001C0880FCA95DB
:10256000EAF7F2CF0F93DB0188519C478730910542
:10257000A0F5FC01E05BF34E0C94671B06E221EE34
:1025800041EE6AE17CE7CD010E944E1280E00F919E
:10259000089507E225EE45EE6BE17CE7F4CF06E215
:1025A00021EE40EE68E17CE7EECF07E225EE44EE57
:1025B00069E17CE7E8CF06E221EE42EE6CE17CE7E0
:1025C000E2CF07E225EE46EE6DE17CE7DCCF08E2E4
:1025D00021E045EE6EE17CE7D6CF15968C918823FD
:1025E00019F010924302D3CF81E0D1CF90934902EA
:1025F000809348020895E0914802F0914902309793
:1026000029F00190F081E02D0995089580E008956A
:10261000E0914802F0914902309721F00280F38165
:10262000E02D09950895A3E0B0E0E9E1F3E10C9411
:102630007D1B209146023091470228173907A1F0EF
:102640009093470280934602E0914802F09149023C
:10265000309751F023E029839B838A830084F1859E
:10266000E02DCE01019609952396E2E00C94991B8A
:10267000A3E0B0E0EEE3F3E10C947D1B2091440273
:102680003091450228173907A1F0909345028093B5
:102690004402E0914802F0914902309751F024E061
:1026A00029839B838A830084F185E02DCE010196E6
:1026B00009952396E2E00C94991B409100015091FA
:1026C00001019A012E5F3F4F485F5F4F80E0241762
:1026D000350709F40895F90191919F019923B9F300
:1026E0008F5FF5CF882371F02091000130910101B7
:1026F000F9013296285F3F4F9191981729F0E21720
:10270000F307D1F780E0089581E008959C01FC0172
:1027100032969FEF80E04191461751F09F3F19F4A8
:10272000411101C0982F8F5F8630A9F79F3F09F4B0
:102730000895290F311D97FD3A95F9016283089597
:10274000FC01329608962191261303C0DF011197F0
:102750001C92E817F907B9F70895682F80910001D6
:10276000909101010E9486130895682F80910001C5
:10277000909101010E94A0130895E0910001F09151
:102780000101329686E0DF011D928A95E9F70895EE
:1027900008950E94C8130895811106C081E08093B6
:1027A0004A020E94C913089582E0F9CF83E0809322
:1027B0004A020E94C91308950E94CC13089581E033
:1027C00080934A020E94C91308950E94DF1308955E
:1027D000089508950E94E9130895089508950E94A8
:1027E000E8130895CF930E94ED130E9428100E94D1
:1027F000EE13C0E08C2F0E946A0F811105C0CF5FDD
:10280000C830C1F7CF91089581E0FCCF85B78068CB
:1028100085BF85B7806885BF08951F921FB61F9238
:1028200011248F939F93AF93BF9380914B0281119B
:1028300013C08091680290916902A0916A02B091E0
:102840006B024196A11DB11D8093680290936902AD
:10285000A0936A02B0936B02BF91AF919F918F9149
:102860001F901FBE1F90189580917002843031F127
:102870000E94C20210924B0288E190E020E40FB661
:10288000F894A895809360000FBE2093600083B7F2
:10289000817F846083BF83B7816083BF789488958C
:1028A00083B78E7F83BF0FB6F894A89580916000A0
:1028B000886180936000109260000FBE08950E94AE
:1028C0001C060E94C702089582E084BD93E095BD76
:1028D0009AEF97BD80936E0008952FB7F89480917A
:1028E000680290916902A0916A02B0916B022FBFB9
:1028F00008952FB7F89460916802709169028091F1
:102900006A0290916B022FBF08959C014FB7F89413
:102910008091680290916902A0916A02B0916B0265
:102920004FBF821B930B089578941F921FB61F927E
:1029300011248F939F93AF93BF93809168029091DE
:102940006902A0916A02B0916B020196A11DB11DAE
:102950008093680290936902A0936A02B0936B021D
:10296000BF91AF919F918F911F901FBE1F9018959F
:1029700087E797E7909301088093000888E19AE041
:102980000FB6F894A895809360000FBE90936000F6
:10299000FFCF88E19AE00FB6F894A8958093600085
:1029A0000FBE90936000FFCF809154020895089568
:1029B00008959B01BA01909170029430E9F48F70F0
:1029C0008093E9009FEF8091E800915085FD06C05B
:1029D00085ED8A95F1F700009111F5CF8091E8001F
:1029E00085FF0AC050E040E0C9010E94CC168091EA
:1029F000E8008E778093E800089543E050E0BC0142
:102A000082E00E94D9140895CF93DF93EC0148E04F
:102A100050E0BC0181E00E94D91488E0FE01ACE4E2
:102A2000B2E001900D928A95E1F7DF91CF91089580
:102A300080916F02811109C00E945C180E94B91830
:102A40008091E20084608093E200089510926F020A
:102A500008950E94DF13089560916C0281E0611176
:102A600001C080E00E94D61308959091700281E029
:102A7000943009F080E060916C020E94DC130895AC
:102A800042E061EC81E00E94D81742E261EC82E012
:102A90000E94D8179091700281E0943009F080E094
:102AA00060916C020E94CC13089580917202833071
:102AB00009F461C030F48130D1F1823009F49EC054
:102AC00008958A3009F48AC08B3009F46FC08930C8
:102AD00009F050C080917102813209F04BC08091A1
:102AE000750290917602029708F044C08091E80048
:102AF000877F8093E8008091E80082FF37C0909143
:102B0000F3008091F200029731F48091F10081305E
:102B100011F0863021F48091F1008093540280916D
:102B2000E8008B778093E8000E940C1823C0809106
:102B30007102813AF9F48091E800877F8093E80080
:102B40008091750290917602892B61F468E08CE4A3
:102B500092E070E00E941B178091E8008B778093D1
:102B6000E800089560E090E080E0F3CF809170028B
:102B70008111C1CF089580917102813AD9F7809176
:102B8000750290917602892BA9F78091E800877FE2
:102B90008093E8008091E80080FFFCCF80910C01D9
:102BA0008093F1008091E8008E77BCCF8091710214
:102BB000813201F78091750290917602892BD1F6CE
:102BC0008091E800877F8093E8000E940C18809134
:102BD000730280930C010E941C060895809171027B
:102BE000813241F68091E800877F8093E8000E945F
:102BF0000C1880917402809355020895809171029F
:102C0000813A09F0B7CF8091E800877F8093E80090
:102C10008091E80080FFFCCF80915502C1CF84B73E
:102C2000877F84BF0FB6F894A89580916000886173
:102C300080936000109260000FBE80E890E00FB6B5
:102C4000F89480936100909361000FBE0E94E51399
:102C500008950E945C180E94B918E2EEF0E08081AD
:102C60008460808378940E94381B089582E091E00C
:102C70000E94F612089580917002853031F480919F
:102C80007002853019F00E945F1408950E94341478
:102C900080916E02882399F30E94F213882379F3BE
:102CA0000E94B6160E941C06EACF08959A01409130
:102CB0007702509178020E945E160895492F552799
:102CC0004330510519F168F44130510509F444C00D
:102CD0004230510509F445C090E080E050E040E00A
:102CE00025C04132510549F142325105A9F784E42A
:102CF00090E04BED52E061157105C1F082E390E088
:102D000049EA52E06130710589F0E6CF99278130B8
:102D1000910581F0009729F00297F1F6ECE2F2E0DC
:102D200002C0E8E5F2E0849190E0AF01F90151833F
:102D300040830895E4E4F2E0F6CF89E090E04EE6C7
:102D400052E06115710591F389E090E047E852E0A7
:102D50006130710559F3C0CF82E190E047E952E05C
:102D6000E5CF8BE390E04CE552E0E0CF80E189BD18
:102D700082E189BD09B400FEFDCF8091D8008F7D2E
:102D80008093D8008091E00082608093E000809181
:102D9000E00081FDFCCF0895AF92BF92CF92DF9209
:102DA000FF920F931F93CF93DF936C01EB018A0186
:102DB0000E942B18F82E811123C00115110539F03E
:102DC000F80180819181C81BD90BC80ED91EB12C86
:102DD000A12C2097A9F08091E80085FD22C0809168
:102DE000E8008E778093E80001151105A1F0F80145
:102DF00080819181A80EB91EB182A08285E0F82E53
:102E00008F2DDF91CF911F910F91FF90DF90CF9089
:102E1000BF90AF9008950E942B188823D1F2F82E0E
:102E2000EFCFF60181916F018093F1002197FFEFC1
:102E3000AF1ABF0ACECFFC01809177029091780241
:102E400086179707A0F06115710529F49091E800A5
:102E50009E779093E80090E06115710551F491110F
:102E600008C08091E80082FF34C080E00895BC0172
:102E7000F2CF809170028823C1F18530C1F1809139
:102E8000E80083FD30C08091E80082FDEACF8091A8
:102E9000E80080FFE1CF8091F3002091F200382F0D
:102EA0006115710519F02830310558F091E028308E
:102EB000310509F090E02091E8002E772093E8009A
:102EC000CBCF81918093F100615071092F5F3F4F0B
:102ED000E7CF80917002882341F0853041F08091E6
:102EE000E80083FFBECF81E0089582E0089583E08B
:102EF0000895FC01809177029091780286179707D8
:102F0000A0F06115710529F48091E8008E77809317
:102F1000E80090E06115710551F4911108C08091AD
:102F2000E80082FF35C080E00895BC01F2CF8091B7
:102F300070028823C9F18530C9F18091E80083FDD2
:102F400031C08091E80082FDEACF8091E80080FFE7
:102F5000E1CF8091F3002091F200382F61157105C7
:102F600019F02830310558F091E02830310509F08A
:102F700090E08091E8008E778093E800CBCF849139
:102F80008093F1003196615071092F5F3F4FE6CF7A
:102F900080917002882341F0853041F08091E800F3
:102FA00083FFBDCF81E0089582E0089583E0089516
:102FB000982F973028F08F708093E90081E0089572
:102FC0009093E900242F762F50E0981731F07091FC
:102FD000EC002091ED005091F00021FD02C09F5FB8
:102FE000E8CF3091EB003E7F3093EB003091ED0065
:102FF0003D7F3093ED003091EB0031603093EB007A
:103000007093EC002093ED005093F0002091EE00BF
:1030100027FDE5CF80E008958091710287FF13C0FE
:103020008091E80082FF06C08091E8008B77809352
:10303000E80004C0809170028111F2CF0895809160
:1030400070028823D9F38091E80080FFF8CF809147
:10305000E8008E77ECCF2091E4003091E50095E612
:10306000A9012091EC00822F817020FF06C0809181
:10307000E80080FF06C080E008952091E80022FD6E
:103080001AC080917002882389F0853089F0809180
:10309000EB0085FD0FC02091E4003091E500421760
:1030A0005307F9F29150E1F684E0089582E0089523
:1030B00083E0089581E008950E94CB180E94D31800
:1030C000E0EEF0E0808181608083E8EDF0E08081D7
:1030D0008F77808319BCA7EDB0E08C918E7F8C93A5
:1030E00080818F7E808310926F0208950F931F93CB
:1030F000CF93DF930E94CB180E94D318C8EDD0E085
:1031000088818F77888388818068888388818F7D94
:10311000888319BC1092700210926C0210926E0299
:1031200010926D0200EE10E0F80180818B7F8083A9
:1031300088818160888342E060E080E00E94D81747
:10314000E1EEF0E080818E7F8083E2EEF0E080812E
:1031500081608083808188608083F80180818E7F98
:103160008083888180618883DF91CF911F910F9147
:103170000895E8EDF0E080818F7E8083E7EDF0E058
:1031800080818160808384E082BF81E080936F02D0
:103190000E9476180895E8EDF0E080818E7F8083AC
:1031A0001092E20008951092DA001092E100089562
:1031B0001F920F920FB60F9211242F933F934F93AC
:1031C0005F936F937F938F939F93AF93BF93EF938F
:1031D000FF938091E10082FF0BC08091E20082FFAB
:1031E00007C08091E1008B7F8093E1000E94371B34
:1031F0008091DA0080FF19C08091D80080FF15C04F
:103200008091DA008E7F8093DA008091D90080FF70
:1032100096C080E189BD82E189BD09B400FEFDCF81
:1032200081E0809370020E9418158091E10080FF78
:1032300019C08091E20080FF15C08091E2008E7F6E
:103240008093E2008091E20080618093E2008091AF
:10325000D80080628093D80019BC85E0809370020A
:103260000E942C158091E10084FF2BC08091E20028
:1032700084FF27C080E189BD82E189BD89B5982F8F
:10328000917080FFFBCF8091D8008F7D8093D80014
:103290008091E1008F7E8093E1008091E2008F7E3B
:1032A0008093E2008091E20081608093E20080914F
:1032B0006C02882309F449C084E0809370020E9464
:1032C00035158091E10083FF29C08091E20083FFE2
:1032D00025C08091E100877F8093E10082E08093A8
:1032E000700210926C028091E1008E7F8093E10069
:1032F0008091E2008E7F8093E2008091E200806105
:103300008093E20042E060E080E00E94D817809164
:10331000F00088608093F0000E942915FF91EF91E2
:10332000BF91AF919F918F917F916F915F914F91DD
:103330003F912F910F900FBE0F901F90189519BCC1
:10334000109270020E94261570CF8091E30087FDD5
:1033500093E090937002B3CF1F920F920FB60F922B
:1033600011242F933F934F935F936F937F938F938A
:103370009F93AF93BF93CF93DF93EF93FF93D0913E
:10338000E900DF708091EC00C82FC17080FDC0E8BB
:103390001092E9008091F000877F8093F00078948C
:1033A0000E94F0191092E9008091F00088608093EB
:1033B000F000CD2BCF70C093E900FF91EF91DF912A
:1033C000CF91BF91AF919F918F917F916F915F91BD
:1033D0004F913F912F910F900FBE0F901F90189516
:1033E000AAE2B0E0E6EFF9E10C947C1B81E792E001
:1033F0002091F100FC012193CF01F2E089379F0772
:10340000B9F70E9455158091E80083FF1EC1809195
:103410007102909172029A3008F017C1E92FF0E022
:10342000E95AF34E0C94671B803899F0823809F002
:103430000CC1809175028F70873008F006C18093AF
:10344000E9008091EB0085FB882780F91092E90064
:1034500006C080916D0290916E02911182609091F0
:10346000E800977F9093E8008093F1001092F100BC
:103470008091E8008E77E5C0882309F4D3C08230BC
:1034800009F0E3C0809173028111D6C0809175026A
:103490008F702FEF280F263008F0D7C08093E900F7
:1034A0002091EB0020FFC8C0933031F48091EB00F5
:1034B00080628093EB00C0C09091EB00906190938C
:1034C000EB0021E030E001C0220F8A95EAF720935B
:1034D000EA001092EA008091EB008860EACF811147
:1034E000B4C0109173021F778091E3008078812B24
:1034F0008093E3008091E800877F8093E8000E943A
:103500000C188091E80080FFFCCF8091E300806878
:103510008093E30082E0111183E08093700295C0F4
:103520008058823008F091C08091730290917402AB
:103530008C3D23E09207A1F583E08A838AE28983A8
:103540004FB7F894DE01139620E03EE051E2E32FFE
:10355000F0E050935700E49120FF03C0E295EF7034
:103560003F5FEF708E2F90E0EA30C0F0C7968D93EA
:103570009D932F5F243159F74FBF8091E800877FDB
:103580008093E8006AE270E0CE0101960E941B176A
:103590008091E8008B778093E80057C0C096E7CF12
:1035A0006091750270917602AE014F5F5F4F0E948D
:1035B0005616BC01892B09F448C09091E800977F0A
:1035C0009093E80089819A810E947917E1CF803831
:1035D000E1F58091E800877F8093E80080916C029C
:1035E0008093F10045CF811130C0909173029230E9
:1035F00060F58091E800877F8093E80090936C02EB
:103600000E940C1880916C02882311F084E005C0A0
:103610008091E30087FDFACF81E0809370020E94E1
:10362000401513C080917302813079F481E09330AA
:1036300009F080E080936E021092E9008091E8002A
:10364000877F8093E8000E940C188091E80083FF38
:103650000AC08091E800877F8093E8008091EB00AA
:1036600080628093EB00AA96E3E00C94981B089587
:10367000CF93809170028823A1F0C091E900CF70B0
:103680009091EC00892F817090FD80E8C82B1092FA
:10369000E9008091E80083FD0E94F019CF70C0938B
:1036A000E900CF91089597FB072E16F4009407D0F8
:1036B00077FD09D00E94A41B07FC05D03EF490952D
:1036C00081959F4F0895709561957F4F0895EE0FF6
:1036D000FF1F0590F491E02D09942F923F924F9295
:1036E0005F926F927F928F929F92AF92BF92CF9292
:1036F000DF92EF92FF920F931F93CF93DF93CDB79B
:10370000DEB7CA1BDB0B0FB6F894DEBF0FBECDBF12
:1037100009942A88398848885F846E847D848C84E3
:103720009B84AA84B984C884DF80EE80FD800C81EC
:103730001B81AA81B981CE0FD11D0FB6F894DEBFCF
:103740000FBECDBFED010895AA1BBB1B51E107C001
:10375000AA1FBB1FA617B70710F0A61BB70B881F21
:10376000991F5A95A9F780959095BC01CD010895B0
:10377000FB01DC0104C08D910190801921F44150BE
:103780005040C8F7881B990B0895FB01DC0102C06B
:1037900001900D9241505040D8F70895F999FECF0D
:1037A00092BD81BDF89A992780B50895A8E1B0E04F
:1037B00042E050E00C94121CDC01A40FB51F4150F4
:1037C000504048F0CB01840F951F2E910E94ED1BB5
:1037D00041505040D0F70895262FF999FECF92BD61
:1037E00081BDF89A019700B4021639F01FBA20BDC6
:1037F0000FB6F894FA9AF99A0FBE08950396272FF8
:103800000E94ED1B0E94EC1B252F0E94ED1B242F14
:103810000C94ED1B0196272F0E94ED1B0C94EC1BC2
:10382000DC01CB01FC01F999FECF06C0F2BDE1BD80
:10383000F89A319600B40D9241505040B8F708956F
:10384000F894FFCF1E041E046E046E04D3044D04CE
:103850004D044D04EF0460056F056F05CA113E125B
:10386000D2119C11A011D611A411DA11E611B011D8
:103870003712B411EA11B811EE111612BC11F2117F
:103880001D12C211F8110012A811DE11AC11E211C3
:10389000C611FC110C12261235129611CE114512CA
:1038A000CF12D512BE12C912DB12E112E712141A9E
:1038B0003C1A251B3C1A251B6F1A901A251BE71A68
:0238C000F31AF9
:1038C2001802D4140415D814D714FD1401E200E927
:1038D20000EA00B500B600B700CD008301CC008A33
:1038E20001920194012102230224022502260227C9
:1038F200022A02B300B4006F0070009F01CB019F47
:1039020002A002818283E200E900EA00B500B6006B
:10391200B700CD008301CC008A01920194012102FB
:10392200230224022502260227022A02B300B4003F
:103932006F0070009F01CB019F02A002818283F47D
:10394200F5F6F7313332369190946697C6343500E6
:10395200FF0100010000FFFF0000010001FF000065
:00000001FF
